{
	"src/contracts/CarbonCredit.sol": {
		"CarbonCredit": {
			"abi": [
				{
					"anonymous": false,
					"inputs": [
						{
							"indexed": true,
							"internalType": "address",
							"name": "owner",
							"type": "address"
						},
						{
							"indexed": true,
							"internalType": "address",
							"name": "spender",
							"type": "address"
						},
						{
							"indexed": false,
							"internalType": "uint256",
							"name": "value",
							"type": "uint256"
						}
					],
					"name": "Approval",
					"type": "event"
				},
				{
					"anonymous": false,
					"inputs": [
						{
							"indexed": true,
							"internalType": "address",
							"name": "from",
							"type": "address"
						},
						{
							"indexed": true,
							"internalType": "address",
							"name": "to",
							"type": "address"
						},
						{
							"indexed": false,
							"internalType": "uint256",
							"name": "value",
							"type": "uint256"
						}
					],
					"name": "CarbonCreditTransferred",
					"type": "event"
				},
				{
					"anonymous": false,
					"inputs": [
						{
							"indexed": false,
							"internalType": "uint256",
							"name": "issuanceTime",
							"type": "uint256"
						},
						{
							"indexed": false,
							"internalType": "uint256",
							"name": "amount",
							"type": "uint256"
						},
						{
							"indexed": false,
							"internalType": "string",
							"name": "description",
							"type": "string"
						}
					],
					"name": "CreditIssued",
					"type": "event"
				},
				{
					"anonymous": false,
					"inputs": [
						{
							"indexed": true,
							"internalType": "address",
							"name": "from",
							"type": "address"
						},
						{
							"indexed": true,
							"internalType": "address",
							"name": "to",
							"type": "address"
						},
						{
							"indexed": false,
							"internalType": "uint256",
							"name": "amount",
							"type": "uint256"
						}
					],
					"name": "CreditTransferred",
					"type": "event"
				},
				{
					"anonymous": false,
					"inputs": [
						{
							"indexed": true,
							"internalType": "address",
							"name": "from",
							"type": "address"
						},
						{
							"indexed": true,
							"internalType": "address",
							"name": "to",
							"type": "address"
						},
						{
							"indexed": false,
							"internalType": "uint256",
							"name": "value",
							"type": "uint256"
						}
					],
					"name": "Transfer",
					"type": "event"
				},
				{
					"inputs": [
						{
							"internalType": "address",
							"name": "",
							"type": "address"
						},
						{
							"internalType": "address",
							"name": "",
							"type": "address"
						}
					],
					"name": "allowance",
					"outputs": [
						{
							"internalType": "uint256",
							"name": "",
							"type": "uint256"
						}
					],
					"stateMutability": "view",
					"type": "function"
				},
				{
					"inputs": [
						{
							"internalType": "address",
							"name": "spender",
							"type": "address"
						},
						{
							"internalType": "uint256",
							"name": "value",
							"type": "uint256"
						}
					],
					"name": "approve",
					"outputs": [
						{
							"internalType": "bool",
							"name": "success",
							"type": "bool"
						}
					],
					"stateMutability": "nonpayable",
					"type": "function"
				},
				{
					"inputs": [
						{
							"internalType": "address",
							"name": "",
							"type": "address"
						}
					],
					"name": "balanceOf",
					"outputs": [
						{
							"internalType": "uint256",
							"name": "",
							"type": "uint256"
						}
					],
					"stateMutability": "view",
					"type": "function"
				},
				{
					"inputs": [
						{
							"internalType": "address",
							"name": "",
							"type": "address"
						}
					],
					"name": "carbonCredits",
					"outputs": [
						{
							"internalType": "uint256",
							"name": "",
							"type": "uint256"
						}
					],
					"stateMutability": "view",
					"type": "function"
				},
				{
					"inputs": [
						{
							"internalType": "uint256",
							"name": "",
							"type": "uint256"
						}
					],
					"name": "creditTransactions",
					"outputs": [
						{
							"internalType": "address",
							"name": "from",
							"type": "address"
						},
						{
							"internalType": "address",
							"name": "to",
							"type": "address"
						},
						{
							"internalType": "uint256",
							"name": "amount",
							"type": "uint256"
						},
						{
							"internalType": "uint256",
							"name": "timestamp",
							"type": "uint256"
						}
					],
					"stateMutability": "view",
					"type": "function"
				},
				{
					"inputs": [
						{
							"internalType": "uint256",
							"name": "",
							"type": "uint256"
						}
					],
					"name": "credits",
					"outputs": [
						{
							"internalType": "uint256",
							"name": "issuanceTime",
							"type": "uint256"
						},
						{
							"internalType": "uint256",
							"name": "amount",
							"type": "uint256"
						},
						{
							"internalType": "string",
							"name": "description",
							"type": "string"
						}
					],
					"stateMutability": "view",
					"type": "function"
				},
				{
					"inputs": [
						{
							"internalType": "address",
							"name": "account",
							"type": "address"
						}
					],
					"name": "getCarbonCredits",
					"outputs": [
						{
							"internalType": "uint256",
							"name": "",
							"type": "uint256"
						}
					],
					"stateMutability": "view",
					"type": "function"
				},
				{
					"inputs": [
						{
							"internalType": "address",
							"name": "to",
							"type": "address"
						},
						{
							"internalType": "uint256",
							"name": "value",
							"type": "uint256"
						}
					],
					"name": "transfer",
					"outputs": [
						{
							"internalType": "bool",
							"name": "success",
							"type": "bool"
						}
					],
					"stateMutability": "nonpayable",
					"type": "function"
				},
				{
					"inputs": [
						{
							"internalType": "address",
							"name": "to",
							"type": "address"
						},
						{
							"internalType": "uint256",
							"name": "value",
							"type": "uint256"
						}
					],
					"name": "transferCarbonCredits",
					"outputs": [
						{
							"internalType": "bool",
							"name": "success",
							"type": "bool"
						}
					],
					"stateMutability": "nonpayable",
					"type": "function"
				},
				{
					"inputs": [
						{
							"internalType": "address",
							"name": "from",
							"type": "address"
						},
						{
							"internalType": "address",
							"name": "to",
							"type": "address"
						},
						{
							"internalType": "uint256",
							"name": "value",
							"type": "uint256"
						}
					],
					"name": "transferFrom",
					"outputs": [
						{
							"internalType": "bool",
							"name": "success",
							"type": "bool"
						}
					],
					"stateMutability": "nonpayable",
					"type": "function"
				}
			],
			"devdoc": {
				"kind": "dev",
				"methods": {},
				"version": 1
			},
			"evm": {
				"assembly": "    /* \"src/contracts/CarbonCredit.sol\":57:2692  contract CarbonCredit {... */\n  mstore(0x40, 0x80)\n  callvalue\n  dup1\n  iszero\n  tag_1\n  jumpi\n  0x00\n  dup1\n  revert\ntag_1:\n  pop\n  dataSize(sub_0)\n  dup1\n  dataOffset(sub_0)\n  0x00\n  codecopy\n  0x00\n  return\nstop\n\nsub_0: assembly {\n        /* \"src/contracts/CarbonCredit.sol\":57:2692  contract CarbonCredit {... */\n      mstore(0x40, 0x80)\n      callvalue\n      dup1\n      iszero\n      tag_1\n      jumpi\n      0x00\n      dup1\n      revert\n    tag_1:\n      pop\n      jumpi(tag_2, lt(calldatasize, 0x04))\n      shr(0xe0, calldataload(0x00))\n      dup1\n      0xa9059cbb\n      gt\n      tag_13\n      jumpi\n      dup1\n      0xa9059cbb\n      eq\n      tag_8\n      jumpi\n      dup1\n      0xafcdd813\n      eq\n      tag_9\n      jumpi\n      dup1\n      0xb193c201\n      eq\n      tag_10\n      jumpi\n      dup1\n      0xdd62ed3e\n      eq\n      tag_11\n      jumpi\n      dup1\n      0xe13c1f60\n      eq\n      tag_12\n      jumpi\n      jump(tag_2)\n    tag_13:\n      dup1\n      0x036a1c22\n      eq\n      tag_3\n      jumpi\n      dup1\n      0x095ea7b3\n      eq\n      tag_4\n      jumpi\n      dup1\n      0x23b872dd\n      eq\n      tag_5\n      jumpi\n      dup1\n      0x70a08231\n      eq\n      tag_6\n      jumpi\n      dup1\n      0x7aa2bdd4\n      eq\n      tag_7\n      jumpi\n    tag_2:\n      0x00\n      dup1\n      revert\n        /* \"src/contracts/CarbonCredit.sol\":802:825  Credit[] public credits */\n    tag_3:\n      tag_14\n      0x04\n      dup1\n      calldatasize\n      sub\n      dup2\n      add\n      swap1\n      tag_15\n      swap2\n      swap1\n      tag_16\n      jump\t// in\n    tag_15:\n      tag_17\n      jump\t// in\n    tag_14:\n      mload(0x40)\n      tag_18\n      swap4\n      swap3\n      swap2\n      swap1\n      tag_19\n      jump\t// in\n    tag_18:\n      mload(0x40)\n      dup1\n      swap2\n      sub\n      swap1\n      return\n        /* \"src/contracts/CarbonCredit.sol\":1059:1265  function approve(address spender, uint256 value) public returns (bool success) {... */\n    tag_4:\n      tag_20\n      0x04\n      dup1\n      calldatasize\n      sub\n      dup2\n      add\n      swap1\n      tag_21\n      swap2\n      swap1\n      tag_22\n      jump\t// in\n    tag_21:\n      tag_23\n      jump\t// in\n    tag_20:\n      mload(0x40)\n      tag_24\n      swap2\n      swap1\n      tag_25\n      jump\t// in\n    tag_24:\n      mload(0x40)\n      dup1\n      swap2\n      sub\n      swap1\n      return\n        /* \"src/contracts/CarbonCredit.sol\":1627:2100  function transferFrom(address from, address to, uint256 value) public returns (bool success) {... */\n    tag_5:\n      tag_26\n      0x04\n      dup1\n      calldatasize\n      sub\n      dup2\n      add\n      swap1\n      tag_27\n      swap2\n      swap1\n      tag_28\n      jump\t// in\n    tag_27:\n      tag_29\n      jump\t// in\n    tag_26:\n      mload(0x40)\n      tag_30\n      swap2\n      swap1\n      tag_25\n      jump\t// in\n    tag_30:\n      mload(0x40)\n      dup1\n      swap2\n      sub\n      swap1\n      return\n        /* \"src/contracts/CarbonCredit.sol\":324:368  mapping(address => uint256) public balanceOf */\n    tag_6:\n      tag_31\n      0x04\n      dup1\n      calldatasize\n      sub\n      dup2\n      add\n      swap1\n      tag_32\n      swap2\n      swap1\n      tag_33\n      jump\t// in\n    tag_32:\n      tag_34\n      jump\t// in\n    tag_31:\n      mload(0x40)\n      tag_35\n      swap2\n      swap1\n      tag_36\n      jump\t// in\n    tag_35:\n      mload(0x40)\n      dup1\n      swap2\n      sub\n      swap1\n      return\n        /* \"src/contracts/CarbonCredit.sol\":444:492  mapping(address => uint256) public carbonCredits */\n    tag_7:\n      tag_37\n      0x04\n      dup1\n      calldatasize\n      sub\n      dup2\n      add\n      swap1\n      tag_38\n      swap2\n      swap1\n      tag_33\n      jump\t// in\n    tag_38:\n      tag_39\n      jump\t// in\n    tag_37:\n      mload(0x40)\n      tag_40\n      swap2\n      swap1\n      tag_36\n      jump\t// in\n    tag_40:\n      mload(0x40)\n      dup1\n      swap2\n      sub\n      swap1\n      return\n        /* \"src/contracts/CarbonCredit.sol\":1271:1621  function transfer(address to, uint256 value) public returns (bool success) {... */\n    tag_8:\n      tag_41\n      0x04\n      dup1\n      calldatasize\n      sub\n      dup2\n      add\n      swap1\n      tag_42\n      swap2\n      swap1\n      tag_22\n      jump\t// in\n    tag_42:\n      tag_43\n      jump\t// in\n    tag_41:\n      mload(0x40)\n      tag_44\n      swap2\n      swap1\n      tag_25\n      jump\t// in\n    tag_44:\n      mload(0x40)\n      dup1\n      swap2\n      sub\n      swap1\n      return\n        /* \"src/contracts/CarbonCredit.sol\":2112:2509  function transferCarbonCredits(address to, uint256 value) public returns (bool success) {... */\n    tag_9:\n      tag_45\n      0x04\n      dup1\n      calldatasize\n      sub\n      dup2\n      add\n      swap1\n      tag_46\n      swap2\n      swap1\n      tag_22\n      jump\t// in\n    tag_46:\n      tag_47\n      jump\t// in\n    tag_45:\n      mload(0x40)\n      tag_48\n      swap2\n      swap1\n      tag_25\n      jump\t// in\n    tag_48:\n      mload(0x40)\n      dup1\n      swap2\n      sub\n      swap1\n      return\n        /* \"src/contracts/CarbonCredit.sol\":2571:2690  function getCarbonCredits(address account) public view returns (uint256) {... */\n    tag_10:\n      tag_49\n      0x04\n      dup1\n      calldatasize\n      sub\n      dup2\n      add\n      swap1\n      tag_50\n      swap2\n      swap1\n      tag_33\n      jump\t// in\n    tag_50:\n      tag_51\n      jump\t// in\n    tag_49:\n      mload(0x40)\n      tag_52\n      swap2\n      swap1\n      tag_36\n      jump\t// in\n    tag_52:\n      mload(0x40)\n      dup1\n      swap2\n      sub\n      swap1\n      return\n        /* \"src/contracts/CarbonCredit.sol\":374:438  mapping(address => mapping(address => uint256)) public allowance */\n    tag_11:\n      tag_53\n      0x04\n      dup1\n      calldatasize\n      sub\n      dup2\n      add\n      swap1\n      tag_54\n      swap2\n      swap1\n      tag_55\n      jump\t// in\n    tag_54:\n      tag_56\n      jump\t// in\n    tag_53:\n      mload(0x40)\n      tag_57\n      swap2\n      swap1\n      tag_36\n      jump\t// in\n    tag_57:\n      mload(0x40)\n      dup1\n      swap2\n      sub\n      swap1\n      return\n        /* \"src/contracts/CarbonCredit.sol\":831:876  CreditTransaction[] public creditTransactions */\n    tag_12:\n      tag_58\n      0x04\n      dup1\n      calldatasize\n      sub\n      dup2\n      add\n      swap1\n      tag_59\n      swap2\n      swap1\n      tag_16\n      jump\t// in\n    tag_59:\n      tag_60\n      jump\t// in\n    tag_58:\n      mload(0x40)\n      tag_61\n      swap5\n      swap4\n      swap3\n      swap2\n      swap1\n      tag_62\n      jump\t// in\n    tag_61:\n      mload(0x40)\n      dup1\n      swap2\n      sub\n      swap1\n      return\n        /* \"src/contracts/CarbonCredit.sol\":802:825  Credit[] public credits */\n    tag_17:\n      0x03\n      dup2\n      dup2\n      sload\n      dup2\n      lt\n      tag_63\n      jumpi\n      0x00\n      dup1\n      revert\n    tag_63:\n      swap1\n      0x00\n      mstore\n      keccak256(0x00, 0x20)\n      swap1\n      0x03\n      mul\n      add\n      0x00\n      swap2\n      pop\n      swap1\n      pop\n      dup1\n      0x00\n      add\n      sload\n      swap1\n      dup1\n      0x01\n      add\n      sload\n      swap1\n      dup1\n      0x02\n      add\n      dup1\n      sload\n      tag_65\n      swap1\n      tag_66\n      jump\t// in\n    tag_65:\n      dup1\n      0x1f\n      add\n      0x20\n      dup1\n      swap2\n      div\n      mul\n      0x20\n      add\n      mload(0x40)\n      swap1\n      dup2\n      add\n      0x40\n      mstore\n      dup1\n      swap3\n      swap2\n      swap1\n      dup2\n      dup2\n      mstore\n      0x20\n      add\n      dup3\n      dup1\n      sload\n      tag_67\n      swap1\n      tag_66\n      jump\t// in\n    tag_67:\n      dup1\n      iszero\n      tag_68\n      jumpi\n      dup1\n      0x1f\n      lt\n      tag_69\n      jumpi\n      0x0100\n      dup1\n      dup4\n      sload\n      div\n      mul\n      dup4\n      mstore\n      swap2\n      0x20\n      add\n      swap2\n      jump(tag_68)\n    tag_69:\n      dup3\n      add\n      swap2\n      swap1\n      0x00\n      mstore\n      keccak256(0x00, 0x20)\n      swap1\n    tag_70:\n      dup2\n      sload\n      dup2\n      mstore\n      swap1\n      0x01\n      add\n      swap1\n      0x20\n      add\n      dup1\n      dup4\n      gt\n      tag_70\n      jumpi\n      dup3\n      swap1\n      sub\n      0x1f\n      and\n      dup3\n      add\n      swap2\n    tag_68:\n      pop\n      pop\n      pop\n      pop\n      pop\n      swap1\n      pop\n      dup4\n      jump\t// out\n        /* \"src/contracts/CarbonCredit.sol\":1059:1265  function approve(address spender, uint256 value) public returns (bool success) {... */\n    tag_23:\n        /* \"src/contracts/CarbonCredit.sol\":1124:1136  bool success */\n      0x00\n        /* \"src/contracts/CarbonCredit.sol\":1181:1186  value */\n      dup2\n        /* \"src/contracts/CarbonCredit.sol\":1148:1157  allowance */\n      0x01\n        /* \"src/contracts/CarbonCredit.sol\":1148:1169  allowance[msg.sender] */\n      0x00\n        /* \"src/contracts/CarbonCredit.sol\":1158:1168  msg.sender */\n      caller\n        /* \"src/contracts/CarbonCredit.sol\":1148:1169  allowance[msg.sender] */\n      0xffffffffffffffffffffffffffffffffffffffff\n      and\n      0xffffffffffffffffffffffffffffffffffffffff\n      and\n      dup2\n      mstore\n      0x20\n      add\n      swap1\n      dup2\n      mstore\n      0x20\n      add\n      0x00\n      keccak256\n        /* \"src/contracts/CarbonCredit.sol\":1148:1178  allowance[msg.sender][spender] */\n      0x00\n        /* \"src/contracts/CarbonCredit.sol\":1170:1177  spender */\n      dup6\n        /* \"src/contracts/CarbonCredit.sol\":1148:1178  allowance[msg.sender][spender] */\n      0xffffffffffffffffffffffffffffffffffffffff\n      and\n      0xffffffffffffffffffffffffffffffffffffffff\n      and\n      dup2\n      mstore\n      0x20\n      add\n      swap1\n      dup2\n      mstore\n      0x20\n      add\n      0x00\n      keccak256\n        /* \"src/contracts/CarbonCredit.sol\":1148:1186  allowance[msg.sender][spender] = value */\n      dup2\n      swap1\n      sstore\n      pop\n        /* \"src/contracts/CarbonCredit.sol\":1222:1229  spender */\n      dup3\n        /* \"src/contracts/CarbonCredit.sol\":1201:1237  Approval(msg.sender, spender, value) */\n      0xffffffffffffffffffffffffffffffffffffffff\n      and\n        /* \"src/contracts/CarbonCredit.sol\":1210:1220  msg.sender */\n      caller\n        /* \"src/contracts/CarbonCredit.sol\":1201:1237  Approval(msg.sender, spender, value) */\n      0xffffffffffffffffffffffffffffffffffffffff\n      and\n      0x8c5be1e5ebec7d5bd14f71427d1e84f3dd0314c0f7b2291e5b200ac8c7c3b925\n        /* \"src/contracts/CarbonCredit.sol\":1231:1236  value */\n      dup5\n        /* \"src/contracts/CarbonCredit.sol\":1201:1237  Approval(msg.sender, spender, value) */\n      mload(0x40)\n      tag_72\n      swap2\n      swap1\n      tag_36\n      jump\t// in\n    tag_72:\n      mload(0x40)\n      dup1\n      swap2\n      sub\n      swap1\n      log3\n        /* \"src/contracts/CarbonCredit.sol\":1254:1258  true */\n      0x01\n        /* \"src/contracts/CarbonCredit.sol\":1247:1258  return true */\n      swap1\n      pop\n        /* \"src/contracts/CarbonCredit.sol\":1059:1265  function approve(address spender, uint256 value) public returns (bool success) {... */\n      swap3\n      swap2\n      pop\n      pop\n      jump\t// out\n        /* \"src/contracts/CarbonCredit.sol\":1627:2100  function transferFrom(address from, address to, uint256 value) public returns (bool success) {... */\n    tag_29:\n        /* \"src/contracts/CarbonCredit.sol\":1706:1718  bool success */\n      0x00\n        /* \"src/contracts/CarbonCredit.sol\":1752:1753  0 */\n      dup1\n        /* \"src/contracts/CarbonCredit.sol\":1738:1754  to != address(0) */\n      0xffffffffffffffffffffffffffffffffffffffff\n      and\n        /* \"src/contracts/CarbonCredit.sol\":1738:1740  to */\n      dup4\n        /* \"src/contracts/CarbonCredit.sol\":1738:1754  to != address(0) */\n      0xffffffffffffffffffffffffffffffffffffffff\n      and\n      sub\n        /* \"src/contracts/CarbonCredit.sol\":1730:1774  require(to != address(0), \"Invalid address\") */\n      tag_74\n      jumpi\n      mload(0x40)\n      0x08c379a000000000000000000000000000000000000000000000000000000000\n      dup2\n      mstore\n      0x04\n      add\n      tag_75\n      swap1\n      tag_76\n      jump\t// in\n    tag_75:\n      mload(0x40)\n      dup1\n      swap2\n      sub\n      swap1\n      revert\n    tag_74:\n        /* \"src/contracts/CarbonCredit.sol\":1811:1816  value */\n      dup2\n        /* \"src/contracts/CarbonCredit.sol\":1792:1801  balanceOf */\n      0x00\n        /* \"src/contracts/CarbonCredit.sol\":1792:1807  balanceOf[from] */\n      dup1\n        /* \"src/contracts/CarbonCredit.sol\":1802:1806  from */\n      dup7\n        /* \"src/contracts/CarbonCredit.sol\":1792:1807  balanceOf[from] */\n      0xffffffffffffffffffffffffffffffffffffffff\n      and\n      0xffffffffffffffffffffffffffffffffffffffff\n      and\n      dup2\n      mstore\n      0x20\n      add\n      swap1\n      dup2\n      mstore\n      0x20\n      add\n      0x00\n      keccak256\n      sload\n        /* \"src/contracts/CarbonCredit.sol\":1792:1816  balanceOf[from] >= value */\n      lt\n      iszero\n        /* \"src/contracts/CarbonCredit.sol\":1784:1841  require(balanceOf[from] >= value, \"Insufficient balance\") */\n      tag_77\n      jumpi\n      mload(0x40)\n      0x08c379a000000000000000000000000000000000000000000000000000000000\n      dup2\n      mstore\n      0x04\n      add\n      tag_78\n      swap1\n      tag_79\n      jump\t// in\n    tag_78:\n      mload(0x40)\n      dup1\n      swap2\n      sub\n      swap1\n      revert\n    tag_77:\n        /* \"src/contracts/CarbonCredit.sol\":1890:1895  value */\n      dup2\n        /* \"src/contracts/CarbonCredit.sol\":1859:1868  allowance */\n      0x01\n        /* \"src/contracts/CarbonCredit.sol\":1859:1874  allowance[from] */\n      0x00\n        /* \"src/contracts/CarbonCredit.sol\":1869:1873  from */\n      dup7\n        /* \"src/contracts/CarbonCredit.sol\":1859:1874  allowance[from] */\n      0xffffffffffffffffffffffffffffffffffffffff\n      and\n      0xffffffffffffffffffffffffffffffffffffffff\n      and\n      dup2\n      mstore\n      0x20\n      add\n      swap1\n      dup2\n      mstore\n      0x20\n      add\n      0x00\n      keccak256\n        /* \"src/contracts/CarbonCredit.sol\":1859:1886  allowance[from][msg.sender] */\n      0x00\n        /* \"src/contracts/CarbonCredit.sol\":1875:1885  msg.sender */\n      caller\n        /* \"src/contracts/CarbonCredit.sol\":1859:1886  allowance[from][msg.sender] */\n      0xffffffffffffffffffffffffffffffffffffffff\n      and\n      0xffffffffffffffffffffffffffffffffffffffff\n      and\n      dup2\n      mstore\n      0x20\n      add\n      swap1\n      dup2\n      mstore\n      0x20\n      add\n      0x00\n      keccak256\n      sload\n        /* \"src/contracts/CarbonCredit.sol\":1859:1895  allowance[from][msg.sender] >= value */\n      lt\n      iszero\n        /* \"src/contracts/CarbonCredit.sol\":1851:1918  require(allowance[from][msg.sender] >= value, \"Allowance exceeded\") */\n      tag_80\n      jumpi\n      mload(0x40)\n      0x08c379a000000000000000000000000000000000000000000000000000000000\n      dup2\n      mstore\n      0x04\n      add\n      tag_81\n      swap1\n      tag_82\n      jump\t// in\n    tag_81:\n      mload(0x40)\n      dup1\n      swap2\n      sub\n      swap1\n      revert\n    tag_80:\n        /* \"src/contracts/CarbonCredit.sol\":1948:1953  value */\n      dup2\n        /* \"src/contracts/CarbonCredit.sol\":1929:1938  balanceOf */\n      0x00\n        /* \"src/contracts/CarbonCredit.sol\":1929:1944  balanceOf[from] */\n      dup1\n        /* \"src/contracts/CarbonCredit.sol\":1939:1943  from */\n      dup7\n        /* \"src/contracts/CarbonCredit.sol\":1929:1944  balanceOf[from] */\n      0xffffffffffffffffffffffffffffffffffffffff\n      and\n      0xffffffffffffffffffffffffffffffffffffffff\n      and\n      dup2\n      mstore\n      0x20\n      add\n      swap1\n      dup2\n      mstore\n      0x20\n      add\n      0x00\n      keccak256\n      0x00\n        /* \"src/contracts/CarbonCredit.sol\":1929:1953  balanceOf[from] -= value */\n      dup3\n      dup3\n      sload\n      tag_83\n      swap2\n      swap1\n      tag_84\n      jump\t// in\n    tag_83:\n      swap3\n      pop\n      pop\n      dup2\n      swap1\n      sstore\n      pop\n        /* \"src/contracts/CarbonCredit.sol\":1980:1985  value */\n      dup2\n        /* \"src/contracts/CarbonCredit.sol\":1963:1972  balanceOf */\n      0x00\n        /* \"src/contracts/CarbonCredit.sol\":1963:1976  balanceOf[to] */\n      dup1\n        /* \"src/contracts/CarbonCredit.sol\":1973:1975  to */\n      dup6\n        /* \"src/contracts/CarbonCredit.sol\":1963:1976  balanceOf[to] */\n      0xffffffffffffffffffffffffffffffffffffffff\n      and\n      0xffffffffffffffffffffffffffffffffffffffff\n      and\n      dup2\n      mstore\n      0x20\n      add\n      swap1\n      dup2\n      mstore\n      0x20\n      add\n      0x00\n      keccak256\n      0x00\n        /* \"src/contracts/CarbonCredit.sol\":1963:1985  balanceOf[to] += value */\n      dup3\n      dup3\n      sload\n      tag_85\n      swap2\n      swap1\n      tag_86\n      jump\t// in\n    tag_85:\n      swap3\n      pop\n      pop\n      dup2\n      swap1\n      sstore\n      pop\n        /* \"src/contracts/CarbonCredit.sol\":2026:2031  value */\n      dup2\n        /* \"src/contracts/CarbonCredit.sol\":1995:2004  allowance */\n      0x01\n        /* \"src/contracts/CarbonCredit.sol\":1995:2010  allowance[from] */\n      0x00\n        /* \"src/contracts/CarbonCredit.sol\":2005:2009  from */\n      dup7\n        /* \"src/contracts/CarbonCredit.sol\":1995:2010  allowance[from] */\n      0xffffffffffffffffffffffffffffffffffffffff\n      and\n      0xffffffffffffffffffffffffffffffffffffffff\n      and\n      dup2\n      mstore\n      0x20\n      add\n      swap1\n      dup2\n      mstore\n      0x20\n      add\n      0x00\n      keccak256\n        /* \"src/contracts/CarbonCredit.sol\":1995:2022  allowance[from][msg.sender] */\n      0x00\n        /* \"src/contracts/CarbonCredit.sol\":2011:2021  msg.sender */\n      caller\n        /* \"src/contracts/CarbonCredit.sol\":1995:2022  allowance[from][msg.sender] */\n      0xffffffffffffffffffffffffffffffffffffffff\n      and\n      0xffffffffffffffffffffffffffffffffffffffff\n      and\n      dup2\n      mstore\n      0x20\n      add\n      swap1\n      dup2\n      mstore\n      0x20\n      add\n      0x00\n      keccak256\n      0x00\n        /* \"src/contracts/CarbonCredit.sol\":1995:2031  allowance[from][msg.sender] -= value */\n      dup3\n      dup3\n      sload\n      tag_87\n      swap2\n      swap1\n      tag_84\n      jump\t// in\n    tag_87:\n      swap3\n      pop\n      pop\n      dup2\n      swap1\n      sstore\n      pop\n        /* \"src/contracts/CarbonCredit.sol\":2061:2063  to */\n      dup3\n        /* \"src/contracts/CarbonCredit.sol\":2046:2071  Transfer(from, to, value) */\n      0xffffffffffffffffffffffffffffffffffffffff\n      and\n        /* \"src/contracts/CarbonCredit.sol\":2055:2059  from */\n      dup5\n        /* \"src/contracts/CarbonCredit.sol\":2046:2071  Transfer(from, to, value) */\n      0xffffffffffffffffffffffffffffffffffffffff\n      and\n      0xddf252ad1be2c89b69c2b068fc378daa952ba7f163c4a11628f55a4df523b3ef\n        /* \"src/contracts/CarbonCredit.sol\":2065:2070  value */\n      dup5\n        /* \"src/contracts/CarbonCredit.sol\":2046:2071  Transfer(from, to, value) */\n      mload(0x40)\n      tag_88\n      swap2\n      swap1\n      tag_36\n      jump\t// in\n    tag_88:\n      mload(0x40)\n      dup1\n      swap2\n      sub\n      swap1\n      log3\n        /* \"src/contracts/CarbonCredit.sol\":2089:2093  true */\n      0x01\n        /* \"src/contracts/CarbonCredit.sol\":2082:2093  return true */\n      swap1\n      pop\n        /* \"src/contracts/CarbonCredit.sol\":1627:2100  function transferFrom(address from, address to, uint256 value) public returns (bool success) {... */\n      swap4\n      swap3\n      pop\n      pop\n      pop\n      jump\t// out\n        /* \"src/contracts/CarbonCredit.sol\":324:368  mapping(address => uint256) public balanceOf */\n    tag_34:\n      mstore(0x20, 0x00)\n      dup1\n      0x00\n      mstore\n      keccak256(0x00, 0x40)\n      0x00\n      swap2\n      pop\n      swap1\n      pop\n      sload\n      dup2\n      jump\t// out\n        /* \"src/contracts/CarbonCredit.sol\":444:492  mapping(address => uint256) public carbonCredits */\n    tag_39:\n      mstore(0x20, 0x02)\n      dup1\n      0x00\n      mstore\n      keccak256(0x00, 0x40)\n      0x00\n      swap2\n      pop\n      swap1\n      pop\n      sload\n      dup2\n      jump\t// out\n        /* \"src/contracts/CarbonCredit.sol\":1271:1621  function transfer(address to, uint256 value) public returns (bool success) {... */\n    tag_43:\n        /* \"src/contracts/CarbonCredit.sol\":1332:1344  bool success */\n      0x00\n        /* \"src/contracts/CarbonCredit.sol\":1378:1379  0 */\n      dup1\n        /* \"src/contracts/CarbonCredit.sol\":1364:1380  to != address(0) */\n      0xffffffffffffffffffffffffffffffffffffffff\n      and\n        /* \"src/contracts/CarbonCredit.sol\":1364:1366  to */\n      dup4\n        /* \"src/contracts/CarbonCredit.sol\":1364:1380  to != address(0) */\n      0xffffffffffffffffffffffffffffffffffffffff\n      and\n      sub\n        /* \"src/contracts/CarbonCredit.sol\":1356:1400  require(to != address(0), \"Invalid address\") */\n      tag_90\n      jumpi\n      mload(0x40)\n      0x08c379a000000000000000000000000000000000000000000000000000000000\n      dup2\n      mstore\n      0x04\n      add\n      tag_91\n      swap1\n      tag_76\n      jump\t// in\n    tag_91:\n      mload(0x40)\n      dup1\n      swap2\n      sub\n      swap1\n      revert\n    tag_90:\n        /* \"src/contracts/CarbonCredit.sol\":1443:1448  value */\n      dup2\n        /* \"src/contracts/CarbonCredit.sol\":1418:1427  balanceOf */\n      0x00\n        /* \"src/contracts/CarbonCredit.sol\":1418:1439  balanceOf[msg.sender] */\n      dup1\n        /* \"src/contracts/CarbonCredit.sol\":1428:1438  msg.sender */\n      caller\n        /* \"src/contracts/CarbonCredit.sol\":1418:1439  balanceOf[msg.sender] */\n      0xffffffffffffffffffffffffffffffffffffffff\n      and\n      0xffffffffffffffffffffffffffffffffffffffff\n      and\n      dup2\n      mstore\n      0x20\n      add\n      swap1\n      dup2\n      mstore\n      0x20\n      add\n      0x00\n      keccak256\n      sload\n        /* \"src/contracts/CarbonCredit.sol\":1418:1448  balanceOf[msg.sender] >= value */\n      lt\n      iszero\n        /* \"src/contracts/CarbonCredit.sol\":1410:1473  require(balanceOf[msg.sender] >= value, \"Insufficient balance\") */\n      tag_92\n      jumpi\n      mload(0x40)\n      0x08c379a000000000000000000000000000000000000000000000000000000000\n      dup2\n      mstore\n      0x04\n      add\n      tag_93\n      swap1\n      tag_79\n      jump\t// in\n    tag_93:\n      mload(0x40)\n      dup1\n      swap2\n      sub\n      swap1\n      revert\n    tag_92:\n        /* \"src/contracts/CarbonCredit.sol\":1509:1514  value */\n      dup2\n        /* \"src/contracts/CarbonCredit.sol\":1484:1493  balanceOf */\n      0x00\n        /* \"src/contracts/CarbonCredit.sol\":1484:1505  balanceOf[msg.sender] */\n      dup1\n        /* \"src/contracts/CarbonCredit.sol\":1494:1504  msg.sender */\n      caller\n        /* \"src/contracts/CarbonCredit.sol\":1484:1505  balanceOf[msg.sender] */\n      0xffffffffffffffffffffffffffffffffffffffff\n      and\n      0xffffffffffffffffffffffffffffffffffffffff\n      and\n      dup2\n      mstore\n      0x20\n      add\n      swap1\n      dup2\n      mstore\n      0x20\n      add\n      0x00\n      keccak256\n      0x00\n        /* \"src/contracts/CarbonCredit.sol\":1484:1514  balanceOf[msg.sender] -= value */\n      dup3\n      dup3\n      sload\n      tag_94\n      swap2\n      swap1\n      tag_84\n      jump\t// in\n    tag_94:\n      swap3\n      pop\n      pop\n      dup2\n      swap1\n      sstore\n      pop\n        /* \"src/contracts/CarbonCredit.sol\":1541:1546  value */\n      dup2\n        /* \"src/contracts/CarbonCredit.sol\":1524:1533  balanceOf */\n      0x00\n        /* \"src/contracts/CarbonCredit.sol\":1524:1537  balanceOf[to] */\n      dup1\n        /* \"src/contracts/CarbonCredit.sol\":1534:1536  to */\n      dup6\n        /* \"src/contracts/CarbonCredit.sol\":1524:1537  balanceOf[to] */\n      0xffffffffffffffffffffffffffffffffffffffff\n      and\n      0xffffffffffffffffffffffffffffffffffffffff\n      and\n      dup2\n      mstore\n      0x20\n      add\n      swap1\n      dup2\n      mstore\n      0x20\n      add\n      0x00\n      keccak256\n      0x00\n        /* \"src/contracts/CarbonCredit.sol\":1524:1546  balanceOf[to] += value */\n      dup3\n      dup3\n      sload\n      tag_95\n      swap2\n      swap1\n      tag_86\n      jump\t// in\n    tag_95:\n      swap3\n      pop\n      pop\n      dup2\n      swap1\n      sstore\n      pop\n        /* \"src/contracts/CarbonCredit.sol\":1582:1584  to */\n      dup3\n        /* \"src/contracts/CarbonCredit.sol\":1561:1592  Transfer(msg.sender, to, value) */\n      0xffffffffffffffffffffffffffffffffffffffff\n      and\n        /* \"src/contracts/CarbonCredit.sol\":1570:1580  msg.sender */\n      caller\n        /* \"src/contracts/CarbonCredit.sol\":1561:1592  Transfer(msg.sender, to, value) */\n      0xffffffffffffffffffffffffffffffffffffffff\n      and\n      0xddf252ad1be2c89b69c2b068fc378daa952ba7f163c4a11628f55a4df523b3ef\n        /* \"src/contracts/CarbonCredit.sol\":1586:1591  value */\n      dup5\n        /* \"src/contracts/CarbonCredit.sol\":1561:1592  Transfer(msg.sender, to, value) */\n      mload(0x40)\n      tag_96\n      swap2\n      swap1\n      tag_36\n      jump\t// in\n    tag_96:\n      mload(0x40)\n      dup1\n      swap2\n      sub\n      swap1\n      log3\n        /* \"src/contracts/CarbonCredit.sol\":1610:1614  true */\n      0x01\n        /* \"src/contracts/CarbonCredit.sol\":1603:1614  return true */\n      swap1\n      pop\n        /* \"src/contracts/CarbonCredit.sol\":1271:1621  function transfer(address to, uint256 value) public returns (bool success) {... */\n      swap3\n      swap2\n      pop\n      pop\n      jump\t// out\n        /* \"src/contracts/CarbonCredit.sol\":2112:2509  function transferCarbonCredits(address to, uint256 value) public returns (bool success) {... */\n    tag_47:\n        /* \"src/contracts/CarbonCredit.sol\":2186:2198  bool success */\n      0x00\n        /* \"src/contracts/CarbonCredit.sol\":2232:2233  0 */\n      dup1\n        /* \"src/contracts/CarbonCredit.sol\":2218:2234  to != address(0) */\n      0xffffffffffffffffffffffffffffffffffffffff\n      and\n        /* \"src/contracts/CarbonCredit.sol\":2218:2220  to */\n      dup4\n        /* \"src/contracts/CarbonCredit.sol\":2218:2234  to != address(0) */\n      0xffffffffffffffffffffffffffffffffffffffff\n      and\n      sub\n        /* \"src/contracts/CarbonCredit.sol\":2210:2254  require(to != address(0), \"Invalid address\") */\n      tag_98\n      jumpi\n      mload(0x40)\n      0x08c379a000000000000000000000000000000000000000000000000000000000\n      dup2\n      mstore\n      0x04\n      add\n      tag_99\n      swap1\n      tag_76\n      jump\t// in\n    tag_99:\n      mload(0x40)\n      dup1\n      swap2\n      sub\n      swap1\n      revert\n    tag_98:\n        /* \"src/contracts/CarbonCredit.sol\":2301:2306  value */\n      dup2\n        /* \"src/contracts/CarbonCredit.sol\":2272:2285  carbonCredits */\n      0x02\n        /* \"src/contracts/CarbonCredit.sol\":2272:2297  carbonCredits[msg.sender] */\n      0x00\n        /* \"src/contracts/CarbonCredit.sol\":2286:2296  msg.sender */\n      caller\n        /* \"src/contracts/CarbonCredit.sol\":2272:2297  carbonCredits[msg.sender] */\n      0xffffffffffffffffffffffffffffffffffffffff\n      and\n      0xffffffffffffffffffffffffffffffffffffffff\n      and\n      dup2\n      mstore\n      0x20\n      add\n      swap1\n      dup2\n      mstore\n      0x20\n      add\n      0x00\n      keccak256\n      sload\n        /* \"src/contracts/CarbonCredit.sol\":2272:2306  carbonCredits[msg.sender] >= value */\n      lt\n      iszero\n        /* \"src/contracts/CarbonCredit.sol\":2264:2338  require(carbonCredits[msg.sender] >= value, \"Insufficient carbon credits\") */\n      tag_100\n      jumpi\n      mload(0x40)\n      0x08c379a000000000000000000000000000000000000000000000000000000000\n      dup2\n      mstore\n      0x04\n      add\n      tag_101\n      swap1\n      tag_102\n      jump\t// in\n    tag_101:\n      mload(0x40)\n      dup1\n      swap2\n      sub\n      swap1\n      revert\n    tag_100:\n        /* \"src/contracts/CarbonCredit.sol\":2378:2383  value */\n      dup2\n        /* \"src/contracts/CarbonCredit.sol\":2349:2362  carbonCredits */\n      0x02\n        /* \"src/contracts/CarbonCredit.sol\":2349:2374  carbonCredits[msg.sender] */\n      0x00\n        /* \"src/contracts/CarbonCredit.sol\":2363:2373  msg.sender */\n      caller\n        /* \"src/contracts/CarbonCredit.sol\":2349:2374  carbonCredits[msg.sender] */\n      0xffffffffffffffffffffffffffffffffffffffff\n      and\n      0xffffffffffffffffffffffffffffffffffffffff\n      and\n      dup2\n      mstore\n      0x20\n      add\n      swap1\n      dup2\n      mstore\n      0x20\n      add\n      0x00\n      keccak256\n      0x00\n        /* \"src/contracts/CarbonCredit.sol\":2349:2383  carbonCredits[msg.sender] -= value */\n      dup3\n      dup3\n      sload\n      tag_103\n      swap2\n      swap1\n      tag_84\n      jump\t// in\n    tag_103:\n      swap3\n      pop\n      pop\n      dup2\n      swap1\n      sstore\n      pop\n        /* \"src/contracts/CarbonCredit.sol\":2414:2419  value */\n      dup2\n        /* \"src/contracts/CarbonCredit.sol\":2393:2406  carbonCredits */\n      0x02\n        /* \"src/contracts/CarbonCredit.sol\":2393:2410  carbonCredits[to] */\n      0x00\n        /* \"src/contracts/CarbonCredit.sol\":2407:2409  to */\n      dup6\n        /* \"src/contracts/CarbonCredit.sol\":2393:2410  carbonCredits[to] */\n      0xffffffffffffffffffffffffffffffffffffffff\n      and\n      0xffffffffffffffffffffffffffffffffffffffff\n      and\n      dup2\n      mstore\n      0x20\n      add\n      swap1\n      dup2\n      mstore\n      0x20\n      add\n      0x00\n      keccak256\n      0x00\n        /* \"src/contracts/CarbonCredit.sol\":2393:2419  carbonCredits[to] += value */\n      dup3\n      dup3\n      sload\n      tag_104\n      swap2\n      swap1\n      tag_86\n      jump\t// in\n    tag_104:\n      swap3\n      pop\n      pop\n      dup2\n      swap1\n      sstore\n      pop\n        /* \"src/contracts/CarbonCredit.sol\":2470:2472  to */\n      dup3\n        /* \"src/contracts/CarbonCredit.sol\":2434:2480  CarbonCreditTransferred(msg.sender, to, value) */\n      0xffffffffffffffffffffffffffffffffffffffff\n      and\n        /* \"src/contracts/CarbonCredit.sol\":2458:2468  msg.sender */\n      caller\n        /* \"src/contracts/CarbonCredit.sol\":2434:2480  CarbonCreditTransferred(msg.sender, to, value) */\n      0xffffffffffffffffffffffffffffffffffffffff\n      and\n      0x7e95113809daf6b378cb1caf9641a894a32fc97bfa22edaffd31d92564400ec0\n        /* \"src/contracts/CarbonCredit.sol\":2474:2479  value */\n      dup5\n        /* \"src/contracts/CarbonCredit.sol\":2434:2480  CarbonCreditTransferred(msg.sender, to, value) */\n      mload(0x40)\n      tag_105\n      swap2\n      swap1\n      tag_36\n      jump\t// in\n    tag_105:\n      mload(0x40)\n      dup1\n      swap2\n      sub\n      swap1\n      log3\n        /* \"src/contracts/CarbonCredit.sol\":2498:2502  true */\n      0x01\n        /* \"src/contracts/CarbonCredit.sol\":2491:2502  return true */\n      swap1\n      pop\n        /* \"src/contracts/CarbonCredit.sol\":2112:2509  function transferCarbonCredits(address to, uint256 value) public returns (bool success) {... */\n      swap3\n      swap2\n      pop\n      pop\n      jump\t// out\n        /* \"src/contracts/CarbonCredit.sol\":2571:2690  function getCarbonCredits(address account) public view returns (uint256) {... */\n    tag_51:\n        /* \"src/contracts/CarbonCredit.sol\":2635:2642  uint256 */\n      0x00\n        /* \"src/contracts/CarbonCredit.sol\":2661:2674  carbonCredits */\n      0x02\n        /* \"src/contracts/CarbonCredit.sol\":2661:2683  carbonCredits[account] */\n      0x00\n        /* \"src/contracts/CarbonCredit.sol\":2675:2682  account */\n      dup4\n        /* \"src/contracts/CarbonCredit.sol\":2661:2683  carbonCredits[account] */\n      0xffffffffffffffffffffffffffffffffffffffff\n      and\n      0xffffffffffffffffffffffffffffffffffffffff\n      and\n      dup2\n      mstore\n      0x20\n      add\n      swap1\n      dup2\n      mstore\n      0x20\n      add\n      0x00\n      keccak256\n      sload\n        /* \"src/contracts/CarbonCredit.sol\":2654:2683  return carbonCredits[account] */\n      swap1\n      pop\n        /* \"src/contracts/CarbonCredit.sol\":2571:2690  function getCarbonCredits(address account) public view returns (uint256) {... */\n      swap2\n      swap1\n      pop\n      jump\t// out\n        /* \"src/contracts/CarbonCredit.sol\":374:438  mapping(address => mapping(address => uint256)) public allowance */\n    tag_56:\n      mstore(0x20, 0x01)\n      dup2\n      0x00\n      mstore\n      mstore(0x20, keccak256(0x00, 0x40))\n      dup1\n      0x00\n      mstore\n      keccak256(0x00, 0x40)\n      0x00\n      swap2\n      pop\n      swap2\n      pop\n      pop\n      sload\n      dup2\n      jump\t// out\n        /* \"src/contracts/CarbonCredit.sol\":831:876  CreditTransaction[] public creditTransactions */\n    tag_60:\n      0x04\n      dup2\n      dup2\n      sload\n      dup2\n      lt\n      tag_107\n      jumpi\n      0x00\n      dup1\n      revert\n    tag_107:\n      swap1\n      0x00\n      mstore\n      keccak256(0x00, 0x20)\n      swap1\n      0x04\n      mul\n      add\n      0x00\n      swap2\n      pop\n      swap1\n      pop\n      dup1\n      0x00\n      add\n      0x00\n      swap1\n      sload\n      swap1\n      0x0100\n      exp\n      swap1\n      div\n      0xffffffffffffffffffffffffffffffffffffffff\n      and\n      swap1\n      dup1\n      0x01\n      add\n      0x00\n      swap1\n      sload\n      swap1\n      0x0100\n      exp\n      swap1\n      div\n      0xffffffffffffffffffffffffffffffffffffffff\n      and\n      swap1\n      dup1\n      0x02\n      add\n      sload\n      swap1\n      dup1\n      0x03\n      add\n      sload\n      swap1\n      pop\n      dup5\n      jump\t// out\n        /* \"#utility.yul\":88:205   */\n    tag_110:\n        /* \"#utility.yul\":197:198   */\n      0x00\n        /* \"#utility.yul\":194:195   */\n      dup1\n        /* \"#utility.yul\":187:199   */\n      revert\n        /* \"#utility.yul\":334:411   */\n    tag_112:\n        /* \"#utility.yul\":371:378   */\n      0x00\n        /* \"#utility.yul\":400:405   */\n      dup2\n        /* \"#utility.yul\":389:405   */\n      swap1\n      pop\n        /* \"#utility.yul\":334:411   */\n      swap2\n      swap1\n      pop\n      jump\t// out\n        /* \"#utility.yul\":417:539   */\n    tag_113:\n        /* \"#utility.yul\":490:514   */\n      tag_144\n        /* \"#utility.yul\":508:513   */\n      dup2\n        /* \"#utility.yul\":490:514   */\n      tag_112\n      jump\t// in\n    tag_144:\n        /* \"#utility.yul\":483:488   */\n      dup2\n        /* \"#utility.yul\":480:515   */\n      eq\n        /* \"#utility.yul\":470:533   */\n      tag_145\n      jumpi\n        /* \"#utility.yul\":529:530   */\n      0x00\n        /* \"#utility.yul\":526:527   */\n      dup1\n        /* \"#utility.yul\":519:531   */\n      revert\n        /* \"#utility.yul\":470:533   */\n    tag_145:\n        /* \"#utility.yul\":417:539   */\n      pop\n      jump\t// out\n        /* \"#utility.yul\":545:684   */\n    tag_114:\n        /* \"#utility.yul\":591:596   */\n      0x00\n        /* \"#utility.yul\":629:635   */\n      dup2\n        /* \"#utility.yul\":616:636   */\n      calldataload\n        /* \"#utility.yul\":607:636   */\n      swap1\n      pop\n        /* \"#utility.yul\":645:678   */\n      tag_147\n        /* \"#utility.yul\":672:677   */\n      dup2\n        /* \"#utility.yul\":645:678   */\n      tag_113\n      jump\t// in\n    tag_147:\n        /* \"#utility.yul\":545:684   */\n      swap3\n      swap2\n      pop\n      pop\n      jump\t// out\n        /* \"#utility.yul\":690:1019   */\n    tag_16:\n        /* \"#utility.yul\":749:755   */\n      0x00\n        /* \"#utility.yul\":798:800   */\n      0x20\n        /* \"#utility.yul\":786:795   */\n      dup3\n        /* \"#utility.yul\":777:784   */\n      dup5\n        /* \"#utility.yul\":773:796   */\n      sub\n        /* \"#utility.yul\":769:801   */\n      slt\n        /* \"#utility.yul\":766:885   */\n      iszero\n      tag_149\n      jumpi\n        /* \"#utility.yul\":804:883   */\n      tag_150\n      tag_110\n      jump\t// in\n    tag_150:\n        /* \"#utility.yul\":766:885   */\n    tag_149:\n        /* \"#utility.yul\":924:925   */\n      0x00\n        /* \"#utility.yul\":949:1002   */\n      tag_151\n        /* \"#utility.yul\":994:1001   */\n      dup5\n        /* \"#utility.yul\":985:991   */\n      dup3\n        /* \"#utility.yul\":974:983   */\n      dup6\n        /* \"#utility.yul\":970:992   */\n      add\n        /* \"#utility.yul\":949:1002   */\n      tag_114\n      jump\t// in\n    tag_151:\n        /* \"#utility.yul\":939:1002   */\n      swap2\n      pop\n        /* \"#utility.yul\":895:1012   */\n      pop\n        /* \"#utility.yul\":690:1019   */\n      swap3\n      swap2\n      pop\n      pop\n      jump\t// out\n        /* \"#utility.yul\":1025:1143   */\n    tag_115:\n        /* \"#utility.yul\":1112:1136   */\n      tag_153\n        /* \"#utility.yul\":1130:1135   */\n      dup2\n        /* \"#utility.yul\":1112:1136   */\n      tag_112\n      jump\t// in\n    tag_153:\n        /* \"#utility.yul\":1107:1110   */\n      dup3\n        /* \"#utility.yul\":1100:1137   */\n      mstore\n        /* \"#utility.yul\":1025:1143   */\n      pop\n      pop\n      jump\t// out\n        /* \"#utility.yul\":1149:1248   */\n    tag_116:\n        /* \"#utility.yul\":1201:1207   */\n      0x00\n        /* \"#utility.yul\":1235:1240   */\n      dup2\n        /* \"#utility.yul\":1229:1241   */\n      mload\n        /* \"#utility.yul\":1219:1241   */\n      swap1\n      pop\n        /* \"#utility.yul\":1149:1248   */\n      swap2\n      swap1\n      pop\n      jump\t// out\n        /* \"#utility.yul\":1254:1423   */\n    tag_117:\n        /* \"#utility.yul\":1338:1349   */\n      0x00\n        /* \"#utility.yul\":1372:1378   */\n      dup3\n        /* \"#utility.yul\":1367:1370   */\n      dup3\n        /* \"#utility.yul\":1360:1379   */\n      mstore\n        /* \"#utility.yul\":1412:1416   */\n      0x20\n        /* \"#utility.yul\":1407:1410   */\n      dup3\n        /* \"#utility.yul\":1403:1417   */\n      add\n        /* \"#utility.yul\":1388:1417   */\n      swap1\n      pop\n        /* \"#utility.yul\":1254:1423   */\n      swap3\n      swap2\n      pop\n      pop\n      jump\t// out\n        /* \"#utility.yul\":1429:1675   */\n    tag_118:\n        /* \"#utility.yul\":1510:1511   */\n      0x00\n        /* \"#utility.yul\":1520:1633   */\n    tag_157:\n        /* \"#utility.yul\":1534:1540   */\n      dup4\n        /* \"#utility.yul\":1531:1532   */\n      dup2\n        /* \"#utility.yul\":1528:1541   */\n      lt\n        /* \"#utility.yul\":1520:1633   */\n      iszero\n      tag_159\n      jumpi\n        /* \"#utility.yul\":1619:1620   */\n      dup1\n        /* \"#utility.yul\":1614:1617   */\n      dup3\n        /* \"#utility.yul\":1610:1621   */\n      add\n        /* \"#utility.yul\":1604:1622   */\n      mload\n        /* \"#utility.yul\":1600:1601   */\n      dup2\n        /* \"#utility.yul\":1595:1598   */\n      dup5\n        /* \"#utility.yul\":1591:1602   */\n      add\n        /* \"#utility.yul\":1584:1623   */\n      mstore\n        /* \"#utility.yul\":1556:1558   */\n      0x20\n        /* \"#utility.yul\":1553:1554   */\n      dup2\n        /* \"#utility.yul\":1549:1559   */\n      add\n        /* \"#utility.yul\":1544:1559   */\n      swap1\n      pop\n        /* \"#utility.yul\":1520:1633   */\n      jump(tag_157)\n    tag_159:\n        /* \"#utility.yul\":1667:1668   */\n      0x00\n        /* \"#utility.yul\":1658:1664   */\n      dup5\n        /* \"#utility.yul\":1653:1656   */\n      dup5\n        /* \"#utility.yul\":1649:1665   */\n      add\n        /* \"#utility.yul\":1642:1669   */\n      mstore\n        /* \"#utility.yul\":1491:1675   */\n      pop\n        /* \"#utility.yul\":1429:1675   */\n      pop\n      pop\n      pop\n      jump\t// out\n        /* \"#utility.yul\":1681:1783   */\n    tag_119:\n        /* \"#utility.yul\":1722:1728   */\n      0x00\n        /* \"#utility.yul\":1773:1775   */\n      0x1f\n        /* \"#utility.yul\":1769:1776   */\n      not\n        /* \"#utility.yul\":1764:1766   */\n      0x1f\n        /* \"#utility.yul\":1757:1762   */\n      dup4\n        /* \"#utility.yul\":1753:1767   */\n      add\n        /* \"#utility.yul\":1749:1777   */\n      and\n        /* \"#utility.yul\":1739:1777   */\n      swap1\n      pop\n        /* \"#utility.yul\":1681:1783   */\n      swap2\n      swap1\n      pop\n      jump\t// out\n        /* \"#utility.yul\":1789:2166   */\n    tag_120:\n        /* \"#utility.yul\":1877:1880   */\n      0x00\n        /* \"#utility.yul\":1905:1944   */\n      tag_162\n        /* \"#utility.yul\":1938:1943   */\n      dup3\n        /* \"#utility.yul\":1905:1944   */\n      tag_116\n      jump\t// in\n    tag_162:\n        /* \"#utility.yul\":1960:2031   */\n      tag_163\n        /* \"#utility.yul\":2024:2030   */\n      dup2\n        /* \"#utility.yul\":2019:2022   */\n      dup6\n        /* \"#utility.yul\":1960:2031   */\n      tag_117\n      jump\t// in\n    tag_163:\n        /* \"#utility.yul\":1953:2031   */\n      swap4\n      pop\n        /* \"#utility.yul\":2040:2105   */\n      tag_164\n        /* \"#utility.yul\":2098:2104   */\n      dup2\n        /* \"#utility.yul\":2093:2096   */\n      dup6\n        /* \"#utility.yul\":2086:2090   */\n      0x20\n        /* \"#utility.yul\":2079:2084   */\n      dup7\n        /* \"#utility.yul\":2075:2091   */\n      add\n        /* \"#utility.yul\":2040:2105   */\n      tag_118\n      jump\t// in\n    tag_164:\n        /* \"#utility.yul\":2130:2159   */\n      tag_165\n        /* \"#utility.yul\":2152:2158   */\n      dup2\n        /* \"#utility.yul\":2130:2159   */\n      tag_119\n      jump\t// in\n    tag_165:\n        /* \"#utility.yul\":2125:2128   */\n      dup5\n        /* \"#utility.yul\":2121:2160   */\n      add\n        /* \"#utility.yul\":2114:2160   */\n      swap2\n      pop\n        /* \"#utility.yul\":1881:2166   */\n      pop\n        /* \"#utility.yul\":1789:2166   */\n      swap3\n      swap2\n      pop\n      pop\n      jump\t// out\n        /* \"#utility.yul\":2172:2705   */\n    tag_19:\n        /* \"#utility.yul\":2341:2345   */\n      0x00\n        /* \"#utility.yul\":2379:2381   */\n      0x60\n        /* \"#utility.yul\":2368:2377   */\n      dup3\n        /* \"#utility.yul\":2364:2382   */\n      add\n        /* \"#utility.yul\":2356:2382   */\n      swap1\n      pop\n        /* \"#utility.yul\":2392:2463   */\n      tag_167\n        /* \"#utility.yul\":2460:2461   */\n      0x00\n        /* \"#utility.yul\":2449:2458   */\n      dup4\n        /* \"#utility.yul\":2445:2462   */\n      add\n        /* \"#utility.yul\":2436:2442   */\n      dup7\n        /* \"#utility.yul\":2392:2463   */\n      tag_115\n      jump\t// in\n    tag_167:\n        /* \"#utility.yul\":2473:2545   */\n      tag_168\n        /* \"#utility.yul\":2541:2543   */\n      0x20\n        /* \"#utility.yul\":2530:2539   */\n      dup4\n        /* \"#utility.yul\":2526:2544   */\n      add\n        /* \"#utility.yul\":2517:2523   */\n      dup6\n        /* \"#utility.yul\":2473:2545   */\n      tag_115\n      jump\t// in\n    tag_168:\n        /* \"#utility.yul\":2592:2601   */\n      dup2\n        /* \"#utility.yul\":2586:2590   */\n      dup2\n        /* \"#utility.yul\":2582:2602   */\n      sub\n        /* \"#utility.yul\":2577:2579   */\n      0x40\n        /* \"#utility.yul\":2566:2575   */\n      dup4\n        /* \"#utility.yul\":2562:2580   */\n      add\n        /* \"#utility.yul\":2555:2603   */\n      mstore\n        /* \"#utility.yul\":2620:2698   */\n      tag_169\n        /* \"#utility.yul\":2693:2697   */\n      dup2\n        /* \"#utility.yul\":2684:2690   */\n      dup5\n        /* \"#utility.yul\":2620:2698   */\n      tag_120\n      jump\t// in\n    tag_169:\n        /* \"#utility.yul\":2612:2698   */\n      swap1\n      pop\n        /* \"#utility.yul\":2172:2705   */\n      swap5\n      swap4\n      pop\n      pop\n      pop\n      pop\n      jump\t// out\n        /* \"#utility.yul\":2711:2837   */\n    tag_121:\n        /* \"#utility.yul\":2748:2755   */\n      0x00\n        /* \"#utility.yul\":2788:2830   */\n      0xffffffffffffffffffffffffffffffffffffffff\n        /* \"#utility.yul\":2781:2786   */\n      dup3\n        /* \"#utility.yul\":2777:2831   */\n      and\n        /* \"#utility.yul\":2766:2831   */\n      swap1\n      pop\n        /* \"#utility.yul\":2711:2837   */\n      swap2\n      swap1\n      pop\n      jump\t// out\n        /* \"#utility.yul\":2843:2939   */\n    tag_122:\n        /* \"#utility.yul\":2880:2887   */\n      0x00\n        /* \"#utility.yul\":2909:2933   */\n      tag_172\n        /* \"#utility.yul\":2927:2932   */\n      dup3\n        /* \"#utility.yul\":2909:2933   */\n      tag_121\n      jump\t// in\n    tag_172:\n        /* \"#utility.yul\":2898:2933   */\n      swap1\n      pop\n        /* \"#utility.yul\":2843:2939   */\n      swap2\n      swap1\n      pop\n      jump\t// out\n        /* \"#utility.yul\":2945:3067   */\n    tag_123:\n        /* \"#utility.yul\":3018:3042   */\n      tag_174\n        /* \"#utility.yul\":3036:3041   */\n      dup2\n        /* \"#utility.yul\":3018:3042   */\n      tag_122\n      jump\t// in\n    tag_174:\n        /* \"#utility.yul\":3011:3016   */\n      dup2\n        /* \"#utility.yul\":3008:3043   */\n      eq\n        /* \"#utility.yul\":2998:3061   */\n      tag_175\n      jumpi\n        /* \"#utility.yul\":3057:3058   */\n      0x00\n        /* \"#utility.yul\":3054:3055   */\n      dup1\n        /* \"#utility.yul\":3047:3059   */\n      revert\n        /* \"#utility.yul\":2998:3061   */\n    tag_175:\n        /* \"#utility.yul\":2945:3067   */\n      pop\n      jump\t// out\n        /* \"#utility.yul\":3073:3212   */\n    tag_124:\n        /* \"#utility.yul\":3119:3124   */\n      0x00\n        /* \"#utility.yul\":3157:3163   */\n      dup2\n        /* \"#utility.yul\":3144:3164   */\n      calldataload\n        /* \"#utility.yul\":3135:3164   */\n      swap1\n      pop\n        /* \"#utility.yul\":3173:3206   */\n      tag_177\n        /* \"#utility.yul\":3200:3205   */\n      dup2\n        /* \"#utility.yul\":3173:3206   */\n      tag_123\n      jump\t// in\n    tag_177:\n        /* \"#utility.yul\":3073:3212   */\n      swap3\n      swap2\n      pop\n      pop\n      jump\t// out\n        /* \"#utility.yul\":3218:3692   */\n    tag_22:\n        /* \"#utility.yul\":3286:3292   */\n      0x00\n        /* \"#utility.yul\":3294:3300   */\n      dup1\n        /* \"#utility.yul\":3343:3345   */\n      0x40\n        /* \"#utility.yul\":3331:3340   */\n      dup4\n        /* \"#utility.yul\":3322:3329   */\n      dup6\n        /* \"#utility.yul\":3318:3341   */\n      sub\n        /* \"#utility.yul\":3314:3346   */\n      slt\n        /* \"#utility.yul\":3311:3430   */\n      iszero\n      tag_179\n      jumpi\n        /* \"#utility.yul\":3349:3428   */\n      tag_180\n      tag_110\n      jump\t// in\n    tag_180:\n        /* \"#utility.yul\":3311:3430   */\n    tag_179:\n        /* \"#utility.yul\":3469:3470   */\n      0x00\n        /* \"#utility.yul\":3494:3547   */\n      tag_181\n        /* \"#utility.yul\":3539:3546   */\n      dup6\n        /* \"#utility.yul\":3530:3536   */\n      dup3\n        /* \"#utility.yul\":3519:3528   */\n      dup7\n        /* \"#utility.yul\":3515:3537   */\n      add\n        /* \"#utility.yul\":3494:3547   */\n      tag_124\n      jump\t// in\n    tag_181:\n        /* \"#utility.yul\":3484:3547   */\n      swap3\n      pop\n        /* \"#utility.yul\":3440:3557   */\n      pop\n        /* \"#utility.yul\":3596:3598   */\n      0x20\n        /* \"#utility.yul\":3622:3675   */\n      tag_182\n        /* \"#utility.yul\":3667:3674   */\n      dup6\n        /* \"#utility.yul\":3658:3664   */\n      dup3\n        /* \"#utility.yul\":3647:3656   */\n      dup7\n        /* \"#utility.yul\":3643:3665   */\n      add\n        /* \"#utility.yul\":3622:3675   */\n      tag_114\n      jump\t// in\n    tag_182:\n        /* \"#utility.yul\":3612:3675   */\n      swap2\n      pop\n        /* \"#utility.yul\":3567:3685   */\n      pop\n        /* \"#utility.yul\":3218:3692   */\n      swap3\n      pop\n      swap3\n      swap1\n      pop\n      jump\t// out\n        /* \"#utility.yul\":3698:3788   */\n    tag_125:\n        /* \"#utility.yul\":3732:3739   */\n      0x00\n        /* \"#utility.yul\":3775:3780   */\n      dup2\n        /* \"#utility.yul\":3768:3781   */\n      iszero\n        /* \"#utility.yul\":3761:3782   */\n      iszero\n        /* \"#utility.yul\":3750:3782   */\n      swap1\n      pop\n        /* \"#utility.yul\":3698:3788   */\n      swap2\n      swap1\n      pop\n      jump\t// out\n        /* \"#utility.yul\":3794:3903   */\n    tag_126:\n        /* \"#utility.yul\":3875:3896   */\n      tag_185\n        /* \"#utility.yul\":3890:3895   */\n      dup2\n        /* \"#utility.yul\":3875:3896   */\n      tag_125\n      jump\t// in\n    tag_185:\n        /* \"#utility.yul\":3870:3873   */\n      dup3\n        /* \"#utility.yul\":3863:3897   */\n      mstore\n        /* \"#utility.yul\":3794:3903   */\n      pop\n      pop\n      jump\t// out\n        /* \"#utility.yul\":3909:4119   */\n    tag_25:\n        /* \"#utility.yul\":3996:4000   */\n      0x00\n        /* \"#utility.yul\":4034:4036   */\n      0x20\n        /* \"#utility.yul\":4023:4032   */\n      dup3\n        /* \"#utility.yul\":4019:4037   */\n      add\n        /* \"#utility.yul\":4011:4037   */\n      swap1\n      pop\n        /* \"#utility.yul\":4047:4112   */\n      tag_187\n        /* \"#utility.yul\":4109:4110   */\n      0x00\n        /* \"#utility.yul\":4098:4107   */\n      dup4\n        /* \"#utility.yul\":4094:4111   */\n      add\n        /* \"#utility.yul\":4085:4091   */\n      dup5\n        /* \"#utility.yul\":4047:4112   */\n      tag_126\n      jump\t// in\n    tag_187:\n        /* \"#utility.yul\":3909:4119   */\n      swap3\n      swap2\n      pop\n      pop\n      jump\t// out\n        /* \"#utility.yul\":4125:4744   */\n    tag_28:\n        /* \"#utility.yul\":4202:4208   */\n      0x00\n        /* \"#utility.yul\":4210:4216   */\n      dup1\n        /* \"#utility.yul\":4218:4224   */\n      0x00\n        /* \"#utility.yul\":4267:4269   */\n      0x60\n        /* \"#utility.yul\":4255:4264   */\n      dup5\n        /* \"#utility.yul\":4246:4253   */\n      dup7\n        /* \"#utility.yul\":4242:4265   */\n      sub\n        /* \"#utility.yul\":4238:4270   */\n      slt\n        /* \"#utility.yul\":4235:4354   */\n      iszero\n      tag_189\n      jumpi\n        /* \"#utility.yul\":4273:4352   */\n      tag_190\n      tag_110\n      jump\t// in\n    tag_190:\n        /* \"#utility.yul\":4235:4354   */\n    tag_189:\n        /* \"#utility.yul\":4393:4394   */\n      0x00\n        /* \"#utility.yul\":4418:4471   */\n      tag_191\n        /* \"#utility.yul\":4463:4470   */\n      dup7\n        /* \"#utility.yul\":4454:4460   */\n      dup3\n        /* \"#utility.yul\":4443:4452   */\n      dup8\n        /* \"#utility.yul\":4439:4461   */\n      add\n        /* \"#utility.yul\":4418:4471   */\n      tag_124\n      jump\t// in\n    tag_191:\n        /* \"#utility.yul\":4408:4471   */\n      swap4\n      pop\n        /* \"#utility.yul\":4364:4481   */\n      pop\n        /* \"#utility.yul\":4520:4522   */\n      0x20\n        /* \"#utility.yul\":4546:4599   */\n      tag_192\n        /* \"#utility.yul\":4591:4598   */\n      dup7\n        /* \"#utility.yul\":4582:4588   */\n      dup3\n        /* \"#utility.yul\":4571:4580   */\n      dup8\n        /* \"#utility.yul\":4567:4589   */\n      add\n        /* \"#utility.yul\":4546:4599   */\n      tag_124\n      jump\t// in\n    tag_192:\n        /* \"#utility.yul\":4536:4599   */\n      swap3\n      pop\n        /* \"#utility.yul\":4491:4609   */\n      pop\n        /* \"#utility.yul\":4648:4650   */\n      0x40\n        /* \"#utility.yul\":4674:4727   */\n      tag_193\n        /* \"#utility.yul\":4719:4726   */\n      dup7\n        /* \"#utility.yul\":4710:4716   */\n      dup3\n        /* \"#utility.yul\":4699:4708   */\n      dup8\n        /* \"#utility.yul\":4695:4717   */\n      add\n        /* \"#utility.yul\":4674:4727   */\n      tag_114\n      jump\t// in\n    tag_193:\n        /* \"#utility.yul\":4664:4727   */\n      swap2\n      pop\n        /* \"#utility.yul\":4619:4737   */\n      pop\n        /* \"#utility.yul\":4125:4744   */\n      swap3\n      pop\n      swap3\n      pop\n      swap3\n      jump\t// out\n        /* \"#utility.yul\":4750:5079   */\n    tag_33:\n        /* \"#utility.yul\":4809:4815   */\n      0x00\n        /* \"#utility.yul\":4858:4860   */\n      0x20\n        /* \"#utility.yul\":4846:4855   */\n      dup3\n        /* \"#utility.yul\":4837:4844   */\n      dup5\n        /* \"#utility.yul\":4833:4856   */\n      sub\n        /* \"#utility.yul\":4829:4861   */\n      slt\n        /* \"#utility.yul\":4826:4945   */\n      iszero\n      tag_195\n      jumpi\n        /* \"#utility.yul\":4864:4943   */\n      tag_196\n      tag_110\n      jump\t// in\n    tag_196:\n        /* \"#utility.yul\":4826:4945   */\n    tag_195:\n        /* \"#utility.yul\":4984:4985   */\n      0x00\n        /* \"#utility.yul\":5009:5062   */\n      tag_197\n        /* \"#utility.yul\":5054:5061   */\n      dup5\n        /* \"#utility.yul\":5045:5051   */\n      dup3\n        /* \"#utility.yul\":5034:5043   */\n      dup6\n        /* \"#utility.yul\":5030:5052   */\n      add\n        /* \"#utility.yul\":5009:5062   */\n      tag_124\n      jump\t// in\n    tag_197:\n        /* \"#utility.yul\":4999:5062   */\n      swap2\n      pop\n        /* \"#utility.yul\":4955:5072   */\n      pop\n        /* \"#utility.yul\":4750:5079   */\n      swap3\n      swap2\n      pop\n      pop\n      jump\t// out\n        /* \"#utility.yul\":5085:5307   */\n    tag_36:\n        /* \"#utility.yul\":5178:5182   */\n      0x00\n        /* \"#utility.yul\":5216:5218   */\n      0x20\n        /* \"#utility.yul\":5205:5214   */\n      dup3\n        /* \"#utility.yul\":5201:5219   */\n      add\n        /* \"#utility.yul\":5193:5219   */\n      swap1\n      pop\n        /* \"#utility.yul\":5229:5300   */\n      tag_199\n        /* \"#utility.yul\":5297:5298   */\n      0x00\n        /* \"#utility.yul\":5286:5295   */\n      dup4\n        /* \"#utility.yul\":5282:5299   */\n      add\n        /* \"#utility.yul\":5273:5279   */\n      dup5\n        /* \"#utility.yul\":5229:5300   */\n      tag_115\n      jump\t// in\n    tag_199:\n        /* \"#utility.yul\":5085:5307   */\n      swap3\n      swap2\n      pop\n      pop\n      jump\t// out\n        /* \"#utility.yul\":5313:5787   */\n    tag_55:\n        /* \"#utility.yul\":5381:5387   */\n      0x00\n        /* \"#utility.yul\":5389:5395   */\n      dup1\n        /* \"#utility.yul\":5438:5440   */\n      0x40\n        /* \"#utility.yul\":5426:5435   */\n      dup4\n        /* \"#utility.yul\":5417:5424   */\n      dup6\n        /* \"#utility.yul\":5413:5436   */\n      sub\n        /* \"#utility.yul\":5409:5441   */\n      slt\n        /* \"#utility.yul\":5406:5525   */\n      iszero\n      tag_201\n      jumpi\n        /* \"#utility.yul\":5444:5523   */\n      tag_202\n      tag_110\n      jump\t// in\n    tag_202:\n        /* \"#utility.yul\":5406:5525   */\n    tag_201:\n        /* \"#utility.yul\":5564:5565   */\n      0x00\n        /* \"#utility.yul\":5589:5642   */\n      tag_203\n        /* \"#utility.yul\":5634:5641   */\n      dup6\n        /* \"#utility.yul\":5625:5631   */\n      dup3\n        /* \"#utility.yul\":5614:5623   */\n      dup7\n        /* \"#utility.yul\":5610:5632   */\n      add\n        /* \"#utility.yul\":5589:5642   */\n      tag_124\n      jump\t// in\n    tag_203:\n        /* \"#utility.yul\":5579:5642   */\n      swap3\n      pop\n        /* \"#utility.yul\":5535:5652   */\n      pop\n        /* \"#utility.yul\":5691:5693   */\n      0x20\n        /* \"#utility.yul\":5717:5770   */\n      tag_204\n        /* \"#utility.yul\":5762:5769   */\n      dup6\n        /* \"#utility.yul\":5753:5759   */\n      dup3\n        /* \"#utility.yul\":5742:5751   */\n      dup7\n        /* \"#utility.yul\":5738:5760   */\n      add\n        /* \"#utility.yul\":5717:5770   */\n      tag_124\n      jump\t// in\n    tag_204:\n        /* \"#utility.yul\":5707:5770   */\n      swap2\n      pop\n        /* \"#utility.yul\":5662:5780   */\n      pop\n        /* \"#utility.yul\":5313:5787   */\n      swap3\n      pop\n      swap3\n      swap1\n      pop\n      jump\t// out\n        /* \"#utility.yul\":5793:5911   */\n    tag_127:\n        /* \"#utility.yul\":5880:5904   */\n      tag_206\n        /* \"#utility.yul\":5898:5903   */\n      dup2\n        /* \"#utility.yul\":5880:5904   */\n      tag_122\n      jump\t// in\n    tag_206:\n        /* \"#utility.yul\":5875:5878   */\n      dup3\n        /* \"#utility.yul\":5868:5905   */\n      mstore\n        /* \"#utility.yul\":5793:5911   */\n      pop\n      pop\n      jump\t// out\n        /* \"#utility.yul\":5917:6470   */\n    tag_62:\n        /* \"#utility.yul\":6094:6098   */\n      0x00\n        /* \"#utility.yul\":6132:6135   */\n      0x80\n        /* \"#utility.yul\":6121:6130   */\n      dup3\n        /* \"#utility.yul\":6117:6136   */\n      add\n        /* \"#utility.yul\":6109:6136   */\n      swap1\n      pop\n        /* \"#utility.yul\":6146:6217   */\n      tag_208\n        /* \"#utility.yul\":6214:6215   */\n      0x00\n        /* \"#utility.yul\":6203:6212   */\n      dup4\n        /* \"#utility.yul\":6199:6216   */\n      add\n        /* \"#utility.yul\":6190:6196   */\n      dup8\n        /* \"#utility.yul\":6146:6217   */\n      tag_127\n      jump\t// in\n    tag_208:\n        /* \"#utility.yul\":6227:6299   */\n      tag_209\n        /* \"#utility.yul\":6295:6297   */\n      0x20\n        /* \"#utility.yul\":6284:6293   */\n      dup4\n        /* \"#utility.yul\":6280:6298   */\n      add\n        /* \"#utility.yul\":6271:6277   */\n      dup7\n        /* \"#utility.yul\":6227:6299   */\n      tag_127\n      jump\t// in\n    tag_209:\n        /* \"#utility.yul\":6309:6381   */\n      tag_210\n        /* \"#utility.yul\":6377:6379   */\n      0x40\n        /* \"#utility.yul\":6366:6375   */\n      dup4\n        /* \"#utility.yul\":6362:6380   */\n      add\n        /* \"#utility.yul\":6353:6359   */\n      dup6\n        /* \"#utility.yul\":6309:6381   */\n      tag_115\n      jump\t// in\n    tag_210:\n        /* \"#utility.yul\":6391:6463   */\n      tag_211\n        /* \"#utility.yul\":6459:6461   */\n      0x60\n        /* \"#utility.yul\":6448:6457   */\n      dup4\n        /* \"#utility.yul\":6444:6462   */\n      add\n        /* \"#utility.yul\":6435:6441   */\n      dup5\n        /* \"#utility.yul\":6391:6463   */\n      tag_115\n      jump\t// in\n    tag_211:\n        /* \"#utility.yul\":5917:6470   */\n      swap6\n      swap5\n      pop\n      pop\n      pop\n      pop\n      pop\n      jump\t// out\n        /* \"#utility.yul\":6476:6656   */\n    tag_128:\n        /* \"#utility.yul\":6524:6601   */\n      0x4e487b7100000000000000000000000000000000000000000000000000000000\n        /* \"#utility.yul\":6521:6522   */\n      0x00\n        /* \"#utility.yul\":6514:6602   */\n      mstore\n        /* \"#utility.yul\":6621:6625   */\n      0x22\n        /* \"#utility.yul\":6618:6619   */\n      0x04\n        /* \"#utility.yul\":6611:6626   */\n      mstore\n        /* \"#utility.yul\":6645:6649   */\n      0x24\n        /* \"#utility.yul\":6642:6643   */\n      0x00\n        /* \"#utility.yul\":6635:6650   */\n      revert\n        /* \"#utility.yul\":6662:6982   */\n    tag_66:\n        /* \"#utility.yul\":6706:6712   */\n      0x00\n        /* \"#utility.yul\":6743:6744   */\n      0x02\n        /* \"#utility.yul\":6737:6741   */\n      dup3\n        /* \"#utility.yul\":6733:6745   */\n      div\n        /* \"#utility.yul\":6723:6745   */\n      swap1\n      pop\n        /* \"#utility.yul\":6790:6791   */\n      0x01\n        /* \"#utility.yul\":6784:6788   */\n      dup3\n        /* \"#utility.yul\":6780:6792   */\n      and\n        /* \"#utility.yul\":6811:6829   */\n      dup1\n        /* \"#utility.yul\":6801:6882   */\n      tag_214\n      jumpi\n        /* \"#utility.yul\":6867:6871   */\n      0x7f\n        /* \"#utility.yul\":6859:6865   */\n      dup3\n        /* \"#utility.yul\":6855:6872   */\n      and\n        /* \"#utility.yul\":6845:6872   */\n      swap2\n      pop\n        /* \"#utility.yul\":6801:6882   */\n    tag_214:\n        /* \"#utility.yul\":6929:6931   */\n      0x20\n        /* \"#utility.yul\":6921:6927   */\n      dup3\n        /* \"#utility.yul\":6918:6932   */\n      lt\n        /* \"#utility.yul\":6898:6916   */\n      dup2\n        /* \"#utility.yul\":6895:6933   */\n      sub\n        /* \"#utility.yul\":6892:6976   */\n      tag_215\n      jumpi\n        /* \"#utility.yul\":6948:6966   */\n      tag_216\n      tag_128\n      jump\t// in\n    tag_216:\n        /* \"#utility.yul\":6892:6976   */\n    tag_215:\n        /* \"#utility.yul\":6713:6982   */\n      pop\n        /* \"#utility.yul\":6662:6982   */\n      swap2\n      swap1\n      pop\n      jump\t// out\n        /* \"#utility.yul\":6988:7153   */\n    tag_129:\n        /* \"#utility.yul\":7128:7145   */\n      0x496e76616c696420616464726573730000000000000000000000000000000000\n        /* \"#utility.yul\":7124:7125   */\n      0x00\n        /* \"#utility.yul\":7116:7122   */\n      dup3\n        /* \"#utility.yul\":7112:7126   */\n      add\n        /* \"#utility.yul\":7105:7146   */\n      mstore\n        /* \"#utility.yul\":6988:7153   */\n      pop\n      jump\t// out\n        /* \"#utility.yul\":7159:7525   */\n    tag_130:\n        /* \"#utility.yul\":7301:7304   */\n      0x00\n        /* \"#utility.yul\":7322:7389   */\n      tag_219\n        /* \"#utility.yul\":7386:7388   */\n      0x0f\n        /* \"#utility.yul\":7381:7384   */\n      dup4\n        /* \"#utility.yul\":7322:7389   */\n      tag_117\n      jump\t// in\n    tag_219:\n        /* \"#utility.yul\":7315:7389   */\n      swap2\n      pop\n        /* \"#utility.yul\":7398:7491   */\n      tag_220\n        /* \"#utility.yul\":7487:7490   */\n      dup3\n        /* \"#utility.yul\":7398:7491   */\n      tag_129\n      jump\t// in\n    tag_220:\n        /* \"#utility.yul\":7516:7518   */\n      0x20\n        /* \"#utility.yul\":7511:7514   */\n      dup3\n        /* \"#utility.yul\":7507:7519   */\n      add\n        /* \"#utility.yul\":7500:7519   */\n      swap1\n      pop\n        /* \"#utility.yul\":7159:7525   */\n      swap2\n      swap1\n      pop\n      jump\t// out\n        /* \"#utility.yul\":7531:7950   */\n    tag_76:\n        /* \"#utility.yul\":7697:7701   */\n      0x00\n        /* \"#utility.yul\":7735:7737   */\n      0x20\n        /* \"#utility.yul\":7724:7733   */\n      dup3\n        /* \"#utility.yul\":7720:7738   */\n      add\n        /* \"#utility.yul\":7712:7738   */\n      swap1\n      pop\n        /* \"#utility.yul\":7784:7793   */\n      dup2\n        /* \"#utility.yul\":7778:7782   */\n      dup2\n        /* \"#utility.yul\":7774:7794   */\n      sub\n        /* \"#utility.yul\":7770:7771   */\n      0x00\n        /* \"#utility.yul\":7759:7768   */\n      dup4\n        /* \"#utility.yul\":7755:7772   */\n      add\n        /* \"#utility.yul\":7748:7795   */\n      mstore\n        /* \"#utility.yul\":7812:7943   */\n      tag_222\n        /* \"#utility.yul\":7938:7942   */\n      dup2\n        /* \"#utility.yul\":7812:7943   */\n      tag_130\n      jump\t// in\n    tag_222:\n        /* \"#utility.yul\":7804:7943   */\n      swap1\n      pop\n        /* \"#utility.yul\":7531:7950   */\n      swap2\n      swap1\n      pop\n      jump\t// out\n        /* \"#utility.yul\":7956:8126   */\n    tag_131:\n        /* \"#utility.yul\":8096:8118   */\n      0x496e73756666696369656e742062616c616e6365000000000000000000000000\n        /* \"#utility.yul\":8092:8093   */\n      0x00\n        /* \"#utility.yul\":8084:8090   */\n      dup3\n        /* \"#utility.yul\":8080:8094   */\n      add\n        /* \"#utility.yul\":8073:8119   */\n      mstore\n        /* \"#utility.yul\":7956:8126   */\n      pop\n      jump\t// out\n        /* \"#utility.yul\":8132:8498   */\n    tag_132:\n        /* \"#utility.yul\":8274:8277   */\n      0x00\n        /* \"#utility.yul\":8295:8362   */\n      tag_225\n        /* \"#utility.yul\":8359:8361   */\n      0x14\n        /* \"#utility.yul\":8354:8357   */\n      dup4\n        /* \"#utility.yul\":8295:8362   */\n      tag_117\n      jump\t// in\n    tag_225:\n        /* \"#utility.yul\":8288:8362   */\n      swap2\n      pop\n        /* \"#utility.yul\":8371:8464   */\n      tag_226\n        /* \"#utility.yul\":8460:8463   */\n      dup3\n        /* \"#utility.yul\":8371:8464   */\n      tag_131\n      jump\t// in\n    tag_226:\n        /* \"#utility.yul\":8489:8491   */\n      0x20\n        /* \"#utility.yul\":8484:8487   */\n      dup3\n        /* \"#utility.yul\":8480:8492   */\n      add\n        /* \"#utility.yul\":8473:8492   */\n      swap1\n      pop\n        /* \"#utility.yul\":8132:8498   */\n      swap2\n      swap1\n      pop\n      jump\t// out\n        /* \"#utility.yul\":8504:8923   */\n    tag_79:\n        /* \"#utility.yul\":8670:8674   */\n      0x00\n        /* \"#utility.yul\":8708:8710   */\n      0x20\n        /* \"#utility.yul\":8697:8706   */\n      dup3\n        /* \"#utility.yul\":8693:8711   */\n      add\n        /* \"#utility.yul\":8685:8711   */\n      swap1\n      pop\n        /* \"#utility.yul\":8757:8766   */\n      dup2\n        /* \"#utility.yul\":8751:8755   */\n      dup2\n        /* \"#utility.yul\":8747:8767   */\n      sub\n        /* \"#utility.yul\":8743:8744   */\n      0x00\n        /* \"#utility.yul\":8732:8741   */\n      dup4\n        /* \"#utility.yul\":8728:8745   */\n      add\n        /* \"#utility.yul\":8721:8768   */\n      mstore\n        /* \"#utility.yul\":8785:8916   */\n      tag_228\n        /* \"#utility.yul\":8911:8915   */\n      dup2\n        /* \"#utility.yul\":8785:8916   */\n      tag_132\n      jump\t// in\n    tag_228:\n        /* \"#utility.yul\":8777:8916   */\n      swap1\n      pop\n        /* \"#utility.yul\":8504:8923   */\n      swap2\n      swap1\n      pop\n      jump\t// out\n        /* \"#utility.yul\":8929:9097   */\n    tag_133:\n        /* \"#utility.yul\":9069:9089   */\n      0x416c6c6f77616e63652065786365656465640000000000000000000000000000\n        /* \"#utility.yul\":9065:9066   */\n      0x00\n        /* \"#utility.yul\":9057:9063   */\n      dup3\n        /* \"#utility.yul\":9053:9067   */\n      add\n        /* \"#utility.yul\":9046:9090   */\n      mstore\n        /* \"#utility.yul\":8929:9097   */\n      pop\n      jump\t// out\n        /* \"#utility.yul\":9103:9469   */\n    tag_134:\n        /* \"#utility.yul\":9245:9248   */\n      0x00\n        /* \"#utility.yul\":9266:9333   */\n      tag_231\n        /* \"#utility.yul\":9330:9332   */\n      0x12\n        /* \"#utility.yul\":9325:9328   */\n      dup4\n        /* \"#utility.yul\":9266:9333   */\n      tag_117\n      jump\t// in\n    tag_231:\n        /* \"#utility.yul\":9259:9333   */\n      swap2\n      pop\n        /* \"#utility.yul\":9342:9435   */\n      tag_232\n        /* \"#utility.yul\":9431:9434   */\n      dup3\n        /* \"#utility.yul\":9342:9435   */\n      tag_133\n      jump\t// in\n    tag_232:\n        /* \"#utility.yul\":9460:9462   */\n      0x20\n        /* \"#utility.yul\":9455:9458   */\n      dup3\n        /* \"#utility.yul\":9451:9463   */\n      add\n        /* \"#utility.yul\":9444:9463   */\n      swap1\n      pop\n        /* \"#utility.yul\":9103:9469   */\n      swap2\n      swap1\n      pop\n      jump\t// out\n        /* \"#utility.yul\":9475:9894   */\n    tag_82:\n        /* \"#utility.yul\":9641:9645   */\n      0x00\n        /* \"#utility.yul\":9679:9681   */\n      0x20\n        /* \"#utility.yul\":9668:9677   */\n      dup3\n        /* \"#utility.yul\":9664:9682   */\n      add\n        /* \"#utility.yul\":9656:9682   */\n      swap1\n      pop\n        /* \"#utility.yul\":9728:9737   */\n      dup2\n        /* \"#utility.yul\":9722:9726   */\n      dup2\n        /* \"#utility.yul\":9718:9738   */\n      sub\n        /* \"#utility.yul\":9714:9715   */\n      0x00\n        /* \"#utility.yul\":9703:9712   */\n      dup4\n        /* \"#utility.yul\":9699:9716   */\n      add\n        /* \"#utility.yul\":9692:9739   */\n      mstore\n        /* \"#utility.yul\":9756:9887   */\n      tag_234\n        /* \"#utility.yul\":9882:9886   */\n      dup2\n        /* \"#utility.yul\":9756:9887   */\n      tag_134\n      jump\t// in\n    tag_234:\n        /* \"#utility.yul\":9748:9887   */\n      swap1\n      pop\n        /* \"#utility.yul\":9475:9894   */\n      swap2\n      swap1\n      pop\n      jump\t// out\n        /* \"#utility.yul\":9900:10080   */\n    tag_135:\n        /* \"#utility.yul\":9948:10025   */\n      0x4e487b7100000000000000000000000000000000000000000000000000000000\n        /* \"#utility.yul\":9945:9946   */\n      0x00\n        /* \"#utility.yul\":9938:10026   */\n      mstore\n        /* \"#utility.yul\":10045:10049   */\n      0x11\n        /* \"#utility.yul\":10042:10043   */\n      0x04\n        /* \"#utility.yul\":10035:10050   */\n      mstore\n        /* \"#utility.yul\":10069:10073   */\n      0x24\n        /* \"#utility.yul\":10066:10067   */\n      0x00\n        /* \"#utility.yul\":10059:10074   */\n      revert\n        /* \"#utility.yul\":10086:10280   */\n    tag_84:\n        /* \"#utility.yul\":10126:10130   */\n      0x00\n        /* \"#utility.yul\":10146:10166   */\n      tag_237\n        /* \"#utility.yul\":10164:10165   */\n      dup3\n        /* \"#utility.yul\":10146:10166   */\n      tag_112\n      jump\t// in\n    tag_237:\n        /* \"#utility.yul\":10141:10166   */\n      swap2\n      pop\n        /* \"#utility.yul\":10180:10200   */\n      tag_238\n        /* \"#utility.yul\":10198:10199   */\n      dup4\n        /* \"#utility.yul\":10180:10200   */\n      tag_112\n      jump\t// in\n    tag_238:\n        /* \"#utility.yul\":10175:10200   */\n      swap3\n      pop\n        /* \"#utility.yul\":10224:10225   */\n      dup3\n        /* \"#utility.yul\":10221:10222   */\n      dup3\n        /* \"#utility.yul\":10217:10226   */\n      sub\n        /* \"#utility.yul\":10209:10226   */\n      swap1\n      pop\n        /* \"#utility.yul\":10248:10249   */\n      dup2\n        /* \"#utility.yul\":10242:10246   */\n      dup2\n        /* \"#utility.yul\":10239:10250   */\n      gt\n        /* \"#utility.yul\":10236:10273   */\n      iszero\n      tag_239\n      jumpi\n        /* \"#utility.yul\":10253:10271   */\n      tag_240\n      tag_135\n      jump\t// in\n    tag_240:\n        /* \"#utility.yul\":10236:10273   */\n    tag_239:\n        /* \"#utility.yul\":10086:10280   */\n      swap3\n      swap2\n      pop\n      pop\n      jump\t// out\n        /* \"#utility.yul\":10286:10477   */\n    tag_86:\n        /* \"#utility.yul\":10326:10329   */\n      0x00\n        /* \"#utility.yul\":10345:10365   */\n      tag_242\n        /* \"#utility.yul\":10363:10364   */\n      dup3\n        /* \"#utility.yul\":10345:10365   */\n      tag_112\n      jump\t// in\n    tag_242:\n        /* \"#utility.yul\":10340:10365   */\n      swap2\n      pop\n        /* \"#utility.yul\":10379:10399   */\n      tag_243\n        /* \"#utility.yul\":10397:10398   */\n      dup4\n        /* \"#utility.yul\":10379:10399   */\n      tag_112\n      jump\t// in\n    tag_243:\n        /* \"#utility.yul\":10374:10399   */\n      swap3\n      pop\n        /* \"#utility.yul\":10422:10423   */\n      dup3\n        /* \"#utility.yul\":10419:10420   */\n      dup3\n        /* \"#utility.yul\":10415:10424   */\n      add\n        /* \"#utility.yul\":10408:10424   */\n      swap1\n      pop\n        /* \"#utility.yul\":10443:10446   */\n      dup1\n        /* \"#utility.yul\":10440:10441   */\n      dup3\n        /* \"#utility.yul\":10437:10447   */\n      gt\n        /* \"#utility.yul\":10434:10470   */\n      iszero\n      tag_244\n      jumpi\n        /* \"#utility.yul\":10450:10468   */\n      tag_245\n      tag_135\n      jump\t// in\n    tag_245:\n        /* \"#utility.yul\":10434:10470   */\n    tag_244:\n        /* \"#utility.yul\":10286:10477   */\n      swap3\n      swap2\n      pop\n      pop\n      jump\t// out\n        /* \"#utility.yul\":10483:10660   */\n    tag_136:\n        /* \"#utility.yul\":10623:10652   */\n      0x496e73756666696369656e7420636172626f6e20637265646974730000000000\n        /* \"#utility.yul\":10619:10620   */\n      0x00\n        /* \"#utility.yul\":10611:10617   */\n      dup3\n        /* \"#utility.yul\":10607:10621   */\n      add\n        /* \"#utility.yul\":10600:10653   */\n      mstore\n        /* \"#utility.yul\":10483:10660   */\n      pop\n      jump\t// out\n        /* \"#utility.yul\":10666:11032   */\n    tag_137:\n        /* \"#utility.yul\":10808:10811   */\n      0x00\n        /* \"#utility.yul\":10829:10896   */\n      tag_248\n        /* \"#utility.yul\":10893:10895   */\n      0x1b\n        /* \"#utility.yul\":10888:10891   */\n      dup4\n        /* \"#utility.yul\":10829:10896   */\n      tag_117\n      jump\t// in\n    tag_248:\n        /* \"#utility.yul\":10822:10896   */\n      swap2\n      pop\n        /* \"#utility.yul\":10905:10998   */\n      tag_249\n        /* \"#utility.yul\":10994:10997   */\n      dup3\n        /* \"#utility.yul\":10905:10998   */\n      tag_136\n      jump\t// in\n    tag_249:\n        /* \"#utility.yul\":11023:11025   */\n      0x20\n        /* \"#utility.yul\":11018:11021   */\n      dup3\n        /* \"#utility.yul\":11014:11026   */\n      add\n        /* \"#utility.yul\":11007:11026   */\n      swap1\n      pop\n        /* \"#utility.yul\":10666:11032   */\n      swap2\n      swap1\n      pop\n      jump\t// out\n        /* \"#utility.yul\":11038:11457   */\n    tag_102:\n        /* \"#utility.yul\":11204:11208   */\n      0x00\n        /* \"#utility.yul\":11242:11244   */\n      0x20\n        /* \"#utility.yul\":11231:11240   */\n      dup3\n        /* \"#utility.yul\":11227:11245   */\n      add\n        /* \"#utility.yul\":11219:11245   */\n      swap1\n      pop\n        /* \"#utility.yul\":11291:11300   */\n      dup2\n        /* \"#utility.yul\":11285:11289   */\n      dup2\n        /* \"#utility.yul\":11281:11301   */\n      sub\n        /* \"#utility.yul\":11277:11278   */\n      0x00\n        /* \"#utility.yul\":11266:11275   */\n      dup4\n        /* \"#utility.yul\":11262:11279   */\n      add\n        /* \"#utility.yul\":11255:11302   */\n      mstore\n        /* \"#utility.yul\":11319:11450   */\n      tag_251\n        /* \"#utility.yul\":11445:11449   */\n      dup2\n        /* \"#utility.yul\":11319:11450   */\n      tag_137\n      jump\t// in\n    tag_251:\n        /* \"#utility.yul\":11311:11450   */\n      swap1\n      pop\n        /* \"#utility.yul\":11038:11457   */\n      swap2\n      swap1\n      pop\n      jump\t// out\n\n    auxdata: 0xa2646970667358221220eeeb3b68a403129ba6fb3be35cc603314e6ff313028b93b8e298f7d0d5f9a22f64736f6c63430008120033\n}\n",
				"bytecode": {
					"linkReferences": {},
					"object": "608060405234801561001057600080fd5b506112f3806100206000396000f3fe608060405234801561001057600080fd5b506004361061009e5760003560e01c8063a9059cbb11610066578063a9059cbb14610195578063afcdd813146101c5578063b193c201146101f5578063dd62ed3e14610225578063e13c1f60146102555761009e565b8063036a1c22146100a3578063095ea7b3146100d557806323b872dd1461010557806370a08231146101355780637aa2bdd414610165575b600080fd5b6100bd60048036038101906100b89190610d09565b610288565b6040516100cc93929190610dd5565b60405180910390f35b6100ef60048036038101906100ea9190610e71565b61034a565b6040516100fc9190610ecc565b60405180910390f35b61011f600480360381019061011a9190610ee7565b61043c565b60405161012c9190610ecc565b60405180910390f35b61014f600480360381019061014a9190610f3a565b610799565b60405161015c9190610f67565b60405180910390f35b61017f600480360381019061017a9190610f3a565b6107b1565b60405161018c9190610f67565b60405180910390f35b6101af60048036038101906101aa9190610e71565b6107c9565b6040516101bc9190610ecc565b60405180910390f35b6101df60048036038101906101da9190610e71565b6109d3565b6040516101ec9190610ecc565b60405180910390f35b61020f600480360381019061020a9190610f3a565b610be0565b60405161021c9190610f67565b60405180910390f35b61023f600480360381019061023a9190610f82565b610c29565b60405161024c9190610f67565b60405180910390f35b61026f600480360381019061026a9190610d09565b610c4e565b60405161027f9493929190610fd1565b60405180910390f35b6003818154811061029857600080fd5b90600052602060002090600302016000915090508060000154908060010154908060020180546102c790611045565b80601f01602080910402602001604051908101604052809291908181526020018280546102f390611045565b80156103405780601f1061031557610100808354040283529160200191610340565b820191906000526020600020905b81548152906001019060200180831161032357829003601f168201915b5050505050905083565b600081600160003373ffffffffffffffffffffffffffffffffffffffff1673ffffffffffffffffffffffffffffffffffffffff16815260200190815260200160002060008573ffffffffffffffffffffffffffffffffffffffff1673ffffffffffffffffffffffffffffffffffffffff168152602001908152602001600020819055508273ffffffffffffffffffffffffffffffffffffffff163373ffffffffffffffffffffffffffffffffffffffff167f8c5be1e5ebec7d5bd14f71427d1e84f3dd0314c0f7b2291e5b200ac8c7c3b9258460405161042a9190610f67565b60405180910390a36001905092915050565b60008073ffffffffffffffffffffffffffffffffffffffff168373ffffffffffffffffffffffffffffffffffffffff16036104ac576040517f08c379a00000000000000000000000000000000000000000000000000000000081526004016104a3906110c2565b60405180910390fd5b816000808673ffffffffffffffffffffffffffffffffffffffff1673ffffffffffffffffffffffffffffffffffffffff16815260200190815260200160002054101561052d576040517f08c379a00000000000000000000000000000000000000000000000000000000081526004016105249061112e565b60405180910390fd5b81600160008673ffffffffffffffffffffffffffffffffffffffff1673ffffffffffffffffffffffffffffffffffffffff16815260200190815260200160002060003373ffffffffffffffffffffffffffffffffffffffff1673ffffffffffffffffffffffffffffffffffffffff1681526020019081526020016000205410156105ec576040517f08c379a00000000000000000000000000000000000000000000000000000000081526004016105e39061119a565b60405180910390fd5b816000808673ffffffffffffffffffffffffffffffffffffffff1673ffffffffffffffffffffffffffffffffffffffff168152602001908152602001600020600082825461063a91906111e9565b92505081905550816000808573ffffffffffffffffffffffffffffffffffffffff1673ffffffffffffffffffffffffffffffffffffffff168152602001908152602001600020600082825461068f919061121d565b9250508190555081600160008673ffffffffffffffffffffffffffffffffffffffff1673ffffffffffffffffffffffffffffffffffffffff16815260200190815260200160002060003373ffffffffffffffffffffffffffffffffffffffff1673ffffffffffffffffffffffffffffffffffffffff168152602001908152602001600020600082825461072291906111e9565b925050819055508273ffffffffffffffffffffffffffffffffffffffff168473ffffffffffffffffffffffffffffffffffffffff167fddf252ad1be2c89b69c2b068fc378daa952ba7f163c4a11628f55a4df523b3ef846040516107869190610f67565b60405180910390a3600190509392505050565b60006020528060005260406000206000915090505481565b60026020528060005260406000206000915090505481565b60008073ffffffffffffffffffffffffffffffffffffffff168373ffffffffffffffffffffffffffffffffffffffff1603610839576040517f08c379a0000000000000000000000000000000000000000000000000000000008152600401610830906110c2565b60405180910390fd5b816000803373ffffffffffffffffffffffffffffffffffffffff1673ffffffffffffffffffffffffffffffffffffffff1681526020019081526020016000205410156108ba576040517f08c379a00000000000000000000000000000000000000000000000000000000081526004016108b19061112e565b60405180910390fd5b816000803373ffffffffffffffffffffffffffffffffffffffff1673ffffffffffffffffffffffffffffffffffffffff168152602001908152602001600020600082825461090891906111e9565b92505081905550816000808573ffffffffffffffffffffffffffffffffffffffff1673ffffffffffffffffffffffffffffffffffffffff168152602001908152602001600020600082825461095d919061121d565b925050819055508273ffffffffffffffffffffffffffffffffffffffff163373ffffffffffffffffffffffffffffffffffffffff167fddf252ad1be2c89b69c2b068fc378daa952ba7f163c4a11628f55a4df523b3ef846040516109c19190610f67565b60405180910390a36001905092915050565b60008073ffffffffffffffffffffffffffffffffffffffff168373ffffffffffffffffffffffffffffffffffffffff1603610a43576040517f08c379a0000000000000000000000000000000000000000000000000000000008152600401610a3a906110c2565b60405180910390fd5b81600260003373ffffffffffffffffffffffffffffffffffffffff1673ffffffffffffffffffffffffffffffffffffffff168152602001908152602001600020541015610ac5576040517f08c379a0000000000000000000000000000000000000000000000000000000008152600401610abc9061129d565b60405180910390fd5b81600260003373ffffffffffffffffffffffffffffffffffffffff1673ffffffffffffffffffffffffffffffffffffffff1681526020019081526020016000206000828254610b1491906111e9565b9250508190555081600260008573ffffffffffffffffffffffffffffffffffffffff1673ffffffffffffffffffffffffffffffffffffffff1681526020019081526020016000206000828254610b6a919061121d565b925050819055508273ffffffffffffffffffffffffffffffffffffffff163373ffffffffffffffffffffffffffffffffffffffff167f7e95113809daf6b378cb1caf9641a894a32fc97bfa22edaffd31d92564400ec084604051610bce9190610f67565b60405180910390a36001905092915050565b6000600260008373ffffffffffffffffffffffffffffffffffffffff1673ffffffffffffffffffffffffffffffffffffffff168152602001908152602001600020549050919050565b6001602052816000526040600020602052806000526040600020600091509150505481565b60048181548110610c5e57600080fd5b90600052602060002090600402016000915090508060000160009054906101000a900473ffffffffffffffffffffffffffffffffffffffff16908060010160009054906101000a900473ffffffffffffffffffffffffffffffffffffffff16908060020154908060030154905084565b600080fd5b6000819050919050565b610ce681610cd3565b8114610cf157600080fd5b50565b600081359050610d0381610cdd565b92915050565b600060208284031215610d1f57610d1e610cce565b5b6000610d2d84828501610cf4565b91505092915050565b610d3f81610cd3565b82525050565b600081519050919050565b600082825260208201905092915050565b60005b83811015610d7f578082015181840152602081019050610d64565b60008484015250505050565b6000601f19601f8301169050919050565b6000610da782610d45565b610db18185610d50565b9350610dc1818560208601610d61565b610dca81610d8b565b840191505092915050565b6000606082019050610dea6000830186610d36565b610df76020830185610d36565b8181036040830152610e098184610d9c565b9050949350505050565b600073ffffffffffffffffffffffffffffffffffffffff82169050919050565b6000610e3e82610e13565b9050919050565b610e4e81610e33565b8114610e5957600080fd5b50565b600081359050610e6b81610e45565b92915050565b60008060408385031215610e8857610e87610cce565b5b6000610e9685828601610e5c565b9250506020610ea785828601610cf4565b9150509250929050565b60008115159050919050565b610ec681610eb1565b82525050565b6000602082019050610ee16000830184610ebd565b92915050565b600080600060608486031215610f0057610eff610cce565b5b6000610f0e86828701610e5c565b9350506020610f1f86828701610e5c565b9250506040610f3086828701610cf4565b9150509250925092565b600060208284031215610f5057610f4f610cce565b5b6000610f5e84828501610e5c565b91505092915050565b6000602082019050610f7c6000830184610d36565b92915050565b60008060408385031215610f9957610f98610cce565b5b6000610fa785828601610e5c565b9250506020610fb885828601610e5c565b9150509250929050565b610fcb81610e33565b82525050565b6000608082019050610fe66000830187610fc2565b610ff36020830186610fc2565b6110006040830185610d36565b61100d6060830184610d36565b95945050505050565b7f4e487b7100000000000000000000000000000000000000000000000000000000600052602260045260246000fd5b6000600282049050600182168061105d57607f821691505b6020821081036110705761106f611016565b5b50919050565b7f496e76616c696420616464726573730000000000000000000000000000000000600082015250565b60006110ac600f83610d50565b91506110b782611076565b602082019050919050565b600060208201905081810360008301526110db8161109f565b9050919050565b7f496e73756666696369656e742062616c616e6365000000000000000000000000600082015250565b6000611118601483610d50565b9150611123826110e2565b602082019050919050565b600060208201905081810360008301526111478161110b565b9050919050565b7f416c6c6f77616e63652065786365656465640000000000000000000000000000600082015250565b6000611184601283610d50565b915061118f8261114e565b602082019050919050565b600060208201905081810360008301526111b381611177565b9050919050565b7f4e487b7100000000000000000000000000000000000000000000000000000000600052601160045260246000fd5b60006111f482610cd3565b91506111ff83610cd3565b9250828203905081811115611217576112166111ba565b5b92915050565b600061122882610cd3565b915061123383610cd3565b925082820190508082111561124b5761124a6111ba565b5b92915050565b7f496e73756666696369656e7420636172626f6e20637265646974730000000000600082015250565b6000611287601b83610d50565b915061129282611251565b602082019050919050565b600060208201905081810360008301526112b68161127a565b905091905056fea2646970667358221220eeeb3b68a403129ba6fb3be35cc603314e6ff313028b93b8e298f7d0d5f9a22f64736f6c63430008120033",
					"opcodes": "PUSH1 0x80 PUSH1 0x40 MSTORE CALLVALUE DUP1 ISZERO PUSH2 0x10 JUMPI PUSH1 0x0 DUP1 REVERT JUMPDEST POP PUSH2 0x12F3 DUP1 PUSH2 0x20 PUSH1 0x0 CODECOPY PUSH1 0x0 RETURN INVALID PUSH1 0x80 PUSH1 0x40 MSTORE CALLVALUE DUP1 ISZERO PUSH2 0x10 JUMPI PUSH1 0x0 DUP1 REVERT JUMPDEST POP PUSH1 0x4 CALLDATASIZE LT PUSH2 0x9E JUMPI PUSH1 0x0 CALLDATALOAD PUSH1 0xE0 SHR DUP1 PUSH4 0xA9059CBB GT PUSH2 0x66 JUMPI DUP1 PUSH4 0xA9059CBB EQ PUSH2 0x195 JUMPI DUP1 PUSH4 0xAFCDD813 EQ PUSH2 0x1C5 JUMPI DUP1 PUSH4 0xB193C201 EQ PUSH2 0x1F5 JUMPI DUP1 PUSH4 0xDD62ED3E EQ PUSH2 0x225 JUMPI DUP1 PUSH4 0xE13C1F60 EQ PUSH2 0x255 JUMPI PUSH2 0x9E JUMP JUMPDEST DUP1 PUSH4 0x36A1C22 EQ PUSH2 0xA3 JUMPI DUP1 PUSH4 0x95EA7B3 EQ PUSH2 0xD5 JUMPI DUP1 PUSH4 0x23B872DD EQ PUSH2 0x105 JUMPI DUP1 PUSH4 0x70A08231 EQ PUSH2 0x135 JUMPI DUP1 PUSH4 0x7AA2BDD4 EQ PUSH2 0x165 JUMPI JUMPDEST PUSH1 0x0 DUP1 REVERT JUMPDEST PUSH2 0xBD PUSH1 0x4 DUP1 CALLDATASIZE SUB DUP2 ADD SWAP1 PUSH2 0xB8 SWAP2 SWAP1 PUSH2 0xD09 JUMP JUMPDEST PUSH2 0x288 JUMP JUMPDEST PUSH1 0x40 MLOAD PUSH2 0xCC SWAP4 SWAP3 SWAP2 SWAP1 PUSH2 0xDD5 JUMP JUMPDEST PUSH1 0x40 MLOAD DUP1 SWAP2 SUB SWAP1 RETURN JUMPDEST PUSH2 0xEF PUSH1 0x4 DUP1 CALLDATASIZE SUB DUP2 ADD SWAP1 PUSH2 0xEA SWAP2 SWAP1 PUSH2 0xE71 JUMP JUMPDEST PUSH2 0x34A JUMP JUMPDEST PUSH1 0x40 MLOAD PUSH2 0xFC SWAP2 SWAP1 PUSH2 0xECC JUMP JUMPDEST PUSH1 0x40 MLOAD DUP1 SWAP2 SUB SWAP1 RETURN JUMPDEST PUSH2 0x11F PUSH1 0x4 DUP1 CALLDATASIZE SUB DUP2 ADD SWAP1 PUSH2 0x11A SWAP2 SWAP1 PUSH2 0xEE7 JUMP JUMPDEST PUSH2 0x43C JUMP JUMPDEST PUSH1 0x40 MLOAD PUSH2 0x12C SWAP2 SWAP1 PUSH2 0xECC JUMP JUMPDEST PUSH1 0x40 MLOAD DUP1 SWAP2 SUB SWAP1 RETURN JUMPDEST PUSH2 0x14F PUSH1 0x4 DUP1 CALLDATASIZE SUB DUP2 ADD SWAP1 PUSH2 0x14A SWAP2 SWAP1 PUSH2 0xF3A JUMP JUMPDEST PUSH2 0x799 JUMP JUMPDEST PUSH1 0x40 MLOAD PUSH2 0x15C SWAP2 SWAP1 PUSH2 0xF67 JUMP JUMPDEST PUSH1 0x40 MLOAD DUP1 SWAP2 SUB SWAP1 RETURN JUMPDEST PUSH2 0x17F PUSH1 0x4 DUP1 CALLDATASIZE SUB DUP2 ADD SWAP1 PUSH2 0x17A SWAP2 SWAP1 PUSH2 0xF3A JUMP JUMPDEST PUSH2 0x7B1 JUMP JUMPDEST PUSH1 0x40 MLOAD PUSH2 0x18C SWAP2 SWAP1 PUSH2 0xF67 JUMP JUMPDEST PUSH1 0x40 MLOAD DUP1 SWAP2 SUB SWAP1 RETURN JUMPDEST PUSH2 0x1AF PUSH1 0x4 DUP1 CALLDATASIZE SUB DUP2 ADD SWAP1 PUSH2 0x1AA SWAP2 SWAP1 PUSH2 0xE71 JUMP JUMPDEST PUSH2 0x7C9 JUMP JUMPDEST PUSH1 0x40 MLOAD PUSH2 0x1BC SWAP2 SWAP1 PUSH2 0xECC JUMP JUMPDEST PUSH1 0x40 MLOAD DUP1 SWAP2 SUB SWAP1 RETURN JUMPDEST PUSH2 0x1DF PUSH1 0x4 DUP1 CALLDATASIZE SUB DUP2 ADD SWAP1 PUSH2 0x1DA SWAP2 SWAP1 PUSH2 0xE71 JUMP JUMPDEST PUSH2 0x9D3 JUMP JUMPDEST PUSH1 0x40 MLOAD PUSH2 0x1EC SWAP2 SWAP1 PUSH2 0xECC JUMP JUMPDEST PUSH1 0x40 MLOAD DUP1 SWAP2 SUB SWAP1 RETURN JUMPDEST PUSH2 0x20F PUSH1 0x4 DUP1 CALLDATASIZE SUB DUP2 ADD SWAP1 PUSH2 0x20A SWAP2 SWAP1 PUSH2 0xF3A JUMP JUMPDEST PUSH2 0xBE0 JUMP JUMPDEST PUSH1 0x40 MLOAD PUSH2 0x21C SWAP2 SWAP1 PUSH2 0xF67 JUMP JUMPDEST PUSH1 0x40 MLOAD DUP1 SWAP2 SUB SWAP1 RETURN JUMPDEST PUSH2 0x23F PUSH1 0x4 DUP1 CALLDATASIZE SUB DUP2 ADD SWAP1 PUSH2 0x23A SWAP2 SWAP1 PUSH2 0xF82 JUMP JUMPDEST PUSH2 0xC29 JUMP JUMPDEST PUSH1 0x40 MLOAD PUSH2 0x24C SWAP2 SWAP1 PUSH2 0xF67 JUMP JUMPDEST PUSH1 0x40 MLOAD DUP1 SWAP2 SUB SWAP1 RETURN JUMPDEST PUSH2 0x26F PUSH1 0x4 DUP1 CALLDATASIZE SUB DUP2 ADD SWAP1 PUSH2 0x26A SWAP2 SWAP1 PUSH2 0xD09 JUMP JUMPDEST PUSH2 0xC4E JUMP JUMPDEST PUSH1 0x40 MLOAD PUSH2 0x27F SWAP5 SWAP4 SWAP3 SWAP2 SWAP1 PUSH2 0xFD1 JUMP JUMPDEST PUSH1 0x40 MLOAD DUP1 SWAP2 SUB SWAP1 RETURN JUMPDEST PUSH1 0x3 DUP2 DUP2 SLOAD DUP2 LT PUSH2 0x298 JUMPI PUSH1 0x0 DUP1 REVERT JUMPDEST SWAP1 PUSH1 0x0 MSTORE PUSH1 0x20 PUSH1 0x0 KECCAK256 SWAP1 PUSH1 0x3 MUL ADD PUSH1 0x0 SWAP2 POP SWAP1 POP DUP1 PUSH1 0x0 ADD SLOAD SWAP1 DUP1 PUSH1 0x1 ADD SLOAD SWAP1 DUP1 PUSH1 0x2 ADD DUP1 SLOAD PUSH2 0x2C7 SWAP1 PUSH2 0x1045 JUMP JUMPDEST DUP1 PUSH1 0x1F ADD PUSH1 0x20 DUP1 SWAP2 DIV MUL PUSH1 0x20 ADD PUSH1 0x40 MLOAD SWAP1 DUP2 ADD PUSH1 0x40 MSTORE DUP1 SWAP3 SWAP2 SWAP1 DUP2 DUP2 MSTORE PUSH1 0x20 ADD DUP3 DUP1 SLOAD PUSH2 0x2F3 SWAP1 PUSH2 0x1045 JUMP JUMPDEST DUP1 ISZERO PUSH2 0x340 JUMPI DUP1 PUSH1 0x1F LT PUSH2 0x315 JUMPI PUSH2 0x100 DUP1 DUP4 SLOAD DIV MUL DUP4 MSTORE SWAP2 PUSH1 0x20 ADD SWAP2 PUSH2 0x340 JUMP JUMPDEST DUP3 ADD SWAP2 SWAP1 PUSH1 0x0 MSTORE PUSH1 0x20 PUSH1 0x0 KECCAK256 SWAP1 JUMPDEST DUP2 SLOAD DUP2 MSTORE SWAP1 PUSH1 0x1 ADD SWAP1 PUSH1 0x20 ADD DUP1 DUP4 GT PUSH2 0x323 JUMPI DUP3 SWAP1 SUB PUSH1 0x1F AND DUP3 ADD SWAP2 JUMPDEST POP POP POP POP POP SWAP1 POP DUP4 JUMP JUMPDEST PUSH1 0x0 DUP2 PUSH1 0x1 PUSH1 0x0 CALLER PUSH20 0xFFFFFFFFFFFFFFFFFFFFFFFFFFFFFFFFFFFFFFFF AND PUSH20 0xFFFFFFFFFFFFFFFFFFFFFFFFFFFFFFFFFFFFFFFF AND DUP2 MSTORE PUSH1 0x20 ADD SWAP1 DUP2 MSTORE PUSH1 0x20 ADD PUSH1 0x0 KECCAK256 PUSH1 0x0 DUP6 PUSH20 0xFFFFFFFFFFFFFFFFFFFFFFFFFFFFFFFFFFFFFFFF AND PUSH20 0xFFFFFFFFFFFFFFFFFFFFFFFFFFFFFFFFFFFFFFFF AND DUP2 MSTORE PUSH1 0x20 ADD SWAP1 DUP2 MSTORE PUSH1 0x20 ADD PUSH1 0x0 KECCAK256 DUP2 SWAP1 SSTORE POP DUP3 PUSH20 0xFFFFFFFFFFFFFFFFFFFFFFFFFFFFFFFFFFFFFFFF AND CALLER PUSH20 0xFFFFFFFFFFFFFFFFFFFFFFFFFFFFFFFFFFFFFFFF AND PUSH32 0x8C5BE1E5EBEC7D5BD14F71427D1E84F3DD0314C0F7B2291E5B200AC8C7C3B925 DUP5 PUSH1 0x40 MLOAD PUSH2 0x42A SWAP2 SWAP1 PUSH2 0xF67 JUMP JUMPDEST PUSH1 0x40 MLOAD DUP1 SWAP2 SUB SWAP1 LOG3 PUSH1 0x1 SWAP1 POP SWAP3 SWAP2 POP POP JUMP JUMPDEST PUSH1 0x0 DUP1 PUSH20 0xFFFFFFFFFFFFFFFFFFFFFFFFFFFFFFFFFFFFFFFF AND DUP4 PUSH20 0xFFFFFFFFFFFFFFFFFFFFFFFFFFFFFFFFFFFFFFFF AND SUB PUSH2 0x4AC JUMPI PUSH1 0x40 MLOAD PUSH32 0x8C379A000000000000000000000000000000000000000000000000000000000 DUP2 MSTORE PUSH1 0x4 ADD PUSH2 0x4A3 SWAP1 PUSH2 0x10C2 JUMP JUMPDEST PUSH1 0x40 MLOAD DUP1 SWAP2 SUB SWAP1 REVERT JUMPDEST DUP2 PUSH1 0x0 DUP1 DUP7 PUSH20 0xFFFFFFFFFFFFFFFFFFFFFFFFFFFFFFFFFFFFFFFF AND PUSH20 0xFFFFFFFFFFFFFFFFFFFFFFFFFFFFFFFFFFFFFFFF AND DUP2 MSTORE PUSH1 0x20 ADD SWAP1 DUP2 MSTORE PUSH1 0x20 ADD PUSH1 0x0 KECCAK256 SLOAD LT ISZERO PUSH2 0x52D JUMPI PUSH1 0x40 MLOAD PUSH32 0x8C379A000000000000000000000000000000000000000000000000000000000 DUP2 MSTORE PUSH1 0x4 ADD PUSH2 0x524 SWAP1 PUSH2 0x112E JUMP JUMPDEST PUSH1 0x40 MLOAD DUP1 SWAP2 SUB SWAP1 REVERT JUMPDEST DUP2 PUSH1 0x1 PUSH1 0x0 DUP7 PUSH20 0xFFFFFFFFFFFFFFFFFFFFFFFFFFFFFFFFFFFFFFFF AND PUSH20 0xFFFFFFFFFFFFFFFFFFFFFFFFFFFFFFFFFFFFFFFF AND DUP2 MSTORE PUSH1 0x20 ADD SWAP1 DUP2 MSTORE PUSH1 0x20 ADD PUSH1 0x0 KECCAK256 PUSH1 0x0 CALLER PUSH20 0xFFFFFFFFFFFFFFFFFFFFFFFFFFFFFFFFFFFFFFFF AND PUSH20 0xFFFFFFFFFFFFFFFFFFFFFFFFFFFFFFFFFFFFFFFF AND DUP2 MSTORE PUSH1 0x20 ADD SWAP1 DUP2 MSTORE PUSH1 0x20 ADD PUSH1 0x0 KECCAK256 SLOAD LT ISZERO PUSH2 0x5EC JUMPI PUSH1 0x40 MLOAD PUSH32 0x8C379A000000000000000000000000000000000000000000000000000000000 DUP2 MSTORE PUSH1 0x4 ADD PUSH2 0x5E3 SWAP1 PUSH2 0x119A JUMP JUMPDEST PUSH1 0x40 MLOAD DUP1 SWAP2 SUB SWAP1 REVERT JUMPDEST DUP2 PUSH1 0x0 DUP1 DUP7 PUSH20 0xFFFFFFFFFFFFFFFFFFFFFFFFFFFFFFFFFFFFFFFF AND PUSH20 0xFFFFFFFFFFFFFFFFFFFFFFFFFFFFFFFFFFFFFFFF AND DUP2 MSTORE PUSH1 0x20 ADD SWAP1 DUP2 MSTORE PUSH1 0x20 ADD PUSH1 0x0 KECCAK256 PUSH1 0x0 DUP3 DUP3 SLOAD PUSH2 0x63A SWAP2 SWAP1 PUSH2 0x11E9 JUMP JUMPDEST SWAP3 POP POP DUP2 SWAP1 SSTORE POP DUP2 PUSH1 0x0 DUP1 DUP6 PUSH20 0xFFFFFFFFFFFFFFFFFFFFFFFFFFFFFFFFFFFFFFFF AND PUSH20 0xFFFFFFFFFFFFFFFFFFFFFFFFFFFFFFFFFFFFFFFF AND DUP2 MSTORE PUSH1 0x20 ADD SWAP1 DUP2 MSTORE PUSH1 0x20 ADD PUSH1 0x0 KECCAK256 PUSH1 0x0 DUP3 DUP3 SLOAD PUSH2 0x68F SWAP2 SWAP1 PUSH2 0x121D JUMP JUMPDEST SWAP3 POP POP DUP2 SWAP1 SSTORE POP DUP2 PUSH1 0x1 PUSH1 0x0 DUP7 PUSH20 0xFFFFFFFFFFFFFFFFFFFFFFFFFFFFFFFFFFFFFFFF AND PUSH20 0xFFFFFFFFFFFFFFFFFFFFFFFFFFFFFFFFFFFFFFFF AND DUP2 MSTORE PUSH1 0x20 ADD SWAP1 DUP2 MSTORE PUSH1 0x20 ADD PUSH1 0x0 KECCAK256 PUSH1 0x0 CALLER PUSH20 0xFFFFFFFFFFFFFFFFFFFFFFFFFFFFFFFFFFFFFFFF AND PUSH20 0xFFFFFFFFFFFFFFFFFFFFFFFFFFFFFFFFFFFFFFFF AND DUP2 MSTORE PUSH1 0x20 ADD SWAP1 DUP2 MSTORE PUSH1 0x20 ADD PUSH1 0x0 KECCAK256 PUSH1 0x0 DUP3 DUP3 SLOAD PUSH2 0x722 SWAP2 SWAP1 PUSH2 0x11E9 JUMP JUMPDEST SWAP3 POP POP DUP2 SWAP1 SSTORE POP DUP3 PUSH20 0xFFFFFFFFFFFFFFFFFFFFFFFFFFFFFFFFFFFFFFFF AND DUP5 PUSH20 0xFFFFFFFFFFFFFFFFFFFFFFFFFFFFFFFFFFFFFFFF AND PUSH32 0xDDF252AD1BE2C89B69C2B068FC378DAA952BA7F163C4A11628F55A4DF523B3EF DUP5 PUSH1 0x40 MLOAD PUSH2 0x786 SWAP2 SWAP1 PUSH2 0xF67 JUMP JUMPDEST PUSH1 0x40 MLOAD DUP1 SWAP2 SUB SWAP1 LOG3 PUSH1 0x1 SWAP1 POP SWAP4 SWAP3 POP POP POP JUMP JUMPDEST PUSH1 0x0 PUSH1 0x20 MSTORE DUP1 PUSH1 0x0 MSTORE PUSH1 0x40 PUSH1 0x0 KECCAK256 PUSH1 0x0 SWAP2 POP SWAP1 POP SLOAD DUP2 JUMP JUMPDEST PUSH1 0x2 PUSH1 0x20 MSTORE DUP1 PUSH1 0x0 MSTORE PUSH1 0x40 PUSH1 0x0 KECCAK256 PUSH1 0x0 SWAP2 POP SWAP1 POP SLOAD DUP2 JUMP JUMPDEST PUSH1 0x0 DUP1 PUSH20 0xFFFFFFFFFFFFFFFFFFFFFFFFFFFFFFFFFFFFFFFF AND DUP4 PUSH20 0xFFFFFFFFFFFFFFFFFFFFFFFFFFFFFFFFFFFFFFFF AND SUB PUSH2 0x839 JUMPI PUSH1 0x40 MLOAD PUSH32 0x8C379A000000000000000000000000000000000000000000000000000000000 DUP2 MSTORE PUSH1 0x4 ADD PUSH2 0x830 SWAP1 PUSH2 0x10C2 JUMP JUMPDEST PUSH1 0x40 MLOAD DUP1 SWAP2 SUB SWAP1 REVERT JUMPDEST DUP2 PUSH1 0x0 DUP1 CALLER PUSH20 0xFFFFFFFFFFFFFFFFFFFFFFFFFFFFFFFFFFFFFFFF AND PUSH20 0xFFFFFFFFFFFFFFFFFFFFFFFFFFFFFFFFFFFFFFFF AND DUP2 MSTORE PUSH1 0x20 ADD SWAP1 DUP2 MSTORE PUSH1 0x20 ADD PUSH1 0x0 KECCAK256 SLOAD LT ISZERO PUSH2 0x8BA JUMPI PUSH1 0x40 MLOAD PUSH32 0x8C379A000000000000000000000000000000000000000000000000000000000 DUP2 MSTORE PUSH1 0x4 ADD PUSH2 0x8B1 SWAP1 PUSH2 0x112E JUMP JUMPDEST PUSH1 0x40 MLOAD DUP1 SWAP2 SUB SWAP1 REVERT JUMPDEST DUP2 PUSH1 0x0 DUP1 CALLER PUSH20 0xFFFFFFFFFFFFFFFFFFFFFFFFFFFFFFFFFFFFFFFF AND PUSH20 0xFFFFFFFFFFFFFFFFFFFFFFFFFFFFFFFFFFFFFFFF AND DUP2 MSTORE PUSH1 0x20 ADD SWAP1 DUP2 MSTORE PUSH1 0x20 ADD PUSH1 0x0 KECCAK256 PUSH1 0x0 DUP3 DUP3 SLOAD PUSH2 0x908 SWAP2 SWAP1 PUSH2 0x11E9 JUMP JUMPDEST SWAP3 POP POP DUP2 SWAP1 SSTORE POP DUP2 PUSH1 0x0 DUP1 DUP6 PUSH20 0xFFFFFFFFFFFFFFFFFFFFFFFFFFFFFFFFFFFFFFFF AND PUSH20 0xFFFFFFFFFFFFFFFFFFFFFFFFFFFFFFFFFFFFFFFF AND DUP2 MSTORE PUSH1 0x20 ADD SWAP1 DUP2 MSTORE PUSH1 0x20 ADD PUSH1 0x0 KECCAK256 PUSH1 0x0 DUP3 DUP3 SLOAD PUSH2 0x95D SWAP2 SWAP1 PUSH2 0x121D JUMP JUMPDEST SWAP3 POP POP DUP2 SWAP1 SSTORE POP DUP3 PUSH20 0xFFFFFFFFFFFFFFFFFFFFFFFFFFFFFFFFFFFFFFFF AND CALLER PUSH20 0xFFFFFFFFFFFFFFFFFFFFFFFFFFFFFFFFFFFFFFFF AND PUSH32 0xDDF252AD1BE2C89B69C2B068FC378DAA952BA7F163C4A11628F55A4DF523B3EF DUP5 PUSH1 0x40 MLOAD PUSH2 0x9C1 SWAP2 SWAP1 PUSH2 0xF67 JUMP JUMPDEST PUSH1 0x40 MLOAD DUP1 SWAP2 SUB SWAP1 LOG3 PUSH1 0x1 SWAP1 POP SWAP3 SWAP2 POP POP JUMP JUMPDEST PUSH1 0x0 DUP1 PUSH20 0xFFFFFFFFFFFFFFFFFFFFFFFFFFFFFFFFFFFFFFFF AND DUP4 PUSH20 0xFFFFFFFFFFFFFFFFFFFFFFFFFFFFFFFFFFFFFFFF AND SUB PUSH2 0xA43 JUMPI PUSH1 0x40 MLOAD PUSH32 0x8C379A000000000000000000000000000000000000000000000000000000000 DUP2 MSTORE PUSH1 0x4 ADD PUSH2 0xA3A SWAP1 PUSH2 0x10C2 JUMP JUMPDEST PUSH1 0x40 MLOAD DUP1 SWAP2 SUB SWAP1 REVERT JUMPDEST DUP2 PUSH1 0x2 PUSH1 0x0 CALLER PUSH20 0xFFFFFFFFFFFFFFFFFFFFFFFFFFFFFFFFFFFFFFFF AND PUSH20 0xFFFFFFFFFFFFFFFFFFFFFFFFFFFFFFFFFFFFFFFF AND DUP2 MSTORE PUSH1 0x20 ADD SWAP1 DUP2 MSTORE PUSH1 0x20 ADD PUSH1 0x0 KECCAK256 SLOAD LT ISZERO PUSH2 0xAC5 JUMPI PUSH1 0x40 MLOAD PUSH32 0x8C379A000000000000000000000000000000000000000000000000000000000 DUP2 MSTORE PUSH1 0x4 ADD PUSH2 0xABC SWAP1 PUSH2 0x129D JUMP JUMPDEST PUSH1 0x40 MLOAD DUP1 SWAP2 SUB SWAP1 REVERT JUMPDEST DUP2 PUSH1 0x2 PUSH1 0x0 CALLER PUSH20 0xFFFFFFFFFFFFFFFFFFFFFFFFFFFFFFFFFFFFFFFF AND PUSH20 0xFFFFFFFFFFFFFFFFFFFFFFFFFFFFFFFFFFFFFFFF AND DUP2 MSTORE PUSH1 0x20 ADD SWAP1 DUP2 MSTORE PUSH1 0x20 ADD PUSH1 0x0 KECCAK256 PUSH1 0x0 DUP3 DUP3 SLOAD PUSH2 0xB14 SWAP2 SWAP1 PUSH2 0x11E9 JUMP JUMPDEST SWAP3 POP POP DUP2 SWAP1 SSTORE POP DUP2 PUSH1 0x2 PUSH1 0x0 DUP6 PUSH20 0xFFFFFFFFFFFFFFFFFFFFFFFFFFFFFFFFFFFFFFFF AND PUSH20 0xFFFFFFFFFFFFFFFFFFFFFFFFFFFFFFFFFFFFFFFF AND DUP2 MSTORE PUSH1 0x20 ADD SWAP1 DUP2 MSTORE PUSH1 0x20 ADD PUSH1 0x0 KECCAK256 PUSH1 0x0 DUP3 DUP3 SLOAD PUSH2 0xB6A SWAP2 SWAP1 PUSH2 0x121D JUMP JUMPDEST SWAP3 POP POP DUP2 SWAP1 SSTORE POP DUP3 PUSH20 0xFFFFFFFFFFFFFFFFFFFFFFFFFFFFFFFFFFFFFFFF AND CALLER PUSH20 0xFFFFFFFFFFFFFFFFFFFFFFFFFFFFFFFFFFFFFFFF AND PUSH32 0x7E95113809DAF6B378CB1CAF9641A894A32FC97BFA22EDAFFD31D92564400EC0 DUP5 PUSH1 0x40 MLOAD PUSH2 0xBCE SWAP2 SWAP1 PUSH2 0xF67 JUMP JUMPDEST PUSH1 0x40 MLOAD DUP1 SWAP2 SUB SWAP1 LOG3 PUSH1 0x1 SWAP1 POP SWAP3 SWAP2 POP POP JUMP JUMPDEST PUSH1 0x0 PUSH1 0x2 PUSH1 0x0 DUP4 PUSH20 0xFFFFFFFFFFFFFFFFFFFFFFFFFFFFFFFFFFFFFFFF AND PUSH20 0xFFFFFFFFFFFFFFFFFFFFFFFFFFFFFFFFFFFFFFFF AND DUP2 MSTORE PUSH1 0x20 ADD SWAP1 DUP2 MSTORE PUSH1 0x20 ADD PUSH1 0x0 KECCAK256 SLOAD SWAP1 POP SWAP2 SWAP1 POP JUMP JUMPDEST PUSH1 0x1 PUSH1 0x20 MSTORE DUP2 PUSH1 0x0 MSTORE PUSH1 0x40 PUSH1 0x0 KECCAK256 PUSH1 0x20 MSTORE DUP1 PUSH1 0x0 MSTORE PUSH1 0x40 PUSH1 0x0 KECCAK256 PUSH1 0x0 SWAP2 POP SWAP2 POP POP SLOAD DUP2 JUMP JUMPDEST PUSH1 0x4 DUP2 DUP2 SLOAD DUP2 LT PUSH2 0xC5E JUMPI PUSH1 0x0 DUP1 REVERT JUMPDEST SWAP1 PUSH1 0x0 MSTORE PUSH1 0x20 PUSH1 0x0 KECCAK256 SWAP1 PUSH1 0x4 MUL ADD PUSH1 0x0 SWAP2 POP SWAP1 POP DUP1 PUSH1 0x0 ADD PUSH1 0x0 SWAP1 SLOAD SWAP1 PUSH2 0x100 EXP SWAP1 DIV PUSH20 0xFFFFFFFFFFFFFFFFFFFFFFFFFFFFFFFFFFFFFFFF AND SWAP1 DUP1 PUSH1 0x1 ADD PUSH1 0x0 SWAP1 SLOAD SWAP1 PUSH2 0x100 EXP SWAP1 DIV PUSH20 0xFFFFFFFFFFFFFFFFFFFFFFFFFFFFFFFFFFFFFFFF AND SWAP1 DUP1 PUSH1 0x2 ADD SLOAD SWAP1 DUP1 PUSH1 0x3 ADD SLOAD SWAP1 POP DUP5 JUMP JUMPDEST PUSH1 0x0 DUP1 REVERT JUMPDEST PUSH1 0x0 DUP2 SWAP1 POP SWAP2 SWAP1 POP JUMP JUMPDEST PUSH2 0xCE6 DUP2 PUSH2 0xCD3 JUMP JUMPDEST DUP2 EQ PUSH2 0xCF1 JUMPI PUSH1 0x0 DUP1 REVERT JUMPDEST POP JUMP JUMPDEST PUSH1 0x0 DUP2 CALLDATALOAD SWAP1 POP PUSH2 0xD03 DUP2 PUSH2 0xCDD JUMP JUMPDEST SWAP3 SWAP2 POP POP JUMP JUMPDEST PUSH1 0x0 PUSH1 0x20 DUP3 DUP5 SUB SLT ISZERO PUSH2 0xD1F JUMPI PUSH2 0xD1E PUSH2 0xCCE JUMP JUMPDEST JUMPDEST PUSH1 0x0 PUSH2 0xD2D DUP5 DUP3 DUP6 ADD PUSH2 0xCF4 JUMP JUMPDEST SWAP2 POP POP SWAP3 SWAP2 POP POP JUMP JUMPDEST PUSH2 0xD3F DUP2 PUSH2 0xCD3 JUMP JUMPDEST DUP3 MSTORE POP POP JUMP JUMPDEST PUSH1 0x0 DUP2 MLOAD SWAP1 POP SWAP2 SWAP1 POP JUMP JUMPDEST PUSH1 0x0 DUP3 DUP3 MSTORE PUSH1 0x20 DUP3 ADD SWAP1 POP SWAP3 SWAP2 POP POP JUMP JUMPDEST PUSH1 0x0 JUMPDEST DUP4 DUP2 LT ISZERO PUSH2 0xD7F JUMPI DUP1 DUP3 ADD MLOAD DUP2 DUP5 ADD MSTORE PUSH1 0x20 DUP2 ADD SWAP1 POP PUSH2 0xD64 JUMP JUMPDEST PUSH1 0x0 DUP5 DUP5 ADD MSTORE POP POP POP POP JUMP JUMPDEST PUSH1 0x0 PUSH1 0x1F NOT PUSH1 0x1F DUP4 ADD AND SWAP1 POP SWAP2 SWAP1 POP JUMP JUMPDEST PUSH1 0x0 PUSH2 0xDA7 DUP3 PUSH2 0xD45 JUMP JUMPDEST PUSH2 0xDB1 DUP2 DUP6 PUSH2 0xD50 JUMP JUMPDEST SWAP4 POP PUSH2 0xDC1 DUP2 DUP6 PUSH1 0x20 DUP7 ADD PUSH2 0xD61 JUMP JUMPDEST PUSH2 0xDCA DUP2 PUSH2 0xD8B JUMP JUMPDEST DUP5 ADD SWAP2 POP POP SWAP3 SWAP2 POP POP JUMP JUMPDEST PUSH1 0x0 PUSH1 0x60 DUP3 ADD SWAP1 POP PUSH2 0xDEA PUSH1 0x0 DUP4 ADD DUP7 PUSH2 0xD36 JUMP JUMPDEST PUSH2 0xDF7 PUSH1 0x20 DUP4 ADD DUP6 PUSH2 0xD36 JUMP JUMPDEST DUP2 DUP2 SUB PUSH1 0x40 DUP4 ADD MSTORE PUSH2 0xE09 DUP2 DUP5 PUSH2 0xD9C JUMP JUMPDEST SWAP1 POP SWAP5 SWAP4 POP POP POP POP JUMP JUMPDEST PUSH1 0x0 PUSH20 0xFFFFFFFFFFFFFFFFFFFFFFFFFFFFFFFFFFFFFFFF DUP3 AND SWAP1 POP SWAP2 SWAP1 POP JUMP JUMPDEST PUSH1 0x0 PUSH2 0xE3E DUP3 PUSH2 0xE13 JUMP JUMPDEST SWAP1 POP SWAP2 SWAP1 POP JUMP JUMPDEST PUSH2 0xE4E DUP2 PUSH2 0xE33 JUMP JUMPDEST DUP2 EQ PUSH2 0xE59 JUMPI PUSH1 0x0 DUP1 REVERT JUMPDEST POP JUMP JUMPDEST PUSH1 0x0 DUP2 CALLDATALOAD SWAP1 POP PUSH2 0xE6B DUP2 PUSH2 0xE45 JUMP JUMPDEST SWAP3 SWAP2 POP POP JUMP JUMPDEST PUSH1 0x0 DUP1 PUSH1 0x40 DUP4 DUP6 SUB SLT ISZERO PUSH2 0xE88 JUMPI PUSH2 0xE87 PUSH2 0xCCE JUMP JUMPDEST JUMPDEST PUSH1 0x0 PUSH2 0xE96 DUP6 DUP3 DUP7 ADD PUSH2 0xE5C JUMP JUMPDEST SWAP3 POP POP PUSH1 0x20 PUSH2 0xEA7 DUP6 DUP3 DUP7 ADD PUSH2 0xCF4 JUMP JUMPDEST SWAP2 POP POP SWAP3 POP SWAP3 SWAP1 POP JUMP JUMPDEST PUSH1 0x0 DUP2 ISZERO ISZERO SWAP1 POP SWAP2 SWAP1 POP JUMP JUMPDEST PUSH2 0xEC6 DUP2 PUSH2 0xEB1 JUMP JUMPDEST DUP3 MSTORE POP POP JUMP JUMPDEST PUSH1 0x0 PUSH1 0x20 DUP3 ADD SWAP1 POP PUSH2 0xEE1 PUSH1 0x0 DUP4 ADD DUP5 PUSH2 0xEBD JUMP JUMPDEST SWAP3 SWAP2 POP POP JUMP JUMPDEST PUSH1 0x0 DUP1 PUSH1 0x0 PUSH1 0x60 DUP5 DUP7 SUB SLT ISZERO PUSH2 0xF00 JUMPI PUSH2 0xEFF PUSH2 0xCCE JUMP JUMPDEST JUMPDEST PUSH1 0x0 PUSH2 0xF0E DUP7 DUP3 DUP8 ADD PUSH2 0xE5C JUMP JUMPDEST SWAP4 POP POP PUSH1 0x20 PUSH2 0xF1F DUP7 DUP3 DUP8 ADD PUSH2 0xE5C JUMP JUMPDEST SWAP3 POP POP PUSH1 0x40 PUSH2 0xF30 DUP7 DUP3 DUP8 ADD PUSH2 0xCF4 JUMP JUMPDEST SWAP2 POP POP SWAP3 POP SWAP3 POP SWAP3 JUMP JUMPDEST PUSH1 0x0 PUSH1 0x20 DUP3 DUP5 SUB SLT ISZERO PUSH2 0xF50 JUMPI PUSH2 0xF4F PUSH2 0xCCE JUMP JUMPDEST JUMPDEST PUSH1 0x0 PUSH2 0xF5E DUP5 DUP3 DUP6 ADD PUSH2 0xE5C JUMP JUMPDEST SWAP2 POP POP SWAP3 SWAP2 POP POP JUMP JUMPDEST PUSH1 0x0 PUSH1 0x20 DUP3 ADD SWAP1 POP PUSH2 0xF7C PUSH1 0x0 DUP4 ADD DUP5 PUSH2 0xD36 JUMP JUMPDEST SWAP3 SWAP2 POP POP JUMP JUMPDEST PUSH1 0x0 DUP1 PUSH1 0x40 DUP4 DUP6 SUB SLT ISZERO PUSH2 0xF99 JUMPI PUSH2 0xF98 PUSH2 0xCCE JUMP JUMPDEST JUMPDEST PUSH1 0x0 PUSH2 0xFA7 DUP6 DUP3 DUP7 ADD PUSH2 0xE5C JUMP JUMPDEST SWAP3 POP POP PUSH1 0x20 PUSH2 0xFB8 DUP6 DUP3 DUP7 ADD PUSH2 0xE5C JUMP JUMPDEST SWAP2 POP POP SWAP3 POP SWAP3 SWAP1 POP JUMP JUMPDEST PUSH2 0xFCB DUP2 PUSH2 0xE33 JUMP JUMPDEST DUP3 MSTORE POP POP JUMP JUMPDEST PUSH1 0x0 PUSH1 0x80 DUP3 ADD SWAP1 POP PUSH2 0xFE6 PUSH1 0x0 DUP4 ADD DUP8 PUSH2 0xFC2 JUMP JUMPDEST PUSH2 0xFF3 PUSH1 0x20 DUP4 ADD DUP7 PUSH2 0xFC2 JUMP JUMPDEST PUSH2 0x1000 PUSH1 0x40 DUP4 ADD DUP6 PUSH2 0xD36 JUMP JUMPDEST PUSH2 0x100D PUSH1 0x60 DUP4 ADD DUP5 PUSH2 0xD36 JUMP JUMPDEST SWAP6 SWAP5 POP POP POP POP POP JUMP JUMPDEST PUSH32 0x4E487B7100000000000000000000000000000000000000000000000000000000 PUSH1 0x0 MSTORE PUSH1 0x22 PUSH1 0x4 MSTORE PUSH1 0x24 PUSH1 0x0 REVERT JUMPDEST PUSH1 0x0 PUSH1 0x2 DUP3 DIV SWAP1 POP PUSH1 0x1 DUP3 AND DUP1 PUSH2 0x105D JUMPI PUSH1 0x7F DUP3 AND SWAP2 POP JUMPDEST PUSH1 0x20 DUP3 LT DUP2 SUB PUSH2 0x1070 JUMPI PUSH2 0x106F PUSH2 0x1016 JUMP JUMPDEST JUMPDEST POP SWAP2 SWAP1 POP JUMP JUMPDEST PUSH32 0x496E76616C696420616464726573730000000000000000000000000000000000 PUSH1 0x0 DUP3 ADD MSTORE POP JUMP JUMPDEST PUSH1 0x0 PUSH2 0x10AC PUSH1 0xF DUP4 PUSH2 0xD50 JUMP JUMPDEST SWAP2 POP PUSH2 0x10B7 DUP3 PUSH2 0x1076 JUMP JUMPDEST PUSH1 0x20 DUP3 ADD SWAP1 POP SWAP2 SWAP1 POP JUMP JUMPDEST PUSH1 0x0 PUSH1 0x20 DUP3 ADD SWAP1 POP DUP2 DUP2 SUB PUSH1 0x0 DUP4 ADD MSTORE PUSH2 0x10DB DUP2 PUSH2 0x109F JUMP JUMPDEST SWAP1 POP SWAP2 SWAP1 POP JUMP JUMPDEST PUSH32 0x496E73756666696369656E742062616C616E6365000000000000000000000000 PUSH1 0x0 DUP3 ADD MSTORE POP JUMP JUMPDEST PUSH1 0x0 PUSH2 0x1118 PUSH1 0x14 DUP4 PUSH2 0xD50 JUMP JUMPDEST SWAP2 POP PUSH2 0x1123 DUP3 PUSH2 0x10E2 JUMP JUMPDEST PUSH1 0x20 DUP3 ADD SWAP1 POP SWAP2 SWAP1 POP JUMP JUMPDEST PUSH1 0x0 PUSH1 0x20 DUP3 ADD SWAP1 POP DUP2 DUP2 SUB PUSH1 0x0 DUP4 ADD MSTORE PUSH2 0x1147 DUP2 PUSH2 0x110B JUMP JUMPDEST SWAP1 POP SWAP2 SWAP1 POP JUMP JUMPDEST PUSH32 0x416C6C6F77616E63652065786365656465640000000000000000000000000000 PUSH1 0x0 DUP3 ADD MSTORE POP JUMP JUMPDEST PUSH1 0x0 PUSH2 0x1184 PUSH1 0x12 DUP4 PUSH2 0xD50 JUMP JUMPDEST SWAP2 POP PUSH2 0x118F DUP3 PUSH2 0x114E JUMP JUMPDEST PUSH1 0x20 DUP3 ADD SWAP1 POP SWAP2 SWAP1 POP JUMP JUMPDEST PUSH1 0x0 PUSH1 0x20 DUP3 ADD SWAP1 POP DUP2 DUP2 SUB PUSH1 0x0 DUP4 ADD MSTORE PUSH2 0x11B3 DUP2 PUSH2 0x1177 JUMP JUMPDEST SWAP1 POP SWAP2 SWAP1 POP JUMP JUMPDEST PUSH32 0x4E487B7100000000000000000000000000000000000000000000000000000000 PUSH1 0x0 MSTORE PUSH1 0x11 PUSH1 0x4 MSTORE PUSH1 0x24 PUSH1 0x0 REVERT JUMPDEST PUSH1 0x0 PUSH2 0x11F4 DUP3 PUSH2 0xCD3 JUMP JUMPDEST SWAP2 POP PUSH2 0x11FF DUP4 PUSH2 0xCD3 JUMP JUMPDEST SWAP3 POP DUP3 DUP3 SUB SWAP1 POP DUP2 DUP2 GT ISZERO PUSH2 0x1217 JUMPI PUSH2 0x1216 PUSH2 0x11BA JUMP JUMPDEST JUMPDEST SWAP3 SWAP2 POP POP JUMP JUMPDEST PUSH1 0x0 PUSH2 0x1228 DUP3 PUSH2 0xCD3 JUMP JUMPDEST SWAP2 POP PUSH2 0x1233 DUP4 PUSH2 0xCD3 JUMP JUMPDEST SWAP3 POP DUP3 DUP3 ADD SWAP1 POP DUP1 DUP3 GT ISZERO PUSH2 0x124B JUMPI PUSH2 0x124A PUSH2 0x11BA JUMP JUMPDEST JUMPDEST SWAP3 SWAP2 POP POP JUMP JUMPDEST PUSH32 0x496E73756666696369656E7420636172626F6E20637265646974730000000000 PUSH1 0x0 DUP3 ADD MSTORE POP JUMP JUMPDEST PUSH1 0x0 PUSH2 0x1287 PUSH1 0x1B DUP4 PUSH2 0xD50 JUMP JUMPDEST SWAP2 POP PUSH2 0x1292 DUP3 PUSH2 0x1251 JUMP JUMPDEST PUSH1 0x20 DUP3 ADD SWAP1 POP SWAP2 SWAP1 POP JUMP JUMPDEST PUSH1 0x0 PUSH1 0x20 DUP3 ADD SWAP1 POP DUP2 DUP2 SUB PUSH1 0x0 DUP4 ADD MSTORE PUSH2 0x12B6 DUP2 PUSH2 0x127A JUMP JUMPDEST SWAP1 POP SWAP2 SWAP1 POP JUMP INVALID LOG2 PUSH5 0x6970667358 0x22 SLT KECCAK256 0xEE 0xEB EXTCODESIZE PUSH9 0xA403129BA6FB3BE35C 0xC6 SUB BALANCE 0x4E PUSH16 0xF313028B93B8E298F7D0D5F9A22F6473 PUSH16 0x6C634300081200330000000000000000 "
				},
				"gasEstimates": {
					"creation": {
						"codeDepositCost": "970200",
						"executionCost": "1008",
						"totalCost": "971208"
					},
					"external": {
						"allowance(address,address)": "infinite",
						"approve(address,uint256)": "infinite",
						"balanceOf(address)": "2881",
						"carbonCredits(address)": "2903",
						"creditTransactions(uint256)": "infinite",
						"credits(uint256)": "infinite",
						"getCarbonCredits(address)": "2885",
						"transfer(address,uint256)": "infinite",
						"transferCarbonCredits(address,uint256)": "infinite",
						"transferFrom(address,address,uint256)": "infinite"
					}
				},
				"methodIdentifiers": {
					"allowance(address,address)": "dd62ed3e",
					"approve(address,uint256)": "095ea7b3",
					"balanceOf(address)": "70a08231",
					"carbonCredits(address)": "7aa2bdd4",
					"creditTransactions(uint256)": "e13c1f60",
					"credits(uint256)": "036a1c22",
					"getCarbonCredits(address)": "b193c201",
					"transfer(address,uint256)": "a9059cbb",
					"transferCarbonCredits(address,uint256)": "afcdd813",
					"transferFrom(address,address,uint256)": "23b872dd"
				}
			},
			"storageLayout": {
				"storage": [
					{
						"astId": 21,
						"contract": "src/contracts/CarbonCredit.sol:CarbonCredit",
						"label": "balanceOf",
						"offset": 0,
						"slot": "0",
						"type": "t_mapping(t_address,t_uint256)"
					},
					{
						"astId": 27,
						"contract": "src/contracts/CarbonCredit.sol:CarbonCredit",
						"label": "allowance",
						"offset": 0,
						"slot": "1",
						"type": "t_mapping(t_address,t_mapping(t_address,t_uint256))"
					},
					{
						"astId": 31,
						"contract": "src/contracts/CarbonCredit.sol:CarbonCredit",
						"label": "carbonCredits",
						"offset": 0,
						"slot": "2",
						"type": "t_mapping(t_address,t_uint256)"
					},
					{
						"astId": 59,
						"contract": "src/contracts/CarbonCredit.sol:CarbonCredit",
						"label": "credits",
						"offset": 0,
						"slot": "3",
						"type": "t_array(t_struct(Credit)8_storage)dyn_storage"
					},
					{
						"astId": 63,
						"contract": "src/contracts/CarbonCredit.sol:CarbonCredit",
						"label": "creditTransactions",
						"offset": 0,
						"slot": "4",
						"type": "t_array(t_struct(CreditTransaction)17_storage)dyn_storage"
					}
				],
				"types": {
					"t_address": {
						"encoding": "inplace",
						"label": "address",
						"numberOfBytes": "20"
					},
					"t_array(t_struct(Credit)8_storage)dyn_storage": {
						"base": "t_struct(Credit)8_storage",
						"encoding": "dynamic_array",
						"label": "struct CarbonCredit.Credit[]",
						"numberOfBytes": "32"
					},
					"t_array(t_struct(CreditTransaction)17_storage)dyn_storage": {
						"base": "t_struct(CreditTransaction)17_storage",
						"encoding": "dynamic_array",
						"label": "struct CarbonCredit.CreditTransaction[]",
						"numberOfBytes": "32"
					},
					"t_mapping(t_address,t_mapping(t_address,t_uint256))": {
						"encoding": "mapping",
						"key": "t_address",
						"label": "mapping(address => mapping(address => uint256))",
						"numberOfBytes": "32",
						"value": "t_mapping(t_address,t_uint256)"
					},
					"t_mapping(t_address,t_uint256)": {
						"encoding": "mapping",
						"key": "t_address",
						"label": "mapping(address => uint256)",
						"numberOfBytes": "32",
						"value": "t_uint256"
					},
					"t_string_storage": {
						"encoding": "bytes",
						"label": "string",
						"numberOfBytes": "32"
					},
					"t_struct(Credit)8_storage": {
						"encoding": "inplace",
						"label": "struct CarbonCredit.Credit",
						"members": [
							{
								"astId": 3,
								"contract": "src/contracts/CarbonCredit.sol:CarbonCredit",
								"label": "issuanceTime",
								"offset": 0,
								"slot": "0",
								"type": "t_uint256"
							},
							{
								"astId": 5,
								"contract": "src/contracts/CarbonCredit.sol:CarbonCredit",
								"label": "amount",
								"offset": 0,
								"slot": "1",
								"type": "t_uint256"
							},
							{
								"astId": 7,
								"contract": "src/contracts/CarbonCredit.sol:CarbonCredit",
								"label": "description",
								"offset": 0,
								"slot": "2",
								"type": "t_string_storage"
							}
						],
						"numberOfBytes": "96"
					},
					"t_struct(CreditTransaction)17_storage": {
						"encoding": "inplace",
						"label": "struct CarbonCredit.CreditTransaction",
						"members": [
							{
								"astId": 10,
								"contract": "src/contracts/CarbonCredit.sol:CarbonCredit",
								"label": "from",
								"offset": 0,
								"slot": "0",
								"type": "t_address"
							},
							{
								"astId": 12,
								"contract": "src/contracts/CarbonCredit.sol:CarbonCredit",
								"label": "to",
								"offset": 0,
								"slot": "1",
								"type": "t_address"
							},
							{
								"astId": 14,
								"contract": "src/contracts/CarbonCredit.sol:CarbonCredit",
								"label": "amount",
								"offset": 0,
								"slot": "2",
								"type": "t_uint256"
							},
							{
								"astId": 16,
								"contract": "src/contracts/CarbonCredit.sol:CarbonCredit",
								"label": "timestamp",
								"offset": 0,
								"slot": "3",
								"type": "t_uint256"
							}
						],
						"numberOfBytes": "128"
					},
					"t_uint256": {
						"encoding": "inplace",
						"label": "uint256",
						"numberOfBytes": "32"
					}
				}
			},
			"userdoc": {
				"kind": "user",
				"methods": {},
				"version": 1
			}
		}
	}
}