{
	"src/contracts/Project.sol": {
		"ProjectContract": {
			"abi": [
				{
					"inputs": [],
					"stateMutability": "nonpayable",
					"type": "constructor"
				},
				{
					"inputs": [
						{
							"internalType": "string",
							"name": "_companyInfo",
							"type": "string"
						},
						{
							"internalType": "string",
							"name": "_projectTitle",
							"type": "string"
						},
						{
							"internalType": "string",
							"name": "_projectDescription",
							"type": "string"
						},
						{
							"internalType": "uint256",
							"name": "_emissionsOffset",
							"type": "uint256"
						},
						{
							"internalType": "uint256",
							"name": "_creditsIssued",
							"type": "uint256"
						},
						{
							"internalType": "string",
							"name": "_financialInfo",
							"type": "string"
						},
						{
							"internalType": "string",
							"name": "_projectDocumentation",
							"type": "string"
						}
					],
					"name": "createProject",
					"outputs": [],
					"stateMutability": "nonpayable",
					"type": "function"
				},
				{
					"inputs": [],
					"name": "getAllProjects",
					"outputs": [
						{
							"components": [
								{
									"internalType": "uint256",
									"name": "projectId",
									"type": "uint256"
								},
								{
									"internalType": "string",
									"name": "projectTitle",
									"type": "string"
								},
								{
									"internalType": "string",
									"name": "projectDescription",
									"type": "string"
								},
								{
									"internalType": "string",
									"name": "companyInfo",
									"type": "string"
								},
								{
									"internalType": "uint256",
									"name": "emissionsOffset",
									"type": "uint256"
								},
								{
									"internalType": "uint256",
									"name": "creditsIssued",
									"type": "uint256"
								},
								{
									"internalType": "string",
									"name": "financialInfo",
									"type": "string"
								},
								{
									"internalType": "string",
									"name": "projectDocumentation",
									"type": "string"
								},
								{
									"internalType": "string",
									"name": "verificationStatus",
									"type": "string"
								},
								{
									"internalType": "string",
									"name": "purchaseStatus",
									"type": "string"
								}
							],
							"internalType": "struct ProjectContract.Project[]",
							"name": "",
							"type": "tuple[]"
						}
					],
					"stateMutability": "view",
					"type": "function"
				},
				{
					"inputs": [
						{
							"internalType": "uint256",
							"name": "projectId",
							"type": "uint256"
						}
					],
					"name": "getProjectById",
					"outputs": [
						{
							"components": [
								{
									"internalType": "uint256",
									"name": "projectId",
									"type": "uint256"
								},
								{
									"internalType": "string",
									"name": "projectTitle",
									"type": "string"
								},
								{
									"internalType": "string",
									"name": "projectDescription",
									"type": "string"
								},
								{
									"internalType": "string",
									"name": "companyInfo",
									"type": "string"
								},
								{
									"internalType": "uint256",
									"name": "emissionsOffset",
									"type": "uint256"
								},
								{
									"internalType": "uint256",
									"name": "creditsIssued",
									"type": "uint256"
								},
								{
									"internalType": "string",
									"name": "financialInfo",
									"type": "string"
								},
								{
									"internalType": "string",
									"name": "projectDocumentation",
									"type": "string"
								},
								{
									"internalType": "string",
									"name": "verificationStatus",
									"type": "string"
								},
								{
									"internalType": "string",
									"name": "purchaseStatus",
									"type": "string"
								}
							],
							"internalType": "struct ProjectContract.Project",
							"name": "project",
							"type": "tuple"
						}
					],
					"stateMutability": "view",
					"type": "function"
				},
				{
					"inputs": [
						{
							"internalType": "string",
							"name": "companyName",
							"type": "string"
						}
					],
					"name": "getProjectInfoByCompany",
					"outputs": [
						{
							"components": [
								{
									"internalType": "uint256",
									"name": "projectId",
									"type": "uint256"
								},
								{
									"internalType": "string",
									"name": "projectTitle",
									"type": "string"
								},
								{
									"internalType": "string",
									"name": "projectDescription",
									"type": "string"
								},
								{
									"internalType": "string",
									"name": "companyInfo",
									"type": "string"
								},
								{
									"internalType": "uint256",
									"name": "emissionsOffset",
									"type": "uint256"
								},
								{
									"internalType": "uint256",
									"name": "creditsIssued",
									"type": "uint256"
								},
								{
									"internalType": "string",
									"name": "financialInfo",
									"type": "string"
								},
								{
									"internalType": "string",
									"name": "projectDocumentation",
									"type": "string"
								},
								{
									"internalType": "string",
									"name": "verificationStatus",
									"type": "string"
								},
								{
									"internalType": "string",
									"name": "purchaseStatus",
									"type": "string"
								}
							],
							"internalType": "struct ProjectContract.Project",
							"name": "project",
							"type": "tuple"
						}
					],
					"stateMutability": "view",
					"type": "function"
				},
				{
					"inputs": [
						{
							"internalType": "string",
							"name": "_purchaseStatus",
							"type": "string"
						}
					],
					"name": "getProjectsByPurchaseStatus",
					"outputs": [
						{
							"components": [
								{
									"internalType": "uint256",
									"name": "projectId",
									"type": "uint256"
								},
								{
									"internalType": "string",
									"name": "projectTitle",
									"type": "string"
								},
								{
									"internalType": "string",
									"name": "projectDescription",
									"type": "string"
								},
								{
									"internalType": "string",
									"name": "companyInfo",
									"type": "string"
								},
								{
									"internalType": "uint256",
									"name": "emissionsOffset",
									"type": "uint256"
								},
								{
									"internalType": "uint256",
									"name": "creditsIssued",
									"type": "uint256"
								},
								{
									"internalType": "string",
									"name": "financialInfo",
									"type": "string"
								},
								{
									"internalType": "string",
									"name": "projectDocumentation",
									"type": "string"
								},
								{
									"internalType": "string",
									"name": "verificationStatus",
									"type": "string"
								},
								{
									"internalType": "string",
									"name": "purchaseStatus",
									"type": "string"
								}
							],
							"internalType": "struct ProjectContract.Project[]",
							"name": "",
							"type": "tuple[]"
						}
					],
					"stateMutability": "view",
					"type": "function"
				},
				{
					"inputs": [
						{
							"internalType": "string",
							"name": "_verificationStatus",
							"type": "string"
						},
						{
							"internalType": "string",
							"name": "_purchaseStatus",
							"type": "string"
						}
					],
					"name": "getProjectsByStatus",
					"outputs": [
						{
							"components": [
								{
									"internalType": "uint256",
									"name": "projectId",
									"type": "uint256"
								},
								{
									"internalType": "string",
									"name": "projectTitle",
									"type": "string"
								},
								{
									"internalType": "string",
									"name": "projectDescription",
									"type": "string"
								},
								{
									"internalType": "string",
									"name": "companyInfo",
									"type": "string"
								},
								{
									"internalType": "uint256",
									"name": "emissionsOffset",
									"type": "uint256"
								},
								{
									"internalType": "uint256",
									"name": "creditsIssued",
									"type": "uint256"
								},
								{
									"internalType": "string",
									"name": "financialInfo",
									"type": "string"
								},
								{
									"internalType": "string",
									"name": "projectDocumentation",
									"type": "string"
								},
								{
									"internalType": "string",
									"name": "verificationStatus",
									"type": "string"
								},
								{
									"internalType": "string",
									"name": "purchaseStatus",
									"type": "string"
								}
							],
							"internalType": "struct ProjectContract.Project[]",
							"name": "",
							"type": "tuple[]"
						}
					],
					"stateMutability": "view",
					"type": "function"
				},
				{
					"inputs": [
						{
							"internalType": "string",
							"name": "_verificationStatus",
							"type": "string"
						}
					],
					"name": "getProjectsByVerificationStatus",
					"outputs": [
						{
							"components": [
								{
									"internalType": "uint256",
									"name": "projectId",
									"type": "uint256"
								},
								{
									"internalType": "string",
									"name": "projectTitle",
									"type": "string"
								},
								{
									"internalType": "string",
									"name": "projectDescription",
									"type": "string"
								},
								{
									"internalType": "string",
									"name": "companyInfo",
									"type": "string"
								},
								{
									"internalType": "uint256",
									"name": "emissionsOffset",
									"type": "uint256"
								},
								{
									"internalType": "uint256",
									"name": "creditsIssued",
									"type": "uint256"
								},
								{
									"internalType": "string",
									"name": "financialInfo",
									"type": "string"
								},
								{
									"internalType": "string",
									"name": "projectDocumentation",
									"type": "string"
								},
								{
									"internalType": "string",
									"name": "verificationStatus",
									"type": "string"
								},
								{
									"internalType": "string",
									"name": "purchaseStatus",
									"type": "string"
								}
							],
							"internalType": "struct ProjectContract.Project[]",
							"name": "",
							"type": "tuple[]"
						}
					],
					"stateMutability": "view",
					"type": "function"
				},
				{
					"inputs": [],
					"name": "nextProjectId",
					"outputs": [
						{
							"internalType": "uint256",
							"name": "",
							"type": "uint256"
						}
					],
					"stateMutability": "view",
					"type": "function"
				},
				{
					"inputs": [],
					"name": "owner",
					"outputs": [
						{
							"internalType": "address",
							"name": "",
							"type": "address"
						}
					],
					"stateMutability": "view",
					"type": "function"
				},
				{
					"inputs": [
						{
							"internalType": "uint256",
							"name": "",
							"type": "uint256"
						}
					],
					"name": "projects",
					"outputs": [
						{
							"internalType": "uint256",
							"name": "projectId",
							"type": "uint256"
						},
						{
							"internalType": "string",
							"name": "projectTitle",
							"type": "string"
						},
						{
							"internalType": "string",
							"name": "projectDescription",
							"type": "string"
						},
						{
							"internalType": "string",
							"name": "companyInfo",
							"type": "string"
						},
						{
							"internalType": "uint256",
							"name": "emissionsOffset",
							"type": "uint256"
						},
						{
							"internalType": "uint256",
							"name": "creditsIssued",
							"type": "uint256"
						},
						{
							"internalType": "string",
							"name": "financialInfo",
							"type": "string"
						},
						{
							"internalType": "string",
							"name": "projectDocumentation",
							"type": "string"
						},
						{
							"internalType": "string",
							"name": "verificationStatus",
							"type": "string"
						},
						{
							"internalType": "string",
							"name": "purchaseStatus",
							"type": "string"
						}
					],
					"stateMutability": "view",
					"type": "function"
				},
				{
					"inputs": [
						{
							"internalType": "uint256",
							"name": "projectId",
							"type": "uint256"
						},
						{
							"internalType": "uint256",
							"name": "newCreditsIssued",
							"type": "uint256"
						}
					],
					"name": "updateCarbonCredits",
					"outputs": [],
					"stateMutability": "nonpayable",
					"type": "function"
				},
				{
					"inputs": [
						{
							"internalType": "uint256",
							"name": "_projectId",
							"type": "uint256"
						},
						{
							"internalType": "string",
							"name": "_verificationStatus",
							"type": "string"
						}
					],
					"name": "updateVerificationStatus",
					"outputs": [],
					"stateMutability": "nonpayable",
					"type": "function"
				}
			],
			"devdoc": {
				"kind": "dev",
				"methods": {},
				"version": 1
			},
			"evm": {
				"assembly": "    /* \"src/contracts/Project.sol\":57:5316  contract ProjectContract {... */\n  mstore(0x40, 0x80)\n    /* \"src/contracts/Project.sol\":145:146  0 */\n  0x00\n    /* \"src/contracts/Project.sol\":114:146  uint256 public nextProjectId = 0 */\n  0x01\n  sstore\n    /* \"src/contracts/Project.sol\":702:751  constructor() {... */\n  callvalue\n  dup1\n  iszero\n  tag_1\n  jumpi\n  0x00\n  dup1\n  revert\ntag_1:\n  pop\n    /* \"src/contracts/Project.sol\":734:744  msg.sender */\n  caller\n    /* \"src/contracts/Project.sol\":726:731  owner */\n  0x00\n  dup1\n    /* \"src/contracts/Project.sol\":726:744  owner = msg.sender */\n  0x0100\n  exp\n  dup2\n  sload\n  dup2\n  0xffffffffffffffffffffffffffffffffffffffff\n  mul\n  not\n  and\n  swap1\n  dup4\n  0xffffffffffffffffffffffffffffffffffffffff\n  and\n  mul\n  or\n  swap1\n  sstore\n  pop\n    /* \"src/contracts/Project.sol\":57:5316  contract ProjectContract {... */\n  dataSize(sub_0)\n  dup1\n  dataOffset(sub_0)\n  0x00\n  codecopy\n  0x00\n  return\nstop\n\nsub_0: assembly {\n        /* \"src/contracts/Project.sol\":57:5316  contract ProjectContract {... */\n      mstore(0x40, 0x80)\n      callvalue\n      dup1\n      iszero\n      tag_1\n      jumpi\n      0x00\n      dup1\n      revert\n    tag_1:\n      pop\n      jumpi(tag_2, lt(calldatasize, 0x04))\n      shr(0xe0, calldataload(0x00))\n      dup1\n      0x84144a44\n      gt\n      tag_15\n      jumpi\n      dup1\n      0x84144a44\n      eq\n      tag_9\n      jumpi\n      dup1\n      0x8da5cb5b\n      eq\n      tag_10\n      jumpi\n      dup1\n      0xabbdc747\n      eq\n      tag_11\n      jumpi\n      dup1\n      0xbee5cdca\n      eq\n      tag_12\n      jumpi\n      dup1\n      0xe4b0954b\n      eq\n      tag_13\n      jumpi\n      dup1\n      0xe935b7b1\n      eq\n      tag_14\n      jumpi\n      jump(tag_2)\n    tag_15:\n      dup1\n      0x107046bd\n      eq\n      tag_3\n      jumpi\n      dup1\n      0x3d9597b6\n      eq\n      tag_4\n      jumpi\n      dup1\n      0x57e30c15\n      eq\n      tag_5\n      jumpi\n      dup1\n      0x80d03829\n      eq\n      tag_6\n      jumpi\n      dup1\n      0x8177dc10\n      eq\n      tag_7\n      jumpi\n      dup1\n      0x827184e1\n      eq\n      tag_8\n      jumpi\n    tag_2:\n      0x00\n      dup1\n      revert\n        /* \"src/contracts/Project.sol\":537:562  Project[] public projects */\n    tag_3:\n      tag_16\n      0x04\n      dup1\n      calldatasize\n      sub\n      dup2\n      add\n      swap1\n      tag_17\n      swap2\n      swap1\n      tag_18\n      jump\t// in\n    tag_17:\n      tag_19\n      jump\t// in\n    tag_16:\n      mload(0x40)\n      tag_20\n      swap11\n      swap10\n      swap9\n      swap8\n      swap7\n      swap6\n      swap5\n      swap4\n      swap3\n      swap2\n      swap1\n      tag_21\n      jump\t// in\n    tag_20:\n      mload(0x40)\n      dup1\n      swap2\n      sub\n      swap1\n      return\n        /* \"src/contracts/Project.sol\":3060:3490  function getProjectsByVerificationStatus(string memory _verificationStatus) public view returns (Project[] memory) {... */\n    tag_4:\n      tag_22\n      0x04\n      dup1\n      calldatasize\n      sub\n      dup2\n      add\n      swap1\n      tag_23\n      swap2\n      swap1\n      tag_24\n      jump\t// in\n    tag_23:\n      tag_25\n      jump\t// in\n    tag_22:\n      mload(0x40)\n      tag_26\n      swap2\n      swap1\n      tag_27\n      jump\t// in\n    tag_26:\n      mload(0x40)\n      dup1\n      swap2\n      sub\n      swap1\n      return\n        /* \"src/contracts/Project.sol\":4312:4936  function getProjectsByStatus(... */\n    tag_5:\n      tag_28\n      0x04\n      dup1\n      calldatasize\n      sub\n      dup2\n      add\n      swap1\n      tag_29\n      swap2\n      swap1\n      tag_30\n      jump\t// in\n    tag_29:\n      tag_31\n      jump\t// in\n    tag_28:\n      mload(0x40)\n      tag_32\n      swap2\n      swap1\n      tag_27\n      jump\t// in\n    tag_32:\n      mload(0x40)\n      dup1\n      swap2\n      sub\n      swap1\n      return\n        /* \"src/contracts/Project.sol\":5216:5313  function getAllProjects() public view returns (Project[] memory) {... */\n    tag_6:\n      tag_33\n      tag_34\n      jump\t// in\n    tag_33:\n      mload(0x40)\n      tag_35\n      swap2\n      swap1\n      tag_27\n      jump\t// in\n    tag_35:\n      mload(0x40)\n      dup1\n      swap2\n      sub\n      swap1\n      return\n        /* \"src/contracts/Project.sol\":2632:3050  function getProjectInfoByCompany(string memory companyName) public view returns (... */\n    tag_7:\n      tag_36\n      0x04\n      dup1\n      calldatasize\n      sub\n      dup2\n      add\n      swap1\n      tag_37\n      swap2\n      swap1\n      tag_24\n      jump\t// in\n    tag_37:\n      tag_38\n      jump\t// in\n    tag_36:\n      mload(0x40)\n      tag_39\n      swap2\n      swap1\n      tag_40\n      jump\t// in\n    tag_39:\n      mload(0x40)\n      dup1\n      swap2\n      sub\n      swap1\n      return\n        /* \"src/contracts/Project.sol\":4942:5210  function updateCarbonCredits(uint256 projectId, uint256 newCreditsIssued) public {... */\n    tag_8:\n      tag_41\n      0x04\n      dup1\n      calldatasize\n      sub\n      dup2\n      add\n      swap1\n      tag_42\n      swap2\n      swap1\n      tag_43\n      jump\t// in\n    tag_42:\n      tag_44\n      jump\t// in\n    tag_41:\n      stop\n        /* \"src/contracts/Project.sol\":756:2371  function createProject(... */\n    tag_9:\n      tag_45\n      0x04\n      dup1\n      calldatasize\n      sub\n      dup2\n      add\n      swap1\n      tag_46\n      swap2\n      swap1\n      tag_47\n      jump\t// in\n    tag_46:\n      tag_48\n      jump\t// in\n    tag_45:\n      stop\n        /* \"src/contracts/Project.sol\":88:108  address public owner */\n    tag_10:\n      tag_49\n      tag_50\n      jump\t// in\n    tag_49:\n      mload(0x40)\n      tag_51\n      swap2\n      swap1\n      tag_52\n      jump\t// in\n    tag_51:\n      mload(0x40)\n      dup1\n      swap2\n      sub\n      swap1\n      return\n        /* \"src/contracts/Project.sol\":3496:3886  function updateVerificationStatus(uint256 _projectId, string memory _verificationStatus) public {... */\n    tag_11:\n      tag_53\n      0x04\n      dup1\n      calldatasize\n      sub\n      dup2\n      add\n      swap1\n      tag_54\n      swap2\n      swap1\n      tag_55\n      jump\t// in\n    tag_54:\n      tag_56\n      jump\t// in\n    tag_53:\n      stop\n        /* \"src/contracts/Project.sol\":2420:2626  function getProjectById(uint256 projectId) public view returns (Project memory project) {... */\n    tag_12:\n      tag_57\n      0x04\n      dup1\n      calldatasize\n      sub\n      dup2\n      add\n      swap1\n      tag_58\n      swap2\n      swap1\n      tag_18\n      jump\t// in\n    tag_58:\n      tag_59\n      jump\t// in\n    tag_57:\n      mload(0x40)\n      tag_60\n      swap2\n      swap1\n      tag_40\n      jump\t// in\n    tag_60:\n      mload(0x40)\n      dup1\n      swap2\n      sub\n      swap1\n      return\n        /* \"src/contracts/Project.sol\":3892:4306  function getProjectsByPurchaseStatus(string memory _purchaseStatus) public view returns (Project[] memory) {... */\n    tag_13:\n      tag_61\n      0x04\n      dup1\n      calldatasize\n      sub\n      dup2\n      add\n      swap1\n      tag_62\n      swap2\n      swap1\n      tag_24\n      jump\t// in\n    tag_62:\n      tag_63\n      jump\t// in\n    tag_61:\n      mload(0x40)\n      tag_64\n      swap2\n      swap1\n      tag_27\n      jump\t// in\n    tag_64:\n      mload(0x40)\n      dup1\n      swap2\n      sub\n      swap1\n      return\n        /* \"src/contracts/Project.sol\":114:146  uint256 public nextProjectId = 0 */\n    tag_14:\n      tag_65\n      tag_66\n      jump\t// in\n    tag_65:\n      mload(0x40)\n      tag_67\n      swap2\n      swap1\n      tag_68\n      jump\t// in\n    tag_67:\n      mload(0x40)\n      dup1\n      swap2\n      sub\n      swap1\n      return\n        /* \"src/contracts/Project.sol\":537:562  Project[] public projects */\n    tag_19:\n      0x02\n      dup2\n      dup2\n      sload\n      dup2\n      lt\n      tag_69\n      jumpi\n      0x00\n      dup1\n      revert\n    tag_69:\n      swap1\n      0x00\n      mstore\n      keccak256(0x00, 0x20)\n      swap1\n      0x0a\n      mul\n      add\n      0x00\n      swap2\n      pop\n      swap1\n      pop\n      dup1\n      0x00\n      add\n      sload\n      swap1\n      dup1\n      0x01\n      add\n      dup1\n      sload\n      tag_71\n      swap1\n      tag_72\n      jump\t// in\n    tag_71:\n      dup1\n      0x1f\n      add\n      0x20\n      dup1\n      swap2\n      div\n      mul\n      0x20\n      add\n      mload(0x40)\n      swap1\n      dup2\n      add\n      0x40\n      mstore\n      dup1\n      swap3\n      swap2\n      swap1\n      dup2\n      dup2\n      mstore\n      0x20\n      add\n      dup3\n      dup1\n      sload\n      tag_73\n      swap1\n      tag_72\n      jump\t// in\n    tag_73:\n      dup1\n      iszero\n      tag_74\n      jumpi\n      dup1\n      0x1f\n      lt\n      tag_75\n      jumpi\n      0x0100\n      dup1\n      dup4\n      sload\n      div\n      mul\n      dup4\n      mstore\n      swap2\n      0x20\n      add\n      swap2\n      jump(tag_74)\n    tag_75:\n      dup3\n      add\n      swap2\n      swap1\n      0x00\n      mstore\n      keccak256(0x00, 0x20)\n      swap1\n    tag_76:\n      dup2\n      sload\n      dup2\n      mstore\n      swap1\n      0x01\n      add\n      swap1\n      0x20\n      add\n      dup1\n      dup4\n      gt\n      tag_76\n      jumpi\n      dup3\n      swap1\n      sub\n      0x1f\n      and\n      dup3\n      add\n      swap2\n    tag_74:\n      pop\n      pop\n      pop\n      pop\n      pop\n      swap1\n      dup1\n      0x02\n      add\n      dup1\n      sload\n      tag_77\n      swap1\n      tag_72\n      jump\t// in\n    tag_77:\n      dup1\n      0x1f\n      add\n      0x20\n      dup1\n      swap2\n      div\n      mul\n      0x20\n      add\n      mload(0x40)\n      swap1\n      dup2\n      add\n      0x40\n      mstore\n      dup1\n      swap3\n      swap2\n      swap1\n      dup2\n      dup2\n      mstore\n      0x20\n      add\n      dup3\n      dup1\n      sload\n      tag_78\n      swap1\n      tag_72\n      jump\t// in\n    tag_78:\n      dup1\n      iszero\n      tag_79\n      jumpi\n      dup1\n      0x1f\n      lt\n      tag_80\n      jumpi\n      0x0100\n      dup1\n      dup4\n      sload\n      div\n      mul\n      dup4\n      mstore\n      swap2\n      0x20\n      add\n      swap2\n      jump(tag_79)\n    tag_80:\n      dup3\n      add\n      swap2\n      swap1\n      0x00\n      mstore\n      keccak256(0x00, 0x20)\n      swap1\n    tag_81:\n      dup2\n      sload\n      dup2\n      mstore\n      swap1\n      0x01\n      add\n      swap1\n      0x20\n      add\n      dup1\n      dup4\n      gt\n      tag_81\n      jumpi\n      dup3\n      swap1\n      sub\n      0x1f\n      and\n      dup3\n      add\n      swap2\n    tag_79:\n      pop\n      pop\n      pop\n      pop\n      pop\n      swap1\n      dup1\n      0x03\n      add\n      dup1\n      sload\n      tag_82\n      swap1\n      tag_72\n      jump\t// in\n    tag_82:\n      dup1\n      0x1f\n      add\n      0x20\n      dup1\n      swap2\n      div\n      mul\n      0x20\n      add\n      mload(0x40)\n      swap1\n      dup2\n      add\n      0x40\n      mstore\n      dup1\n      swap3\n      swap2\n      swap1\n      dup2\n      dup2\n      mstore\n      0x20\n      add\n      dup3\n      dup1\n      sload\n      tag_83\n      swap1\n      tag_72\n      jump\t// in\n    tag_83:\n      dup1\n      iszero\n      tag_84\n      jumpi\n      dup1\n      0x1f\n      lt\n      tag_85\n      jumpi\n      0x0100\n      dup1\n      dup4\n      sload\n      div\n      mul\n      dup4\n      mstore\n      swap2\n      0x20\n      add\n      swap2\n      jump(tag_84)\n    tag_85:\n      dup3\n      add\n      swap2\n      swap1\n      0x00\n      mstore\n      keccak256(0x00, 0x20)\n      swap1\n    tag_86:\n      dup2\n      sload\n      dup2\n      mstore\n      swap1\n      0x01\n      add\n      swap1\n      0x20\n      add\n      dup1\n      dup4\n      gt\n      tag_86\n      jumpi\n      dup3\n      swap1\n      sub\n      0x1f\n      and\n      dup3\n      add\n      swap2\n    tag_84:\n      pop\n      pop\n      pop\n      pop\n      pop\n      swap1\n      dup1\n      0x04\n      add\n      sload\n      swap1\n      dup1\n      0x05\n      add\n      sload\n      swap1\n      dup1\n      0x06\n      add\n      dup1\n      sload\n      tag_87\n      swap1\n      tag_72\n      jump\t// in\n    tag_87:\n      dup1\n      0x1f\n      add\n      0x20\n      dup1\n      swap2\n      div\n      mul\n      0x20\n      add\n      mload(0x40)\n      swap1\n      dup2\n      add\n      0x40\n      mstore\n      dup1\n      swap3\n      swap2\n      swap1\n      dup2\n      dup2\n      mstore\n      0x20\n      add\n      dup3\n      dup1\n      sload\n      tag_88\n      swap1\n      tag_72\n      jump\t// in\n    tag_88:\n      dup1\n      iszero\n      tag_89\n      jumpi\n      dup1\n      0x1f\n      lt\n      tag_90\n      jumpi\n      0x0100\n      dup1\n      dup4\n      sload\n      div\n      mul\n      dup4\n      mstore\n      swap2\n      0x20\n      add\n      swap2\n      jump(tag_89)\n    tag_90:\n      dup3\n      add\n      swap2\n      swap1\n      0x00\n      mstore\n      keccak256(0x00, 0x20)\n      swap1\n    tag_91:\n      dup2\n      sload\n      dup2\n      mstore\n      swap1\n      0x01\n      add\n      swap1\n      0x20\n      add\n      dup1\n      dup4\n      gt\n      tag_91\n      jumpi\n      dup3\n      swap1\n      sub\n      0x1f\n      and\n      dup3\n      add\n      swap2\n    tag_89:\n      pop\n      pop\n      pop\n      pop\n      pop\n      swap1\n      dup1\n      0x07\n      add\n      dup1\n      sload\n      tag_92\n      swap1\n      tag_72\n      jump\t// in\n    tag_92:\n      dup1\n      0x1f\n      add\n      0x20\n      dup1\n      swap2\n      div\n      mul\n      0x20\n      add\n      mload(0x40)\n      swap1\n      dup2\n      add\n      0x40\n      mstore\n      dup1\n      swap3\n      swap2\n      swap1\n      dup2\n      dup2\n      mstore\n      0x20\n      add\n      dup3\n      dup1\n      sload\n      tag_93\n      swap1\n      tag_72\n      jump\t// in\n    tag_93:\n      dup1\n      iszero\n      tag_94\n      jumpi\n      dup1\n      0x1f\n      lt\n      tag_95\n      jumpi\n      0x0100\n      dup1\n      dup4\n      sload\n      div\n      mul\n      dup4\n      mstore\n      swap2\n      0x20\n      add\n      swap2\n      jump(tag_94)\n    tag_95:\n      dup3\n      add\n      swap2\n      swap1\n      0x00\n      mstore\n      keccak256(0x00, 0x20)\n      swap1\n    tag_96:\n      dup2\n      sload\n      dup2\n      mstore\n      swap1\n      0x01\n      add\n      swap1\n      0x20\n      add\n      dup1\n      dup4\n      gt\n      tag_96\n      jumpi\n      dup3\n      swap1\n      sub\n      0x1f\n      and\n      dup3\n      add\n      swap2\n    tag_94:\n      pop\n      pop\n      pop\n      pop\n      pop\n      swap1\n      dup1\n      0x08\n      add\n      dup1\n      sload\n      tag_97\n      swap1\n      tag_72\n      jump\t// in\n    tag_97:\n      dup1\n      0x1f\n      add\n      0x20\n      dup1\n      swap2\n      div\n      mul\n      0x20\n      add\n      mload(0x40)\n      swap1\n      dup2\n      add\n      0x40\n      mstore\n      dup1\n      swap3\n      swap2\n      swap1\n      dup2\n      dup2\n      mstore\n      0x20\n      add\n      dup3\n      dup1\n      sload\n      tag_98\n      swap1\n      tag_72\n      jump\t// in\n    tag_98:\n      dup1\n      iszero\n      tag_99\n      jumpi\n      dup1\n      0x1f\n      lt\n      tag_100\n      jumpi\n      0x0100\n      dup1\n      dup4\n      sload\n      div\n      mul\n      dup4\n      mstore\n      swap2\n      0x20\n      add\n      swap2\n      jump(tag_99)\n    tag_100:\n      dup3\n      add\n      swap2\n      swap1\n      0x00\n      mstore\n      keccak256(0x00, 0x20)\n      swap1\n    tag_101:\n      dup2\n      sload\n      dup2\n      mstore\n      swap1\n      0x01\n      add\n      swap1\n      0x20\n      add\n      dup1\n      dup4\n      gt\n      tag_101\n      jumpi\n      dup3\n      swap1\n      sub\n      0x1f\n      and\n      dup3\n      add\n      swap2\n    tag_99:\n      pop\n      pop\n      pop\n      pop\n      pop\n      swap1\n      dup1\n      0x09\n      add\n      dup1\n      sload\n      tag_102\n      swap1\n      tag_72\n      jump\t// in\n    tag_102:\n      dup1\n      0x1f\n      add\n      0x20\n      dup1\n      swap2\n      div\n      mul\n      0x20\n      add\n      mload(0x40)\n      swap1\n      dup2\n      add\n      0x40\n      mstore\n      dup1\n      swap3\n      swap2\n      swap1\n      dup2\n      dup2\n      mstore\n      0x20\n      add\n      dup3\n      dup1\n      sload\n      tag_103\n      swap1\n      tag_72\n      jump\t// in\n    tag_103:\n      dup1\n      iszero\n      tag_104\n      jumpi\n      dup1\n      0x1f\n      lt\n      tag_105\n      jumpi\n      0x0100\n      dup1\n      dup4\n      sload\n      div\n      mul\n      dup4\n      mstore\n      swap2\n      0x20\n      add\n      swap2\n      jump(tag_104)\n    tag_105:\n      dup3\n      add\n      swap2\n      swap1\n      0x00\n      mstore\n      keccak256(0x00, 0x20)\n      swap1\n    tag_106:\n      dup2\n      sload\n      dup2\n      mstore\n      swap1\n      0x01\n      add\n      swap1\n      0x20\n      add\n      dup1\n      dup4\n      gt\n      tag_106\n      jumpi\n      dup3\n      swap1\n      sub\n      0x1f\n      and\n      dup3\n      add\n      swap2\n    tag_104:\n      pop\n      pop\n      pop\n      pop\n      pop\n      swap1\n      pop\n      dup11\n      jump\t// out\n        /* \"src/contracts/Project.sol\":3060:3490  function getProjectsByVerificationStatus(string memory _verificationStatus) public view returns (Project[] memory) {... */\n    tag_25:\n        /* \"src/contracts/Project.sol\":3157:3173  Project[] memory */\n      0x60\n        /* \"src/contracts/Project.sol\":3185:3208  Project[] memory result */\n      dup1\n        /* \"src/contracts/Project.sol\":3223:3232  uint256 i */\n      0x00\n        /* \"src/contracts/Project.sol\":3218:3461  for (uint256 i = 0; i < projects.length; i++) {... */\n    tag_108:\n        /* \"src/contracts/Project.sol\":3242:3250  projects */\n      0x02\n        /* \"src/contracts/Project.sol\":3242:3257  projects.length */\n      dup1\n      sload\n      swap1\n      pop\n        /* \"src/contracts/Project.sol\":3238:3239  i */\n      dup2\n        /* \"src/contracts/Project.sol\":3238:3257  i < projects.length */\n      lt\n        /* \"src/contracts/Project.sol\":3218:3461  for (uint256 i = 0; i < projects.length; i++) {... */\n      iszero\n      tag_109\n      jumpi\n        /* \"src/contracts/Project.sol\":3372:3391  _verificationStatus */\n      dup4\n        /* \"src/contracts/Project.sol\":3355:3392  abi.encodePacked(_verificationStatus) */\n      add(0x20, mload(0x40))\n      tag_111\n      swap2\n      swap1\n      tag_112\n      jump\t// in\n    tag_111:\n      mload(0x40)\n      0x20\n      dup2\n      dup4\n      sub\n      sub\n      dup2\n      mstore\n      swap1\n      0x40\n      mstore\n        /* \"src/contracts/Project.sol\":3345:3393  keccak256(abi.encodePacked(_verificationStatus)) */\n      dup1\n      mload\n      swap1\n      0x20\n      add\n      keccak256\n        /* \"src/contracts/Project.sol\":3309:3317  projects */\n      0x02\n        /* \"src/contracts/Project.sol\":3318:3319  i */\n      dup3\n        /* \"src/contracts/Project.sol\":3309:3320  projects[i] */\n      dup2\n      sload\n      dup2\n      lt\n      tag_113\n      jumpi\n      tag_114\n      tag_115\n      jump\t// in\n    tag_114:\n    tag_113:\n      swap1\n      0x00\n      mstore\n      keccak256(0x00, 0x20)\n      swap1\n      0x0a\n      mul\n      add\n        /* \"src/contracts/Project.sol\":3309:3339  projects[i].verificationStatus */\n      0x08\n      add\n        /* \"src/contracts/Project.sol\":3292:3340  abi.encodePacked(projects[i].verificationStatus) */\n      add(0x20, mload(0x40))\n      tag_117\n      swap2\n      swap1\n      tag_118\n      jump\t// in\n    tag_117:\n      mload(0x40)\n      0x20\n      dup2\n      dup4\n      sub\n      sub\n      dup2\n      mstore\n      swap1\n      0x40\n      mstore\n        /* \"src/contracts/Project.sol\":3282:3341  keccak256(abi.encodePacked(projects[i].verificationStatus)) */\n      dup1\n      mload\n      swap1\n      0x20\n      add\n      keccak256\n        /* \"src/contracts/Project.sol\":3282:3393  keccak256(abi.encodePacked(projects[i].verificationStatus)) == keccak256(abi.encodePacked(_verificationStatus)) */\n      sub\n        /* \"src/contracts/Project.sol\":3278:3451  if (keccak256(abi.encodePacked(projects[i].verificationStatus)) == keccak256(abi.encodePacked(_verificationStatus))) {... */\n      tag_119\n      jumpi\n        /* \"src/contracts/Project.sol\":3425:3433  projects */\n      0x02\n        /* \"src/contracts/Project.sol\":3434:3435  i */\n      dup2\n        /* \"src/contracts/Project.sol\":3425:3436  projects[i] */\n      dup2\n      sload\n      dup2\n      lt\n      tag_120\n      jumpi\n      tag_121\n      tag_115\n      jump\t// in\n    tag_121:\n    tag_120:\n      swap1\n      0x00\n      mstore\n      keccak256(0x00, 0x20)\n      swap1\n      0x0a\n      mul\n      add\n        /* \"src/contracts/Project.sol\":3413:3436  result[i] = projects[i] */\n      mload(0x40)\n      dup1\n      0x0140\n      add\n      0x40\n      mstore\n      swap1\n      dup2\n      0x00\n      dup3\n      add\n      sload\n      dup2\n      mstore\n      0x20\n      add\n      0x01\n      dup3\n      add\n      dup1\n      sload\n      tag_123\n      swap1\n      tag_72\n      jump\t// in\n    tag_123:\n      dup1\n      0x1f\n      add\n      0x20\n      dup1\n      swap2\n      div\n      mul\n      0x20\n      add\n      mload(0x40)\n      swap1\n      dup2\n      add\n      0x40\n      mstore\n      dup1\n      swap3\n      swap2\n      swap1\n      dup2\n      dup2\n      mstore\n      0x20\n      add\n      dup3\n      dup1\n      sload\n      tag_124\n      swap1\n      tag_72\n      jump\t// in\n    tag_124:\n      dup1\n      iszero\n      tag_125\n      jumpi\n      dup1\n      0x1f\n      lt\n      tag_126\n      jumpi\n      0x0100\n      dup1\n      dup4\n      sload\n      div\n      mul\n      dup4\n      mstore\n      swap2\n      0x20\n      add\n      swap2\n      jump(tag_125)\n    tag_126:\n      dup3\n      add\n      swap2\n      swap1\n      0x00\n      mstore\n      keccak256(0x00, 0x20)\n      swap1\n    tag_127:\n      dup2\n      sload\n      dup2\n      mstore\n      swap1\n      0x01\n      add\n      swap1\n      0x20\n      add\n      dup1\n      dup4\n      gt\n      tag_127\n      jumpi\n      dup3\n      swap1\n      sub\n      0x1f\n      and\n      dup3\n      add\n      swap2\n    tag_125:\n      pop\n      pop\n      pop\n      pop\n      pop\n      dup2\n      mstore\n      0x20\n      add\n      0x02\n      dup3\n      add\n      dup1\n      sload\n      tag_128\n      swap1\n      tag_72\n      jump\t// in\n    tag_128:\n      dup1\n      0x1f\n      add\n      0x20\n      dup1\n      swap2\n      div\n      mul\n      0x20\n      add\n      mload(0x40)\n      swap1\n      dup2\n      add\n      0x40\n      mstore\n      dup1\n      swap3\n      swap2\n      swap1\n      dup2\n      dup2\n      mstore\n      0x20\n      add\n      dup3\n      dup1\n      sload\n      tag_129\n      swap1\n      tag_72\n      jump\t// in\n    tag_129:\n      dup1\n      iszero\n      tag_130\n      jumpi\n      dup1\n      0x1f\n      lt\n      tag_131\n      jumpi\n      0x0100\n      dup1\n      dup4\n      sload\n      div\n      mul\n      dup4\n      mstore\n      swap2\n      0x20\n      add\n      swap2\n      jump(tag_130)\n    tag_131:\n      dup3\n      add\n      swap2\n      swap1\n      0x00\n      mstore\n      keccak256(0x00, 0x20)\n      swap1\n    tag_132:\n      dup2\n      sload\n      dup2\n      mstore\n      swap1\n      0x01\n      add\n      swap1\n      0x20\n      add\n      dup1\n      dup4\n      gt\n      tag_132\n      jumpi\n      dup3\n      swap1\n      sub\n      0x1f\n      and\n      dup3\n      add\n      swap2\n    tag_130:\n      pop\n      pop\n      pop\n      pop\n      pop\n      dup2\n      mstore\n      0x20\n      add\n      0x03\n      dup3\n      add\n      dup1\n      sload\n      tag_133\n      swap1\n      tag_72\n      jump\t// in\n    tag_133:\n      dup1\n      0x1f\n      add\n      0x20\n      dup1\n      swap2\n      div\n      mul\n      0x20\n      add\n      mload(0x40)\n      swap1\n      dup2\n      add\n      0x40\n      mstore\n      dup1\n      swap3\n      swap2\n      swap1\n      dup2\n      dup2\n      mstore\n      0x20\n      add\n      dup3\n      dup1\n      sload\n      tag_134\n      swap1\n      tag_72\n      jump\t// in\n    tag_134:\n      dup1\n      iszero\n      tag_135\n      jumpi\n      dup1\n      0x1f\n      lt\n      tag_136\n      jumpi\n      0x0100\n      dup1\n      dup4\n      sload\n      div\n      mul\n      dup4\n      mstore\n      swap2\n      0x20\n      add\n      swap2\n      jump(tag_135)\n    tag_136:\n      dup3\n      add\n      swap2\n      swap1\n      0x00\n      mstore\n      keccak256(0x00, 0x20)\n      swap1\n    tag_137:\n      dup2\n      sload\n      dup2\n      mstore\n      swap1\n      0x01\n      add\n      swap1\n      0x20\n      add\n      dup1\n      dup4\n      gt\n      tag_137\n      jumpi\n      dup3\n      swap1\n      sub\n      0x1f\n      and\n      dup3\n      add\n      swap2\n    tag_135:\n      pop\n      pop\n      pop\n      pop\n      pop\n      dup2\n      mstore\n      0x20\n      add\n      0x04\n      dup3\n      add\n      sload\n      dup2\n      mstore\n      0x20\n      add\n      0x05\n      dup3\n      add\n      sload\n      dup2\n      mstore\n      0x20\n      add\n      0x06\n      dup3\n      add\n      dup1\n      sload\n      tag_138\n      swap1\n      tag_72\n      jump\t// in\n    tag_138:\n      dup1\n      0x1f\n      add\n      0x20\n      dup1\n      swap2\n      div\n      mul\n      0x20\n      add\n      mload(0x40)\n      swap1\n      dup2\n      add\n      0x40\n      mstore\n      dup1\n      swap3\n      swap2\n      swap1\n      dup2\n      dup2\n      mstore\n      0x20\n      add\n      dup3\n      dup1\n      sload\n      tag_139\n      swap1\n      tag_72\n      jump\t// in\n    tag_139:\n      dup1\n      iszero\n      tag_140\n      jumpi\n      dup1\n      0x1f\n      lt\n      tag_141\n      jumpi\n      0x0100\n      dup1\n      dup4\n      sload\n      div\n      mul\n      dup4\n      mstore\n      swap2\n      0x20\n      add\n      swap2\n      jump(tag_140)\n    tag_141:\n      dup3\n      add\n      swap2\n      swap1\n      0x00\n      mstore\n      keccak256(0x00, 0x20)\n      swap1\n    tag_142:\n      dup2\n      sload\n      dup2\n      mstore\n      swap1\n      0x01\n      add\n      swap1\n      0x20\n      add\n      dup1\n      dup4\n      gt\n      tag_142\n      jumpi\n      dup3\n      swap1\n      sub\n      0x1f\n      and\n      dup3\n      add\n      swap2\n    tag_140:\n      pop\n      pop\n      pop\n      pop\n      pop\n      dup2\n      mstore\n      0x20\n      add\n      0x07\n      dup3\n      add\n      dup1\n      sload\n      tag_143\n      swap1\n      tag_72\n      jump\t// in\n    tag_143:\n      dup1\n      0x1f\n      add\n      0x20\n      dup1\n      swap2\n      div\n      mul\n      0x20\n      add\n      mload(0x40)\n      swap1\n      dup2\n      add\n      0x40\n      mstore\n      dup1\n      swap3\n      swap2\n      swap1\n      dup2\n      dup2\n      mstore\n      0x20\n      add\n      dup3\n      dup1\n      sload\n      tag_144\n      swap1\n      tag_72\n      jump\t// in\n    tag_144:\n      dup1\n      iszero\n      tag_145\n      jumpi\n      dup1\n      0x1f\n      lt\n      tag_146\n      jumpi\n      0x0100\n      dup1\n      dup4\n      sload\n      div\n      mul\n      dup4\n      mstore\n      swap2\n      0x20\n      add\n      swap2\n      jump(tag_145)\n    tag_146:\n      dup3\n      add\n      swap2\n      swap1\n      0x00\n      mstore\n      keccak256(0x00, 0x20)\n      swap1\n    tag_147:\n      dup2\n      sload\n      dup2\n      mstore\n      swap1\n      0x01\n      add\n      swap1\n      0x20\n      add\n      dup1\n      dup4\n      gt\n      tag_147\n      jumpi\n      dup3\n      swap1\n      sub\n      0x1f\n      and\n      dup3\n      add\n      swap2\n    tag_145:\n      pop\n      pop\n      pop\n      pop\n      pop\n      dup2\n      mstore\n      0x20\n      add\n      0x08\n      dup3\n      add\n      dup1\n      sload\n      tag_148\n      swap1\n      tag_72\n      jump\t// in\n    tag_148:\n      dup1\n      0x1f\n      add\n      0x20\n      dup1\n      swap2\n      div\n      mul\n      0x20\n      add\n      mload(0x40)\n      swap1\n      dup2\n      add\n      0x40\n      mstore\n      dup1\n      swap3\n      swap2\n      swap1\n      dup2\n      dup2\n      mstore\n      0x20\n      add\n      dup3\n      dup1\n      sload\n      tag_149\n      swap1\n      tag_72\n      jump\t// in\n    tag_149:\n      dup1\n      iszero\n      tag_150\n      jumpi\n      dup1\n      0x1f\n      lt\n      tag_151\n      jumpi\n      0x0100\n      dup1\n      dup4\n      sload\n      div\n      mul\n      dup4\n      mstore\n      swap2\n      0x20\n      add\n      swap2\n      jump(tag_150)\n    tag_151:\n      dup3\n      add\n      swap2\n      swap1\n      0x00\n      mstore\n      keccak256(0x00, 0x20)\n      swap1\n    tag_152:\n      dup2\n      sload\n      dup2\n      mstore\n      swap1\n      0x01\n      add\n      swap1\n      0x20\n      add\n      dup1\n      dup4\n      gt\n      tag_152\n      jumpi\n      dup3\n      swap1\n      sub\n      0x1f\n      and\n      dup3\n      add\n      swap2\n    tag_150:\n      pop\n      pop\n      pop\n      pop\n      pop\n      dup2\n      mstore\n      0x20\n      add\n      0x09\n      dup3\n      add\n      dup1\n      sload\n      tag_153\n      swap1\n      tag_72\n      jump\t// in\n    tag_153:\n      dup1\n      0x1f\n      add\n      0x20\n      dup1\n      swap2\n      div\n      mul\n      0x20\n      add\n      mload(0x40)\n      swap1\n      dup2\n      add\n      0x40\n      mstore\n      dup1\n      swap3\n      swap2\n      swap1\n      dup2\n      dup2\n      mstore\n      0x20\n      add\n      dup3\n      dup1\n      sload\n      tag_154\n      swap1\n      tag_72\n      jump\t// in\n    tag_154:\n      dup1\n      iszero\n      tag_155\n      jumpi\n      dup1\n      0x1f\n      lt\n      tag_156\n      jumpi\n      0x0100\n      dup1\n      dup4\n      sload\n      div\n      mul\n      dup4\n      mstore\n      swap2\n      0x20\n      add\n      swap2\n      jump(tag_155)\n    tag_156:\n      dup3\n      add\n      swap2\n      swap1\n      0x00\n      mstore\n      keccak256(0x00, 0x20)\n      swap1\n    tag_157:\n      dup2\n      sload\n      dup2\n      mstore\n      swap1\n      0x01\n      add\n      swap1\n      0x20\n      add\n      dup1\n      dup4\n      gt\n      tag_157\n      jumpi\n      dup3\n      swap1\n      sub\n      0x1f\n      and\n      dup3\n      add\n      swap2\n    tag_155:\n      pop\n      pop\n      pop\n      pop\n      pop\n      dup2\n      mstore\n      pop\n      pop\n        /* \"src/contracts/Project.sol\":3413:3419  result */\n      dup3\n        /* \"src/contracts/Project.sol\":3420:3421  i */\n      dup3\n        /* \"src/contracts/Project.sol\":3413:3422  result[i] */\n      dup2\n      mload\n      dup2\n      lt\n      tag_158\n      jumpi\n      tag_159\n      tag_115\n      jump\t// in\n    tag_159:\n    tag_158:\n      0x20\n      mul\n      0x20\n      add\n      add\n        /* \"src/contracts/Project.sol\":3413:3436  result[i] = projects[i] */\n      dup2\n      swap1\n      mstore\n      pop\n        /* \"src/contracts/Project.sol\":3278:3451  if (keccak256(abi.encodePacked(projects[i].verificationStatus)) == keccak256(abi.encodePacked(_verificationStatus))) {... */\n    tag_119:\n        /* \"src/contracts/Project.sol\":3259:3262  i++ */\n      dup1\n      dup1\n      tag_160\n      swap1\n      tag_161\n      jump\t// in\n    tag_160:\n      swap2\n      pop\n      pop\n        /* \"src/contracts/Project.sol\":3218:3461  for (uint256 i = 0; i < projects.length; i++) {... */\n      jump(tag_108)\n    tag_109:\n      pop\n        /* \"src/contracts/Project.sol\":3477:3483  result */\n      dup1\n        /* \"src/contracts/Project.sol\":3470:3483  return result */\n      swap2\n      pop\n      pop\n        /* \"src/contracts/Project.sol\":3060:3490  function getProjectsByVerificationStatus(string memory _verificationStatus) public view returns (Project[] memory) {... */\n      swap2\n      swap1\n      pop\n      jump\t// out\n        /* \"src/contracts/Project.sol\":4312:4936  function getProjectsByStatus(... */\n    tag_31:\n        /* \"src/contracts/Project.sol\":4450:4466  Project[] memory */\n      0x60\n        /* \"src/contracts/Project.sol\":4478:4501  Project[] memory result */\n      dup1\n        /* \"src/contracts/Project.sol\":4516:4525  uint256 i */\n      0x00\n        /* \"src/contracts/Project.sol\":4511:4907  for (uint256 i = 0; i < projects.length; i++) {... */\n    tag_163:\n        /* \"src/contracts/Project.sol\":4535:4543  projects */\n      0x02\n        /* \"src/contracts/Project.sol\":4535:4550  projects.length */\n      dup1\n      sload\n      swap1\n      pop\n        /* \"src/contracts/Project.sol\":4531:4532  i */\n      dup2\n        /* \"src/contracts/Project.sol\":4531:4550  i < projects.length */\n      lt\n        /* \"src/contracts/Project.sol\":4511:4907  for (uint256 i = 0; i < projects.length; i++) {... */\n      iszero\n      tag_164\n      jumpi\n        /* \"src/contracts/Project.sol\":4682:4701  _verificationStatus */\n      dup5\n        /* \"src/contracts/Project.sol\":4665:4702  abi.encodePacked(_verificationStatus) */\n      add(0x20, mload(0x40))\n      tag_166\n      swap2\n      swap1\n      tag_112\n      jump\t// in\n    tag_166:\n      mload(0x40)\n      0x20\n      dup2\n      dup4\n      sub\n      sub\n      dup2\n      mstore\n      swap1\n      0x40\n      mstore\n        /* \"src/contracts/Project.sol\":4655:4703  keccak256(abi.encodePacked(_verificationStatus)) */\n      dup1\n      mload\n      swap1\n      0x20\n      add\n      keccak256\n        /* \"src/contracts/Project.sol\":4619:4627  projects */\n      0x02\n        /* \"src/contracts/Project.sol\":4628:4629  i */\n      dup3\n        /* \"src/contracts/Project.sol\":4619:4630  projects[i] */\n      dup2\n      sload\n      dup2\n      lt\n      tag_167\n      jumpi\n      tag_168\n      tag_115\n      jump\t// in\n    tag_168:\n    tag_167:\n      swap1\n      0x00\n      mstore\n      keccak256(0x00, 0x20)\n      swap1\n      0x0a\n      mul\n      add\n        /* \"src/contracts/Project.sol\":4619:4649  projects[i].verificationStatus */\n      0x08\n      add\n        /* \"src/contracts/Project.sol\":4602:4650  abi.encodePacked(projects[i].verificationStatus) */\n      add(0x20, mload(0x40))\n      tag_170\n      swap2\n      swap1\n      tag_118\n      jump\t// in\n    tag_170:\n      mload(0x40)\n      0x20\n      dup2\n      dup4\n      sub\n      sub\n      dup2\n      mstore\n      swap1\n      0x40\n      mstore\n        /* \"src/contracts/Project.sol\":4592:4651  keccak256(abi.encodePacked(projects[i].verificationStatus)) */\n      dup1\n      mload\n      swap1\n      0x20\n      add\n      keccak256\n        /* \"src/contracts/Project.sol\":4592:4703  keccak256(abi.encodePacked(projects[i].verificationStatus)) == keccak256(abi.encodePacked(_verificationStatus)) */\n      eq\n        /* \"src/contracts/Project.sol\":4592:4826  keccak256(abi.encodePacked(projects[i].verificationStatus)) == keccak256(abi.encodePacked(_verificationStatus)) &&... */\n      dup1\n      iszero\n      tag_171\n      jumpi\n      pop\n        /* \"src/contracts/Project.sol\":4809:4824  _purchaseStatus */\n      dup4\n        /* \"src/contracts/Project.sol\":4792:4825  abi.encodePacked(_purchaseStatus) */\n      add(0x20, mload(0x40))\n      tag_172\n      swap2\n      swap1\n      tag_112\n      jump\t// in\n    tag_172:\n      mload(0x40)\n      0x20\n      dup2\n      dup4\n      sub\n      sub\n      dup2\n      mstore\n      swap1\n      0x40\n      mstore\n        /* \"src/contracts/Project.sol\":4782:4826  keccak256(abi.encodePacked(_purchaseStatus)) */\n      dup1\n      mload\n      swap1\n      0x20\n      add\n      keccak256\n        /* \"src/contracts/Project.sol\":4750:4758  projects */\n      0x02\n        /* \"src/contracts/Project.sol\":4759:4760  i */\n      dup3\n        /* \"src/contracts/Project.sol\":4750:4761  projects[i] */\n      dup2\n      sload\n      dup2\n      lt\n      tag_173\n      jumpi\n      tag_174\n      tag_115\n      jump\t// in\n    tag_174:\n    tag_173:\n      swap1\n      0x00\n      mstore\n      keccak256(0x00, 0x20)\n      swap1\n      0x0a\n      mul\n      add\n        /* \"src/contracts/Project.sol\":4750:4776  projects[i].purchaseStatus */\n      0x09\n      add\n        /* \"src/contracts/Project.sol\":4733:4777  abi.encodePacked(projects[i].purchaseStatus) */\n      add(0x20, mload(0x40))\n      tag_176\n      swap2\n      swap1\n      tag_118\n      jump\t// in\n    tag_176:\n      mload(0x40)\n      0x20\n      dup2\n      dup4\n      sub\n      sub\n      dup2\n      mstore\n      swap1\n      0x40\n      mstore\n        /* \"src/contracts/Project.sol\":4723:4778  keccak256(abi.encodePacked(projects[i].purchaseStatus)) */\n      dup1\n      mload\n      swap1\n      0x20\n      add\n      keccak256\n        /* \"src/contracts/Project.sol\":4723:4826  keccak256(abi.encodePacked(projects[i].purchaseStatus)) == keccak256(abi.encodePacked(_purchaseStatus)) */\n      eq\n        /* \"src/contracts/Project.sol\":4592:4826  keccak256(abi.encodePacked(projects[i].verificationStatus)) == keccak256(abi.encodePacked(_verificationStatus)) &&... */\n    tag_171:\n        /* \"src/contracts/Project.sol\":4571:4897  if (... */\n      iszero\n      tag_177\n      jumpi\n        /* \"src/contracts/Project.sol\":4871:4879  projects */\n      0x02\n        /* \"src/contracts/Project.sol\":4880:4881  i */\n      dup2\n        /* \"src/contracts/Project.sol\":4871:4882  projects[i] */\n      dup2\n      sload\n      dup2\n      lt\n      tag_178\n      jumpi\n      tag_179\n      tag_115\n      jump\t// in\n    tag_179:\n    tag_178:\n      swap1\n      0x00\n      mstore\n      keccak256(0x00, 0x20)\n      swap1\n      0x0a\n      mul\n      add\n        /* \"src/contracts/Project.sol\":4859:4882  result[i] = projects[i] */\n      mload(0x40)\n      dup1\n      0x0140\n      add\n      0x40\n      mstore\n      swap1\n      dup2\n      0x00\n      dup3\n      add\n      sload\n      dup2\n      mstore\n      0x20\n      add\n      0x01\n      dup3\n      add\n      dup1\n      sload\n      tag_181\n      swap1\n      tag_72\n      jump\t// in\n    tag_181:\n      dup1\n      0x1f\n      add\n      0x20\n      dup1\n      swap2\n      div\n      mul\n      0x20\n      add\n      mload(0x40)\n      swap1\n      dup2\n      add\n      0x40\n      mstore\n      dup1\n      swap3\n      swap2\n      swap1\n      dup2\n      dup2\n      mstore\n      0x20\n      add\n      dup3\n      dup1\n      sload\n      tag_182\n      swap1\n      tag_72\n      jump\t// in\n    tag_182:\n      dup1\n      iszero\n      tag_183\n      jumpi\n      dup1\n      0x1f\n      lt\n      tag_184\n      jumpi\n      0x0100\n      dup1\n      dup4\n      sload\n      div\n      mul\n      dup4\n      mstore\n      swap2\n      0x20\n      add\n      swap2\n      jump(tag_183)\n    tag_184:\n      dup3\n      add\n      swap2\n      swap1\n      0x00\n      mstore\n      keccak256(0x00, 0x20)\n      swap1\n    tag_185:\n      dup2\n      sload\n      dup2\n      mstore\n      swap1\n      0x01\n      add\n      swap1\n      0x20\n      add\n      dup1\n      dup4\n      gt\n      tag_185\n      jumpi\n      dup3\n      swap1\n      sub\n      0x1f\n      and\n      dup3\n      add\n      swap2\n    tag_183:\n      pop\n      pop\n      pop\n      pop\n      pop\n      dup2\n      mstore\n      0x20\n      add\n      0x02\n      dup3\n      add\n      dup1\n      sload\n      tag_186\n      swap1\n      tag_72\n      jump\t// in\n    tag_186:\n      dup1\n      0x1f\n      add\n      0x20\n      dup1\n      swap2\n      div\n      mul\n      0x20\n      add\n      mload(0x40)\n      swap1\n      dup2\n      add\n      0x40\n      mstore\n      dup1\n      swap3\n      swap2\n      swap1\n      dup2\n      dup2\n      mstore\n      0x20\n      add\n      dup3\n      dup1\n      sload\n      tag_187\n      swap1\n      tag_72\n      jump\t// in\n    tag_187:\n      dup1\n      iszero\n      tag_188\n      jumpi\n      dup1\n      0x1f\n      lt\n      tag_189\n      jumpi\n      0x0100\n      dup1\n      dup4\n      sload\n      div\n      mul\n      dup4\n      mstore\n      swap2\n      0x20\n      add\n      swap2\n      jump(tag_188)\n    tag_189:\n      dup3\n      add\n      swap2\n      swap1\n      0x00\n      mstore\n      keccak256(0x00, 0x20)\n      swap1\n    tag_190:\n      dup2\n      sload\n      dup2\n      mstore\n      swap1\n      0x01\n      add\n      swap1\n      0x20\n      add\n      dup1\n      dup4\n      gt\n      tag_190\n      jumpi\n      dup3\n      swap1\n      sub\n      0x1f\n      and\n      dup3\n      add\n      swap2\n    tag_188:\n      pop\n      pop\n      pop\n      pop\n      pop\n      dup2\n      mstore\n      0x20\n      add\n      0x03\n      dup3\n      add\n      dup1\n      sload\n      tag_191\n      swap1\n      tag_72\n      jump\t// in\n    tag_191:\n      dup1\n      0x1f\n      add\n      0x20\n      dup1\n      swap2\n      div\n      mul\n      0x20\n      add\n      mload(0x40)\n      swap1\n      dup2\n      add\n      0x40\n      mstore\n      dup1\n      swap3\n      swap2\n      swap1\n      dup2\n      dup2\n      mstore\n      0x20\n      add\n      dup3\n      dup1\n      sload\n      tag_192\n      swap1\n      tag_72\n      jump\t// in\n    tag_192:\n      dup1\n      iszero\n      tag_193\n      jumpi\n      dup1\n      0x1f\n      lt\n      tag_194\n      jumpi\n      0x0100\n      dup1\n      dup4\n      sload\n      div\n      mul\n      dup4\n      mstore\n      swap2\n      0x20\n      add\n      swap2\n      jump(tag_193)\n    tag_194:\n      dup3\n      add\n      swap2\n      swap1\n      0x00\n      mstore\n      keccak256(0x00, 0x20)\n      swap1\n    tag_195:\n      dup2\n      sload\n      dup2\n      mstore\n      swap1\n      0x01\n      add\n      swap1\n      0x20\n      add\n      dup1\n      dup4\n      gt\n      tag_195\n      jumpi\n      dup3\n      swap1\n      sub\n      0x1f\n      and\n      dup3\n      add\n      swap2\n    tag_193:\n      pop\n      pop\n      pop\n      pop\n      pop\n      dup2\n      mstore\n      0x20\n      add\n      0x04\n      dup3\n      add\n      sload\n      dup2\n      mstore\n      0x20\n      add\n      0x05\n      dup3\n      add\n      sload\n      dup2\n      mstore\n      0x20\n      add\n      0x06\n      dup3\n      add\n      dup1\n      sload\n      tag_196\n      swap1\n      tag_72\n      jump\t// in\n    tag_196:\n      dup1\n      0x1f\n      add\n      0x20\n      dup1\n      swap2\n      div\n      mul\n      0x20\n      add\n      mload(0x40)\n      swap1\n      dup2\n      add\n      0x40\n      mstore\n      dup1\n      swap3\n      swap2\n      swap1\n      dup2\n      dup2\n      mstore\n      0x20\n      add\n      dup3\n      dup1\n      sload\n      tag_197\n      swap1\n      tag_72\n      jump\t// in\n    tag_197:\n      dup1\n      iszero\n      tag_198\n      jumpi\n      dup1\n      0x1f\n      lt\n      tag_199\n      jumpi\n      0x0100\n      dup1\n      dup4\n      sload\n      div\n      mul\n      dup4\n      mstore\n      swap2\n      0x20\n      add\n      swap2\n      jump(tag_198)\n    tag_199:\n      dup3\n      add\n      swap2\n      swap1\n      0x00\n      mstore\n      keccak256(0x00, 0x20)\n      swap1\n    tag_200:\n      dup2\n      sload\n      dup2\n      mstore\n      swap1\n      0x01\n      add\n      swap1\n      0x20\n      add\n      dup1\n      dup4\n      gt\n      tag_200\n      jumpi\n      dup3\n      swap1\n      sub\n      0x1f\n      and\n      dup3\n      add\n      swap2\n    tag_198:\n      pop\n      pop\n      pop\n      pop\n      pop\n      dup2\n      mstore\n      0x20\n      add\n      0x07\n      dup3\n      add\n      dup1\n      sload\n      tag_201\n      swap1\n      tag_72\n      jump\t// in\n    tag_201:\n      dup1\n      0x1f\n      add\n      0x20\n      dup1\n      swap2\n      div\n      mul\n      0x20\n      add\n      mload(0x40)\n      swap1\n      dup2\n      add\n      0x40\n      mstore\n      dup1\n      swap3\n      swap2\n      swap1\n      dup2\n      dup2\n      mstore\n      0x20\n      add\n      dup3\n      dup1\n      sload\n      tag_202\n      swap1\n      tag_72\n      jump\t// in\n    tag_202:\n      dup1\n      iszero\n      tag_203\n      jumpi\n      dup1\n      0x1f\n      lt\n      tag_204\n      jumpi\n      0x0100\n      dup1\n      dup4\n      sload\n      div\n      mul\n      dup4\n      mstore\n      swap2\n      0x20\n      add\n      swap2\n      jump(tag_203)\n    tag_204:\n      dup3\n      add\n      swap2\n      swap1\n      0x00\n      mstore\n      keccak256(0x00, 0x20)\n      swap1\n    tag_205:\n      dup2\n      sload\n      dup2\n      mstore\n      swap1\n      0x01\n      add\n      swap1\n      0x20\n      add\n      dup1\n      dup4\n      gt\n      tag_205\n      jumpi\n      dup3\n      swap1\n      sub\n      0x1f\n      and\n      dup3\n      add\n      swap2\n    tag_203:\n      pop\n      pop\n      pop\n      pop\n      pop\n      dup2\n      mstore\n      0x20\n      add\n      0x08\n      dup3\n      add\n      dup1\n      sload\n      tag_206\n      swap1\n      tag_72\n      jump\t// in\n    tag_206:\n      dup1\n      0x1f\n      add\n      0x20\n      dup1\n      swap2\n      div\n      mul\n      0x20\n      add\n      mload(0x40)\n      swap1\n      dup2\n      add\n      0x40\n      mstore\n      dup1\n      swap3\n      swap2\n      swap1\n      dup2\n      dup2\n      mstore\n      0x20\n      add\n      dup3\n      dup1\n      sload\n      tag_207\n      swap1\n      tag_72\n      jump\t// in\n    tag_207:\n      dup1\n      iszero\n      tag_208\n      jumpi\n      dup1\n      0x1f\n      lt\n      tag_209\n      jumpi\n      0x0100\n      dup1\n      dup4\n      sload\n      div\n      mul\n      dup4\n      mstore\n      swap2\n      0x20\n      add\n      swap2\n      jump(tag_208)\n    tag_209:\n      dup3\n      add\n      swap2\n      swap1\n      0x00\n      mstore\n      keccak256(0x00, 0x20)\n      swap1\n    tag_210:\n      dup2\n      sload\n      dup2\n      mstore\n      swap1\n      0x01\n      add\n      swap1\n      0x20\n      add\n      dup1\n      dup4\n      gt\n      tag_210\n      jumpi\n      dup3\n      swap1\n      sub\n      0x1f\n      and\n      dup3\n      add\n      swap2\n    tag_208:\n      pop\n      pop\n      pop\n      pop\n      pop\n      dup2\n      mstore\n      0x20\n      add\n      0x09\n      dup3\n      add\n      dup1\n      sload\n      tag_211\n      swap1\n      tag_72\n      jump\t// in\n    tag_211:\n      dup1\n      0x1f\n      add\n      0x20\n      dup1\n      swap2\n      div\n      mul\n      0x20\n      add\n      mload(0x40)\n      swap1\n      dup2\n      add\n      0x40\n      mstore\n      dup1\n      swap3\n      swap2\n      swap1\n      dup2\n      dup2\n      mstore\n      0x20\n      add\n      dup3\n      dup1\n      sload\n      tag_212\n      swap1\n      tag_72\n      jump\t// in\n    tag_212:\n      dup1\n      iszero\n      tag_213\n      jumpi\n      dup1\n      0x1f\n      lt\n      tag_214\n      jumpi\n      0x0100\n      dup1\n      dup4\n      sload\n      div\n      mul\n      dup4\n      mstore\n      swap2\n      0x20\n      add\n      swap2\n      jump(tag_213)\n    tag_214:\n      dup3\n      add\n      swap2\n      swap1\n      0x00\n      mstore\n      keccak256(0x00, 0x20)\n      swap1\n    tag_215:\n      dup2\n      sload\n      dup2\n      mstore\n      swap1\n      0x01\n      add\n      swap1\n      0x20\n      add\n      dup1\n      dup4\n      gt\n      tag_215\n      jumpi\n      dup3\n      swap1\n      sub\n      0x1f\n      and\n      dup3\n      add\n      swap2\n    tag_213:\n      pop\n      pop\n      pop\n      pop\n      pop\n      dup2\n      mstore\n      pop\n      pop\n        /* \"src/contracts/Project.sol\":4859:4865  result */\n      dup3\n        /* \"src/contracts/Project.sol\":4866:4867  i */\n      dup3\n        /* \"src/contracts/Project.sol\":4859:4868  result[i] */\n      dup2\n      mload\n      dup2\n      lt\n      tag_216\n      jumpi\n      tag_217\n      tag_115\n      jump\t// in\n    tag_217:\n    tag_216:\n      0x20\n      mul\n      0x20\n      add\n      add\n        /* \"src/contracts/Project.sol\":4859:4882  result[i] = projects[i] */\n      dup2\n      swap1\n      mstore\n      pop\n        /* \"src/contracts/Project.sol\":4571:4897  if (... */\n    tag_177:\n        /* \"src/contracts/Project.sol\":4552:4555  i++ */\n      dup1\n      dup1\n      tag_218\n      swap1\n      tag_161\n      jump\t// in\n    tag_218:\n      swap2\n      pop\n      pop\n        /* \"src/contracts/Project.sol\":4511:4907  for (uint256 i = 0; i < projects.length; i++) {... */\n      jump(tag_163)\n    tag_164:\n      pop\n        /* \"src/contracts/Project.sol\":4923:4929  result */\n      dup1\n        /* \"src/contracts/Project.sol\":4916:4929  return result */\n      swap2\n      pop\n      pop\n        /* \"src/contracts/Project.sol\":4312:4936  function getProjectsByStatus(... */\n      swap3\n      swap2\n      pop\n      pop\n      jump\t// out\n        /* \"src/contracts/Project.sol\":5216:5313  function getAllProjects() public view returns (Project[] memory) {... */\n    tag_34:\n        /* \"src/contracts/Project.sol\":5263:5279  Project[] memory */\n      0x60\n        /* \"src/contracts/Project.sol\":5298:5306  projects */\n      0x02\n        /* \"src/contracts/Project.sol\":5291:5306  return projects */\n      dup1\n      sload\n      dup1\n      0x20\n      mul\n      0x20\n      add\n      mload(0x40)\n      swap1\n      dup2\n      add\n      0x40\n      mstore\n      dup1\n      swap3\n      swap2\n      swap1\n      dup2\n      dup2\n      mstore\n      0x20\n      add\n      0x00\n      swap1\n    tag_220:\n      dup3\n      dup3\n      lt\n      iszero\n      tag_221\n      jumpi\n      dup4\n      dup3\n      swap1\n      0x00\n      mstore\n      keccak256(0x00, 0x20)\n      swap1\n      0x0a\n      mul\n      add\n      mload(0x40)\n      dup1\n      0x0140\n      add\n      0x40\n      mstore\n      swap1\n      dup2\n      0x00\n      dup3\n      add\n      sload\n      dup2\n      mstore\n      0x20\n      add\n      0x01\n      dup3\n      add\n      dup1\n      sload\n      tag_223\n      swap1\n      tag_72\n      jump\t// in\n    tag_223:\n      dup1\n      0x1f\n      add\n      0x20\n      dup1\n      swap2\n      div\n      mul\n      0x20\n      add\n      mload(0x40)\n      swap1\n      dup2\n      add\n      0x40\n      mstore\n      dup1\n      swap3\n      swap2\n      swap1\n      dup2\n      dup2\n      mstore\n      0x20\n      add\n      dup3\n      dup1\n      sload\n      tag_224\n      swap1\n      tag_72\n      jump\t// in\n    tag_224:\n      dup1\n      iszero\n      tag_225\n      jumpi\n      dup1\n      0x1f\n      lt\n      tag_226\n      jumpi\n      0x0100\n      dup1\n      dup4\n      sload\n      div\n      mul\n      dup4\n      mstore\n      swap2\n      0x20\n      add\n      swap2\n      jump(tag_225)\n    tag_226:\n      dup3\n      add\n      swap2\n      swap1\n      0x00\n      mstore\n      keccak256(0x00, 0x20)\n      swap1\n    tag_227:\n      dup2\n      sload\n      dup2\n      mstore\n      swap1\n      0x01\n      add\n      swap1\n      0x20\n      add\n      dup1\n      dup4\n      gt\n      tag_227\n      jumpi\n      dup3\n      swap1\n      sub\n      0x1f\n      and\n      dup3\n      add\n      swap2\n    tag_225:\n      pop\n      pop\n      pop\n      pop\n      pop\n      dup2\n      mstore\n      0x20\n      add\n      0x02\n      dup3\n      add\n      dup1\n      sload\n      tag_228\n      swap1\n      tag_72\n      jump\t// in\n    tag_228:\n      dup1\n      0x1f\n      add\n      0x20\n      dup1\n      swap2\n      div\n      mul\n      0x20\n      add\n      mload(0x40)\n      swap1\n      dup2\n      add\n      0x40\n      mstore\n      dup1\n      swap3\n      swap2\n      swap1\n      dup2\n      dup2\n      mstore\n      0x20\n      add\n      dup3\n      dup1\n      sload\n      tag_229\n      swap1\n      tag_72\n      jump\t// in\n    tag_229:\n      dup1\n      iszero\n      tag_230\n      jumpi\n      dup1\n      0x1f\n      lt\n      tag_231\n      jumpi\n      0x0100\n      dup1\n      dup4\n      sload\n      div\n      mul\n      dup4\n      mstore\n      swap2\n      0x20\n      add\n      swap2\n      jump(tag_230)\n    tag_231:\n      dup3\n      add\n      swap2\n      swap1\n      0x00\n      mstore\n      keccak256(0x00, 0x20)\n      swap1\n    tag_232:\n      dup2\n      sload\n      dup2\n      mstore\n      swap1\n      0x01\n      add\n      swap1\n      0x20\n      add\n      dup1\n      dup4\n      gt\n      tag_232\n      jumpi\n      dup3\n      swap1\n      sub\n      0x1f\n      and\n      dup3\n      add\n      swap2\n    tag_230:\n      pop\n      pop\n      pop\n      pop\n      pop\n      dup2\n      mstore\n      0x20\n      add\n      0x03\n      dup3\n      add\n      dup1\n      sload\n      tag_233\n      swap1\n      tag_72\n      jump\t// in\n    tag_233:\n      dup1\n      0x1f\n      add\n      0x20\n      dup1\n      swap2\n      div\n      mul\n      0x20\n      add\n      mload(0x40)\n      swap1\n      dup2\n      add\n      0x40\n      mstore\n      dup1\n      swap3\n      swap2\n      swap1\n      dup2\n      dup2\n      mstore\n      0x20\n      add\n      dup3\n      dup1\n      sload\n      tag_234\n      swap1\n      tag_72\n      jump\t// in\n    tag_234:\n      dup1\n      iszero\n      tag_235\n      jumpi\n      dup1\n      0x1f\n      lt\n      tag_236\n      jumpi\n      0x0100\n      dup1\n      dup4\n      sload\n      div\n      mul\n      dup4\n      mstore\n      swap2\n      0x20\n      add\n      swap2\n      jump(tag_235)\n    tag_236:\n      dup3\n      add\n      swap2\n      swap1\n      0x00\n      mstore\n      keccak256(0x00, 0x20)\n      swap1\n    tag_237:\n      dup2\n      sload\n      dup2\n      mstore\n      swap1\n      0x01\n      add\n      swap1\n      0x20\n      add\n      dup1\n      dup4\n      gt\n      tag_237\n      jumpi\n      dup3\n      swap1\n      sub\n      0x1f\n      and\n      dup3\n      add\n      swap2\n    tag_235:\n      pop\n      pop\n      pop\n      pop\n      pop\n      dup2\n      mstore\n      0x20\n      add\n      0x04\n      dup3\n      add\n      sload\n      dup2\n      mstore\n      0x20\n      add\n      0x05\n      dup3\n      add\n      sload\n      dup2\n      mstore\n      0x20\n      add\n      0x06\n      dup3\n      add\n      dup1\n      sload\n      tag_238\n      swap1\n      tag_72\n      jump\t// in\n    tag_238:\n      dup1\n      0x1f\n      add\n      0x20\n      dup1\n      swap2\n      div\n      mul\n      0x20\n      add\n      mload(0x40)\n      swap1\n      dup2\n      add\n      0x40\n      mstore\n      dup1\n      swap3\n      swap2\n      swap1\n      dup2\n      dup2\n      mstore\n      0x20\n      add\n      dup3\n      dup1\n      sload\n      tag_239\n      swap1\n      tag_72\n      jump\t// in\n    tag_239:\n      dup1\n      iszero\n      tag_240\n      jumpi\n      dup1\n      0x1f\n      lt\n      tag_241\n      jumpi\n      0x0100\n      dup1\n      dup4\n      sload\n      div\n      mul\n      dup4\n      mstore\n      swap2\n      0x20\n      add\n      swap2\n      jump(tag_240)\n    tag_241:\n      dup3\n      add\n      swap2\n      swap1\n      0x00\n      mstore\n      keccak256(0x00, 0x20)\n      swap1\n    tag_242:\n      dup2\n      sload\n      dup2\n      mstore\n      swap1\n      0x01\n      add\n      swap1\n      0x20\n      add\n      dup1\n      dup4\n      gt\n      tag_242\n      jumpi\n      dup3\n      swap1\n      sub\n      0x1f\n      and\n      dup3\n      add\n      swap2\n    tag_240:\n      pop\n      pop\n      pop\n      pop\n      pop\n      dup2\n      mstore\n      0x20\n      add\n      0x07\n      dup3\n      add\n      dup1\n      sload\n      tag_243\n      swap1\n      tag_72\n      jump\t// in\n    tag_243:\n      dup1\n      0x1f\n      add\n      0x20\n      dup1\n      swap2\n      div\n      mul\n      0x20\n      add\n      mload(0x40)\n      swap1\n      dup2\n      add\n      0x40\n      mstore\n      dup1\n      swap3\n      swap2\n      swap1\n      dup2\n      dup2\n      mstore\n      0x20\n      add\n      dup3\n      dup1\n      sload\n      tag_244\n      swap1\n      tag_72\n      jump\t// in\n    tag_244:\n      dup1\n      iszero\n      tag_245\n      jumpi\n      dup1\n      0x1f\n      lt\n      tag_246\n      jumpi\n      0x0100\n      dup1\n      dup4\n      sload\n      div\n      mul\n      dup4\n      mstore\n      swap2\n      0x20\n      add\n      swap2\n      jump(tag_245)\n    tag_246:\n      dup3\n      add\n      swap2\n      swap1\n      0x00\n      mstore\n      keccak256(0x00, 0x20)\n      swap1\n    tag_247:\n      dup2\n      sload\n      dup2\n      mstore\n      swap1\n      0x01\n      add\n      swap1\n      0x20\n      add\n      dup1\n      dup4\n      gt\n      tag_247\n      jumpi\n      dup3\n      swap1\n      sub\n      0x1f\n      and\n      dup3\n      add\n      swap2\n    tag_245:\n      pop\n      pop\n      pop\n      pop\n      pop\n      dup2\n      mstore\n      0x20\n      add\n      0x08\n      dup3\n      add\n      dup1\n      sload\n      tag_248\n      swap1\n      tag_72\n      jump\t// in\n    tag_248:\n      dup1\n      0x1f\n      add\n      0x20\n      dup1\n      swap2\n      div\n      mul\n      0x20\n      add\n      mload(0x40)\n      swap1\n      dup2\n      add\n      0x40\n      mstore\n      dup1\n      swap3\n      swap2\n      swap1\n      dup2\n      dup2\n      mstore\n      0x20\n      add\n      dup3\n      dup1\n      sload\n      tag_249\n      swap1\n      tag_72\n      jump\t// in\n    tag_249:\n      dup1\n      iszero\n      tag_250\n      jumpi\n      dup1\n      0x1f\n      lt\n      tag_251\n      jumpi\n      0x0100\n      dup1\n      dup4\n      sload\n      div\n      mul\n      dup4\n      mstore\n      swap2\n      0x20\n      add\n      swap2\n      jump(tag_250)\n    tag_251:\n      dup3\n      add\n      swap2\n      swap1\n      0x00\n      mstore\n      keccak256(0x00, 0x20)\n      swap1\n    tag_252:\n      dup2\n      sload\n      dup2\n      mstore\n      swap1\n      0x01\n      add\n      swap1\n      0x20\n      add\n      dup1\n      dup4\n      gt\n      tag_252\n      jumpi\n      dup3\n      swap1\n      sub\n      0x1f\n      and\n      dup3\n      add\n      swap2\n    tag_250:\n      pop\n      pop\n      pop\n      pop\n      pop\n      dup2\n      mstore\n      0x20\n      add\n      0x09\n      dup3\n      add\n      dup1\n      sload\n      tag_253\n      swap1\n      tag_72\n      jump\t// in\n    tag_253:\n      dup1\n      0x1f\n      add\n      0x20\n      dup1\n      swap2\n      div\n      mul\n      0x20\n      add\n      mload(0x40)\n      swap1\n      dup2\n      add\n      0x40\n      mstore\n      dup1\n      swap3\n      swap2\n      swap1\n      dup2\n      dup2\n      mstore\n      0x20\n      add\n      dup3\n      dup1\n      sload\n      tag_254\n      swap1\n      tag_72\n      jump\t// in\n    tag_254:\n      dup1\n      iszero\n      tag_255\n      jumpi\n      dup1\n      0x1f\n      lt\n      tag_256\n      jumpi\n      0x0100\n      dup1\n      dup4\n      sload\n      div\n      mul\n      dup4\n      mstore\n      swap2\n      0x20\n      add\n      swap2\n      jump(tag_255)\n    tag_256:\n      dup3\n      add\n      swap2\n      swap1\n      0x00\n      mstore\n      keccak256(0x00, 0x20)\n      swap1\n    tag_257:\n      dup2\n      sload\n      dup2\n      mstore\n      swap1\n      0x01\n      add\n      swap1\n      0x20\n      add\n      dup1\n      dup4\n      gt\n      tag_257\n      jumpi\n      dup3\n      swap1\n      sub\n      0x1f\n      and\n      dup3\n      add\n      swap2\n    tag_255:\n      pop\n      pop\n      pop\n      pop\n      pop\n      dup2\n      mstore\n      pop\n      pop\n      dup2\n      mstore\n      0x20\n      add\n      swap1\n      0x01\n      add\n      swap1\n      jump(tag_220)\n    tag_221:\n      pop\n      pop\n      pop\n      pop\n      swap1\n      pop\n        /* \"src/contracts/Project.sol\":5216:5313  function getAllProjects() public view returns (Project[] memory) {... */\n      swap1\n      jump\t// out\n        /* \"src/contracts/Project.sol\":2632:3050  function getProjectInfoByCompany(string memory companyName) public view returns (... */\n    tag_38:\n        /* \"src/contracts/Project.sol\":2722:2744  Project memory project */\n      tag_258\n      tag_259\n      jump\t// in\n    tag_258:\n        /* \"src/contracts/Project.sol\":2766:2775  uint256 i */\n      0x00\n        /* \"src/contracts/Project.sol\":2761:2984  for (uint256 i = 0; i < projects.length; i++) {... */\n    tag_261:\n        /* \"src/contracts/Project.sol\":2785:2793  projects */\n      0x02\n        /* \"src/contracts/Project.sol\":2785:2800  projects.length */\n      dup1\n      sload\n      swap1\n      pop\n        /* \"src/contracts/Project.sol\":2781:2782  i */\n      dup2\n        /* \"src/contracts/Project.sol\":2781:2800  i < projects.length */\n      lt\n        /* \"src/contracts/Project.sol\":2761:2984  for (uint256 i = 0; i < projects.length; i++) {... */\n      iszero\n      tag_262\n      jumpi\n        /* \"src/contracts/Project.sol\":2908:2919  companyName */\n      dup3\n        /* \"src/contracts/Project.sol\":2891:2920  abi.encodePacked(companyName) */\n      add(0x20, mload(0x40))\n      tag_264\n      swap2\n      swap1\n      tag_112\n      jump\t// in\n    tag_264:\n      mload(0x40)\n      0x20\n      dup2\n      dup4\n      sub\n      sub\n      dup2\n      mstore\n      swap1\n      0x40\n      mstore\n        /* \"src/contracts/Project.sol\":2881:2921  keccak256(abi.encodePacked(companyName)) */\n      dup1\n      mload\n      swap1\n      0x20\n      add\n      keccak256\n        /* \"src/contracts/Project.sol\":2852:2860  projects */\n      0x02\n        /* \"src/contracts/Project.sol\":2861:2862  i */\n      dup3\n        /* \"src/contracts/Project.sol\":2852:2863  projects[i] */\n      dup2\n      sload\n      dup2\n      lt\n      tag_265\n      jumpi\n      tag_266\n      tag_115\n      jump\t// in\n    tag_266:\n    tag_265:\n      swap1\n      0x00\n      mstore\n      keccak256(0x00, 0x20)\n      swap1\n      0x0a\n      mul\n      add\n        /* \"src/contracts/Project.sol\":2852:2875  projects[i].companyInfo */\n      0x03\n      add\n        /* \"src/contracts/Project.sol\":2835:2876  abi.encodePacked(projects[i].companyInfo) */\n      add(0x20, mload(0x40))\n      tag_268\n      swap2\n      swap1\n      tag_118\n      jump\t// in\n    tag_268:\n      mload(0x40)\n      0x20\n      dup2\n      dup4\n      sub\n      sub\n      dup2\n      mstore\n      swap1\n      0x40\n      mstore\n        /* \"src/contracts/Project.sol\":2825:2877  keccak256(abi.encodePacked(projects[i].companyInfo)) */\n      dup1\n      mload\n      swap1\n      0x20\n      add\n      keccak256\n        /* \"src/contracts/Project.sol\":2825:2921  keccak256(abi.encodePacked(projects[i].companyInfo)) == keccak256(abi.encodePacked(companyName)) */\n      sub\n        /* \"src/contracts/Project.sol\":2821:2974  if (keccak256(abi.encodePacked(projects[i].companyInfo)) == keccak256(abi.encodePacked(companyName))) {... */\n      tag_269\n      jumpi\n        /* \"src/contracts/Project.sol\":2948:2956  projects */\n      0x02\n        /* \"src/contracts/Project.sol\":2957:2958  i */\n      dup2\n        /* \"src/contracts/Project.sol\":2948:2959  projects[i] */\n      dup2\n      sload\n      dup2\n      lt\n      tag_270\n      jumpi\n      tag_271\n      tag_115\n      jump\t// in\n    tag_271:\n    tag_270:\n      swap1\n      0x00\n      mstore\n      keccak256(0x00, 0x20)\n      swap1\n      0x0a\n      mul\n      add\n        /* \"src/contracts/Project.sol\":2941:2959  return projects[i] */\n      mload(0x40)\n      dup1\n      0x0140\n      add\n      0x40\n      mstore\n      swap1\n      dup2\n      0x00\n      dup3\n      add\n      sload\n      dup2\n      mstore\n      0x20\n      add\n      0x01\n      dup3\n      add\n      dup1\n      sload\n      tag_273\n      swap1\n      tag_72\n      jump\t// in\n    tag_273:\n      dup1\n      0x1f\n      add\n      0x20\n      dup1\n      swap2\n      div\n      mul\n      0x20\n      add\n      mload(0x40)\n      swap1\n      dup2\n      add\n      0x40\n      mstore\n      dup1\n      swap3\n      swap2\n      swap1\n      dup2\n      dup2\n      mstore\n      0x20\n      add\n      dup3\n      dup1\n      sload\n      tag_274\n      swap1\n      tag_72\n      jump\t// in\n    tag_274:\n      dup1\n      iszero\n      tag_275\n      jumpi\n      dup1\n      0x1f\n      lt\n      tag_276\n      jumpi\n      0x0100\n      dup1\n      dup4\n      sload\n      div\n      mul\n      dup4\n      mstore\n      swap2\n      0x20\n      add\n      swap2\n      jump(tag_275)\n    tag_276:\n      dup3\n      add\n      swap2\n      swap1\n      0x00\n      mstore\n      keccak256(0x00, 0x20)\n      swap1\n    tag_277:\n      dup2\n      sload\n      dup2\n      mstore\n      swap1\n      0x01\n      add\n      swap1\n      0x20\n      add\n      dup1\n      dup4\n      gt\n      tag_277\n      jumpi\n      dup3\n      swap1\n      sub\n      0x1f\n      and\n      dup3\n      add\n      swap2\n    tag_275:\n      pop\n      pop\n      pop\n      pop\n      pop\n      dup2\n      mstore\n      0x20\n      add\n      0x02\n      dup3\n      add\n      dup1\n      sload\n      tag_278\n      swap1\n      tag_72\n      jump\t// in\n    tag_278:\n      dup1\n      0x1f\n      add\n      0x20\n      dup1\n      swap2\n      div\n      mul\n      0x20\n      add\n      mload(0x40)\n      swap1\n      dup2\n      add\n      0x40\n      mstore\n      dup1\n      swap3\n      swap2\n      swap1\n      dup2\n      dup2\n      mstore\n      0x20\n      add\n      dup3\n      dup1\n      sload\n      tag_279\n      swap1\n      tag_72\n      jump\t// in\n    tag_279:\n      dup1\n      iszero\n      tag_280\n      jumpi\n      dup1\n      0x1f\n      lt\n      tag_281\n      jumpi\n      0x0100\n      dup1\n      dup4\n      sload\n      div\n      mul\n      dup4\n      mstore\n      swap2\n      0x20\n      add\n      swap2\n      jump(tag_280)\n    tag_281:\n      dup3\n      add\n      swap2\n      swap1\n      0x00\n      mstore\n      keccak256(0x00, 0x20)\n      swap1\n    tag_282:\n      dup2\n      sload\n      dup2\n      mstore\n      swap1\n      0x01\n      add\n      swap1\n      0x20\n      add\n      dup1\n      dup4\n      gt\n      tag_282\n      jumpi\n      dup3\n      swap1\n      sub\n      0x1f\n      and\n      dup3\n      add\n      swap2\n    tag_280:\n      pop\n      pop\n      pop\n      pop\n      pop\n      dup2\n      mstore\n      0x20\n      add\n      0x03\n      dup3\n      add\n      dup1\n      sload\n      tag_283\n      swap1\n      tag_72\n      jump\t// in\n    tag_283:\n      dup1\n      0x1f\n      add\n      0x20\n      dup1\n      swap2\n      div\n      mul\n      0x20\n      add\n      mload(0x40)\n      swap1\n      dup2\n      add\n      0x40\n      mstore\n      dup1\n      swap3\n      swap2\n      swap1\n      dup2\n      dup2\n      mstore\n      0x20\n      add\n      dup3\n      dup1\n      sload\n      tag_284\n      swap1\n      tag_72\n      jump\t// in\n    tag_284:\n      dup1\n      iszero\n      tag_285\n      jumpi\n      dup1\n      0x1f\n      lt\n      tag_286\n      jumpi\n      0x0100\n      dup1\n      dup4\n      sload\n      div\n      mul\n      dup4\n      mstore\n      swap2\n      0x20\n      add\n      swap2\n      jump(tag_285)\n    tag_286:\n      dup3\n      add\n      swap2\n      swap1\n      0x00\n      mstore\n      keccak256(0x00, 0x20)\n      swap1\n    tag_287:\n      dup2\n      sload\n      dup2\n      mstore\n      swap1\n      0x01\n      add\n      swap1\n      0x20\n      add\n      dup1\n      dup4\n      gt\n      tag_287\n      jumpi\n      dup3\n      swap1\n      sub\n      0x1f\n      and\n      dup3\n      add\n      swap2\n    tag_285:\n      pop\n      pop\n      pop\n      pop\n      pop\n      dup2\n      mstore\n      0x20\n      add\n      0x04\n      dup3\n      add\n      sload\n      dup2\n      mstore\n      0x20\n      add\n      0x05\n      dup3\n      add\n      sload\n      dup2\n      mstore\n      0x20\n      add\n      0x06\n      dup3\n      add\n      dup1\n      sload\n      tag_288\n      swap1\n      tag_72\n      jump\t// in\n    tag_288:\n      dup1\n      0x1f\n      add\n      0x20\n      dup1\n      swap2\n      div\n      mul\n      0x20\n      add\n      mload(0x40)\n      swap1\n      dup2\n      add\n      0x40\n      mstore\n      dup1\n      swap3\n      swap2\n      swap1\n      dup2\n      dup2\n      mstore\n      0x20\n      add\n      dup3\n      dup1\n      sload\n      tag_289\n      swap1\n      tag_72\n      jump\t// in\n    tag_289:\n      dup1\n      iszero\n      tag_290\n      jumpi\n      dup1\n      0x1f\n      lt\n      tag_291\n      jumpi\n      0x0100\n      dup1\n      dup4\n      sload\n      div\n      mul\n      dup4\n      mstore\n      swap2\n      0x20\n      add\n      swap2\n      jump(tag_290)\n    tag_291:\n      dup3\n      add\n      swap2\n      swap1\n      0x00\n      mstore\n      keccak256(0x00, 0x20)\n      swap1\n    tag_292:\n      dup2\n      sload\n      dup2\n      mstore\n      swap1\n      0x01\n      add\n      swap1\n      0x20\n      add\n      dup1\n      dup4\n      gt\n      tag_292\n      jumpi\n      dup3\n      swap1\n      sub\n      0x1f\n      and\n      dup3\n      add\n      swap2\n    tag_290:\n      pop\n      pop\n      pop\n      pop\n      pop\n      dup2\n      mstore\n      0x20\n      add\n      0x07\n      dup3\n      add\n      dup1\n      sload\n      tag_293\n      swap1\n      tag_72\n      jump\t// in\n    tag_293:\n      dup1\n      0x1f\n      add\n      0x20\n      dup1\n      swap2\n      div\n      mul\n      0x20\n      add\n      mload(0x40)\n      swap1\n      dup2\n      add\n      0x40\n      mstore\n      dup1\n      swap3\n      swap2\n      swap1\n      dup2\n      dup2\n      mstore\n      0x20\n      add\n      dup3\n      dup1\n      sload\n      tag_294\n      swap1\n      tag_72\n      jump\t// in\n    tag_294:\n      dup1\n      iszero\n      tag_295\n      jumpi\n      dup1\n      0x1f\n      lt\n      tag_296\n      jumpi\n      0x0100\n      dup1\n      dup4\n      sload\n      div\n      mul\n      dup4\n      mstore\n      swap2\n      0x20\n      add\n      swap2\n      jump(tag_295)\n    tag_296:\n      dup3\n      add\n      swap2\n      swap1\n      0x00\n      mstore\n      keccak256(0x00, 0x20)\n      swap1\n    tag_297:\n      dup2\n      sload\n      dup2\n      mstore\n      swap1\n      0x01\n      add\n      swap1\n      0x20\n      add\n      dup1\n      dup4\n      gt\n      tag_297\n      jumpi\n      dup3\n      swap1\n      sub\n      0x1f\n      and\n      dup3\n      add\n      swap2\n    tag_295:\n      pop\n      pop\n      pop\n      pop\n      pop\n      dup2\n      mstore\n      0x20\n      add\n      0x08\n      dup3\n      add\n      dup1\n      sload\n      tag_298\n      swap1\n      tag_72\n      jump\t// in\n    tag_298:\n      dup1\n      0x1f\n      add\n      0x20\n      dup1\n      swap2\n      div\n      mul\n      0x20\n      add\n      mload(0x40)\n      swap1\n      dup2\n      add\n      0x40\n      mstore\n      dup1\n      swap3\n      swap2\n      swap1\n      dup2\n      dup2\n      mstore\n      0x20\n      add\n      dup3\n      dup1\n      sload\n      tag_299\n      swap1\n      tag_72\n      jump\t// in\n    tag_299:\n      dup1\n      iszero\n      tag_300\n      jumpi\n      dup1\n      0x1f\n      lt\n      tag_301\n      jumpi\n      0x0100\n      dup1\n      dup4\n      sload\n      div\n      mul\n      dup4\n      mstore\n      swap2\n      0x20\n      add\n      swap2\n      jump(tag_300)\n    tag_301:\n      dup3\n      add\n      swap2\n      swap1\n      0x00\n      mstore\n      keccak256(0x00, 0x20)\n      swap1\n    tag_302:\n      dup2\n      sload\n      dup2\n      mstore\n      swap1\n      0x01\n      add\n      swap1\n      0x20\n      add\n      dup1\n      dup4\n      gt\n      tag_302\n      jumpi\n      dup3\n      swap1\n      sub\n      0x1f\n      and\n      dup3\n      add\n      swap2\n    tag_300:\n      pop\n      pop\n      pop\n      pop\n      pop\n      dup2\n      mstore\n      0x20\n      add\n      0x09\n      dup3\n      add\n      dup1\n      sload\n      tag_303\n      swap1\n      tag_72\n      jump\t// in\n    tag_303:\n      dup1\n      0x1f\n      add\n      0x20\n      dup1\n      swap2\n      div\n      mul\n      0x20\n      add\n      mload(0x40)\n      swap1\n      dup2\n      add\n      0x40\n      mstore\n      dup1\n      swap3\n      swap2\n      swap1\n      dup2\n      dup2\n      mstore\n      0x20\n      add\n      dup3\n      dup1\n      sload\n      tag_304\n      swap1\n      tag_72\n      jump\t// in\n    tag_304:\n      dup1\n      iszero\n      tag_305\n      jumpi\n      dup1\n      0x1f\n      lt\n      tag_306\n      jumpi\n      0x0100\n      dup1\n      dup4\n      sload\n      div\n      mul\n      dup4\n      mstore\n      swap2\n      0x20\n      add\n      swap2\n      jump(tag_305)\n    tag_306:\n      dup3\n      add\n      swap2\n      swap1\n      0x00\n      mstore\n      keccak256(0x00, 0x20)\n      swap1\n    tag_307:\n      dup2\n      sload\n      dup2\n      mstore\n      swap1\n      0x01\n      add\n      swap1\n      0x20\n      add\n      dup1\n      dup4\n      gt\n      tag_307\n      jumpi\n      dup3\n      swap1\n      sub\n      0x1f\n      and\n      dup3\n      add\n      swap2\n    tag_305:\n      pop\n      pop\n      pop\n      pop\n      pop\n      dup2\n      mstore\n      pop\n      pop\n      swap2\n      pop\n      pop\n      jump(tag_260)\n        /* \"src/contracts/Project.sol\":2821:2974  if (keccak256(abi.encodePacked(projects[i].companyInfo)) == keccak256(abi.encodePacked(companyName))) {... */\n    tag_269:\n        /* \"src/contracts/Project.sol\":2802:2805  i++ */\n      dup1\n      dup1\n      tag_308\n      swap1\n      tag_161\n      jump\t// in\n    tag_308:\n      swap2\n      pop\n      pop\n        /* \"src/contracts/Project.sol\":2761:2984  for (uint256 i = 0; i < projects.length; i++) {... */\n      jump(tag_261)\n    tag_262:\n      pop\n        /* \"src/contracts/Project.sol\":2994:3043  revert(\"Project not found for the given company\") */\n      mload(0x40)\n      0x08c379a000000000000000000000000000000000000000000000000000000000\n      dup2\n      mstore\n      0x04\n      add\n      tag_309\n      swap1\n      tag_310\n      jump\t// in\n    tag_309:\n      mload(0x40)\n      dup1\n      swap2\n      sub\n      swap1\n      revert\n        /* \"src/contracts/Project.sol\":2632:3050  function getProjectInfoByCompany(string memory companyName) public view returns (... */\n    tag_260:\n      swap2\n      swap1\n      pop\n      jump\t// out\n        /* \"src/contracts/Project.sol\":4942:5210  function updateCarbonCredits(uint256 projectId, uint256 newCreditsIssued) public {... */\n    tag_44:\n        /* \"src/contracts/Project.sol\":5053:5061  projects */\n      0x02\n        /* \"src/contracts/Project.sol\":5053:5068  projects.length */\n      dup1\n      sload\n      swap1\n      pop\n        /* \"src/contracts/Project.sol\":5041:5050  projectId */\n      dup3\n        /* \"src/contracts/Project.sol\":5041:5068  projectId < projects.length */\n      lt\n        /* \"src/contracts/Project.sol\":5033:5098  require(projectId < projects.length, \"Project ID does not exist\") */\n      tag_312\n      jumpi\n      mload(0x40)\n      0x08c379a000000000000000000000000000000000000000000000000000000000\n      dup2\n      mstore\n      0x04\n      add\n      tag_313\n      swap1\n      tag_314\n      jump\t// in\n    tag_313:\n      mload(0x40)\n      dup1\n      swap2\n      sub\n      swap1\n      revert\n    tag_312:\n        /* \"src/contracts/Project.sol\":5108:5131  Project storage project */\n      0x00\n        /* \"src/contracts/Project.sol\":5134:5142  projects */\n      0x02\n        /* \"src/contracts/Project.sol\":5143:5152  projectId */\n      dup4\n        /* \"src/contracts/Project.sol\":5134:5153  projects[projectId] */\n      dup2\n      sload\n      dup2\n      lt\n      tag_315\n      jumpi\n      tag_316\n      tag_115\n      jump\t// in\n    tag_316:\n    tag_315:\n      swap1\n      0x00\n      mstore\n      keccak256(0x00, 0x20)\n      swap1\n      0x0a\n      mul\n      add\n        /* \"src/contracts/Project.sol\":5108:5153  Project storage project = projects[projectId] */\n      swap1\n      pop\n        /* \"src/contracts/Project.sol\":5187:5203  newCreditsIssued */\n      dup2\n        /* \"src/contracts/Project.sol\":5163:5170  project */\n      dup2\n        /* \"src/contracts/Project.sol\":5163:5184  project.creditsIssued */\n      0x05\n      add\n        /* \"src/contracts/Project.sol\":5163:5203  project.creditsIssued = newCreditsIssued */\n      dup2\n      swap1\n      sstore\n      pop\n        /* \"src/contracts/Project.sol\":5023:5210  {... */\n      pop\n        /* \"src/contracts/Project.sol\":4942:5210  function updateCarbonCredits(uint256 projectId, uint256 newCreditsIssued) public {... */\n      pop\n      pop\n      jump\t// out\n        /* \"src/contracts/Project.sol\":756:2371  function createProject(... */\n    tag_48:\n        /* \"src/contracts/Project.sol\":1167:1168  0 */\n      0x00\n        /* \"src/contracts/Project.sol\":1144:1156  _companyInfo */\n      dup8\n        /* \"src/contracts/Project.sol\":1138:1164  bytes(_companyInfo).length */\n      mload\n        /* \"src/contracts/Project.sol\":1138:1168  bytes(_companyInfo).length > 0 */\n      gt\n        /* \"src/contracts/Project.sol\":1130:1204  require(bytes(_companyInfo).length > 0, \"Company information is required\") */\n      tag_319\n      jumpi\n      mload(0x40)\n      0x08c379a000000000000000000000000000000000000000000000000000000000\n      dup2\n      mstore\n      0x04\n      add\n      tag_320\n      swap1\n      tag_321\n      jump\t// in\n    tag_320:\n      mload(0x40)\n      dup1\n      swap2\n      sub\n      swap1\n      revert\n    tag_319:\n        /* \"src/contracts/Project.sol\":1252:1253  0 */\n      0x00\n        /* \"src/contracts/Project.sol\":1228:1241  _projectTitle */\n      dup7\n        /* \"src/contracts/Project.sol\":1222:1249  bytes(_projectTitle).length */\n      mload\n        /* \"src/contracts/Project.sol\":1222:1253  bytes(_projectTitle).length > 0 */\n      gt\n        /* \"src/contracts/Project.sol\":1214:1283  require(bytes(_projectTitle).length > 0, \"Project title is required\") */\n      tag_322\n      jumpi\n      mload(0x40)\n      0x08c379a000000000000000000000000000000000000000000000000000000000\n      dup2\n      mstore\n      0x04\n      add\n      tag_323\n      swap1\n      tag_324\n      jump\t// in\n    tag_323:\n      mload(0x40)\n      dup1\n      swap2\n      sub\n      swap1\n      revert\n    tag_322:\n        /* \"src/contracts/Project.sol\":1337:1338  0 */\n      0x00\n        /* \"src/contracts/Project.sol\":1307:1326  _projectDescription */\n      dup6\n        /* \"src/contracts/Project.sol\":1301:1334  bytes(_projectDescription).length */\n      mload\n        /* \"src/contracts/Project.sol\":1301:1338  bytes(_projectDescription).length > 0 */\n      gt\n        /* \"src/contracts/Project.sol\":1293:1374  require(bytes(_projectDescription).length > 0, \"Project description is required\") */\n      tag_325\n      jumpi\n      mload(0x40)\n      0x08c379a000000000000000000000000000000000000000000000000000000000\n      dup2\n      mstore\n      0x04\n      add\n      tag_326\n      swap1\n      tag_327\n      jump\t// in\n    tag_326:\n      mload(0x40)\n      dup1\n      swap2\n      sub\n      swap1\n      revert\n    tag_325:\n        /* \"src/contracts/Project.sol\":1411:1412  0 */\n      0x00\n        /* \"src/contracts/Project.sol\":1392:1408  _emissionsOffset */\n      dup5\n        /* \"src/contracts/Project.sol\":1392:1412  _emissionsOffset > 0 */\n      gt\n        /* \"src/contracts/Project.sol\":1384:1456  require(_emissionsOffset > 0, \"Emissions offset must be greater than 0\") */\n      tag_328\n      jumpi\n      mload(0x40)\n      0x08c379a000000000000000000000000000000000000000000000000000000000\n      dup2\n      mstore\n      0x04\n      add\n      tag_329\n      swap1\n      tag_330\n      jump\t// in\n    tag_329:\n      mload(0x40)\n      dup1\n      swap2\n      sub\n      swap1\n      revert\n    tag_328:\n        /* \"src/contracts/Project.sol\":1505:1506  0 */\n      0x00\n        /* \"src/contracts/Project.sol\":1480:1494  _financialInfo */\n      dup3\n        /* \"src/contracts/Project.sol\":1474:1502  bytes(_financialInfo).length */\n      mload\n        /* \"src/contracts/Project.sol\":1474:1506  bytes(_financialInfo).length > 0 */\n      gt\n        /* \"src/contracts/Project.sol\":1466:1544  require(bytes(_financialInfo).length > 0, \"Financial information is required\") */\n      tag_331\n      jumpi\n      mload(0x40)\n      0x08c379a000000000000000000000000000000000000000000000000000000000\n      dup2\n      mstore\n      0x04\n      add\n      tag_332\n      swap1\n      tag_333\n      jump\t// in\n    tag_332:\n      mload(0x40)\n      dup1\n      swap2\n      sub\n      swap1\n      revert\n    tag_331:\n        /* \"src/contracts/Project.sol\":1600:1601  0 */\n      0x00\n        /* \"src/contracts/Project.sol\":1568:1589  _projectDocumentation */\n      dup2\n        /* \"src/contracts/Project.sol\":1562:1597  bytes(_projectDocumentation).length */\n      mload\n        /* \"src/contracts/Project.sol\":1562:1601  bytes(_projectDocumentation).length > 0 */\n      gt\n        /* \"src/contracts/Project.sol\":1554:1631  require(bytes(_projectDocumentation).length > 0, \"Documentation is required\") */\n      tag_334\n      jumpi\n      mload(0x40)\n      0x08c379a000000000000000000000000000000000000000000000000000000000\n      dup2\n      mstore\n      0x04\n      add\n      tag_335\n      swap1\n      tag_336\n      jump\t// in\n    tag_335:\n      mload(0x40)\n      dup1\n      swap2\n      sub\n      swap1\n      revert\n    tag_334:\n        /* \"src/contracts/Project.sol\":1700:1717  uint256 projectId */\n      0x00\n        /* \"src/contracts/Project.sol\":1720:1728  projects */\n      0x02\n        /* \"src/contracts/Project.sol\":1720:1735  projects.length */\n      dup1\n      sload\n      swap1\n      pop\n        /* \"src/contracts/Project.sol\":1700:1735  uint256 projectId = projects.length */\n      swap1\n      pop\n        /* \"src/contracts/Project.sol\":1745:1770  Project memory newProject */\n      0x00\n        /* \"src/contracts/Project.sol\":1773:2328  Project({... */\n      mload(0x40)\n      dup1\n      0x0140\n      add\n      0x40\n      mstore\n      dup1\n        /* \"src/contracts/Project.sol\":1806:1815  projectId */\n      dup4\n        /* \"src/contracts/Project.sol\":1773:2328  Project({... */\n      dup2\n      mstore\n      0x20\n      add\n        /* \"src/contracts/Project.sol\":1882:1895  _projectTitle */\n      dup10\n        /* \"src/contracts/Project.sol\":1773:2328  Project({... */\n      dup2\n      mstore\n      0x20\n      add\n        /* \"src/contracts/Project.sol\":1929:1948  _projectDescription */\n      dup9\n        /* \"src/contracts/Project.sol\":1773:2328  Project({... */\n      dup2\n      mstore\n      0x20\n      add\n        /* \"src/contracts/Project.sol\":1842:1854  _companyInfo */\n      dup11\n        /* \"src/contracts/Project.sol\":1773:2328  Project({... */\n      dup2\n      mstore\n      0x20\n      add\n        /* \"src/contracts/Project.sol\":1979:1995  _emissionsOffset */\n      dup8\n        /* \"src/contracts/Project.sol\":1773:2328  Project({... */\n      dup2\n      mstore\n      0x20\n      add\n        /* \"src/contracts/Project.sol\":2024:2038  _creditsIssued */\n      dup7\n        /* \"src/contracts/Project.sol\":1773:2328  Project({... */\n      dup2\n      mstore\n      0x20\n      add\n        /* \"src/contracts/Project.sol\":2067:2081  _financialInfo */\n      dup6\n        /* \"src/contracts/Project.sol\":1773:2328  Project({... */\n      dup2\n      mstore\n      0x20\n      add\n        /* \"src/contracts/Project.sol\":2117:2138  _projectDocumentation */\n      dup5\n        /* \"src/contracts/Project.sol\":1773:2328  Project({... */\n      dup2\n      mstore\n      0x20\n      add\n      mload(0x40)\n      dup1\n      0x40\n      add\n      0x40\n      mstore\n      dup1\n      0x0c\n      dup2\n      mstore\n      0x20\n      add\n      0x556e646572205265766965770000000000000000000000000000000000000000\n      dup2\n      mstore\n      pop\n      dup2\n      mstore\n      0x20\n      add\n      mload(0x40)\n      dup1\n      0x40\n      add\n      0x40\n      mstore\n      dup1\n      0x0d\n      dup2\n      mstore\n      0x20\n      add\n      0x4e6f7420417661696c61626c6500000000000000000000000000000000000000\n      dup2\n      mstore\n      pop\n      dup2\n      mstore\n      pop\n        /* \"src/contracts/Project.sol\":1745:2328  Project memory newProject = Project({... */\n      swap1\n      pop\n        /* \"src/contracts/Project.sol\":2339:2347  projects */\n      0x02\n        /* \"src/contracts/Project.sol\":2353:2363  newProject */\n      dup2\n        /* \"src/contracts/Project.sol\":2339:2364  projects.push(newProject) */\n      swap1\n      dup1\n      0x01\n      dup2\n      sload\n      add\n      dup1\n      dup3\n      sstore\n      dup1\n      swap2\n      pop\n      pop\n      0x01\n      swap1\n      sub\n      swap1\n      0x00\n      mstore\n      keccak256(0x00, 0x20)\n      swap1\n      0x0a\n      mul\n      add\n      0x00\n      swap1\n      swap2\n      swap1\n      swap2\n      swap1\n      swap2\n      pop\n      0x00\n      dup3\n      add\n      mload\n      dup2\n      0x00\n      add\n      sstore\n      0x20\n      dup3\n      add\n      mload\n      dup2\n      0x01\n      add\n      swap1\n      dup2\n      tag_338\n      swap2\n      swap1\n      tag_339\n      jump\t// in\n    tag_338:\n      pop\n      0x40\n      dup3\n      add\n      mload\n      dup2\n      0x02\n      add\n      swap1\n      dup2\n      tag_340\n      swap2\n      swap1\n      tag_339\n      jump\t// in\n    tag_340:\n      pop\n      0x60\n      dup3\n      add\n      mload\n      dup2\n      0x03\n      add\n      swap1\n      dup2\n      tag_341\n      swap2\n      swap1\n      tag_339\n      jump\t// in\n    tag_341:\n      pop\n      0x80\n      dup3\n      add\n      mload\n      dup2\n      0x04\n      add\n      sstore\n      0xa0\n      dup3\n      add\n      mload\n      dup2\n      0x05\n      add\n      sstore\n      0xc0\n      dup3\n      add\n      mload\n      dup2\n      0x06\n      add\n      swap1\n      dup2\n      tag_342\n      swap2\n      swap1\n      tag_339\n      jump\t// in\n    tag_342:\n      pop\n      0xe0\n      dup3\n      add\n      mload\n      dup2\n      0x07\n      add\n      swap1\n      dup2\n      tag_343\n      swap2\n      swap1\n      tag_339\n      jump\t// in\n    tag_343:\n      pop\n      0x0100\n      dup3\n      add\n      mload\n      dup2\n      0x08\n      add\n      swap1\n      dup2\n      tag_344\n      swap2\n      swap1\n      tag_339\n      jump\t// in\n    tag_344:\n      pop\n      0x0120\n      dup3\n      add\n      mload\n      dup2\n      0x09\n      add\n      swap1\n      dup2\n      tag_345\n      swap2\n      swap1\n      tag_339\n      jump\t// in\n    tag_345:\n      pop\n      pop\n      pop\n        /* \"src/contracts/Project.sol\":1057:2371  {... */\n      pop\n      pop\n        /* \"src/contracts/Project.sol\":756:2371  function createProject(... */\n      pop\n      pop\n      pop\n      pop\n      pop\n      pop\n      pop\n      jump\t// out\n        /* \"src/contracts/Project.sol\":88:108  address public owner */\n    tag_50:\n      0x00\n      dup1\n      sload\n      swap1\n      0x0100\n      exp\n      swap1\n      div\n      0xffffffffffffffffffffffffffffffffffffffff\n      and\n      dup2\n      jump\t// out\n        /* \"src/contracts/Project.sol\":3496:3886  function updateVerificationStatus(uint256 _projectId, string memory _verificationStatus) public {... */\n    tag_56:\n        /* \"src/contracts/Project.sol\":3623:3631  projects */\n      0x02\n        /* \"src/contracts/Project.sol\":3623:3638  projects.length */\n      dup1\n      sload\n      swap1\n      pop\n        /* \"src/contracts/Project.sol\":3610:3620  _projectId */\n      dup3\n        /* \"src/contracts/Project.sol\":3610:3638  _projectId < projects.length */\n      lt\n        /* \"src/contracts/Project.sol\":3602:3665  require(_projectId < projects.length, \"Project does not exist\") */\n      tag_347\n      jumpi\n      mload(0x40)\n      0x08c379a000000000000000000000000000000000000000000000000000000000\n      dup2\n      mstore\n      0x04\n      add\n      tag_348\n      swap1\n      tag_349\n      jump\t// in\n    tag_348:\n      mload(0x40)\n      dup1\n      swap2\n      sub\n      swap1\n      revert\n    tag_347:\n        /* \"src/contracts/Project.sol\":3724:3747  Project storage project */\n      0x00\n        /* \"src/contracts/Project.sol\":3750:3758  projects */\n      0x02\n        /* \"src/contracts/Project.sol\":3759:3769  _projectId */\n      dup4\n        /* \"src/contracts/Project.sol\":3750:3770  projects[_projectId] */\n      dup2\n      sload\n      dup2\n      lt\n      tag_350\n      jumpi\n      tag_351\n      tag_115\n      jump\t// in\n    tag_351:\n    tag_350:\n      swap1\n      0x00\n      mstore\n      keccak256(0x00, 0x20)\n      swap1\n      0x0a\n      mul\n      add\n        /* \"src/contracts/Project.sol\":3724:3770  Project storage project = projects[_projectId] */\n      swap1\n      pop\n        /* \"src/contracts/Project.sol\":3860:3879  _verificationStatus */\n      dup2\n        /* \"src/contracts/Project.sol\":3831:3838  project */\n      dup2\n        /* \"src/contracts/Project.sol\":3831:3857  project.verificationStatus */\n      0x08\n      add\n        /* \"src/contracts/Project.sol\":3831:3879  project.verificationStatus = _verificationStatus */\n      swap1\n      dup2\n      tag_353\n      swap2\n      swap1\n      tag_339\n      jump\t// in\n    tag_353:\n      pop\n        /* \"src/contracts/Project.sol\":3592:3886  {... */\n      pop\n        /* \"src/contracts/Project.sol\":3496:3886  function updateVerificationStatus(uint256 _projectId, string memory _verificationStatus) public {... */\n      pop\n      pop\n      jump\t// out\n        /* \"src/contracts/Project.sol\":2420:2626  function getProjectById(uint256 projectId) public view returns (Project memory project) {... */\n    tag_59:\n        /* \"src/contracts/Project.sol\":2484:2506  Project memory project */\n      tag_354\n      tag_259\n      jump\t// in\n    tag_354:\n        /* \"src/contracts/Project.sol\":2538:2546  projects */\n      0x02\n        /* \"src/contracts/Project.sol\":2538:2553  projects.length */\n      dup1\n      sload\n      swap1\n      pop\n        /* \"src/contracts/Project.sol\":2526:2535  projectId */\n      dup3\n        /* \"src/contracts/Project.sol\":2526:2553  projectId < projects.length */\n      lt\n        /* \"src/contracts/Project.sol\":2518:2583  require(projectId < projects.length, \"Project ID does not exist\") */\n      tag_356\n      jumpi\n      mload(0x40)\n      0x08c379a000000000000000000000000000000000000000000000000000000000\n      dup2\n      mstore\n      0x04\n      add\n      tag_357\n      swap1\n      tag_314\n      jump\t// in\n    tag_357:\n      mload(0x40)\n      dup1\n      swap2\n      sub\n      swap1\n      revert\n    tag_356:\n        /* \"src/contracts/Project.sol\":2600:2608  projects */\n      0x02\n        /* \"src/contracts/Project.sol\":2609:2618  projectId */\n      dup3\n        /* \"src/contracts/Project.sol\":2600:2619  projects[projectId] */\n      dup2\n      sload\n      dup2\n      lt\n      tag_358\n      jumpi\n      tag_359\n      tag_115\n      jump\t// in\n    tag_359:\n    tag_358:\n      swap1\n      0x00\n      mstore\n      keccak256(0x00, 0x20)\n      swap1\n      0x0a\n      mul\n      add\n        /* \"src/contracts/Project.sol\":2593:2619  return projects[projectId] */\n      mload(0x40)\n      dup1\n      0x0140\n      add\n      0x40\n      mstore\n      swap1\n      dup2\n      0x00\n      dup3\n      add\n      sload\n      dup2\n      mstore\n      0x20\n      add\n      0x01\n      dup3\n      add\n      dup1\n      sload\n      tag_361\n      swap1\n      tag_72\n      jump\t// in\n    tag_361:\n      dup1\n      0x1f\n      add\n      0x20\n      dup1\n      swap2\n      div\n      mul\n      0x20\n      add\n      mload(0x40)\n      swap1\n      dup2\n      add\n      0x40\n      mstore\n      dup1\n      swap3\n      swap2\n      swap1\n      dup2\n      dup2\n      mstore\n      0x20\n      add\n      dup3\n      dup1\n      sload\n      tag_362\n      swap1\n      tag_72\n      jump\t// in\n    tag_362:\n      dup1\n      iszero\n      tag_363\n      jumpi\n      dup1\n      0x1f\n      lt\n      tag_364\n      jumpi\n      0x0100\n      dup1\n      dup4\n      sload\n      div\n      mul\n      dup4\n      mstore\n      swap2\n      0x20\n      add\n      swap2\n      jump(tag_363)\n    tag_364:\n      dup3\n      add\n      swap2\n      swap1\n      0x00\n      mstore\n      keccak256(0x00, 0x20)\n      swap1\n    tag_365:\n      dup2\n      sload\n      dup2\n      mstore\n      swap1\n      0x01\n      add\n      swap1\n      0x20\n      add\n      dup1\n      dup4\n      gt\n      tag_365\n      jumpi\n      dup3\n      swap1\n      sub\n      0x1f\n      and\n      dup3\n      add\n      swap2\n    tag_363:\n      pop\n      pop\n      pop\n      pop\n      pop\n      dup2\n      mstore\n      0x20\n      add\n      0x02\n      dup3\n      add\n      dup1\n      sload\n      tag_366\n      swap1\n      tag_72\n      jump\t// in\n    tag_366:\n      dup1\n      0x1f\n      add\n      0x20\n      dup1\n      swap2\n      div\n      mul\n      0x20\n      add\n      mload(0x40)\n      swap1\n      dup2\n      add\n      0x40\n      mstore\n      dup1\n      swap3\n      swap2\n      swap1\n      dup2\n      dup2\n      mstore\n      0x20\n      add\n      dup3\n      dup1\n      sload\n      tag_367\n      swap1\n      tag_72\n      jump\t// in\n    tag_367:\n      dup1\n      iszero\n      tag_368\n      jumpi\n      dup1\n      0x1f\n      lt\n      tag_369\n      jumpi\n      0x0100\n      dup1\n      dup4\n      sload\n      div\n      mul\n      dup4\n      mstore\n      swap2\n      0x20\n      add\n      swap2\n      jump(tag_368)\n    tag_369:\n      dup3\n      add\n      swap2\n      swap1\n      0x00\n      mstore\n      keccak256(0x00, 0x20)\n      swap1\n    tag_370:\n      dup2\n      sload\n      dup2\n      mstore\n      swap1\n      0x01\n      add\n      swap1\n      0x20\n      add\n      dup1\n      dup4\n      gt\n      tag_370\n      jumpi\n      dup3\n      swap1\n      sub\n      0x1f\n      and\n      dup3\n      add\n      swap2\n    tag_368:\n      pop\n      pop\n      pop\n      pop\n      pop\n      dup2\n      mstore\n      0x20\n      add\n      0x03\n      dup3\n      add\n      dup1\n      sload\n      tag_371\n      swap1\n      tag_72\n      jump\t// in\n    tag_371:\n      dup1\n      0x1f\n      add\n      0x20\n      dup1\n      swap2\n      div\n      mul\n      0x20\n      add\n      mload(0x40)\n      swap1\n      dup2\n      add\n      0x40\n      mstore\n      dup1\n      swap3\n      swap2\n      swap1\n      dup2\n      dup2\n      mstore\n      0x20\n      add\n      dup3\n      dup1\n      sload\n      tag_372\n      swap1\n      tag_72\n      jump\t// in\n    tag_372:\n      dup1\n      iszero\n      tag_373\n      jumpi\n      dup1\n      0x1f\n      lt\n      tag_374\n      jumpi\n      0x0100\n      dup1\n      dup4\n      sload\n      div\n      mul\n      dup4\n      mstore\n      swap2\n      0x20\n      add\n      swap2\n      jump(tag_373)\n    tag_374:\n      dup3\n      add\n      swap2\n      swap1\n      0x00\n      mstore\n      keccak256(0x00, 0x20)\n      swap1\n    tag_375:\n      dup2\n      sload\n      dup2\n      mstore\n      swap1\n      0x01\n      add\n      swap1\n      0x20\n      add\n      dup1\n      dup4\n      gt\n      tag_375\n      jumpi\n      dup3\n      swap1\n      sub\n      0x1f\n      and\n      dup3\n      add\n      swap2\n    tag_373:\n      pop\n      pop\n      pop\n      pop\n      pop\n      dup2\n      mstore\n      0x20\n      add\n      0x04\n      dup3\n      add\n      sload\n      dup2\n      mstore\n      0x20\n      add\n      0x05\n      dup3\n      add\n      sload\n      dup2\n      mstore\n      0x20\n      add\n      0x06\n      dup3\n      add\n      dup1\n      sload\n      tag_376\n      swap1\n      tag_72\n      jump\t// in\n    tag_376:\n      dup1\n      0x1f\n      add\n      0x20\n      dup1\n      swap2\n      div\n      mul\n      0x20\n      add\n      mload(0x40)\n      swap1\n      dup2\n      add\n      0x40\n      mstore\n      dup1\n      swap3\n      swap2\n      swap1\n      dup2\n      dup2\n      mstore\n      0x20\n      add\n      dup3\n      dup1\n      sload\n      tag_377\n      swap1\n      tag_72\n      jump\t// in\n    tag_377:\n      dup1\n      iszero\n      tag_378\n      jumpi\n      dup1\n      0x1f\n      lt\n      tag_379\n      jumpi\n      0x0100\n      dup1\n      dup4\n      sload\n      div\n      mul\n      dup4\n      mstore\n      swap2\n      0x20\n      add\n      swap2\n      jump(tag_378)\n    tag_379:\n      dup3\n      add\n      swap2\n      swap1\n      0x00\n      mstore\n      keccak256(0x00, 0x20)\n      swap1\n    tag_380:\n      dup2\n      sload\n      dup2\n      mstore\n      swap1\n      0x01\n      add\n      swap1\n      0x20\n      add\n      dup1\n      dup4\n      gt\n      tag_380\n      jumpi\n      dup3\n      swap1\n      sub\n      0x1f\n      and\n      dup3\n      add\n      swap2\n    tag_378:\n      pop\n      pop\n      pop\n      pop\n      pop\n      dup2\n      mstore\n      0x20\n      add\n      0x07\n      dup3\n      add\n      dup1\n      sload\n      tag_381\n      swap1\n      tag_72\n      jump\t// in\n    tag_381:\n      dup1\n      0x1f\n      add\n      0x20\n      dup1\n      swap2\n      div\n      mul\n      0x20\n      add\n      mload(0x40)\n      swap1\n      dup2\n      add\n      0x40\n      mstore\n      dup1\n      swap3\n      swap2\n      swap1\n      dup2\n      dup2\n      mstore\n      0x20\n      add\n      dup3\n      dup1\n      sload\n      tag_382\n      swap1\n      tag_72\n      jump\t// in\n    tag_382:\n      dup1\n      iszero\n      tag_383\n      jumpi\n      dup1\n      0x1f\n      lt\n      tag_384\n      jumpi\n      0x0100\n      dup1\n      dup4\n      sload\n      div\n      mul\n      dup4\n      mstore\n      swap2\n      0x20\n      add\n      swap2\n      jump(tag_383)\n    tag_384:\n      dup3\n      add\n      swap2\n      swap1\n      0x00\n      mstore\n      keccak256(0x00, 0x20)\n      swap1\n    tag_385:\n      dup2\n      sload\n      dup2\n      mstore\n      swap1\n      0x01\n      add\n      swap1\n      0x20\n      add\n      dup1\n      dup4\n      gt\n      tag_385\n      jumpi\n      dup3\n      swap1\n      sub\n      0x1f\n      and\n      dup3\n      add\n      swap2\n    tag_383:\n      pop\n      pop\n      pop\n      pop\n      pop\n      dup2\n      mstore\n      0x20\n      add\n      0x08\n      dup3\n      add\n      dup1\n      sload\n      tag_386\n      swap1\n      tag_72\n      jump\t// in\n    tag_386:\n      dup1\n      0x1f\n      add\n      0x20\n      dup1\n      swap2\n      div\n      mul\n      0x20\n      add\n      mload(0x40)\n      swap1\n      dup2\n      add\n      0x40\n      mstore\n      dup1\n      swap3\n      swap2\n      swap1\n      dup2\n      dup2\n      mstore\n      0x20\n      add\n      dup3\n      dup1\n      sload\n      tag_387\n      swap1\n      tag_72\n      jump\t// in\n    tag_387:\n      dup1\n      iszero\n      tag_388\n      jumpi\n      dup1\n      0x1f\n      lt\n      tag_389\n      jumpi\n      0x0100\n      dup1\n      dup4\n      sload\n      div\n      mul\n      dup4\n      mstore\n      swap2\n      0x20\n      add\n      swap2\n      jump(tag_388)\n    tag_389:\n      dup3\n      add\n      swap2\n      swap1\n      0x00\n      mstore\n      keccak256(0x00, 0x20)\n      swap1\n    tag_390:\n      dup2\n      sload\n      dup2\n      mstore\n      swap1\n      0x01\n      add\n      swap1\n      0x20\n      add\n      dup1\n      dup4\n      gt\n      tag_390\n      jumpi\n      dup3\n      swap1\n      sub\n      0x1f\n      and\n      dup3\n      add\n      swap2\n    tag_388:\n      pop\n      pop\n      pop\n      pop\n      pop\n      dup2\n      mstore\n      0x20\n      add\n      0x09\n      dup3\n      add\n      dup1\n      sload\n      tag_391\n      swap1\n      tag_72\n      jump\t// in\n    tag_391:\n      dup1\n      0x1f\n      add\n      0x20\n      dup1\n      swap2\n      div\n      mul\n      0x20\n      add\n      mload(0x40)\n      swap1\n      dup2\n      add\n      0x40\n      mstore\n      dup1\n      swap3\n      swap2\n      swap1\n      dup2\n      dup2\n      mstore\n      0x20\n      add\n      dup3\n      dup1\n      sload\n      tag_392\n      swap1\n      tag_72\n      jump\t// in\n    tag_392:\n      dup1\n      iszero\n      tag_393\n      jumpi\n      dup1\n      0x1f\n      lt\n      tag_394\n      jumpi\n      0x0100\n      dup1\n      dup4\n      sload\n      div\n      mul\n      dup4\n      mstore\n      swap2\n      0x20\n      add\n      swap2\n      jump(tag_393)\n    tag_394:\n      dup3\n      add\n      swap2\n      swap1\n      0x00\n      mstore\n      keccak256(0x00, 0x20)\n      swap1\n    tag_395:\n      dup2\n      sload\n      dup2\n      mstore\n      swap1\n      0x01\n      add\n      swap1\n      0x20\n      add\n      dup1\n      dup4\n      gt\n      tag_395\n      jumpi\n      dup3\n      swap1\n      sub\n      0x1f\n      and\n      dup3\n      add\n      swap2\n    tag_393:\n      pop\n      pop\n      pop\n      pop\n      pop\n      dup2\n      mstore\n      pop\n      pop\n      swap1\n      pop\n        /* \"src/contracts/Project.sol\":2420:2626  function getProjectById(uint256 projectId) public view returns (Project memory project) {... */\n      swap2\n      swap1\n      pop\n      jump\t// out\n        /* \"src/contracts/Project.sol\":3892:4306  function getProjectsByPurchaseStatus(string memory _purchaseStatus) public view returns (Project[] memory) {... */\n    tag_63:\n        /* \"src/contracts/Project.sol\":3981:3997  Project[] memory */\n      0x60\n        /* \"src/contracts/Project.sol\":4009:4032  Project[] memory result */\n      dup1\n        /* \"src/contracts/Project.sol\":4047:4056  uint256 i */\n      0x00\n        /* \"src/contracts/Project.sol\":4042:4277  for (uint256 i = 0; i < projects.length; i++) {... */\n    tag_397:\n        /* \"src/contracts/Project.sol\":4066:4074  projects */\n      0x02\n        /* \"src/contracts/Project.sol\":4066:4081  projects.length */\n      dup1\n      sload\n      swap1\n      pop\n        /* \"src/contracts/Project.sol\":4062:4063  i */\n      dup2\n        /* \"src/contracts/Project.sol\":4062:4081  i < projects.length */\n      lt\n        /* \"src/contracts/Project.sol\":4042:4277  for (uint256 i = 0; i < projects.length; i++) {... */\n      iszero\n      tag_398\n      jumpi\n        /* \"src/contracts/Project.sol\":4192:4207  _purchaseStatus */\n      dup4\n        /* \"src/contracts/Project.sol\":4175:4208  abi.encodePacked(_purchaseStatus) */\n      add(0x20, mload(0x40))\n      tag_400\n      swap2\n      swap1\n      tag_112\n      jump\t// in\n    tag_400:\n      mload(0x40)\n      0x20\n      dup2\n      dup4\n      sub\n      sub\n      dup2\n      mstore\n      swap1\n      0x40\n      mstore\n        /* \"src/contracts/Project.sol\":4165:4209  keccak256(abi.encodePacked(_purchaseStatus)) */\n      dup1\n      mload\n      swap1\n      0x20\n      add\n      keccak256\n        /* \"src/contracts/Project.sol\":4133:4141  projects */\n      0x02\n        /* \"src/contracts/Project.sol\":4142:4143  i */\n      dup3\n        /* \"src/contracts/Project.sol\":4133:4144  projects[i] */\n      dup2\n      sload\n      dup2\n      lt\n      tag_401\n      jumpi\n      tag_402\n      tag_115\n      jump\t// in\n    tag_402:\n    tag_401:\n      swap1\n      0x00\n      mstore\n      keccak256(0x00, 0x20)\n      swap1\n      0x0a\n      mul\n      add\n        /* \"src/contracts/Project.sol\":4133:4159  projects[i].purchaseStatus */\n      0x09\n      add\n        /* \"src/contracts/Project.sol\":4116:4160  abi.encodePacked(projects[i].purchaseStatus) */\n      add(0x20, mload(0x40))\n      tag_404\n      swap2\n      swap1\n      tag_118\n      jump\t// in\n    tag_404:\n      mload(0x40)\n      0x20\n      dup2\n      dup4\n      sub\n      sub\n      dup2\n      mstore\n      swap1\n      0x40\n      mstore\n        /* \"src/contracts/Project.sol\":4106:4161  keccak256(abi.encodePacked(projects[i].purchaseStatus)) */\n      dup1\n      mload\n      swap1\n      0x20\n      add\n      keccak256\n        /* \"src/contracts/Project.sol\":4106:4209  keccak256(abi.encodePacked(projects[i].purchaseStatus)) == keccak256(abi.encodePacked(_purchaseStatus)) */\n      sub\n        /* \"src/contracts/Project.sol\":4102:4267  if (keccak256(abi.encodePacked(projects[i].purchaseStatus)) == keccak256(abi.encodePacked(_purchaseStatus))) {... */\n      tag_405\n      jumpi\n        /* \"src/contracts/Project.sol\":4241:4249  projects */\n      0x02\n        /* \"src/contracts/Project.sol\":4250:4251  i */\n      dup2\n        /* \"src/contracts/Project.sol\":4241:4252  projects[i] */\n      dup2\n      sload\n      dup2\n      lt\n      tag_406\n      jumpi\n      tag_407\n      tag_115\n      jump\t// in\n    tag_407:\n    tag_406:\n      swap1\n      0x00\n      mstore\n      keccak256(0x00, 0x20)\n      swap1\n      0x0a\n      mul\n      add\n        /* \"src/contracts/Project.sol\":4229:4252  result[i] = projects[i] */\n      mload(0x40)\n      dup1\n      0x0140\n      add\n      0x40\n      mstore\n      swap1\n      dup2\n      0x00\n      dup3\n      add\n      sload\n      dup2\n      mstore\n      0x20\n      add\n      0x01\n      dup3\n      add\n      dup1\n      sload\n      tag_409\n      swap1\n      tag_72\n      jump\t// in\n    tag_409:\n      dup1\n      0x1f\n      add\n      0x20\n      dup1\n      swap2\n      div\n      mul\n      0x20\n      add\n      mload(0x40)\n      swap1\n      dup2\n      add\n      0x40\n      mstore\n      dup1\n      swap3\n      swap2\n      swap1\n      dup2\n      dup2\n      mstore\n      0x20\n      add\n      dup3\n      dup1\n      sload\n      tag_410\n      swap1\n      tag_72\n      jump\t// in\n    tag_410:\n      dup1\n      iszero\n      tag_411\n      jumpi\n      dup1\n      0x1f\n      lt\n      tag_412\n      jumpi\n      0x0100\n      dup1\n      dup4\n      sload\n      div\n      mul\n      dup4\n      mstore\n      swap2\n      0x20\n      add\n      swap2\n      jump(tag_411)\n    tag_412:\n      dup3\n      add\n      swap2\n      swap1\n      0x00\n      mstore\n      keccak256(0x00, 0x20)\n      swap1\n    tag_413:\n      dup2\n      sload\n      dup2\n      mstore\n      swap1\n      0x01\n      add\n      swap1\n      0x20\n      add\n      dup1\n      dup4\n      gt\n      tag_413\n      jumpi\n      dup3\n      swap1\n      sub\n      0x1f\n      and\n      dup3\n      add\n      swap2\n    tag_411:\n      pop\n      pop\n      pop\n      pop\n      pop\n      dup2\n      mstore\n      0x20\n      add\n      0x02\n      dup3\n      add\n      dup1\n      sload\n      tag_414\n      swap1\n      tag_72\n      jump\t// in\n    tag_414:\n      dup1\n      0x1f\n      add\n      0x20\n      dup1\n      swap2\n      div\n      mul\n      0x20\n      add\n      mload(0x40)\n      swap1\n      dup2\n      add\n      0x40\n      mstore\n      dup1\n      swap3\n      swap2\n      swap1\n      dup2\n      dup2\n      mstore\n      0x20\n      add\n      dup3\n      dup1\n      sload\n      tag_415\n      swap1\n      tag_72\n      jump\t// in\n    tag_415:\n      dup1\n      iszero\n      tag_416\n      jumpi\n      dup1\n      0x1f\n      lt\n      tag_417\n      jumpi\n      0x0100\n      dup1\n      dup4\n      sload\n      div\n      mul\n      dup4\n      mstore\n      swap2\n      0x20\n      add\n      swap2\n      jump(tag_416)\n    tag_417:\n      dup3\n      add\n      swap2\n      swap1\n      0x00\n      mstore\n      keccak256(0x00, 0x20)\n      swap1\n    tag_418:\n      dup2\n      sload\n      dup2\n      mstore\n      swap1\n      0x01\n      add\n      swap1\n      0x20\n      add\n      dup1\n      dup4\n      gt\n      tag_418\n      jumpi\n      dup3\n      swap1\n      sub\n      0x1f\n      and\n      dup3\n      add\n      swap2\n    tag_416:\n      pop\n      pop\n      pop\n      pop\n      pop\n      dup2\n      mstore\n      0x20\n      add\n      0x03\n      dup3\n      add\n      dup1\n      sload\n      tag_419\n      swap1\n      tag_72\n      jump\t// in\n    tag_419:\n      dup1\n      0x1f\n      add\n      0x20\n      dup1\n      swap2\n      div\n      mul\n      0x20\n      add\n      mload(0x40)\n      swap1\n      dup2\n      add\n      0x40\n      mstore\n      dup1\n      swap3\n      swap2\n      swap1\n      dup2\n      dup2\n      mstore\n      0x20\n      add\n      dup3\n      dup1\n      sload\n      tag_420\n      swap1\n      tag_72\n      jump\t// in\n    tag_420:\n      dup1\n      iszero\n      tag_421\n      jumpi\n      dup1\n      0x1f\n      lt\n      tag_422\n      jumpi\n      0x0100\n      dup1\n      dup4\n      sload\n      div\n      mul\n      dup4\n      mstore\n      swap2\n      0x20\n      add\n      swap2\n      jump(tag_421)\n    tag_422:\n      dup3\n      add\n      swap2\n      swap1\n      0x00\n      mstore\n      keccak256(0x00, 0x20)\n      swap1\n    tag_423:\n      dup2\n      sload\n      dup2\n      mstore\n      swap1\n      0x01\n      add\n      swap1\n      0x20\n      add\n      dup1\n      dup4\n      gt\n      tag_423\n      jumpi\n      dup3\n      swap1\n      sub\n      0x1f\n      and\n      dup3\n      add\n      swap2\n    tag_421:\n      pop\n      pop\n      pop\n      pop\n      pop\n      dup2\n      mstore\n      0x20\n      add\n      0x04\n      dup3\n      add\n      sload\n      dup2\n      mstore\n      0x20\n      add\n      0x05\n      dup3\n      add\n      sload\n      dup2\n      mstore\n      0x20\n      add\n      0x06\n      dup3\n      add\n      dup1\n      sload\n      tag_424\n      swap1\n      tag_72\n      jump\t// in\n    tag_424:\n      dup1\n      0x1f\n      add\n      0x20\n      dup1\n      swap2\n      div\n      mul\n      0x20\n      add\n      mload(0x40)\n      swap1\n      dup2\n      add\n      0x40\n      mstore\n      dup1\n      swap3\n      swap2\n      swap1\n      dup2\n      dup2\n      mstore\n      0x20\n      add\n      dup3\n      dup1\n      sload\n      tag_425\n      swap1\n      tag_72\n      jump\t// in\n    tag_425:\n      dup1\n      iszero\n      tag_426\n      jumpi\n      dup1\n      0x1f\n      lt\n      tag_427\n      jumpi\n      0x0100\n      dup1\n      dup4\n      sload\n      div\n      mul\n      dup4\n      mstore\n      swap2\n      0x20\n      add\n      swap2\n      jump(tag_426)\n    tag_427:\n      dup3\n      add\n      swap2\n      swap1\n      0x00\n      mstore\n      keccak256(0x00, 0x20)\n      swap1\n    tag_428:\n      dup2\n      sload\n      dup2\n      mstore\n      swap1\n      0x01\n      add\n      swap1\n      0x20\n      add\n      dup1\n      dup4\n      gt\n      tag_428\n      jumpi\n      dup3\n      swap1\n      sub\n      0x1f\n      and\n      dup3\n      add\n      swap2\n    tag_426:\n      pop\n      pop\n      pop\n      pop\n      pop\n      dup2\n      mstore\n      0x20\n      add\n      0x07\n      dup3\n      add\n      dup1\n      sload\n      tag_429\n      swap1\n      tag_72\n      jump\t// in\n    tag_429:\n      dup1\n      0x1f\n      add\n      0x20\n      dup1\n      swap2\n      div\n      mul\n      0x20\n      add\n      mload(0x40)\n      swap1\n      dup2\n      add\n      0x40\n      mstore\n      dup1\n      swap3\n      swap2\n      swap1\n      dup2\n      dup2\n      mstore\n      0x20\n      add\n      dup3\n      dup1\n      sload\n      tag_430\n      swap1\n      tag_72\n      jump\t// in\n    tag_430:\n      dup1\n      iszero\n      tag_431\n      jumpi\n      dup1\n      0x1f\n      lt\n      tag_432\n      jumpi\n      0x0100\n      dup1\n      dup4\n      sload\n      div\n      mul\n      dup4\n      mstore\n      swap2\n      0x20\n      add\n      swap2\n      jump(tag_431)\n    tag_432:\n      dup3\n      add\n      swap2\n      swap1\n      0x00\n      mstore\n      keccak256(0x00, 0x20)\n      swap1\n    tag_433:\n      dup2\n      sload\n      dup2\n      mstore\n      swap1\n      0x01\n      add\n      swap1\n      0x20\n      add\n      dup1\n      dup4\n      gt\n      tag_433\n      jumpi\n      dup3\n      swap1\n      sub\n      0x1f\n      and\n      dup3\n      add\n      swap2\n    tag_431:\n      pop\n      pop\n      pop\n      pop\n      pop\n      dup2\n      mstore\n      0x20\n      add\n      0x08\n      dup3\n      add\n      dup1\n      sload\n      tag_434\n      swap1\n      tag_72\n      jump\t// in\n    tag_434:\n      dup1\n      0x1f\n      add\n      0x20\n      dup1\n      swap2\n      div\n      mul\n      0x20\n      add\n      mload(0x40)\n      swap1\n      dup2\n      add\n      0x40\n      mstore\n      dup1\n      swap3\n      swap2\n      swap1\n      dup2\n      dup2\n      mstore\n      0x20\n      add\n      dup3\n      dup1\n      sload\n      tag_435\n      swap1\n      tag_72\n      jump\t// in\n    tag_435:\n      dup1\n      iszero\n      tag_436\n      jumpi\n      dup1\n      0x1f\n      lt\n      tag_437\n      jumpi\n      0x0100\n      dup1\n      dup4\n      sload\n      div\n      mul\n      dup4\n      mstore\n      swap2\n      0x20\n      add\n      swap2\n      jump(tag_436)\n    tag_437:\n      dup3\n      add\n      swap2\n      swap1\n      0x00\n      mstore\n      keccak256(0x00, 0x20)\n      swap1\n    tag_438:\n      dup2\n      sload\n      dup2\n      mstore\n      swap1\n      0x01\n      add\n      swap1\n      0x20\n      add\n      dup1\n      dup4\n      gt\n      tag_438\n      jumpi\n      dup3\n      swap1\n      sub\n      0x1f\n      and\n      dup3\n      add\n      swap2\n    tag_436:\n      pop\n      pop\n      pop\n      pop\n      pop\n      dup2\n      mstore\n      0x20\n      add\n      0x09\n      dup3\n      add\n      dup1\n      sload\n      tag_439\n      swap1\n      tag_72\n      jump\t// in\n    tag_439:\n      dup1\n      0x1f\n      add\n      0x20\n      dup1\n      swap2\n      div\n      mul\n      0x20\n      add\n      mload(0x40)\n      swap1\n      dup2\n      add\n      0x40\n      mstore\n      dup1\n      swap3\n      swap2\n      swap1\n      dup2\n      dup2\n      mstore\n      0x20\n      add\n      dup3\n      dup1\n      sload\n      tag_440\n      swap1\n      tag_72\n      jump\t// in\n    tag_440:\n      dup1\n      iszero\n      tag_441\n      jumpi\n      dup1\n      0x1f\n      lt\n      tag_442\n      jumpi\n      0x0100\n      dup1\n      dup4\n      sload\n      div\n      mul\n      dup4\n      mstore\n      swap2\n      0x20\n      add\n      swap2\n      jump(tag_441)\n    tag_442:\n      dup3\n      add\n      swap2\n      swap1\n      0x00\n      mstore\n      keccak256(0x00, 0x20)\n      swap1\n    tag_443:\n      dup2\n      sload\n      dup2\n      mstore\n      swap1\n      0x01\n      add\n      swap1\n      0x20\n      add\n      dup1\n      dup4\n      gt\n      tag_443\n      jumpi\n      dup3\n      swap1\n      sub\n      0x1f\n      and\n      dup3\n      add\n      swap2\n    tag_441:\n      pop\n      pop\n      pop\n      pop\n      pop\n      dup2\n      mstore\n      pop\n      pop\n        /* \"src/contracts/Project.sol\":4229:4235  result */\n      dup3\n        /* \"src/contracts/Project.sol\":4236:4237  i */\n      dup3\n        /* \"src/contracts/Project.sol\":4229:4238  result[i] */\n      dup2\n      mload\n      dup2\n      lt\n      tag_444\n      jumpi\n      tag_445\n      tag_115\n      jump\t// in\n    tag_445:\n    tag_444:\n      0x20\n      mul\n      0x20\n      add\n      add\n        /* \"src/contracts/Project.sol\":4229:4252  result[i] = projects[i] */\n      dup2\n      swap1\n      mstore\n      pop\n        /* \"src/contracts/Project.sol\":4102:4267  if (keccak256(abi.encodePacked(projects[i].purchaseStatus)) == keccak256(abi.encodePacked(_purchaseStatus))) {... */\n    tag_405:\n        /* \"src/contracts/Project.sol\":4083:4086  i++ */\n      dup1\n      dup1\n      tag_446\n      swap1\n      tag_161\n      jump\t// in\n    tag_446:\n      swap2\n      pop\n      pop\n        /* \"src/contracts/Project.sol\":4042:4277  for (uint256 i = 0; i < projects.length; i++) {... */\n      jump(tag_397)\n    tag_398:\n      pop\n        /* \"src/contracts/Project.sol\":4293:4299  result */\n      dup1\n        /* \"src/contracts/Project.sol\":4286:4299  return result */\n      swap2\n      pop\n      pop\n        /* \"src/contracts/Project.sol\":3892:4306  function getProjectsByPurchaseStatus(string memory _purchaseStatus) public view returns (Project[] memory) {... */\n      swap2\n      swap1\n      pop\n      jump\t// out\n        /* \"src/contracts/Project.sol\":114:146  uint256 public nextProjectId = 0 */\n    tag_66:\n      sload(0x01)\n      dup2\n      jump\t// out\n    tag_259:\n      mload(0x40)\n      dup1\n      0x0140\n      add\n      0x40\n      mstore\n      dup1\n      0x00\n      dup2\n      mstore\n      0x20\n      add\n      0x60\n      dup2\n      mstore\n      0x20\n      add\n      0x60\n      dup2\n      mstore\n      0x20\n      add\n      0x60\n      dup2\n      mstore\n      0x20\n      add\n      0x00\n      dup2\n      mstore\n      0x20\n      add\n      0x00\n      dup2\n      mstore\n      0x20\n      add\n      0x60\n      dup2\n      mstore\n      0x20\n      add\n      0x60\n      dup2\n      mstore\n      0x20\n      add\n      0x60\n      dup2\n      mstore\n      0x20\n      add\n      0x60\n      dup2\n      mstore\n      pop\n      swap1\n      jump\t// out\n        /* \"#utility.yul\":7:82   */\n    tag_447:\n        /* \"#utility.yul\":40:46   */\n      0x00\n        /* \"#utility.yul\":73:75   */\n      0x40\n        /* \"#utility.yul\":67:76   */\n      mload\n        /* \"#utility.yul\":57:76   */\n      swap1\n      pop\n        /* \"#utility.yul\":7:82   */\n      swap1\n      jump\t// out\n        /* \"#utility.yul\":88:205   */\n    tag_448:\n        /* \"#utility.yul\":197:198   */\n      0x00\n        /* \"#utility.yul\":194:195   */\n      dup1\n        /* \"#utility.yul\":187:199   */\n      revert\n        /* \"#utility.yul\":211:328   */\n    tag_449:\n        /* \"#utility.yul\":320:321   */\n      0x00\n        /* \"#utility.yul\":317:318   */\n      dup1\n        /* \"#utility.yul\":310:322   */\n      revert\n        /* \"#utility.yul\":334:411   */\n    tag_450:\n        /* \"#utility.yul\":371:378   */\n      0x00\n        /* \"#utility.yul\":400:405   */\n      dup2\n        /* \"#utility.yul\":389:405   */\n      swap1\n      pop\n        /* \"#utility.yul\":334:411   */\n      swap2\n      swap1\n      pop\n      jump\t// out\n        /* \"#utility.yul\":417:539   */\n    tag_451:\n        /* \"#utility.yul\":490:514   */\n      tag_526\n        /* \"#utility.yul\":508:513   */\n      dup2\n        /* \"#utility.yul\":490:514   */\n      tag_450\n      jump\t// in\n    tag_526:\n        /* \"#utility.yul\":483:488   */\n      dup2\n        /* \"#utility.yul\":480:515   */\n      eq\n        /* \"#utility.yul\":470:533   */\n      tag_527\n      jumpi\n        /* \"#utility.yul\":529:530   */\n      0x00\n        /* \"#utility.yul\":526:527   */\n      dup1\n        /* \"#utility.yul\":519:531   */\n      revert\n        /* \"#utility.yul\":470:533   */\n    tag_527:\n        /* \"#utility.yul\":417:539   */\n      pop\n      jump\t// out\n        /* \"#utility.yul\":545:684   */\n    tag_452:\n        /* \"#utility.yul\":591:596   */\n      0x00\n        /* \"#utility.yul\":629:635   */\n      dup2\n        /* \"#utility.yul\":616:636   */\n      calldataload\n        /* \"#utility.yul\":607:636   */\n      swap1\n      pop\n        /* \"#utility.yul\":645:678   */\n      tag_529\n        /* \"#utility.yul\":672:677   */\n      dup2\n        /* \"#utility.yul\":645:678   */\n      tag_451\n      jump\t// in\n    tag_529:\n        /* \"#utility.yul\":545:684   */\n      swap3\n      swap2\n      pop\n      pop\n      jump\t// out\n        /* \"#utility.yul\":690:1019   */\n    tag_18:\n        /* \"#utility.yul\":749:755   */\n      0x00\n        /* \"#utility.yul\":798:800   */\n      0x20\n        /* \"#utility.yul\":786:795   */\n      dup3\n        /* \"#utility.yul\":777:784   */\n      dup5\n        /* \"#utility.yul\":773:796   */\n      sub\n        /* \"#utility.yul\":769:801   */\n      slt\n        /* \"#utility.yul\":766:885   */\n      iszero\n      tag_531\n      jumpi\n        /* \"#utility.yul\":804:883   */\n      tag_532\n      tag_448\n      jump\t// in\n    tag_532:\n        /* \"#utility.yul\":766:885   */\n    tag_531:\n        /* \"#utility.yul\":924:925   */\n      0x00\n        /* \"#utility.yul\":949:1002   */\n      tag_533\n        /* \"#utility.yul\":994:1001   */\n      dup5\n        /* \"#utility.yul\":985:991   */\n      dup3\n        /* \"#utility.yul\":974:983   */\n      dup6\n        /* \"#utility.yul\":970:992   */\n      add\n        /* \"#utility.yul\":949:1002   */\n      tag_452\n      jump\t// in\n    tag_533:\n        /* \"#utility.yul\":939:1002   */\n      swap2\n      pop\n        /* \"#utility.yul\":895:1012   */\n      pop\n        /* \"#utility.yul\":690:1019   */\n      swap3\n      swap2\n      pop\n      pop\n      jump\t// out\n        /* \"#utility.yul\":1025:1143   */\n    tag_453:\n        /* \"#utility.yul\":1112:1136   */\n      tag_535\n        /* \"#utility.yul\":1130:1135   */\n      dup2\n        /* \"#utility.yul\":1112:1136   */\n      tag_450\n      jump\t// in\n    tag_535:\n        /* \"#utility.yul\":1107:1110   */\n      dup3\n        /* \"#utility.yul\":1100:1137   */\n      mstore\n        /* \"#utility.yul\":1025:1143   */\n      pop\n      pop\n      jump\t// out\n        /* \"#utility.yul\":1149:1248   */\n    tag_454:\n        /* \"#utility.yul\":1201:1207   */\n      0x00\n        /* \"#utility.yul\":1235:1240   */\n      dup2\n        /* \"#utility.yul\":1229:1241   */\n      mload\n        /* \"#utility.yul\":1219:1241   */\n      swap1\n      pop\n        /* \"#utility.yul\":1149:1248   */\n      swap2\n      swap1\n      pop\n      jump\t// out\n        /* \"#utility.yul\":1254:1423   */\n    tag_455:\n        /* \"#utility.yul\":1338:1349   */\n      0x00\n        /* \"#utility.yul\":1372:1378   */\n      dup3\n        /* \"#utility.yul\":1367:1370   */\n      dup3\n        /* \"#utility.yul\":1360:1379   */\n      mstore\n        /* \"#utility.yul\":1412:1416   */\n      0x20\n        /* \"#utility.yul\":1407:1410   */\n      dup3\n        /* \"#utility.yul\":1403:1417   */\n      add\n        /* \"#utility.yul\":1388:1417   */\n      swap1\n      pop\n        /* \"#utility.yul\":1254:1423   */\n      swap3\n      swap2\n      pop\n      pop\n      jump\t// out\n        /* \"#utility.yul\":1429:1675   */\n    tag_456:\n        /* \"#utility.yul\":1510:1511   */\n      0x00\n        /* \"#utility.yul\":1520:1633   */\n    tag_539:\n        /* \"#utility.yul\":1534:1540   */\n      dup4\n        /* \"#utility.yul\":1531:1532   */\n      dup2\n        /* \"#utility.yul\":1528:1541   */\n      lt\n        /* \"#utility.yul\":1520:1633   */\n      iszero\n      tag_541\n      jumpi\n        /* \"#utility.yul\":1619:1620   */\n      dup1\n        /* \"#utility.yul\":1614:1617   */\n      dup3\n        /* \"#utility.yul\":1610:1621   */\n      add\n        /* \"#utility.yul\":1604:1622   */\n      mload\n        /* \"#utility.yul\":1600:1601   */\n      dup2\n        /* \"#utility.yul\":1595:1598   */\n      dup5\n        /* \"#utility.yul\":1591:1602   */\n      add\n        /* \"#utility.yul\":1584:1623   */\n      mstore\n        /* \"#utility.yul\":1556:1558   */\n      0x20\n        /* \"#utility.yul\":1553:1554   */\n      dup2\n        /* \"#utility.yul\":1549:1559   */\n      add\n        /* \"#utility.yul\":1544:1559   */\n      swap1\n      pop\n        /* \"#utility.yul\":1520:1633   */\n      jump(tag_539)\n    tag_541:\n        /* \"#utility.yul\":1667:1668   */\n      0x00\n        /* \"#utility.yul\":1658:1664   */\n      dup5\n        /* \"#utility.yul\":1653:1656   */\n      dup5\n        /* \"#utility.yul\":1649:1665   */\n      add\n        /* \"#utility.yul\":1642:1669   */\n      mstore\n        /* \"#utility.yul\":1491:1675   */\n      pop\n        /* \"#utility.yul\":1429:1675   */\n      pop\n      pop\n      pop\n      jump\t// out\n        /* \"#utility.yul\":1681:1783   */\n    tag_457:\n        /* \"#utility.yul\":1722:1728   */\n      0x00\n        /* \"#utility.yul\":1773:1775   */\n      0x1f\n        /* \"#utility.yul\":1769:1776   */\n      not\n        /* \"#utility.yul\":1764:1766   */\n      0x1f\n        /* \"#utility.yul\":1757:1762   */\n      dup4\n        /* \"#utility.yul\":1753:1767   */\n      add\n        /* \"#utility.yul\":1749:1777   */\n      and\n        /* \"#utility.yul\":1739:1777   */\n      swap1\n      pop\n        /* \"#utility.yul\":1681:1783   */\n      swap2\n      swap1\n      pop\n      jump\t// out\n        /* \"#utility.yul\":1789:2166   */\n    tag_458:\n        /* \"#utility.yul\":1877:1880   */\n      0x00\n        /* \"#utility.yul\":1905:1944   */\n      tag_544\n        /* \"#utility.yul\":1938:1943   */\n      dup3\n        /* \"#utility.yul\":1905:1944   */\n      tag_454\n      jump\t// in\n    tag_544:\n        /* \"#utility.yul\":1960:2031   */\n      tag_545\n        /* \"#utility.yul\":2024:2030   */\n      dup2\n        /* \"#utility.yul\":2019:2022   */\n      dup6\n        /* \"#utility.yul\":1960:2031   */\n      tag_455\n      jump\t// in\n    tag_545:\n        /* \"#utility.yul\":1953:2031   */\n      swap4\n      pop\n        /* \"#utility.yul\":2040:2105   */\n      tag_546\n        /* \"#utility.yul\":2098:2104   */\n      dup2\n        /* \"#utility.yul\":2093:2096   */\n      dup6\n        /* \"#utility.yul\":2086:2090   */\n      0x20\n        /* \"#utility.yul\":2079:2084   */\n      dup7\n        /* \"#utility.yul\":2075:2091   */\n      add\n        /* \"#utility.yul\":2040:2105   */\n      tag_456\n      jump\t// in\n    tag_546:\n        /* \"#utility.yul\":2130:2159   */\n      tag_547\n        /* \"#utility.yul\":2152:2158   */\n      dup2\n        /* \"#utility.yul\":2130:2159   */\n      tag_457\n      jump\t// in\n    tag_547:\n        /* \"#utility.yul\":2125:2128   */\n      dup5\n        /* \"#utility.yul\":2121:2160   */\n      add\n        /* \"#utility.yul\":2114:2160   */\n      swap2\n      pop\n        /* \"#utility.yul\":1881:2166   */\n      pop\n        /* \"#utility.yul\":1789:2166   */\n      swap3\n      swap2\n      pop\n      pop\n      jump\t// out\n        /* \"#utility.yul\":2172:4028   */\n    tag_21:\n        /* \"#utility.yul\":2657:2661   */\n      0x00\n        /* \"#utility.yul\":2695:2698   */\n      0x0140\n        /* \"#utility.yul\":2684:2693   */\n      dup3\n        /* \"#utility.yul\":2680:2699   */\n      add\n        /* \"#utility.yul\":2672:2699   */\n      swap1\n      pop\n        /* \"#utility.yul\":2709:2780   */\n      tag_549\n        /* \"#utility.yul\":2777:2778   */\n      0x00\n        /* \"#utility.yul\":2766:2775   */\n      dup4\n        /* \"#utility.yul\":2762:2779   */\n      add\n        /* \"#utility.yul\":2753:2759   */\n      dup14\n        /* \"#utility.yul\":2709:2780   */\n      tag_453\n      jump\t// in\n    tag_549:\n        /* \"#utility.yul\":2827:2836   */\n      dup2\n        /* \"#utility.yul\":2821:2825   */\n      dup2\n        /* \"#utility.yul\":2817:2837   */\n      sub\n        /* \"#utility.yul\":2812:2814   */\n      0x20\n        /* \"#utility.yul\":2801:2810   */\n      dup4\n        /* \"#utility.yul\":2797:2815   */\n      add\n        /* \"#utility.yul\":2790:2838   */\n      mstore\n        /* \"#utility.yul\":2855:2933   */\n      tag_550\n        /* \"#utility.yul\":2928:2932   */\n      dup2\n        /* \"#utility.yul\":2919:2925   */\n      dup13\n        /* \"#utility.yul\":2855:2933   */\n      tag_458\n      jump\t// in\n    tag_550:\n        /* \"#utility.yul\":2847:2933   */\n      swap1\n      pop\n        /* \"#utility.yul\":2980:2989   */\n      dup2\n        /* \"#utility.yul\":2974:2978   */\n      dup2\n        /* \"#utility.yul\":2970:2990   */\n      sub\n        /* \"#utility.yul\":2965:2967   */\n      0x40\n        /* \"#utility.yul\":2954:2963   */\n      dup4\n        /* \"#utility.yul\":2950:2968   */\n      add\n        /* \"#utility.yul\":2943:2991   */\n      mstore\n        /* \"#utility.yul\":3008:3086   */\n      tag_551\n        /* \"#utility.yul\":3081:3085   */\n      dup2\n        /* \"#utility.yul\":3072:3078   */\n      dup12\n        /* \"#utility.yul\":3008:3086   */\n      tag_458\n      jump\t// in\n    tag_551:\n        /* \"#utility.yul\":3000:3086   */\n      swap1\n      pop\n        /* \"#utility.yul\":3133:3142   */\n      dup2\n        /* \"#utility.yul\":3127:3131   */\n      dup2\n        /* \"#utility.yul\":3123:3143   */\n      sub\n        /* \"#utility.yul\":3118:3120   */\n      0x60\n        /* \"#utility.yul\":3107:3116   */\n      dup4\n        /* \"#utility.yul\":3103:3121   */\n      add\n        /* \"#utility.yul\":3096:3144   */\n      mstore\n        /* \"#utility.yul\":3161:3239   */\n      tag_552\n        /* \"#utility.yul\":3234:3238   */\n      dup2\n        /* \"#utility.yul\":3225:3231   */\n      dup11\n        /* \"#utility.yul\":3161:3239   */\n      tag_458\n      jump\t// in\n    tag_552:\n        /* \"#utility.yul\":3153:3239   */\n      swap1\n      pop\n        /* \"#utility.yul\":3249:3322   */\n      tag_553\n        /* \"#utility.yul\":3317:3320   */\n      0x80\n        /* \"#utility.yul\":3306:3315   */\n      dup4\n        /* \"#utility.yul\":3302:3321   */\n      add\n        /* \"#utility.yul\":3293:3299   */\n      dup10\n        /* \"#utility.yul\":3249:3322   */\n      tag_453\n      jump\t// in\n    tag_553:\n        /* \"#utility.yul\":3332:3405   */\n      tag_554\n        /* \"#utility.yul\":3400:3403   */\n      0xa0\n        /* \"#utility.yul\":3389:3398   */\n      dup4\n        /* \"#utility.yul\":3385:3404   */\n      add\n        /* \"#utility.yul\":3376:3382   */\n      dup9\n        /* \"#utility.yul\":3332:3405   */\n      tag_453\n      jump\t// in\n    tag_554:\n        /* \"#utility.yul\":3453:3462   */\n      dup2\n        /* \"#utility.yul\":3447:3451   */\n      dup2\n        /* \"#utility.yul\":3443:3463   */\n      sub\n        /* \"#utility.yul\":3437:3440   */\n      0xc0\n        /* \"#utility.yul\":3426:3435   */\n      dup4\n        /* \"#utility.yul\":3422:3441   */\n      add\n        /* \"#utility.yul\":3415:3464   */\n      mstore\n        /* \"#utility.yul\":3481:3559   */\n      tag_555\n        /* \"#utility.yul\":3554:3558   */\n      dup2\n        /* \"#utility.yul\":3545:3551   */\n      dup8\n        /* \"#utility.yul\":3481:3559   */\n      tag_458\n      jump\t// in\n    tag_555:\n        /* \"#utility.yul\":3473:3559   */\n      swap1\n      pop\n        /* \"#utility.yul\":3607:3616   */\n      dup2\n        /* \"#utility.yul\":3601:3605   */\n      dup2\n        /* \"#utility.yul\":3597:3617   */\n      sub\n        /* \"#utility.yul\":3591:3594   */\n      0xe0\n        /* \"#utility.yul\":3580:3589   */\n      dup4\n        /* \"#utility.yul\":3576:3595   */\n      add\n        /* \"#utility.yul\":3569:3618   */\n      mstore\n        /* \"#utility.yul\":3635:3713   */\n      tag_556\n        /* \"#utility.yul\":3708:3712   */\n      dup2\n        /* \"#utility.yul\":3699:3705   */\n      dup7\n        /* \"#utility.yul\":3635:3713   */\n      tag_458\n      jump\t// in\n    tag_556:\n        /* \"#utility.yul\":3627:3713   */\n      swap1\n      pop\n        /* \"#utility.yul\":3761:3770   */\n      dup2\n        /* \"#utility.yul\":3755:3759   */\n      dup2\n        /* \"#utility.yul\":3751:3771   */\n      sub\n        /* \"#utility.yul\":3745:3748   */\n      0x0100\n        /* \"#utility.yul\":3734:3743   */\n      dup4\n        /* \"#utility.yul\":3730:3749   */\n      add\n        /* \"#utility.yul\":3723:3772   */\n      mstore\n        /* \"#utility.yul\":3789:3867   */\n      tag_557\n        /* \"#utility.yul\":3862:3866   */\n      dup2\n        /* \"#utility.yul\":3853:3859   */\n      dup6\n        /* \"#utility.yul\":3789:3867   */\n      tag_458\n      jump\t// in\n    tag_557:\n        /* \"#utility.yul\":3781:3867   */\n      swap1\n      pop\n        /* \"#utility.yul\":3915:3924   */\n      dup2\n        /* \"#utility.yul\":3909:3913   */\n      dup2\n        /* \"#utility.yul\":3905:3925   */\n      sub\n        /* \"#utility.yul\":3899:3902   */\n      0x0120\n        /* \"#utility.yul\":3888:3897   */\n      dup4\n        /* \"#utility.yul\":3884:3903   */\n      add\n        /* \"#utility.yul\":3877:3926   */\n      mstore\n        /* \"#utility.yul\":3943:4021   */\n      tag_558\n        /* \"#utility.yul\":4016:4020   */\n      dup2\n        /* \"#utility.yul\":4007:4013   */\n      dup5\n        /* \"#utility.yul\":3943:4021   */\n      tag_458\n      jump\t// in\n    tag_558:\n        /* \"#utility.yul\":3935:4021   */\n      swap1\n      pop\n        /* \"#utility.yul\":2172:4028   */\n      swap12\n      swap11\n      pop\n      pop\n      pop\n      pop\n      pop\n      pop\n      pop\n      pop\n      pop\n      pop\n      pop\n      jump\t// out\n        /* \"#utility.yul\":4034:4151   */\n    tag_459:\n        /* \"#utility.yul\":4143:4144   */\n      0x00\n        /* \"#utility.yul\":4140:4141   */\n      dup1\n        /* \"#utility.yul\":4133:4145   */\n      revert\n        /* \"#utility.yul\":4157:4274   */\n    tag_460:\n        /* \"#utility.yul\":4266:4267   */\n      0x00\n        /* \"#utility.yul\":4263:4264   */\n      dup1\n        /* \"#utility.yul\":4256:4268   */\n      revert\n        /* \"#utility.yul\":4280:4460   */\n    tag_461:\n        /* \"#utility.yul\":4328:4405   */\n      0x4e487b7100000000000000000000000000000000000000000000000000000000\n        /* \"#utility.yul\":4325:4326   */\n      0x00\n        /* \"#utility.yul\":4318:4406   */\n      mstore\n        /* \"#utility.yul\":4425:4429   */\n      0x41\n        /* \"#utility.yul\":4422:4423   */\n      0x04\n        /* \"#utility.yul\":4415:4430   */\n      mstore\n        /* \"#utility.yul\":4449:4453   */\n      0x24\n        /* \"#utility.yul\":4446:4447   */\n      0x00\n        /* \"#utility.yul\":4439:4454   */\n      revert\n        /* \"#utility.yul\":4466:4747   */\n    tag_462:\n        /* \"#utility.yul\":4549:4576   */\n      tag_563\n        /* \"#utility.yul\":4571:4575   */\n      dup3\n        /* \"#utility.yul\":4549:4576   */\n      tag_457\n      jump\t// in\n    tag_563:\n        /* \"#utility.yul\":4541:4547   */\n      dup2\n        /* \"#utility.yul\":4537:4577   */\n      add\n        /* \"#utility.yul\":4679:4685   */\n      dup2\n        /* \"#utility.yul\":4667:4677   */\n      dup2\n        /* \"#utility.yul\":4664:4686   */\n      lt\n        /* \"#utility.yul\":4643:4661   */\n      0xffffffffffffffff\n        /* \"#utility.yul\":4631:4641   */\n      dup3\n        /* \"#utility.yul\":4628:4662   */\n      gt\n        /* \"#utility.yul\":4625:4687   */\n      or\n        /* \"#utility.yul\":4622:4710   */\n      iszero\n      tag_564\n      jumpi\n        /* \"#utility.yul\":4690:4708   */\n      tag_565\n      tag_461\n      jump\t// in\n    tag_565:\n        /* \"#utility.yul\":4622:4710   */\n    tag_564:\n        /* \"#utility.yul\":4730:4740   */\n      dup1\n        /* \"#utility.yul\":4726:4728   */\n      0x40\n        /* \"#utility.yul\":4719:4741   */\n      mstore\n        /* \"#utility.yul\":4509:4747   */\n      pop\n        /* \"#utility.yul\":4466:4747   */\n      pop\n      pop\n      jump\t// out\n        /* \"#utility.yul\":4753:4882   */\n    tag_463:\n        /* \"#utility.yul\":4787:4793   */\n      0x00\n        /* \"#utility.yul\":4814:4834   */\n      tag_567\n      tag_447\n      jump\t// in\n    tag_567:\n        /* \"#utility.yul\":4804:4834   */\n      swap1\n      pop\n        /* \"#utility.yul\":4843:4876   */\n      tag_568\n        /* \"#utility.yul\":4871:4875   */\n      dup3\n        /* \"#utility.yul\":4863:4869   */\n      dup3\n        /* \"#utility.yul\":4843:4876   */\n      tag_462\n      jump\t// in\n    tag_568:\n        /* \"#utility.yul\":4753:4882   */\n      swap2\n      swap1\n      pop\n      jump\t// out\n        /* \"#utility.yul\":4888:5196   */\n    tag_464:\n        /* \"#utility.yul\":4950:4954   */\n      0x00\n        /* \"#utility.yul\":5040:5058   */\n      0xffffffffffffffff\n        /* \"#utility.yul\":5032:5038   */\n      dup3\n        /* \"#utility.yul\":5029:5059   */\n      gt\n        /* \"#utility.yul\":5026:5082   */\n      iszero\n      tag_570\n      jumpi\n        /* \"#utility.yul\":5062:5080   */\n      tag_571\n      tag_461\n      jump\t// in\n    tag_571:\n        /* \"#utility.yul\":5026:5082   */\n    tag_570:\n        /* \"#utility.yul\":5100:5129   */\n      tag_572\n        /* \"#utility.yul\":5122:5128   */\n      dup3\n        /* \"#utility.yul\":5100:5129   */\n      tag_457\n      jump\t// in\n    tag_572:\n        /* \"#utility.yul\":5092:5129   */\n      swap1\n      pop\n        /* \"#utility.yul\":5184:5188   */\n      0x20\n        /* \"#utility.yul\":5178:5182   */\n      dup2\n        /* \"#utility.yul\":5174:5189   */\n      add\n        /* \"#utility.yul\":5166:5189   */\n      swap1\n      pop\n        /* \"#utility.yul\":4888:5196   */\n      swap2\n      swap1\n      pop\n      jump\t// out\n        /* \"#utility.yul\":5202:5348   */\n    tag_465:\n        /* \"#utility.yul\":5299:5305   */\n      dup3\n        /* \"#utility.yul\":5294:5297   */\n      dup2\n        /* \"#utility.yul\":5289:5292   */\n      dup4\n        /* \"#utility.yul\":5276:5306   */\n      calldatacopy\n        /* \"#utility.yul\":5340:5341   */\n      0x00\n        /* \"#utility.yul\":5331:5337   */\n      dup4\n        /* \"#utility.yul\":5326:5329   */\n      dup4\n        /* \"#utility.yul\":5322:5338   */\n      add\n        /* \"#utility.yul\":5315:5342   */\n      mstore\n        /* \"#utility.yul\":5202:5348   */\n      pop\n      pop\n      pop\n      jump\t// out\n        /* \"#utility.yul\":5354:5779   */\n    tag_466:\n        /* \"#utility.yul\":5432:5437   */\n      0x00\n        /* \"#utility.yul\":5457:5523   */\n      tag_575\n        /* \"#utility.yul\":5473:5522   */\n      tag_576\n        /* \"#utility.yul\":5515:5521   */\n      dup5\n        /* \"#utility.yul\":5473:5522   */\n      tag_464\n      jump\t// in\n    tag_576:\n        /* \"#utility.yul\":5457:5523   */\n      tag_463\n      jump\t// in\n    tag_575:\n        /* \"#utility.yul\":5448:5523   */\n      swap1\n      pop\n        /* \"#utility.yul\":5546:5552   */\n      dup3\n        /* \"#utility.yul\":5539:5544   */\n      dup2\n        /* \"#utility.yul\":5532:5553   */\n      mstore\n        /* \"#utility.yul\":5584:5588   */\n      0x20\n        /* \"#utility.yul\":5577:5582   */\n      dup2\n        /* \"#utility.yul\":5573:5589   */\n      add\n        /* \"#utility.yul\":5622:5625   */\n      dup5\n        /* \"#utility.yul\":5613:5619   */\n      dup5\n        /* \"#utility.yul\":5608:5611   */\n      dup5\n        /* \"#utility.yul\":5604:5620   */\n      add\n        /* \"#utility.yul\":5601:5626   */\n      gt\n        /* \"#utility.yul\":5598:5710   */\n      iszero\n      tag_577\n      jumpi\n        /* \"#utility.yul\":5629:5708   */\n      tag_578\n      tag_460\n      jump\t// in\n    tag_578:\n        /* \"#utility.yul\":5598:5710   */\n    tag_577:\n        /* \"#utility.yul\":5719:5773   */\n      tag_579\n        /* \"#utility.yul\":5766:5772   */\n      dup5\n        /* \"#utility.yul\":5761:5764   */\n      dup3\n        /* \"#utility.yul\":5756:5759   */\n      dup6\n        /* \"#utility.yul\":5719:5773   */\n      tag_465\n      jump\t// in\n    tag_579:\n        /* \"#utility.yul\":5438:5779   */\n      pop\n        /* \"#utility.yul\":5354:5779   */\n      swap4\n      swap3\n      pop\n      pop\n      pop\n      jump\t// out\n        /* \"#utility.yul\":5799:6139   */\n    tag_467:\n        /* \"#utility.yul\":5855:5860   */\n      0x00\n        /* \"#utility.yul\":5904:5907   */\n      dup3\n        /* \"#utility.yul\":5897:5901   */\n      0x1f\n        /* \"#utility.yul\":5889:5895   */\n      dup4\n        /* \"#utility.yul\":5885:5902   */\n      add\n        /* \"#utility.yul\":5881:5908   */\n      slt\n        /* \"#utility.yul\":5871:5993   */\n      tag_581\n      jumpi\n        /* \"#utility.yul\":5912:5991   */\n      tag_582\n      tag_459\n      jump\t// in\n    tag_582:\n        /* \"#utility.yul\":5871:5993   */\n    tag_581:\n        /* \"#utility.yul\":6029:6035   */\n      dup2\n        /* \"#utility.yul\":6016:6036   */\n      calldataload\n        /* \"#utility.yul\":6054:6133   */\n      tag_583\n        /* \"#utility.yul\":6129:6132   */\n      dup5\n        /* \"#utility.yul\":6121:6127   */\n      dup3\n        /* \"#utility.yul\":6114:6118   */\n      0x20\n        /* \"#utility.yul\":6106:6112   */\n      dup7\n        /* \"#utility.yul\":6102:6119   */\n      add\n        /* \"#utility.yul\":6054:6133   */\n      tag_466\n      jump\t// in\n    tag_583:\n        /* \"#utility.yul\":6045:6133   */\n      swap2\n      pop\n        /* \"#utility.yul\":5861:6139   */\n      pop\n        /* \"#utility.yul\":5799:6139   */\n      swap3\n      swap2\n      pop\n      pop\n      jump\t// out\n        /* \"#utility.yul\":6145:6654   */\n    tag_24:\n        /* \"#utility.yul\":6214:6220   */\n      0x00\n        /* \"#utility.yul\":6263:6265   */\n      0x20\n        /* \"#utility.yul\":6251:6260   */\n      dup3\n        /* \"#utility.yul\":6242:6249   */\n      dup5\n        /* \"#utility.yul\":6238:6261   */\n      sub\n        /* \"#utility.yul\":6234:6266   */\n      slt\n        /* \"#utility.yul\":6231:6350   */\n      iszero\n      tag_585\n      jumpi\n        /* \"#utility.yul\":6269:6348   */\n      tag_586\n      tag_448\n      jump\t// in\n    tag_586:\n        /* \"#utility.yul\":6231:6350   */\n    tag_585:\n        /* \"#utility.yul\":6417:6418   */\n      0x00\n        /* \"#utility.yul\":6406:6415   */\n      dup3\n        /* \"#utility.yul\":6402:6419   */\n      add\n        /* \"#utility.yul\":6389:6420   */\n      calldataload\n        /* \"#utility.yul\":6447:6465   */\n      0xffffffffffffffff\n        /* \"#utility.yul\":6439:6445   */\n      dup2\n        /* \"#utility.yul\":6436:6466   */\n      gt\n        /* \"#utility.yul\":6433:6550   */\n      iszero\n      tag_587\n      jumpi\n        /* \"#utility.yul\":6469:6548   */\n      tag_588\n      tag_449\n      jump\t// in\n    tag_588:\n        /* \"#utility.yul\":6433:6550   */\n    tag_587:\n        /* \"#utility.yul\":6574:6637   */\n      tag_589\n        /* \"#utility.yul\":6629:6636   */\n      dup5\n        /* \"#utility.yul\":6620:6626   */\n      dup3\n        /* \"#utility.yul\":6609:6618   */\n      dup6\n        /* \"#utility.yul\":6605:6627   */\n      add\n        /* \"#utility.yul\":6574:6637   */\n      tag_467\n      jump\t// in\n    tag_589:\n        /* \"#utility.yul\":6564:6637   */\n      swap2\n      pop\n        /* \"#utility.yul\":6360:6647   */\n      pop\n        /* \"#utility.yul\":6145:6654   */\n      swap3\n      swap2\n      pop\n      pop\n      jump\t// out\n        /* \"#utility.yul\":6660:6797   */\n    tag_468:\n        /* \"#utility.yul\":6750:6756   */\n      0x00\n        /* \"#utility.yul\":6784:6789   */\n      dup2\n        /* \"#utility.yul\":6778:6790   */\n      mload\n        /* \"#utility.yul\":6768:6790   */\n      swap1\n      pop\n        /* \"#utility.yul\":6660:6797   */\n      swap2\n      swap1\n      pop\n      jump\t// out\n        /* \"#utility.yul\":6803:7010   */\n    tag_469:\n        /* \"#utility.yul\":6925:6936   */\n      0x00\n        /* \"#utility.yul\":6959:6965   */\n      dup3\n        /* \"#utility.yul\":6954:6957   */\n      dup3\n        /* \"#utility.yul\":6947:6966   */\n      mstore\n        /* \"#utility.yul\":6999:7003   */\n      0x20\n        /* \"#utility.yul\":6994:6997   */\n      dup3\n        /* \"#utility.yul\":6990:7004   */\n      add\n        /* \"#utility.yul\":6975:7004   */\n      swap1\n      pop\n        /* \"#utility.yul\":6803:7010   */\n      swap3\n      swap2\n      pop\n      pop\n      jump\t// out\n        /* \"#utility.yul\":7016:7171   */\n    tag_470:\n        /* \"#utility.yul\":7106:7110   */\n      0x00\n        /* \"#utility.yul\":7129:7132   */\n      dup2\n        /* \"#utility.yul\":7121:7132   */\n      swap1\n      pop\n        /* \"#utility.yul\":7159:7163   */\n      0x20\n        /* \"#utility.yul\":7154:7157   */\n      dup3\n        /* \"#utility.yul\":7150:7164   */\n      add\n        /* \"#utility.yul\":7142:7164   */\n      swap1\n      pop\n        /* \"#utility.yul\":7016:7171   */\n      swap2\n      swap1\n      pop\n      jump\t// out\n        /* \"#utility.yul\":7177:7285   */\n    tag_471:\n        /* \"#utility.yul\":7254:7278   */\n      tag_594\n        /* \"#utility.yul\":7272:7277   */\n      dup2\n        /* \"#utility.yul\":7254:7278   */\n      tag_450\n      jump\t// in\n    tag_594:\n        /* \"#utility.yul\":7249:7252   */\n      dup3\n        /* \"#utility.yul\":7242:7279   */\n      mstore\n        /* \"#utility.yul\":7177:7285   */\n      pop\n      pop\n      jump\t// out\n        /* \"#utility.yul\":7291:7450   */\n    tag_472:\n        /* \"#utility.yul\":7365:7376   */\n      0x00\n        /* \"#utility.yul\":7399:7405   */\n      dup3\n        /* \"#utility.yul\":7394:7397   */\n      dup3\n        /* \"#utility.yul\":7387:7406   */\n      mstore\n        /* \"#utility.yul\":7439:7443   */\n      0x20\n        /* \"#utility.yul\":7434:7437   */\n      dup3\n        /* \"#utility.yul\":7430:7444   */\n      add\n        /* \"#utility.yul\":7415:7444   */\n      swap1\n      pop\n        /* \"#utility.yul\":7291:7450   */\n      swap3\n      swap2\n      pop\n      pop\n      jump\t// out\n        /* \"#utility.yul\":7456:7813   */\n    tag_473:\n        /* \"#utility.yul\":7534:7537   */\n      0x00\n        /* \"#utility.yul\":7562:7601   */\n      tag_597\n        /* \"#utility.yul\":7595:7600   */\n      dup3\n        /* \"#utility.yul\":7562:7601   */\n      tag_454\n      jump\t// in\n    tag_597:\n        /* \"#utility.yul\":7617:7678   */\n      tag_598\n        /* \"#utility.yul\":7671:7677   */\n      dup2\n        /* \"#utility.yul\":7666:7669   */\n      dup6\n        /* \"#utility.yul\":7617:7678   */\n      tag_472\n      jump\t// in\n    tag_598:\n        /* \"#utility.yul\":7610:7678   */\n      swap4\n      pop\n        /* \"#utility.yul\":7687:7752   */\n      tag_599\n        /* \"#utility.yul\":7745:7751   */\n      dup2\n        /* \"#utility.yul\":7740:7743   */\n      dup6\n        /* \"#utility.yul\":7733:7737   */\n      0x20\n        /* \"#utility.yul\":7726:7731   */\n      dup7\n        /* \"#utility.yul\":7722:7738   */\n      add\n        /* \"#utility.yul\":7687:7752   */\n      tag_456\n      jump\t// in\n    tag_599:\n        /* \"#utility.yul\":7777:7806   */\n      tag_600\n        /* \"#utility.yul\":7799:7805   */\n      dup2\n        /* \"#utility.yul\":7777:7806   */\n      tag_457\n      jump\t// in\n    tag_600:\n        /* \"#utility.yul\":7772:7775   */\n      dup5\n        /* \"#utility.yul\":7768:7807   */\n      add\n        /* \"#utility.yul\":7761:7807   */\n      swap2\n      pop\n        /* \"#utility.yul\":7538:7813   */\n      pop\n        /* \"#utility.yul\":7456:7813   */\n      swap3\n      swap2\n      pop\n      pop\n      jump\t// out\n        /* \"#utility.yul\":7891:10414   */\n    tag_474:\n        /* \"#utility.yul\":7996:7999   */\n      0x00\n        /* \"#utility.yul\":8032:8038   */\n      0x0140\n        /* \"#utility.yul\":8027:8030   */\n      dup4\n        /* \"#utility.yul\":8023:8039   */\n      add\n        /* \"#utility.yul\":8126:8130   */\n      0x00\n        /* \"#utility.yul\":8119:8124   */\n      dup4\n        /* \"#utility.yul\":8115:8131   */\n      add\n        /* \"#utility.yul\":8109:8132   */\n      mload\n        /* \"#utility.yul\":8145:8208   */\n      tag_602\n        /* \"#utility.yul\":8202:8206   */\n      0x00\n        /* \"#utility.yul\":8197:8200   */\n      dup7\n        /* \"#utility.yul\":8193:8207   */\n      add\n        /* \"#utility.yul\":8179:8191   */\n      dup3\n        /* \"#utility.yul\":8145:8208   */\n      tag_471\n      jump\t// in\n    tag_602:\n        /* \"#utility.yul\":8049:8218   */\n      pop\n        /* \"#utility.yul\":8308:8312   */\n      0x20\n        /* \"#utility.yul\":8301:8306   */\n      dup4\n        /* \"#utility.yul\":8297:8313   */\n      add\n        /* \"#utility.yul\":8291:8314   */\n      mload\n        /* \"#utility.yul\":8361:8364   */\n      dup5\n        /* \"#utility.yul\":8355:8359   */\n      dup3\n        /* \"#utility.yul\":8351:8365   */\n      sub\n        /* \"#utility.yul\":8344:8348   */\n      0x20\n        /* \"#utility.yul\":8339:8342   */\n      dup7\n        /* \"#utility.yul\":8335:8349   */\n      add\n        /* \"#utility.yul\":8328:8366   */\n      mstore\n        /* \"#utility.yul\":8387:8460   */\n      tag_603\n        /* \"#utility.yul\":8455:8459   */\n      dup3\n        /* \"#utility.yul\":8441:8453   */\n      dup3\n        /* \"#utility.yul\":8387:8460   */\n      tag_473\n      jump\t// in\n    tag_603:\n        /* \"#utility.yul\":8379:8460   */\n      swap2\n      pop\n        /* \"#utility.yul\":8228:8471   */\n      pop\n        /* \"#utility.yul\":8567:8571   */\n      0x40\n        /* \"#utility.yul\":8560:8565   */\n      dup4\n        /* \"#utility.yul\":8556:8572   */\n      add\n        /* \"#utility.yul\":8550:8573   */\n      mload\n        /* \"#utility.yul\":8620:8623   */\n      dup5\n        /* \"#utility.yul\":8614:8618   */\n      dup3\n        /* \"#utility.yul\":8610:8624   */\n      sub\n        /* \"#utility.yul\":8603:8607   */\n      0x40\n        /* \"#utility.yul\":8598:8601   */\n      dup7\n        /* \"#utility.yul\":8594:8608   */\n      add\n        /* \"#utility.yul\":8587:8625   */\n      mstore\n        /* \"#utility.yul\":8646:8719   */\n      tag_604\n        /* \"#utility.yul\":8714:8718   */\n      dup3\n        /* \"#utility.yul\":8700:8712   */\n      dup3\n        /* \"#utility.yul\":8646:8719   */\n      tag_473\n      jump\t// in\n    tag_604:\n        /* \"#utility.yul\":8638:8719   */\n      swap2\n      pop\n        /* \"#utility.yul\":8481:8730   */\n      pop\n        /* \"#utility.yul\":8819:8823   */\n      0x60\n        /* \"#utility.yul\":8812:8817   */\n      dup4\n        /* \"#utility.yul\":8808:8824   */\n      add\n        /* \"#utility.yul\":8802:8825   */\n      mload\n        /* \"#utility.yul\":8872:8875   */\n      dup5\n        /* \"#utility.yul\":8866:8870   */\n      dup3\n        /* \"#utility.yul\":8862:8876   */\n      sub\n        /* \"#utility.yul\":8855:8859   */\n      0x60\n        /* \"#utility.yul\":8850:8853   */\n      dup7\n        /* \"#utility.yul\":8846:8860   */\n      add\n        /* \"#utility.yul\":8839:8877   */\n      mstore\n        /* \"#utility.yul\":8898:8971   */\n      tag_605\n        /* \"#utility.yul\":8966:8970   */\n      dup3\n        /* \"#utility.yul\":8952:8964   */\n      dup3\n        /* \"#utility.yul\":8898:8971   */\n      tag_473\n      jump\t// in\n    tag_605:\n        /* \"#utility.yul\":8890:8971   */\n      swap2\n      pop\n        /* \"#utility.yul\":8740:8982   */\n      pop\n        /* \"#utility.yul\":9075:9079   */\n      0x80\n        /* \"#utility.yul\":9068:9073   */\n      dup4\n        /* \"#utility.yul\":9064:9080   */\n      add\n        /* \"#utility.yul\":9058:9081   */\n      mload\n        /* \"#utility.yul\":9094:9157   */\n      tag_606\n        /* \"#utility.yul\":9151:9155   */\n      0x80\n        /* \"#utility.yul\":9146:9149   */\n      dup7\n        /* \"#utility.yul\":9142:9156   */\n      add\n        /* \"#utility.yul\":9128:9140   */\n      dup3\n        /* \"#utility.yul\":9094:9157   */\n      tag_471\n      jump\t// in\n    tag_606:\n        /* \"#utility.yul\":8992:9167   */\n      pop\n        /* \"#utility.yul\":9258:9262   */\n      0xa0\n        /* \"#utility.yul\":9251:9256   */\n      dup4\n        /* \"#utility.yul\":9247:9263   */\n      add\n        /* \"#utility.yul\":9241:9264   */\n      mload\n        /* \"#utility.yul\":9277:9340   */\n      tag_607\n        /* \"#utility.yul\":9334:9338   */\n      0xa0\n        /* \"#utility.yul\":9329:9332   */\n      dup7\n        /* \"#utility.yul\":9325:9339   */\n      add\n        /* \"#utility.yul\":9311:9323   */\n      dup3\n        /* \"#utility.yul\":9277:9340   */\n      tag_471\n      jump\t// in\n    tag_607:\n        /* \"#utility.yul\":9177:9350   */\n      pop\n        /* \"#utility.yul\":9441:9445   */\n      0xc0\n        /* \"#utility.yul\":9434:9439   */\n      dup4\n        /* \"#utility.yul\":9430:9446   */\n      add\n        /* \"#utility.yul\":9424:9447   */\n      mload\n        /* \"#utility.yul\":9494:9497   */\n      dup5\n        /* \"#utility.yul\":9488:9492   */\n      dup3\n        /* \"#utility.yul\":9484:9498   */\n      sub\n        /* \"#utility.yul\":9477:9481   */\n      0xc0\n        /* \"#utility.yul\":9472:9475   */\n      dup7\n        /* \"#utility.yul\":9468:9482   */\n      add\n        /* \"#utility.yul\":9461:9499   */\n      mstore\n        /* \"#utility.yul\":9520:9593   */\n      tag_608\n        /* \"#utility.yul\":9588:9592   */\n      dup3\n        /* \"#utility.yul\":9574:9586   */\n      dup3\n        /* \"#utility.yul\":9520:9593   */\n      tag_473\n      jump\t// in\n    tag_608:\n        /* \"#utility.yul\":9512:9593   */\n      swap2\n      pop\n        /* \"#utility.yul\":9360:9604   */\n      pop\n        /* \"#utility.yul\":9702:9706   */\n      0xe0\n        /* \"#utility.yul\":9695:9700   */\n      dup4\n        /* \"#utility.yul\":9691:9707   */\n      add\n        /* \"#utility.yul\":9685:9708   */\n      mload\n        /* \"#utility.yul\":9755:9758   */\n      dup5\n        /* \"#utility.yul\":9749:9753   */\n      dup3\n        /* \"#utility.yul\":9745:9759   */\n      sub\n        /* \"#utility.yul\":9738:9742   */\n      0xe0\n        /* \"#utility.yul\":9733:9736   */\n      dup7\n        /* \"#utility.yul\":9729:9743   */\n      add\n        /* \"#utility.yul\":9722:9760   */\n      mstore\n        /* \"#utility.yul\":9781:9854   */\n      tag_609\n        /* \"#utility.yul\":9849:9853   */\n      dup3\n        /* \"#utility.yul\":9835:9847   */\n      dup3\n        /* \"#utility.yul\":9781:9854   */\n      tag_473\n      jump\t// in\n    tag_609:\n        /* \"#utility.yul\":9773:9854   */\n      swap2\n      pop\n        /* \"#utility.yul\":9614:9865   */\n      pop\n        /* \"#utility.yul\":9961:9967   */\n      0x0100\n        /* \"#utility.yul\":9954:9959   */\n      dup4\n        /* \"#utility.yul\":9950:9968   */\n      add\n        /* \"#utility.yul\":9944:9969   */\n      mload\n        /* \"#utility.yul\":10018:10021   */\n      dup5\n        /* \"#utility.yul\":10012:10016   */\n      dup3\n        /* \"#utility.yul\":10008:10022   */\n      sub\n        /* \"#utility.yul\":9999:10005   */\n      0x0100\n        /* \"#utility.yul\":9994:9997   */\n      dup7\n        /* \"#utility.yul\":9990:10006   */\n      add\n        /* \"#utility.yul\":9983:10023   */\n      mstore\n        /* \"#utility.yul\":10044:10117   */\n      tag_610\n        /* \"#utility.yul\":10112:10116   */\n      dup3\n        /* \"#utility.yul\":10098:10110   */\n      dup3\n        /* \"#utility.yul\":10044:10117   */\n      tag_473\n      jump\t// in\n    tag_610:\n        /* \"#utility.yul\":10036:10117   */\n      swap2\n      pop\n        /* \"#utility.yul\":9875:10128   */\n      pop\n        /* \"#utility.yul\":10220:10226   */\n      0x0120\n        /* \"#utility.yul\":10213:10218   */\n      dup4\n        /* \"#utility.yul\":10209:10227   */\n      add\n        /* \"#utility.yul\":10203:10228   */\n      mload\n        /* \"#utility.yul\":10277:10280   */\n      dup5\n        /* \"#utility.yul\":10271:10275   */\n      dup3\n        /* \"#utility.yul\":10267:10281   */\n      sub\n        /* \"#utility.yul\":10258:10264   */\n      0x0120\n        /* \"#utility.yul\":10253:10256   */\n      dup7\n        /* \"#utility.yul\":10249:10265   */\n      add\n        /* \"#utility.yul\":10242:10282   */\n      mstore\n        /* \"#utility.yul\":10303:10376   */\n      tag_611\n        /* \"#utility.yul\":10371:10375   */\n      dup3\n        /* \"#utility.yul\":10357:10369   */\n      dup3\n        /* \"#utility.yul\":10303:10376   */\n      tag_473\n      jump\t// in\n    tag_611:\n        /* \"#utility.yul\":10295:10376   */\n      swap2\n      pop\n        /* \"#utility.yul\":10138:10387   */\n      pop\n        /* \"#utility.yul\":10404:10408   */\n      dup1\n        /* \"#utility.yul\":10397:10408   */\n      swap2\n      pop\n        /* \"#utility.yul\":8001:10414   */\n      pop\n        /* \"#utility.yul\":7891:10414   */\n      swap3\n      swap2\n      pop\n      pop\n      jump\t// out\n        /* \"#utility.yul\":10420:10668   */\n    tag_475:\n        /* \"#utility.yul\":10535:10545   */\n      0x00\n        /* \"#utility.yul\":10570:10662   */\n      tag_613\n        /* \"#utility.yul\":10658:10661   */\n      dup4\n        /* \"#utility.yul\":10650:10656   */\n      dup4\n        /* \"#utility.yul\":10570:10662   */\n      tag_474\n      jump\t// in\n    tag_613:\n        /* \"#utility.yul\":10556:10662   */\n      swap1\n      pop\n        /* \"#utility.yul\":10420:10668   */\n      swap3\n      swap2\n      pop\n      pop\n      jump\t// out\n        /* \"#utility.yul\":10674:10810   */\n    tag_476:\n        /* \"#utility.yul\":10767:10771   */\n      0x00\n        /* \"#utility.yul\":10799:10803   */\n      0x20\n        /* \"#utility.yul\":10794:10797   */\n      dup3\n        /* \"#utility.yul\":10790:10804   */\n      add\n        /* \"#utility.yul\":10782:10804   */\n      swap1\n      pop\n        /* \"#utility.yul\":10674:10810   */\n      swap2\n      swap1\n      pop\n      jump\t// out\n        /* \"#utility.yul\":10892:11987   */\n    tag_477:\n        /* \"#utility.yul\":11057:11060   */\n      0x00\n        /* \"#utility.yul\":11086:11163   */\n      tag_616\n        /* \"#utility.yul\":11157:11162   */\n      dup3\n        /* \"#utility.yul\":11086:11163   */\n      tag_468\n      jump\t// in\n    tag_616:\n        /* \"#utility.yul\":11179:11288   */\n      tag_617\n        /* \"#utility.yul\":11281:11287   */\n      dup2\n        /* \"#utility.yul\":11276:11279   */\n      dup6\n        /* \"#utility.yul\":11179:11288   */\n      tag_469\n      jump\t// in\n    tag_617:\n        /* \"#utility.yul\":11172:11288   */\n      swap4\n      pop\n        /* \"#utility.yul\":11314:11317   */\n      dup4\n        /* \"#utility.yul\":11359:11363   */\n      0x20\n        /* \"#utility.yul\":11351:11357   */\n      dup3\n        /* \"#utility.yul\":11347:11364   */\n      mul\n        /* \"#utility.yul\":11342:11345   */\n      dup6\n        /* \"#utility.yul\":11338:11365   */\n      add\n        /* \"#utility.yul\":11389:11468   */\n      tag_618\n        /* \"#utility.yul\":11462:11467   */\n      dup6\n        /* \"#utility.yul\":11389:11468   */\n      tag_470\n      jump\t// in\n    tag_618:\n        /* \"#utility.yul\":11491:11498   */\n      dup1\n        /* \"#utility.yul\":11522:11523   */\n      0x00\n        /* \"#utility.yul\":11507:11942   */\n    tag_619:\n        /* \"#utility.yul\":11532:11538   */\n      dup6\n        /* \"#utility.yul\":11529:11530   */\n      dup2\n        /* \"#utility.yul\":11526:11539   */\n      lt\n        /* \"#utility.yul\":11507:11942   */\n      iszero\n      tag_621\n      jumpi\n        /* \"#utility.yul\":11603:11612   */\n      dup5\n        /* \"#utility.yul\":11597:11601   */\n      dup5\n        /* \"#utility.yul\":11593:11613   */\n      sub\n        /* \"#utility.yul\":11588:11591   */\n      dup10\n        /* \"#utility.yul\":11581:11614   */\n      mstore\n        /* \"#utility.yul\":11654:11660   */\n      dup2\n        /* \"#utility.yul\":11648:11661   */\n      mload\n        /* \"#utility.yul\":11682:11792   */\n      tag_622\n        /* \"#utility.yul\":11787:11791   */\n      dup6\n        /* \"#utility.yul\":11772:11785   */\n      dup3\n        /* \"#utility.yul\":11682:11792   */\n      tag_475\n      jump\t// in\n    tag_622:\n        /* \"#utility.yul\":11674:11792   */\n      swap5\n      pop\n        /* \"#utility.yul\":11815:11898   */\n      tag_623\n        /* \"#utility.yul\":11891:11897   */\n      dup4\n        /* \"#utility.yul\":11815:11898   */\n      tag_476\n      jump\t// in\n    tag_623:\n        /* \"#utility.yul\":11805:11898   */\n      swap3\n      pop\n        /* \"#utility.yul\":11927:11931   */\n      0x20\n        /* \"#utility.yul\":11922:11925   */\n      dup11\n        /* \"#utility.yul\":11918:11932   */\n      add\n        /* \"#utility.yul\":11911:11932   */\n      swap10\n      pop\n        /* \"#utility.yul\":11567:11942   */\n      pop\n        /* \"#utility.yul\":11554:11555   */\n      0x01\n        /* \"#utility.yul\":11551:11552   */\n      dup2\n        /* \"#utility.yul\":11547:11556   */\n      add\n        /* \"#utility.yul\":11542:11556   */\n      swap1\n      pop\n        /* \"#utility.yul\":11507:11942   */\n      jump(tag_619)\n    tag_621:\n        /* \"#utility.yul\":11511:11525   */\n      pop\n        /* \"#utility.yul\":11958:11962   */\n      dup3\n        /* \"#utility.yul\":11951:11962   */\n      swap8\n      pop\n        /* \"#utility.yul\":11978:11981   */\n      dup8\n        /* \"#utility.yul\":11971:11981   */\n      swap6\n      pop\n        /* \"#utility.yul\":11062:11987   */\n      pop\n      pop\n      pop\n      pop\n      pop\n        /* \"#utility.yul\":10892:11987   */\n      swap3\n      swap2\n      pop\n      pop\n      jump\t// out\n        /* \"#utility.yul\":11993:12458   */\n    tag_27:\n        /* \"#utility.yul\":12182:12186   */\n      0x00\n        /* \"#utility.yul\":12220:12222   */\n      0x20\n        /* \"#utility.yul\":12209:12218   */\n      dup3\n        /* \"#utility.yul\":12205:12223   */\n      add\n        /* \"#utility.yul\":12197:12223   */\n      swap1\n      pop\n        /* \"#utility.yul\":12269:12278   */\n      dup2\n        /* \"#utility.yul\":12263:12267   */\n      dup2\n        /* \"#utility.yul\":12259:12279   */\n      sub\n        /* \"#utility.yul\":12255:12256   */\n      0x00\n        /* \"#utility.yul\":12244:12253   */\n      dup4\n        /* \"#utility.yul\":12240:12257   */\n      add\n        /* \"#utility.yul\":12233:12280   */\n      mstore\n        /* \"#utility.yul\":12297:12451   */\n      tag_625\n        /* \"#utility.yul\":12446:12450   */\n      dup2\n        /* \"#utility.yul\":12437:12443   */\n      dup5\n        /* \"#utility.yul\":12297:12451   */\n      tag_477\n      jump\t// in\n    tag_625:\n        /* \"#utility.yul\":12289:12451   */\n      swap1\n      pop\n        /* \"#utility.yul\":11993:12458   */\n      swap3\n      swap2\n      pop\n      pop\n      jump\t// out\n        /* \"#utility.yul\":12464:13298   */\n    tag_30:\n        /* \"#utility.yul\":12552:12558   */\n      0x00\n        /* \"#utility.yul\":12560:12566   */\n      dup1\n        /* \"#utility.yul\":12609:12611   */\n      0x40\n        /* \"#utility.yul\":12597:12606   */\n      dup4\n        /* \"#utility.yul\":12588:12595   */\n      dup6\n        /* \"#utility.yul\":12584:12607   */\n      sub\n        /* \"#utility.yul\":12580:12612   */\n      slt\n        /* \"#utility.yul\":12577:12696   */\n      iszero\n      tag_627\n      jumpi\n        /* \"#utility.yul\":12615:12694   */\n      tag_628\n      tag_448\n      jump\t// in\n    tag_628:\n        /* \"#utility.yul\":12577:12696   */\n    tag_627:\n        /* \"#utility.yul\":12763:12764   */\n      0x00\n        /* \"#utility.yul\":12752:12761   */\n      dup4\n        /* \"#utility.yul\":12748:12765   */\n      add\n        /* \"#utility.yul\":12735:12766   */\n      calldataload\n        /* \"#utility.yul\":12793:12811   */\n      0xffffffffffffffff\n        /* \"#utility.yul\":12785:12791   */\n      dup2\n        /* \"#utility.yul\":12782:12812   */\n      gt\n        /* \"#utility.yul\":12779:12896   */\n      iszero\n      tag_629\n      jumpi\n        /* \"#utility.yul\":12815:12894   */\n      tag_630\n      tag_449\n      jump\t// in\n    tag_630:\n        /* \"#utility.yul\":12779:12896   */\n    tag_629:\n        /* \"#utility.yul\":12920:12983   */\n      tag_631\n        /* \"#utility.yul\":12975:12982   */\n      dup6\n        /* \"#utility.yul\":12966:12972   */\n      dup3\n        /* \"#utility.yul\":12955:12964   */\n      dup7\n        /* \"#utility.yul\":12951:12973   */\n      add\n        /* \"#utility.yul\":12920:12983   */\n      tag_467\n      jump\t// in\n    tag_631:\n        /* \"#utility.yul\":12910:12983   */\n      swap3\n      pop\n        /* \"#utility.yul\":12706:12993   */\n      pop\n        /* \"#utility.yul\":13060:13062   */\n      0x20\n        /* \"#utility.yul\":13049:13058   */\n      dup4\n        /* \"#utility.yul\":13045:13063   */\n      add\n        /* \"#utility.yul\":13032:13064   */\n      calldataload\n        /* \"#utility.yul\":13091:13109   */\n      0xffffffffffffffff\n        /* \"#utility.yul\":13083:13089   */\n      dup2\n        /* \"#utility.yul\":13080:13110   */\n      gt\n        /* \"#utility.yul\":13077:13194   */\n      iszero\n      tag_632\n      jumpi\n        /* \"#utility.yul\":13113:13192   */\n      tag_633\n      tag_449\n      jump\t// in\n    tag_633:\n        /* \"#utility.yul\":13077:13194   */\n    tag_632:\n        /* \"#utility.yul\":13218:13281   */\n      tag_634\n        /* \"#utility.yul\":13273:13280   */\n      dup6\n        /* \"#utility.yul\":13264:13270   */\n      dup3\n        /* \"#utility.yul\":13253:13262   */\n      dup7\n        /* \"#utility.yul\":13249:13271   */\n      add\n        /* \"#utility.yul\":13218:13281   */\n      tag_467\n      jump\t// in\n    tag_634:\n        /* \"#utility.yul\":13208:13281   */\n      swap2\n      pop\n        /* \"#utility.yul\":13003:13291   */\n      pop\n        /* \"#utility.yul\":12464:13298   */\n      swap3\n      pop\n      swap3\n      swap1\n      pop\n      jump\t// out\n        /* \"#utility.yul\":13376:15909   */\n    tag_478:\n        /* \"#utility.yul\":13491:13494   */\n      0x00\n        /* \"#utility.yul\":13527:13533   */\n      0x0140\n        /* \"#utility.yul\":13522:13525   */\n      dup4\n        /* \"#utility.yul\":13518:13534   */\n      add\n        /* \"#utility.yul\":13621:13625   */\n      0x00\n        /* \"#utility.yul\":13614:13619   */\n      dup4\n        /* \"#utility.yul\":13610:13626   */\n      add\n        /* \"#utility.yul\":13604:13627   */\n      mload\n        /* \"#utility.yul\":13640:13703   */\n      tag_636\n        /* \"#utility.yul\":13697:13701   */\n      0x00\n        /* \"#utility.yul\":13692:13695   */\n      dup7\n        /* \"#utility.yul\":13688:13702   */\n      add\n        /* \"#utility.yul\":13674:13686   */\n      dup3\n        /* \"#utility.yul\":13640:13703   */\n      tag_471\n      jump\t// in\n    tag_636:\n        /* \"#utility.yul\":13544:13713   */\n      pop\n        /* \"#utility.yul\":13803:13807   */\n      0x20\n        /* \"#utility.yul\":13796:13801   */\n      dup4\n        /* \"#utility.yul\":13792:13808   */\n      add\n        /* \"#utility.yul\":13786:13809   */\n      mload\n        /* \"#utility.yul\":13856:13859   */\n      dup5\n        /* \"#utility.yul\":13850:13854   */\n      dup3\n        /* \"#utility.yul\":13846:13860   */\n      sub\n        /* \"#utility.yul\":13839:13843   */\n      0x20\n        /* \"#utility.yul\":13834:13837   */\n      dup7\n        /* \"#utility.yul\":13830:13844   */\n      add\n        /* \"#utility.yul\":13823:13861   */\n      mstore\n        /* \"#utility.yul\":13882:13955   */\n      tag_637\n        /* \"#utility.yul\":13950:13954   */\n      dup3\n        /* \"#utility.yul\":13936:13948   */\n      dup3\n        /* \"#utility.yul\":13882:13955   */\n      tag_473\n      jump\t// in\n    tag_637:\n        /* \"#utility.yul\":13874:13955   */\n      swap2\n      pop\n        /* \"#utility.yul\":13723:13966   */\n      pop\n        /* \"#utility.yul\":14062:14066   */\n      0x40\n        /* \"#utility.yul\":14055:14060   */\n      dup4\n        /* \"#utility.yul\":14051:14067   */\n      add\n        /* \"#utility.yul\":14045:14068   */\n      mload\n        /* \"#utility.yul\":14115:14118   */\n      dup5\n        /* \"#utility.yul\":14109:14113   */\n      dup3\n        /* \"#utility.yul\":14105:14119   */\n      sub\n        /* \"#utility.yul\":14098:14102   */\n      0x40\n        /* \"#utility.yul\":14093:14096   */\n      dup7\n        /* \"#utility.yul\":14089:14103   */\n      add\n        /* \"#utility.yul\":14082:14120   */\n      mstore\n        /* \"#utility.yul\":14141:14214   */\n      tag_638\n        /* \"#utility.yul\":14209:14213   */\n      dup3\n        /* \"#utility.yul\":14195:14207   */\n      dup3\n        /* \"#utility.yul\":14141:14214   */\n      tag_473\n      jump\t// in\n    tag_638:\n        /* \"#utility.yul\":14133:14214   */\n      swap2\n      pop\n        /* \"#utility.yul\":13976:14225   */\n      pop\n        /* \"#utility.yul\":14314:14318   */\n      0x60\n        /* \"#utility.yul\":14307:14312   */\n      dup4\n        /* \"#utility.yul\":14303:14319   */\n      add\n        /* \"#utility.yul\":14297:14320   */\n      mload\n        /* \"#utility.yul\":14367:14370   */\n      dup5\n        /* \"#utility.yul\":14361:14365   */\n      dup3\n        /* \"#utility.yul\":14357:14371   */\n      sub\n        /* \"#utility.yul\":14350:14354   */\n      0x60\n        /* \"#utility.yul\":14345:14348   */\n      dup7\n        /* \"#utility.yul\":14341:14355   */\n      add\n        /* \"#utility.yul\":14334:14372   */\n      mstore\n        /* \"#utility.yul\":14393:14466   */\n      tag_639\n        /* \"#utility.yul\":14461:14465   */\n      dup3\n        /* \"#utility.yul\":14447:14459   */\n      dup3\n        /* \"#utility.yul\":14393:14466   */\n      tag_473\n      jump\t// in\n    tag_639:\n        /* \"#utility.yul\":14385:14466   */\n      swap2\n      pop\n        /* \"#utility.yul\":14235:14477   */\n      pop\n        /* \"#utility.yul\":14570:14574   */\n      0x80\n        /* \"#utility.yul\":14563:14568   */\n      dup4\n        /* \"#utility.yul\":14559:14575   */\n      add\n        /* \"#utility.yul\":14553:14576   */\n      mload\n        /* \"#utility.yul\":14589:14652   */\n      tag_640\n        /* \"#utility.yul\":14646:14650   */\n      0x80\n        /* \"#utility.yul\":14641:14644   */\n      dup7\n        /* \"#utility.yul\":14637:14651   */\n      add\n        /* \"#utility.yul\":14623:14635   */\n      dup3\n        /* \"#utility.yul\":14589:14652   */\n      tag_471\n      jump\t// in\n    tag_640:\n        /* \"#utility.yul\":14487:14662   */\n      pop\n        /* \"#utility.yul\":14753:14757   */\n      0xa0\n        /* \"#utility.yul\":14746:14751   */\n      dup4\n        /* \"#utility.yul\":14742:14758   */\n      add\n        /* \"#utility.yul\":14736:14759   */\n      mload\n        /* \"#utility.yul\":14772:14835   */\n      tag_641\n        /* \"#utility.yul\":14829:14833   */\n      0xa0\n        /* \"#utility.yul\":14824:14827   */\n      dup7\n        /* \"#utility.yul\":14820:14834   */\n      add\n        /* \"#utility.yul\":14806:14818   */\n      dup3\n        /* \"#utility.yul\":14772:14835   */\n      tag_471\n      jump\t// in\n    tag_641:\n        /* \"#utility.yul\":14672:14845   */\n      pop\n        /* \"#utility.yul\":14936:14940   */\n      0xc0\n        /* \"#utility.yul\":14929:14934   */\n      dup4\n        /* \"#utility.yul\":14925:14941   */\n      add\n        /* \"#utility.yul\":14919:14942   */\n      mload\n        /* \"#utility.yul\":14989:14992   */\n      dup5\n        /* \"#utility.yul\":14983:14987   */\n      dup3\n        /* \"#utility.yul\":14979:14993   */\n      sub\n        /* \"#utility.yul\":14972:14976   */\n      0xc0\n        /* \"#utility.yul\":14967:14970   */\n      dup7\n        /* \"#utility.yul\":14963:14977   */\n      add\n        /* \"#utility.yul\":14956:14994   */\n      mstore\n        /* \"#utility.yul\":15015:15088   */\n      tag_642\n        /* \"#utility.yul\":15083:15087   */\n      dup3\n        /* \"#utility.yul\":15069:15081   */\n      dup3\n        /* \"#utility.yul\":15015:15088   */\n      tag_473\n      jump\t// in\n    tag_642:\n        /* \"#utility.yul\":15007:15088   */\n      swap2\n      pop\n        /* \"#utility.yul\":14855:15099   */\n      pop\n        /* \"#utility.yul\":15197:15201   */\n      0xe0\n        /* \"#utility.yul\":15190:15195   */\n      dup4\n        /* \"#utility.yul\":15186:15202   */\n      add\n        /* \"#utility.yul\":15180:15203   */\n      mload\n        /* \"#utility.yul\":15250:15253   */\n      dup5\n        /* \"#utility.yul\":15244:15248   */\n      dup3\n        /* \"#utility.yul\":15240:15254   */\n      sub\n        /* \"#utility.yul\":15233:15237   */\n      0xe0\n        /* \"#utility.yul\":15228:15231   */\n      dup7\n        /* \"#utility.yul\":15224:15238   */\n      add\n        /* \"#utility.yul\":15217:15255   */\n      mstore\n        /* \"#utility.yul\":15276:15349   */\n      tag_643\n        /* \"#utility.yul\":15344:15348   */\n      dup3\n        /* \"#utility.yul\":15330:15342   */\n      dup3\n        /* \"#utility.yul\":15276:15349   */\n      tag_473\n      jump\t// in\n    tag_643:\n        /* \"#utility.yul\":15268:15349   */\n      swap2\n      pop\n        /* \"#utility.yul\":15109:15360   */\n      pop\n        /* \"#utility.yul\":15456:15462   */\n      0x0100\n        /* \"#utility.yul\":15449:15454   */\n      dup4\n        /* \"#utility.yul\":15445:15463   */\n      add\n        /* \"#utility.yul\":15439:15464   */\n      mload\n        /* \"#utility.yul\":15513:15516   */\n      dup5\n        /* \"#utility.yul\":15507:15511   */\n      dup3\n        /* \"#utility.yul\":15503:15517   */\n      sub\n        /* \"#utility.yul\":15494:15500   */\n      0x0100\n        /* \"#utility.yul\":15489:15492   */\n      dup7\n        /* \"#utility.yul\":15485:15501   */\n      add\n        /* \"#utility.yul\":15478:15518   */\n      mstore\n        /* \"#utility.yul\":15539:15612   */\n      tag_644\n        /* \"#utility.yul\":15607:15611   */\n      dup3\n        /* \"#utility.yul\":15593:15605   */\n      dup3\n        /* \"#utility.yul\":15539:15612   */\n      tag_473\n      jump\t// in\n    tag_644:\n        /* \"#utility.yul\":15531:15612   */\n      swap2\n      pop\n        /* \"#utility.yul\":15370:15623   */\n      pop\n        /* \"#utility.yul\":15715:15721   */\n      0x0120\n        /* \"#utility.yul\":15708:15713   */\n      dup4\n        /* \"#utility.yul\":15704:15722   */\n      add\n        /* \"#utility.yul\":15698:15723   */\n      mload\n        /* \"#utility.yul\":15772:15775   */\n      dup5\n        /* \"#utility.yul\":15766:15770   */\n      dup3\n        /* \"#utility.yul\":15762:15776   */\n      sub\n        /* \"#utility.yul\":15753:15759   */\n      0x0120\n        /* \"#utility.yul\":15748:15751   */\n      dup7\n        /* \"#utility.yul\":15744:15760   */\n      add\n        /* \"#utility.yul\":15737:15777   */\n      mstore\n        /* \"#utility.yul\":15798:15871   */\n      tag_645\n        /* \"#utility.yul\":15866:15870   */\n      dup3\n        /* \"#utility.yul\":15852:15864   */\n      dup3\n        /* \"#utility.yul\":15798:15871   */\n      tag_473\n      jump\t// in\n    tag_645:\n        /* \"#utility.yul\":15790:15871   */\n      swap2\n      pop\n        /* \"#utility.yul\":15633:15882   */\n      pop\n        /* \"#utility.yul\":15899:15903   */\n      dup1\n        /* \"#utility.yul\":15892:15903   */\n      swap2\n      pop\n        /* \"#utility.yul\":13496:15909   */\n      pop\n        /* \"#utility.yul\":13376:15909   */\n      swap3\n      swap2\n      pop\n      pop\n      jump\t// out\n        /* \"#utility.yul\":15915:16280   */\n    tag_40:\n        /* \"#utility.yul\":16054:16058   */\n      0x00\n        /* \"#utility.yul\":16092:16094   */\n      0x20\n        /* \"#utility.yul\":16081:16090   */\n      dup3\n        /* \"#utility.yul\":16077:16095   */\n      add\n        /* \"#utility.yul\":16069:16095   */\n      swap1\n      pop\n        /* \"#utility.yul\":16141:16150   */\n      dup2\n        /* \"#utility.yul\":16135:16139   */\n      dup2\n        /* \"#utility.yul\":16131:16151   */\n      sub\n        /* \"#utility.yul\":16127:16128   */\n      0x00\n        /* \"#utility.yul\":16116:16125   */\n      dup4\n        /* \"#utility.yul\":16112:16129   */\n      add\n        /* \"#utility.yul\":16105:16152   */\n      mstore\n        /* \"#utility.yul\":16169:16273   */\n      tag_647\n        /* \"#utility.yul\":16268:16272   */\n      dup2\n        /* \"#utility.yul\":16259:16265   */\n      dup5\n        /* \"#utility.yul\":16169:16273   */\n      tag_478\n      jump\t// in\n    tag_647:\n        /* \"#utility.yul\":16161:16273   */\n      swap1\n      pop\n        /* \"#utility.yul\":15915:16280   */\n      swap3\n      swap2\n      pop\n      pop\n      jump\t// out\n        /* \"#utility.yul\":16286:16760   */\n    tag_43:\n        /* \"#utility.yul\":16354:16360   */\n      0x00\n        /* \"#utility.yul\":16362:16368   */\n      dup1\n        /* \"#utility.yul\":16411:16413   */\n      0x40\n        /* \"#utility.yul\":16399:16408   */\n      dup4\n        /* \"#utility.yul\":16390:16397   */\n      dup6\n        /* \"#utility.yul\":16386:16409   */\n      sub\n        /* \"#utility.yul\":16382:16414   */\n      slt\n        /* \"#utility.yul\":16379:16498   */\n      iszero\n      tag_649\n      jumpi\n        /* \"#utility.yul\":16417:16496   */\n      tag_650\n      tag_448\n      jump\t// in\n    tag_650:\n        /* \"#utility.yul\":16379:16498   */\n    tag_649:\n        /* \"#utility.yul\":16537:16538   */\n      0x00\n        /* \"#utility.yul\":16562:16615   */\n      tag_651\n        /* \"#utility.yul\":16607:16614   */\n      dup6\n        /* \"#utility.yul\":16598:16604   */\n      dup3\n        /* \"#utility.yul\":16587:16596   */\n      dup7\n        /* \"#utility.yul\":16583:16605   */\n      add\n        /* \"#utility.yul\":16562:16615   */\n      tag_452\n      jump\t// in\n    tag_651:\n        /* \"#utility.yul\":16552:16615   */\n      swap3\n      pop\n        /* \"#utility.yul\":16508:16625   */\n      pop\n        /* \"#utility.yul\":16664:16666   */\n      0x20\n        /* \"#utility.yul\":16690:16743   */\n      tag_652\n        /* \"#utility.yul\":16735:16742   */\n      dup6\n        /* \"#utility.yul\":16726:16732   */\n      dup3\n        /* \"#utility.yul\":16715:16724   */\n      dup7\n        /* \"#utility.yul\":16711:16733   */\n      add\n        /* \"#utility.yul\":16690:16743   */\n      tag_452\n      jump\t// in\n    tag_652:\n        /* \"#utility.yul\":16680:16743   */\n      swap2\n      pop\n        /* \"#utility.yul\":16635:16753   */\n      pop\n        /* \"#utility.yul\":16286:16760   */\n      swap3\n      pop\n      swap3\n      swap1\n      pop\n      jump\t// out\n        /* \"#utility.yul\":16766:18869   */\n    tag_47:\n        /* \"#utility.yul\":16929:16935   */\n      0x00\n        /* \"#utility.yul\":16937:16943   */\n      dup1\n        /* \"#utility.yul\":16945:16951   */\n      0x00\n        /* \"#utility.yul\":16953:16959   */\n      dup1\n        /* \"#utility.yul\":16961:16967   */\n      0x00\n        /* \"#utility.yul\":16969:16975   */\n      dup1\n        /* \"#utility.yul\":16977:16983   */\n      0x00\n        /* \"#utility.yul\":17026:17029   */\n      0xe0\n        /* \"#utility.yul\":17014:17023   */\n      dup9\n        /* \"#utility.yul\":17005:17012   */\n      dup11\n        /* \"#utility.yul\":17001:17024   */\n      sub\n        /* \"#utility.yul\":16997:17030   */\n      slt\n        /* \"#utility.yul\":16994:17114   */\n      iszero\n      tag_654\n      jumpi\n        /* \"#utility.yul\":17033:17112   */\n      tag_655\n      tag_448\n      jump\t// in\n    tag_655:\n        /* \"#utility.yul\":16994:17114   */\n    tag_654:\n        /* \"#utility.yul\":17181:17182   */\n      0x00\n        /* \"#utility.yul\":17170:17179   */\n      dup9\n        /* \"#utility.yul\":17166:17183   */\n      add\n        /* \"#utility.yul\":17153:17184   */\n      calldataload\n        /* \"#utility.yul\":17211:17229   */\n      0xffffffffffffffff\n        /* \"#utility.yul\":17203:17209   */\n      dup2\n        /* \"#utility.yul\":17200:17230   */\n      gt\n        /* \"#utility.yul\":17197:17314   */\n      iszero\n      tag_656\n      jumpi\n        /* \"#utility.yul\":17233:17312   */\n      tag_657\n      tag_449\n      jump\t// in\n    tag_657:\n        /* \"#utility.yul\":17197:17314   */\n    tag_656:\n        /* \"#utility.yul\":17338:17401   */\n      tag_658\n        /* \"#utility.yul\":17393:17400   */\n      dup11\n        /* \"#utility.yul\":17384:17390   */\n      dup3\n        /* \"#utility.yul\":17373:17382   */\n      dup12\n        /* \"#utility.yul\":17369:17391   */\n      add\n        /* \"#utility.yul\":17338:17401   */\n      tag_467\n      jump\t// in\n    tag_658:\n        /* \"#utility.yul\":17328:17401   */\n      swap8\n      pop\n        /* \"#utility.yul\":17124:17411   */\n      pop\n        /* \"#utility.yul\":17478:17480   */\n      0x20\n        /* \"#utility.yul\":17467:17476   */\n      dup9\n        /* \"#utility.yul\":17463:17481   */\n      add\n        /* \"#utility.yul\":17450:17482   */\n      calldataload\n        /* \"#utility.yul\":17509:17527   */\n      0xffffffffffffffff\n        /* \"#utility.yul\":17501:17507   */\n      dup2\n        /* \"#utility.yul\":17498:17528   */\n      gt\n        /* \"#utility.yul\":17495:17612   */\n      iszero\n      tag_659\n      jumpi\n        /* \"#utility.yul\":17531:17610   */\n      tag_660\n      tag_449\n      jump\t// in\n    tag_660:\n        /* \"#utility.yul\":17495:17612   */\n    tag_659:\n        /* \"#utility.yul\":17636:17699   */\n      tag_661\n        /* \"#utility.yul\":17691:17698   */\n      dup11\n        /* \"#utility.yul\":17682:17688   */\n      dup3\n        /* \"#utility.yul\":17671:17680   */\n      dup12\n        /* \"#utility.yul\":17667:17689   */\n      add\n        /* \"#utility.yul\":17636:17699   */\n      tag_467\n      jump\t// in\n    tag_661:\n        /* \"#utility.yul\":17626:17699   */\n      swap7\n      pop\n        /* \"#utility.yul\":17421:17709   */\n      pop\n        /* \"#utility.yul\":17776:17778   */\n      0x40\n        /* \"#utility.yul\":17765:17774   */\n      dup9\n        /* \"#utility.yul\":17761:17779   */\n      add\n        /* \"#utility.yul\":17748:17780   */\n      calldataload\n        /* \"#utility.yul\":17807:17825   */\n      0xffffffffffffffff\n        /* \"#utility.yul\":17799:17805   */\n      dup2\n        /* \"#utility.yul\":17796:17826   */\n      gt\n        /* \"#utility.yul\":17793:17910   */\n      iszero\n      tag_662\n      jumpi\n        /* \"#utility.yul\":17829:17908   */\n      tag_663\n      tag_449\n      jump\t// in\n    tag_663:\n        /* \"#utility.yul\":17793:17910   */\n    tag_662:\n        /* \"#utility.yul\":17934:17997   */\n      tag_664\n        /* \"#utility.yul\":17989:17996   */\n      dup11\n        /* \"#utility.yul\":17980:17986   */\n      dup3\n        /* \"#utility.yul\":17969:17978   */\n      dup12\n        /* \"#utility.yul\":17965:17987   */\n      add\n        /* \"#utility.yul\":17934:17997   */\n      tag_467\n      jump\t// in\n    tag_664:\n        /* \"#utility.yul\":17924:17997   */\n      swap6\n      pop\n        /* \"#utility.yul\":17719:18007   */\n      pop\n        /* \"#utility.yul\":18046:18048   */\n      0x60\n        /* \"#utility.yul\":18072:18125   */\n      tag_665\n        /* \"#utility.yul\":18117:18124   */\n      dup11\n        /* \"#utility.yul\":18108:18114   */\n      dup3\n        /* \"#utility.yul\":18097:18106   */\n      dup12\n        /* \"#utility.yul\":18093:18115   */\n      add\n        /* \"#utility.yul\":18072:18125   */\n      tag_452\n      jump\t// in\n    tag_665:\n        /* \"#utility.yul\":18062:18125   */\n      swap5\n      pop\n        /* \"#utility.yul\":18017:18135   */\n      pop\n        /* \"#utility.yul\":18174:18177   */\n      0x80\n        /* \"#utility.yul\":18201:18254   */\n      tag_666\n        /* \"#utility.yul\":18246:18253   */\n      dup11\n        /* \"#utility.yul\":18237:18243   */\n      dup3\n        /* \"#utility.yul\":18226:18235   */\n      dup12\n        /* \"#utility.yul\":18222:18244   */\n      add\n        /* \"#utility.yul\":18201:18254   */\n      tag_452\n      jump\t// in\n    tag_666:\n        /* \"#utility.yul\":18191:18254   */\n      swap4\n      pop\n        /* \"#utility.yul\":18145:18264   */\n      pop\n        /* \"#utility.yul\":18331:18334   */\n      0xa0\n        /* \"#utility.yul\":18320:18329   */\n      dup9\n        /* \"#utility.yul\":18316:18335   */\n      add\n        /* \"#utility.yul\":18303:18336   */\n      calldataload\n        /* \"#utility.yul\":18363:18381   */\n      0xffffffffffffffff\n        /* \"#utility.yul\":18355:18361   */\n      dup2\n        /* \"#utility.yul\":18352:18382   */\n      gt\n        /* \"#utility.yul\":18349:18466   */\n      iszero\n      tag_667\n      jumpi\n        /* \"#utility.yul\":18385:18464   */\n      tag_668\n      tag_449\n      jump\t// in\n    tag_668:\n        /* \"#utility.yul\":18349:18466   */\n    tag_667:\n        /* \"#utility.yul\":18490:18553   */\n      tag_669\n        /* \"#utility.yul\":18545:18552   */\n      dup11\n        /* \"#utility.yul\":18536:18542   */\n      dup3\n        /* \"#utility.yul\":18525:18534   */\n      dup12\n        /* \"#utility.yul\":18521:18543   */\n      add\n        /* \"#utility.yul\":18490:18553   */\n      tag_467\n      jump\t// in\n    tag_669:\n        /* \"#utility.yul\":18480:18553   */\n      swap3\n      pop\n        /* \"#utility.yul\":18274:18563   */\n      pop\n        /* \"#utility.yul\":18630:18633   */\n      0xc0\n        /* \"#utility.yul\":18619:18628   */\n      dup9\n        /* \"#utility.yul\":18615:18634   */\n      add\n        /* \"#utility.yul\":18602:18635   */\n      calldataload\n        /* \"#utility.yul\":18662:18680   */\n      0xffffffffffffffff\n        /* \"#utility.yul\":18654:18660   */\n      dup2\n        /* \"#utility.yul\":18651:18681   */\n      gt\n        /* \"#utility.yul\":18648:18765   */\n      iszero\n      tag_670\n      jumpi\n        /* \"#utility.yul\":18684:18763   */\n      tag_671\n      tag_449\n      jump\t// in\n    tag_671:\n        /* \"#utility.yul\":18648:18765   */\n    tag_670:\n        /* \"#utility.yul\":18789:18852   */\n      tag_672\n        /* \"#utility.yul\":18844:18851   */\n      dup11\n        /* \"#utility.yul\":18835:18841   */\n      dup3\n        /* \"#utility.yul\":18824:18833   */\n      dup12\n        /* \"#utility.yul\":18820:18842   */\n      add\n        /* \"#utility.yul\":18789:18852   */\n      tag_467\n      jump\t// in\n    tag_672:\n        /* \"#utility.yul\":18779:18852   */\n      swap2\n      pop\n        /* \"#utility.yul\":18573:18862   */\n      pop\n        /* \"#utility.yul\":16766:18869   */\n      swap3\n      swap6\n      swap9\n      swap2\n      swap5\n      swap8\n      pop\n      swap3\n      swap6\n      pop\n      jump\t// out\n        /* \"#utility.yul\":18875:19001   */\n    tag_479:\n        /* \"#utility.yul\":18912:18919   */\n      0x00\n        /* \"#utility.yul\":18952:18994   */\n      0xffffffffffffffffffffffffffffffffffffffff\n        /* \"#utility.yul\":18945:18950   */\n      dup3\n        /* \"#utility.yul\":18941:18995   */\n      and\n        /* \"#utility.yul\":18930:18995   */\n      swap1\n      pop\n        /* \"#utility.yul\":18875:19001   */\n      swap2\n      swap1\n      pop\n      jump\t// out\n        /* \"#utility.yul\":19007:19103   */\n    tag_480:\n        /* \"#utility.yul\":19044:19051   */\n      0x00\n        /* \"#utility.yul\":19073:19097   */\n      tag_675\n        /* \"#utility.yul\":19091:19096   */\n      dup3\n        /* \"#utility.yul\":19073:19097   */\n      tag_479\n      jump\t// in\n    tag_675:\n        /* \"#utility.yul\":19062:19097   */\n      swap1\n      pop\n        /* \"#utility.yul\":19007:19103   */\n      swap2\n      swap1\n      pop\n      jump\t// out\n        /* \"#utility.yul\":19109:19227   */\n    tag_481:\n        /* \"#utility.yul\":19196:19220   */\n      tag_677\n        /* \"#utility.yul\":19214:19219   */\n      dup2\n        /* \"#utility.yul\":19196:19220   */\n      tag_480\n      jump\t// in\n    tag_677:\n        /* \"#utility.yul\":19191:19194   */\n      dup3\n        /* \"#utility.yul\":19184:19221   */\n      mstore\n        /* \"#utility.yul\":19109:19227   */\n      pop\n      pop\n      jump\t// out\n        /* \"#utility.yul\":19233:19455   */\n    tag_52:\n        /* \"#utility.yul\":19326:19330   */\n      0x00\n        /* \"#utility.yul\":19364:19366   */\n      0x20\n        /* \"#utility.yul\":19353:19362   */\n      dup3\n        /* \"#utility.yul\":19349:19367   */\n      add\n        /* \"#utility.yul\":19341:19367   */\n      swap1\n      pop\n        /* \"#utility.yul\":19377:19448   */\n      tag_679\n        /* \"#utility.yul\":19445:19446   */\n      0x00\n        /* \"#utility.yul\":19434:19443   */\n      dup4\n        /* \"#utility.yul\":19430:19447   */\n      add\n        /* \"#utility.yul\":19421:19427   */\n      dup5\n        /* \"#utility.yul\":19377:19448   */\n      tag_481\n      jump\t// in\n    tag_679:\n        /* \"#utility.yul\":19233:19455   */\n      swap3\n      swap2\n      pop\n      pop\n      jump\t// out\n        /* \"#utility.yul\":19461:20115   */\n    tag_55:\n        /* \"#utility.yul\":19539:19545   */\n      0x00\n        /* \"#utility.yul\":19547:19553   */\n      dup1\n        /* \"#utility.yul\":19596:19598   */\n      0x40\n        /* \"#utility.yul\":19584:19593   */\n      dup4\n        /* \"#utility.yul\":19575:19582   */\n      dup6\n        /* \"#utility.yul\":19571:19594   */\n      sub\n        /* \"#utility.yul\":19567:19599   */\n      slt\n        /* \"#utility.yul\":19564:19683   */\n      iszero\n      tag_681\n      jumpi\n        /* \"#utility.yul\":19602:19681   */\n      tag_682\n      tag_448\n      jump\t// in\n    tag_682:\n        /* \"#utility.yul\":19564:19683   */\n    tag_681:\n        /* \"#utility.yul\":19722:19723   */\n      0x00\n        /* \"#utility.yul\":19747:19800   */\n      tag_683\n        /* \"#utility.yul\":19792:19799   */\n      dup6\n        /* \"#utility.yul\":19783:19789   */\n      dup3\n        /* \"#utility.yul\":19772:19781   */\n      dup7\n        /* \"#utility.yul\":19768:19790   */\n      add\n        /* \"#utility.yul\":19747:19800   */\n      tag_452\n      jump\t// in\n    tag_683:\n        /* \"#utility.yul\":19737:19800   */\n      swap3\n      pop\n        /* \"#utility.yul\":19693:19810   */\n      pop\n        /* \"#utility.yul\":19877:19879   */\n      0x20\n        /* \"#utility.yul\":19866:19875   */\n      dup4\n        /* \"#utility.yul\":19862:19880   */\n      add\n        /* \"#utility.yul\":19849:19881   */\n      calldataload\n        /* \"#utility.yul\":19908:19926   */\n      0xffffffffffffffff\n        /* \"#utility.yul\":19900:19906   */\n      dup2\n        /* \"#utility.yul\":19897:19927   */\n      gt\n        /* \"#utility.yul\":19894:20011   */\n      iszero\n      tag_684\n      jumpi\n        /* \"#utility.yul\":19930:20009   */\n      tag_685\n      tag_449\n      jump\t// in\n    tag_685:\n        /* \"#utility.yul\":19894:20011   */\n    tag_684:\n        /* \"#utility.yul\":20035:20098   */\n      tag_686\n        /* \"#utility.yul\":20090:20097   */\n      dup6\n        /* \"#utility.yul\":20081:20087   */\n      dup3\n        /* \"#utility.yul\":20070:20079   */\n      dup7\n        /* \"#utility.yul\":20066:20088   */\n      add\n        /* \"#utility.yul\":20035:20098   */\n      tag_467\n      jump\t// in\n    tag_686:\n        /* \"#utility.yul\":20025:20098   */\n      swap2\n      pop\n        /* \"#utility.yul\":19820:20108   */\n      pop\n        /* \"#utility.yul\":19461:20115   */\n      swap3\n      pop\n      swap3\n      swap1\n      pop\n      jump\t// out\n        /* \"#utility.yul\":20121:20343   */\n    tag_68:\n        /* \"#utility.yul\":20214:20218   */\n      0x00\n        /* \"#utility.yul\":20252:20254   */\n      0x20\n        /* \"#utility.yul\":20241:20250   */\n      dup3\n        /* \"#utility.yul\":20237:20255   */\n      add\n        /* \"#utility.yul\":20229:20255   */\n      swap1\n      pop\n        /* \"#utility.yul\":20265:20336   */\n      tag_688\n        /* \"#utility.yul\":20333:20334   */\n      0x00\n        /* \"#utility.yul\":20322:20331   */\n      dup4\n        /* \"#utility.yul\":20318:20335   */\n      add\n        /* \"#utility.yul\":20309:20315   */\n      dup5\n        /* \"#utility.yul\":20265:20336   */\n      tag_453\n      jump\t// in\n    tag_688:\n        /* \"#utility.yul\":20121:20343   */\n      swap3\n      swap2\n      pop\n      pop\n      jump\t// out\n        /* \"#utility.yul\":20349:20529   */\n    tag_482:\n        /* \"#utility.yul\":20397:20474   */\n      0x4e487b7100000000000000000000000000000000000000000000000000000000\n        /* \"#utility.yul\":20394:20395   */\n      0x00\n        /* \"#utility.yul\":20387:20475   */\n      mstore\n        /* \"#utility.yul\":20494:20498   */\n      0x22\n        /* \"#utility.yul\":20491:20492   */\n      0x04\n        /* \"#utility.yul\":20484:20499   */\n      mstore\n        /* \"#utility.yul\":20518:20522   */\n      0x24\n        /* \"#utility.yul\":20515:20516   */\n      0x00\n        /* \"#utility.yul\":20508:20523   */\n      revert\n        /* \"#utility.yul\":20535:20855   */\n    tag_72:\n        /* \"#utility.yul\":20579:20585   */\n      0x00\n        /* \"#utility.yul\":20616:20617   */\n      0x02\n        /* \"#utility.yul\":20610:20614   */\n      dup3\n        /* \"#utility.yul\":20606:20618   */\n      div\n        /* \"#utility.yul\":20596:20618   */\n      swap1\n      pop\n        /* \"#utility.yul\":20663:20664   */\n      0x01\n        /* \"#utility.yul\":20657:20661   */\n      dup3\n        /* \"#utility.yul\":20653:20665   */\n      and\n        /* \"#utility.yul\":20684:20702   */\n      dup1\n        /* \"#utility.yul\":20674:20755   */\n      tag_691\n      jumpi\n        /* \"#utility.yul\":20740:20744   */\n      0x7f\n        /* \"#utility.yul\":20732:20738   */\n      dup3\n        /* \"#utility.yul\":20728:20745   */\n      and\n        /* \"#utility.yul\":20718:20745   */\n      swap2\n      pop\n        /* \"#utility.yul\":20674:20755   */\n    tag_691:\n        /* \"#utility.yul\":20802:20804   */\n      0x20\n        /* \"#utility.yul\":20794:20800   */\n      dup3\n        /* \"#utility.yul\":20791:20805   */\n      lt\n        /* \"#utility.yul\":20771:20789   */\n      dup2\n        /* \"#utility.yul\":20768:20806   */\n      sub\n        /* \"#utility.yul\":20765:20849   */\n      tag_692\n      jumpi\n        /* \"#utility.yul\":20821:20839   */\n      tag_693\n      tag_482\n      jump\t// in\n    tag_693:\n        /* \"#utility.yul\":20765:20849   */\n    tag_692:\n        /* \"#utility.yul\":20586:20855   */\n      pop\n        /* \"#utility.yul\":20535:20855   */\n      swap2\n      swap1\n      pop\n      jump\t// out\n        /* \"#utility.yul\":20861:21009   */\n    tag_483:\n        /* \"#utility.yul\":20963:20974   */\n      0x00\n        /* \"#utility.yul\":21000:21003   */\n      dup2\n        /* \"#utility.yul\":20985:21003   */\n      swap1\n      pop\n        /* \"#utility.yul\":20861:21009   */\n      swap3\n      swap2\n      pop\n      pop\n      jump\t// out\n        /* \"#utility.yul\":21015:21405   */\n    tag_484:\n        /* \"#utility.yul\":21121:21124   */\n      0x00\n        /* \"#utility.yul\":21149:21188   */\n      tag_696\n        /* \"#utility.yul\":21182:21187   */\n      dup3\n        /* \"#utility.yul\":21149:21188   */\n      tag_454\n      jump\t// in\n    tag_696:\n        /* \"#utility.yul\":21204:21293   */\n      tag_697\n        /* \"#utility.yul\":21286:21292   */\n      dup2\n        /* \"#utility.yul\":21281:21284   */\n      dup6\n        /* \"#utility.yul\":21204:21293   */\n      tag_483\n      jump\t// in\n    tag_697:\n        /* \"#utility.yul\":21197:21293   */\n      swap4\n      pop\n        /* \"#utility.yul\":21302:21367   */\n      tag_698\n        /* \"#utility.yul\":21360:21366   */\n      dup2\n        /* \"#utility.yul\":21355:21358   */\n      dup6\n        /* \"#utility.yul\":21348:21352   */\n      0x20\n        /* \"#utility.yul\":21341:21346   */\n      dup7\n        /* \"#utility.yul\":21337:21353   */\n      add\n        /* \"#utility.yul\":21302:21367   */\n      tag_456\n      jump\t// in\n    tag_698:\n        /* \"#utility.yul\":21392:21398   */\n      dup1\n        /* \"#utility.yul\":21387:21390   */\n      dup5\n        /* \"#utility.yul\":21383:21399   */\n      add\n        /* \"#utility.yul\":21376:21399   */\n      swap2\n      pop\n        /* \"#utility.yul\":21125:21405   */\n      pop\n        /* \"#utility.yul\":21015:21405   */\n      swap3\n      swap2\n      pop\n      pop\n      jump\t// out\n        /* \"#utility.yul\":21411:21686   */\n    tag_112:\n        /* \"#utility.yul\":21543:21546   */\n      0x00\n        /* \"#utility.yul\":21565:21660   */\n      tag_700\n        /* \"#utility.yul\":21656:21659   */\n      dup3\n        /* \"#utility.yul\":21647:21653   */\n      dup5\n        /* \"#utility.yul\":21565:21660   */\n      tag_484\n      jump\t// in\n    tag_700:\n        /* \"#utility.yul\":21558:21660   */\n      swap2\n      pop\n        /* \"#utility.yul\":21677:21680   */\n      dup2\n        /* \"#utility.yul\":21670:21680   */\n      swap1\n      pop\n        /* \"#utility.yul\":21411:21686   */\n      swap3\n      swap2\n      pop\n      pop\n      jump\t// out\n        /* \"#utility.yul\":21692:21872   */\n    tag_115:\n        /* \"#utility.yul\":21740:21817   */\n      0x4e487b7100000000000000000000000000000000000000000000000000000000\n        /* \"#utility.yul\":21737:21738   */\n      0x00\n        /* \"#utility.yul\":21730:21818   */\n      mstore\n        /* \"#utility.yul\":21837:21841   */\n      0x32\n        /* \"#utility.yul\":21834:21835   */\n      0x04\n        /* \"#utility.yul\":21827:21842   */\n      mstore\n        /* \"#utility.yul\":21861:21865   */\n      0x24\n        /* \"#utility.yul\":21858:21859   */\n      0x00\n        /* \"#utility.yul\":21851:21866   */\n      revert\n        /* \"#utility.yul\":21878:22019   */\n    tag_485:\n        /* \"#utility.yul\":21927:21931   */\n      0x00\n        /* \"#utility.yul\":21950:21953   */\n      dup2\n        /* \"#utility.yul\":21942:21953   */\n      swap1\n      pop\n        /* \"#utility.yul\":21973:21976   */\n      dup2\n        /* \"#utility.yul\":21970:21971   */\n      0x00\n        /* \"#utility.yul\":21963:21977   */\n      mstore\n        /* \"#utility.yul\":22007:22011   */\n      0x20\n        /* \"#utility.yul\":22004:22005   */\n      0x00\n        /* \"#utility.yul\":21994:22012   */\n      keccak256\n        /* \"#utility.yul\":21986:22012   */\n      swap1\n      pop\n        /* \"#utility.yul\":21878:22019   */\n      swap2\n      swap1\n      pop\n      jump\t// out\n        /* \"#utility.yul\":22049:22923   */\n    tag_486:\n        /* \"#utility.yul\":22152:22155   */\n      0x00\n        /* \"#utility.yul\":22189:22194   */\n      dup2\n        /* \"#utility.yul\":22183:22195   */\n      sload\n        /* \"#utility.yul\":22218:22254   */\n      tag_704\n        /* \"#utility.yul\":22244:22253   */\n      dup2\n        /* \"#utility.yul\":22218:22254   */\n      tag_72\n      jump\t// in\n    tag_704:\n        /* \"#utility.yul\":22270:22359   */\n      tag_705\n        /* \"#utility.yul\":22352:22358   */\n      dup2\n        /* \"#utility.yul\":22347:22350   */\n      dup7\n        /* \"#utility.yul\":22270:22359   */\n      tag_483\n      jump\t// in\n    tag_705:\n        /* \"#utility.yul\":22263:22359   */\n      swap5\n      pop\n        /* \"#utility.yul\":22390:22391   */\n      0x01\n        /* \"#utility.yul\":22379:22388   */\n      dup3\n        /* \"#utility.yul\":22375:22392   */\n      and\n        /* \"#utility.yul\":22406:22407   */\n      0x00\n        /* \"#utility.yul\":22401:22567   */\n      dup2\n      eq\n      tag_707\n      jumpi\n        /* \"#utility.yul\":22581:22582   */\n      0x01\n        /* \"#utility.yul\":22576:22917   */\n      dup2\n      eq\n      tag_708\n      jumpi\n        /* \"#utility.yul\":22368:22917   */\n      jump(tag_706)\n        /* \"#utility.yul\":22401:22567   */\n    tag_707:\n        /* \"#utility.yul\":22485:22489   */\n      0xff\n        /* \"#utility.yul\":22481:22490   */\n      not\n        /* \"#utility.yul\":22470:22479   */\n      dup4\n        /* \"#utility.yul\":22466:22491   */\n      and\n        /* \"#utility.yul\":22461:22464   */\n      dup7\n        /* \"#utility.yul\":22454:22492   */\n      mstore\n        /* \"#utility.yul\":22547:22553   */\n      dup2\n        /* \"#utility.yul\":22540:22554   */\n      iszero\n        /* \"#utility.yul\":22533:22555   */\n      iszero\n        /* \"#utility.yul\":22525:22531   */\n      dup3\n        /* \"#utility.yul\":22521:22556   */\n      mul\n        /* \"#utility.yul\":22516:22519   */\n      dup7\n        /* \"#utility.yul\":22512:22557   */\n      add\n        /* \"#utility.yul\":22505:22557   */\n      swap4\n      pop\n        /* \"#utility.yul\":22401:22567   */\n      jump(tag_706)\n        /* \"#utility.yul\":22576:22917   */\n    tag_708:\n        /* \"#utility.yul\":22643:22681   */\n      tag_709\n        /* \"#utility.yul\":22675:22680   */\n      dup6\n        /* \"#utility.yul\":22643:22681   */\n      tag_485\n      jump\t// in\n    tag_709:\n        /* \"#utility.yul\":22703:22704   */\n      0x00\n        /* \"#utility.yul\":22717:22871   */\n    tag_710:\n        /* \"#utility.yul\":22731:22737   */\n      dup4\n        /* \"#utility.yul\":22728:22729   */\n      dup2\n        /* \"#utility.yul\":22725:22738   */\n      lt\n        /* \"#utility.yul\":22717:22871   */\n      iszero\n      tag_712\n      jumpi\n        /* \"#utility.yul\":22805:22812   */\n      dup2\n        /* \"#utility.yul\":22799:22813   */\n      sload\n        /* \"#utility.yul\":22795:22796   */\n      dup2\n        /* \"#utility.yul\":22790:22793   */\n      dup10\n        /* \"#utility.yul\":22786:22797   */\n      add\n        /* \"#utility.yul\":22779:22814   */\n      mstore\n        /* \"#utility.yul\":22855:22856   */\n      0x01\n        /* \"#utility.yul\":22846:22853   */\n      dup3\n        /* \"#utility.yul\":22842:22857   */\n      add\n        /* \"#utility.yul\":22831:22857   */\n      swap2\n      pop\n        /* \"#utility.yul\":22753:22757   */\n      0x20\n        /* \"#utility.yul\":22750:22751   */\n      dup2\n        /* \"#utility.yul\":22746:22758   */\n      add\n        /* \"#utility.yul\":22741:22758   */\n      swap1\n      pop\n        /* \"#utility.yul\":22717:22871   */\n      jump(tag_710)\n    tag_712:\n        /* \"#utility.yul\":22900:22906   */\n      dup4\n        /* \"#utility.yul\":22895:22898   */\n      dup9\n        /* \"#utility.yul\":22891:22907   */\n      add\n        /* \"#utility.yul\":22884:22907   */\n      swap6\n      pop\n        /* \"#utility.yul\":22583:22917   */\n      pop\n      pop\n        /* \"#utility.yul\":22368:22917   */\n    tag_706:\n      pop\n        /* \"#utility.yul\":22156:22923   */\n      pop\n      pop\n        /* \"#utility.yul\":22049:22923   */\n      swap3\n      swap2\n      pop\n      pop\n      jump\t// out\n        /* \"#utility.yul\":22929:23198   */\n    tag_118:\n        /* \"#utility.yul\":23058:23061   */\n      0x00\n        /* \"#utility.yul\":23080:23172   */\n      tag_714\n        /* \"#utility.yul\":23168:23171   */\n      dup3\n        /* \"#utility.yul\":23159:23165   */\n      dup5\n        /* \"#utility.yul\":23080:23172   */\n      tag_486\n      jump\t// in\n    tag_714:\n        /* \"#utility.yul\":23073:23172   */\n      swap2\n      pop\n        /* \"#utility.yul\":23189:23192   */\n      dup2\n        /* \"#utility.yul\":23182:23192   */\n      swap1\n      pop\n        /* \"#utility.yul\":22929:23198   */\n      swap3\n      swap2\n      pop\n      pop\n      jump\t// out\n        /* \"#utility.yul\":23204:23384   */\n    tag_487:\n        /* \"#utility.yul\":23252:23329   */\n      0x4e487b7100000000000000000000000000000000000000000000000000000000\n        /* \"#utility.yul\":23249:23250   */\n      0x00\n        /* \"#utility.yul\":23242:23330   */\n      mstore\n        /* \"#utility.yul\":23349:23353   */\n      0x11\n        /* \"#utility.yul\":23346:23347   */\n      0x04\n        /* \"#utility.yul\":23339:23354   */\n      mstore\n        /* \"#utility.yul\":23373:23377   */\n      0x24\n        /* \"#utility.yul\":23370:23371   */\n      0x00\n        /* \"#utility.yul\":23363:23378   */\n      revert\n        /* \"#utility.yul\":23390:23623   */\n    tag_161:\n        /* \"#utility.yul\":23429:23432   */\n      0x00\n        /* \"#utility.yul\":23452:23476   */\n      tag_717\n        /* \"#utility.yul\":23470:23475   */\n      dup3\n        /* \"#utility.yul\":23452:23476   */\n      tag_450\n      jump\t// in\n    tag_717:\n        /* \"#utility.yul\":23443:23476   */\n      swap2\n      pop\n        /* \"#utility.yul\":23498:23564   */\n      0xffffffffffffffffffffffffffffffffffffffffffffffffffffffffffffffff\n        /* \"#utility.yul\":23491:23496   */\n      dup3\n        /* \"#utility.yul\":23488:23565   */\n      sub\n        /* \"#utility.yul\":23485:23588   */\n      tag_718\n      jumpi\n        /* \"#utility.yul\":23568:23586   */\n      tag_719\n      tag_487\n      jump\t// in\n    tag_719:\n        /* \"#utility.yul\":23485:23588   */\n    tag_718:\n        /* \"#utility.yul\":23615:23616   */\n      0x01\n        /* \"#utility.yul\":23608:23613   */\n      dup3\n        /* \"#utility.yul\":23604:23617   */\n      add\n        /* \"#utility.yul\":23597:23617   */\n      swap1\n      pop\n        /* \"#utility.yul\":23390:23623   */\n      swap2\n      swap1\n      pop\n      jump\t// out\n        /* \"#utility.yul\":23629:23855   */\n    tag_488:\n        /* \"#utility.yul\":23769:23803   */\n      0x50726f6a656374206e6f7420666f756e6420666f722074686520676976656e20\n        /* \"#utility.yul\":23765:23766   */\n      0x00\n        /* \"#utility.yul\":23757:23763   */\n      dup3\n        /* \"#utility.yul\":23753:23767   */\n      add\n        /* \"#utility.yul\":23746:23804   */\n      mstore\n        /* \"#utility.yul\":23838:23847   */\n      0x636f6d70616e7900000000000000000000000000000000000000000000000000\n        /* \"#utility.yul\":23833:23835   */\n      0x20\n        /* \"#utility.yul\":23825:23831   */\n      dup3\n        /* \"#utility.yul\":23821:23836   */\n      add\n        /* \"#utility.yul\":23814:23848   */\n      mstore\n        /* \"#utility.yul\":23629:23855   */\n      pop\n      jump\t// out\n        /* \"#utility.yul\":23861:24227   */\n    tag_489:\n        /* \"#utility.yul\":24003:24006   */\n      0x00\n        /* \"#utility.yul\":24024:24091   */\n      tag_722\n        /* \"#utility.yul\":24088:24090   */\n      0x27\n        /* \"#utility.yul\":24083:24086   */\n      dup4\n        /* \"#utility.yul\":24024:24091   */\n      tag_455\n      jump\t// in\n    tag_722:\n        /* \"#utility.yul\":24017:24091   */\n      swap2\n      pop\n        /* \"#utility.yul\":24100:24193   */\n      tag_723\n        /* \"#utility.yul\":24189:24192   */\n      dup3\n        /* \"#utility.yul\":24100:24193   */\n      tag_488\n      jump\t// in\n    tag_723:\n        /* \"#utility.yul\":24218:24220   */\n      0x40\n        /* \"#utility.yul\":24213:24216   */\n      dup3\n        /* \"#utility.yul\":24209:24221   */\n      add\n        /* \"#utility.yul\":24202:24221   */\n      swap1\n      pop\n        /* \"#utility.yul\":23861:24227   */\n      swap2\n      swap1\n      pop\n      jump\t// out\n        /* \"#utility.yul\":24233:24652   */\n    tag_310:\n        /* \"#utility.yul\":24399:24403   */\n      0x00\n        /* \"#utility.yul\":24437:24439   */\n      0x20\n        /* \"#utility.yul\":24426:24435   */\n      dup3\n        /* \"#utility.yul\":24422:24440   */\n      add\n        /* \"#utility.yul\":24414:24440   */\n      swap1\n      pop\n        /* \"#utility.yul\":24486:24495   */\n      dup2\n        /* \"#utility.yul\":24480:24484   */\n      dup2\n        /* \"#utility.yul\":24476:24496   */\n      sub\n        /* \"#utility.yul\":24472:24473   */\n      0x00\n        /* \"#utility.yul\":24461:24470   */\n      dup4\n        /* \"#utility.yul\":24457:24474   */\n      add\n        /* \"#utility.yul\":24450:24497   */\n      mstore\n        /* \"#utility.yul\":24514:24645   */\n      tag_725\n        /* \"#utility.yul\":24640:24644   */\n      dup2\n        /* \"#utility.yul\":24514:24645   */\n      tag_489\n      jump\t// in\n    tag_725:\n        /* \"#utility.yul\":24506:24645   */\n      swap1\n      pop\n        /* \"#utility.yul\":24233:24652   */\n      swap2\n      swap1\n      pop\n      jump\t// out\n        /* \"#utility.yul\":24658:24833   */\n    tag_490:\n        /* \"#utility.yul\":24798:24825   */\n      0x50726f6a65637420494420646f6573206e6f7420657869737400000000000000\n        /* \"#utility.yul\":24794:24795   */\n      0x00\n        /* \"#utility.yul\":24786:24792   */\n      dup3\n        /* \"#utility.yul\":24782:24796   */\n      add\n        /* \"#utility.yul\":24775:24826   */\n      mstore\n        /* \"#utility.yul\":24658:24833   */\n      pop\n      jump\t// out\n        /* \"#utility.yul\":24839:25205   */\n    tag_491:\n        /* \"#utility.yul\":24981:24984   */\n      0x00\n        /* \"#utility.yul\":25002:25069   */\n      tag_728\n        /* \"#utility.yul\":25066:25068   */\n      0x19\n        /* \"#utility.yul\":25061:25064   */\n      dup4\n        /* \"#utility.yul\":25002:25069   */\n      tag_455\n      jump\t// in\n    tag_728:\n        /* \"#utility.yul\":24995:25069   */\n      swap2\n      pop\n        /* \"#utility.yul\":25078:25171   */\n      tag_729\n        /* \"#utility.yul\":25167:25170   */\n      dup3\n        /* \"#utility.yul\":25078:25171   */\n      tag_490\n      jump\t// in\n    tag_729:\n        /* \"#utility.yul\":25196:25198   */\n      0x20\n        /* \"#utility.yul\":25191:25194   */\n      dup3\n        /* \"#utility.yul\":25187:25199   */\n      add\n        /* \"#utility.yul\":25180:25199   */\n      swap1\n      pop\n        /* \"#utility.yul\":24839:25205   */\n      swap2\n      swap1\n      pop\n      jump\t// out\n        /* \"#utility.yul\":25211:25630   */\n    tag_314:\n        /* \"#utility.yul\":25377:25381   */\n      0x00\n        /* \"#utility.yul\":25415:25417   */\n      0x20\n        /* \"#utility.yul\":25404:25413   */\n      dup3\n        /* \"#utility.yul\":25400:25418   */\n      add\n        /* \"#utility.yul\":25392:25418   */\n      swap1\n      pop\n        /* \"#utility.yul\":25464:25473   */\n      dup2\n        /* \"#utility.yul\":25458:25462   */\n      dup2\n        /* \"#utility.yul\":25454:25474   */\n      sub\n        /* \"#utility.yul\":25450:25451   */\n      0x00\n        /* \"#utility.yul\":25439:25448   */\n      dup4\n        /* \"#utility.yul\":25435:25452   */\n      add\n        /* \"#utility.yul\":25428:25475   */\n      mstore\n        /* \"#utility.yul\":25492:25623   */\n      tag_731\n        /* \"#utility.yul\":25618:25622   */\n      dup2\n        /* \"#utility.yul\":25492:25623   */\n      tag_491\n      jump\t// in\n    tag_731:\n        /* \"#utility.yul\":25484:25623   */\n      swap1\n      pop\n        /* \"#utility.yul\":25211:25630   */\n      swap2\n      swap1\n      pop\n      jump\t// out\n        /* \"#utility.yul\":25636:25817   */\n    tag_492:\n        /* \"#utility.yul\":25776:25809   */\n      0x436f6d70616e7920696e666f726d6174696f6e20697320726571756972656400\n        /* \"#utility.yul\":25772:25773   */\n      0x00\n        /* \"#utility.yul\":25764:25770   */\n      dup3\n        /* \"#utility.yul\":25760:25774   */\n      add\n        /* \"#utility.yul\":25753:25810   */\n      mstore\n        /* \"#utility.yul\":25636:25817   */\n      pop\n      jump\t// out\n        /* \"#utility.yul\":25823:26189   */\n    tag_493:\n        /* \"#utility.yul\":25965:25968   */\n      0x00\n        /* \"#utility.yul\":25986:26053   */\n      tag_734\n        /* \"#utility.yul\":26050:26052   */\n      0x1f\n        /* \"#utility.yul\":26045:26048   */\n      dup4\n        /* \"#utility.yul\":25986:26053   */\n      tag_455\n      jump\t// in\n    tag_734:\n        /* \"#utility.yul\":25979:26053   */\n      swap2\n      pop\n        /* \"#utility.yul\":26062:26155   */\n      tag_735\n        /* \"#utility.yul\":26151:26154   */\n      dup3\n        /* \"#utility.yul\":26062:26155   */\n      tag_492\n      jump\t// in\n    tag_735:\n        /* \"#utility.yul\":26180:26182   */\n      0x20\n        /* \"#utility.yul\":26175:26178   */\n      dup3\n        /* \"#utility.yul\":26171:26183   */\n      add\n        /* \"#utility.yul\":26164:26183   */\n      swap1\n      pop\n        /* \"#utility.yul\":25823:26189   */\n      swap2\n      swap1\n      pop\n      jump\t// out\n        /* \"#utility.yul\":26195:26614   */\n    tag_321:\n        /* \"#utility.yul\":26361:26365   */\n      0x00\n        /* \"#utility.yul\":26399:26401   */\n      0x20\n        /* \"#utility.yul\":26388:26397   */\n      dup3\n        /* \"#utility.yul\":26384:26402   */\n      add\n        /* \"#utility.yul\":26376:26402   */\n      swap1\n      pop\n        /* \"#utility.yul\":26448:26457   */\n      dup2\n        /* \"#utility.yul\":26442:26446   */\n      dup2\n        /* \"#utility.yul\":26438:26458   */\n      sub\n        /* \"#utility.yul\":26434:26435   */\n      0x00\n        /* \"#utility.yul\":26423:26432   */\n      dup4\n        /* \"#utility.yul\":26419:26436   */\n      add\n        /* \"#utility.yul\":26412:26459   */\n      mstore\n        /* \"#utility.yul\":26476:26607   */\n      tag_737\n        /* \"#utility.yul\":26602:26606   */\n      dup2\n        /* \"#utility.yul\":26476:26607   */\n      tag_493\n      jump\t// in\n    tag_737:\n        /* \"#utility.yul\":26468:26607   */\n      swap1\n      pop\n        /* \"#utility.yul\":26195:26614   */\n      swap2\n      swap1\n      pop\n      jump\t// out\n        /* \"#utility.yul\":26620:26795   */\n    tag_494:\n        /* \"#utility.yul\":26760:26787   */\n      0x50726f6a656374207469746c6520697320726571756972656400000000000000\n        /* \"#utility.yul\":26756:26757   */\n      0x00\n        /* \"#utility.yul\":26748:26754   */\n      dup3\n        /* \"#utility.yul\":26744:26758   */\n      add\n        /* \"#utility.yul\":26737:26788   */\n      mstore\n        /* \"#utility.yul\":26620:26795   */\n      pop\n      jump\t// out\n        /* \"#utility.yul\":26801:27167   */\n    tag_495:\n        /* \"#utility.yul\":26943:26946   */\n      0x00\n        /* \"#utility.yul\":26964:27031   */\n      tag_740\n        /* \"#utility.yul\":27028:27030   */\n      0x19\n        /* \"#utility.yul\":27023:27026   */\n      dup4\n        /* \"#utility.yul\":26964:27031   */\n      tag_455\n      jump\t// in\n    tag_740:\n        /* \"#utility.yul\":26957:27031   */\n      swap2\n      pop\n        /* \"#utility.yul\":27040:27133   */\n      tag_741\n        /* \"#utility.yul\":27129:27132   */\n      dup3\n        /* \"#utility.yul\":27040:27133   */\n      tag_494\n      jump\t// in\n    tag_741:\n        /* \"#utility.yul\":27158:27160   */\n      0x20\n        /* \"#utility.yul\":27153:27156   */\n      dup3\n        /* \"#utility.yul\":27149:27161   */\n      add\n        /* \"#utility.yul\":27142:27161   */\n      swap1\n      pop\n        /* \"#utility.yul\":26801:27167   */\n      swap2\n      swap1\n      pop\n      jump\t// out\n        /* \"#utility.yul\":27173:27592   */\n    tag_324:\n        /* \"#utility.yul\":27339:27343   */\n      0x00\n        /* \"#utility.yul\":27377:27379   */\n      0x20\n        /* \"#utility.yul\":27366:27375   */\n      dup3\n        /* \"#utility.yul\":27362:27380   */\n      add\n        /* \"#utility.yul\":27354:27380   */\n      swap1\n      pop\n        /* \"#utility.yul\":27426:27435   */\n      dup2\n        /* \"#utility.yul\":27420:27424   */\n      dup2\n        /* \"#utility.yul\":27416:27436   */\n      sub\n        /* \"#utility.yul\":27412:27413   */\n      0x00\n        /* \"#utility.yul\":27401:27410   */\n      dup4\n        /* \"#utility.yul\":27397:27414   */\n      add\n        /* \"#utility.yul\":27390:27437   */\n      mstore\n        /* \"#utility.yul\":27454:27585   */\n      tag_743\n        /* \"#utility.yul\":27580:27584   */\n      dup2\n        /* \"#utility.yul\":27454:27585   */\n      tag_495\n      jump\t// in\n    tag_743:\n        /* \"#utility.yul\":27446:27585   */\n      swap1\n      pop\n        /* \"#utility.yul\":27173:27592   */\n      swap2\n      swap1\n      pop\n      jump\t// out\n        /* \"#utility.yul\":27598:27779   */\n    tag_496:\n        /* \"#utility.yul\":27738:27771   */\n      0x50726f6a656374206465736372697074696f6e20697320726571756972656400\n        /* \"#utility.yul\":27734:27735   */\n      0x00\n        /* \"#utility.yul\":27726:27732   */\n      dup3\n        /* \"#utility.yul\":27722:27736   */\n      add\n        /* \"#utility.yul\":27715:27772   */\n      mstore\n        /* \"#utility.yul\":27598:27779   */\n      pop\n      jump\t// out\n        /* \"#utility.yul\":27785:28151   */\n    tag_497:\n        /* \"#utility.yul\":27927:27930   */\n      0x00\n        /* \"#utility.yul\":27948:28015   */\n      tag_746\n        /* \"#utility.yul\":28012:28014   */\n      0x1f\n        /* \"#utility.yul\":28007:28010   */\n      dup4\n        /* \"#utility.yul\":27948:28015   */\n      tag_455\n      jump\t// in\n    tag_746:\n        /* \"#utility.yul\":27941:28015   */\n      swap2\n      pop\n        /* \"#utility.yul\":28024:28117   */\n      tag_747\n        /* \"#utility.yul\":28113:28116   */\n      dup3\n        /* \"#utility.yul\":28024:28117   */\n      tag_496\n      jump\t// in\n    tag_747:\n        /* \"#utility.yul\":28142:28144   */\n      0x20\n        /* \"#utility.yul\":28137:28140   */\n      dup3\n        /* \"#utility.yul\":28133:28145   */\n      add\n        /* \"#utility.yul\":28126:28145   */\n      swap1\n      pop\n        /* \"#utility.yul\":27785:28151   */\n      swap2\n      swap1\n      pop\n      jump\t// out\n        /* \"#utility.yul\":28157:28576   */\n    tag_327:\n        /* \"#utility.yul\":28323:28327   */\n      0x00\n        /* \"#utility.yul\":28361:28363   */\n      0x20\n        /* \"#utility.yul\":28350:28359   */\n      dup3\n        /* \"#utility.yul\":28346:28364   */\n      add\n        /* \"#utility.yul\":28338:28364   */\n      swap1\n      pop\n        /* \"#utility.yul\":28410:28419   */\n      dup2\n        /* \"#utility.yul\":28404:28408   */\n      dup2\n        /* \"#utility.yul\":28400:28420   */\n      sub\n        /* \"#utility.yul\":28396:28397   */\n      0x00\n        /* \"#utility.yul\":28385:28394   */\n      dup4\n        /* \"#utility.yul\":28381:28398   */\n      add\n        /* \"#utility.yul\":28374:28421   */\n      mstore\n        /* \"#utility.yul\":28438:28569   */\n      tag_749\n        /* \"#utility.yul\":28564:28568   */\n      dup2\n        /* \"#utility.yul\":28438:28569   */\n      tag_497\n      jump\t// in\n    tag_749:\n        /* \"#utility.yul\":28430:28569   */\n      swap1\n      pop\n        /* \"#utility.yul\":28157:28576   */\n      swap2\n      swap1\n      pop\n      jump\t// out\n        /* \"#utility.yul\":28582:28808   */\n    tag_498:\n        /* \"#utility.yul\":28722:28756   */\n      0x456d697373696f6e73206f6666736574206d7573742062652067726561746572\n        /* \"#utility.yul\":28718:28719   */\n      0x00\n        /* \"#utility.yul\":28710:28716   */\n      dup3\n        /* \"#utility.yul\":28706:28720   */\n      add\n        /* \"#utility.yul\":28699:28757   */\n      mstore\n        /* \"#utility.yul\":28791:28800   */\n      0x207468616e203000000000000000000000000000000000000000000000000000\n        /* \"#utility.yul\":28786:28788   */\n      0x20\n        /* \"#utility.yul\":28778:28784   */\n      dup3\n        /* \"#utility.yul\":28774:28789   */\n      add\n        /* \"#utility.yul\":28767:28801   */\n      mstore\n        /* \"#utility.yul\":28582:28808   */\n      pop\n      jump\t// out\n        /* \"#utility.yul\":28814:29180   */\n    tag_499:\n        /* \"#utility.yul\":28956:28959   */\n      0x00\n        /* \"#utility.yul\":28977:29044   */\n      tag_752\n        /* \"#utility.yul\":29041:29043   */\n      0x27\n        /* \"#utility.yul\":29036:29039   */\n      dup4\n        /* \"#utility.yul\":28977:29044   */\n      tag_455\n      jump\t// in\n    tag_752:\n        /* \"#utility.yul\":28970:29044   */\n      swap2\n      pop\n        /* \"#utility.yul\":29053:29146   */\n      tag_753\n        /* \"#utility.yul\":29142:29145   */\n      dup3\n        /* \"#utility.yul\":29053:29146   */\n      tag_498\n      jump\t// in\n    tag_753:\n        /* \"#utility.yul\":29171:29173   */\n      0x40\n        /* \"#utility.yul\":29166:29169   */\n      dup3\n        /* \"#utility.yul\":29162:29174   */\n      add\n        /* \"#utility.yul\":29155:29174   */\n      swap1\n      pop\n        /* \"#utility.yul\":28814:29180   */\n      swap2\n      swap1\n      pop\n      jump\t// out\n        /* \"#utility.yul\":29186:29605   */\n    tag_330:\n        /* \"#utility.yul\":29352:29356   */\n      0x00\n        /* \"#utility.yul\":29390:29392   */\n      0x20\n        /* \"#utility.yul\":29379:29388   */\n      dup3\n        /* \"#utility.yul\":29375:29393   */\n      add\n        /* \"#utility.yul\":29367:29393   */\n      swap1\n      pop\n        /* \"#utility.yul\":29439:29448   */\n      dup2\n        /* \"#utility.yul\":29433:29437   */\n      dup2\n        /* \"#utility.yul\":29429:29449   */\n      sub\n        /* \"#utility.yul\":29425:29426   */\n      0x00\n        /* \"#utility.yul\":29414:29423   */\n      dup4\n        /* \"#utility.yul\":29410:29427   */\n      add\n        /* \"#utility.yul\":29403:29450   */\n      mstore\n        /* \"#utility.yul\":29467:29598   */\n      tag_755\n        /* \"#utility.yul\":29593:29597   */\n      dup2\n        /* \"#utility.yul\":29467:29598   */\n      tag_499\n      jump\t// in\n    tag_755:\n        /* \"#utility.yul\":29459:29598   */\n      swap1\n      pop\n        /* \"#utility.yul\":29186:29605   */\n      swap2\n      swap1\n      pop\n      jump\t// out\n        /* \"#utility.yul\":29611:29831   */\n    tag_500:\n        /* \"#utility.yul\":29751:29785   */\n      0x46696e616e6369616c20696e666f726d6174696f6e2069732072657175697265\n        /* \"#utility.yul\":29747:29748   */\n      0x00\n        /* \"#utility.yul\":29739:29745   */\n      dup3\n        /* \"#utility.yul\":29735:29749   */\n      add\n        /* \"#utility.yul\":29728:29786   */\n      mstore\n        /* \"#utility.yul\":29820:29823   */\n      0x6400000000000000000000000000000000000000000000000000000000000000\n        /* \"#utility.yul\":29815:29817   */\n      0x20\n        /* \"#utility.yul\":29807:29813   */\n      dup3\n        /* \"#utility.yul\":29803:29818   */\n      add\n        /* \"#utility.yul\":29796:29824   */\n      mstore\n        /* \"#utility.yul\":29611:29831   */\n      pop\n      jump\t// out\n        /* \"#utility.yul\":29837:30203   */\n    tag_501:\n        /* \"#utility.yul\":29979:29982   */\n      0x00\n        /* \"#utility.yul\":30000:30067   */\n      tag_758\n        /* \"#utility.yul\":30064:30066   */\n      0x21\n        /* \"#utility.yul\":30059:30062   */\n      dup4\n        /* \"#utility.yul\":30000:30067   */\n      tag_455\n      jump\t// in\n    tag_758:\n        /* \"#utility.yul\":29993:30067   */\n      swap2\n      pop\n        /* \"#utility.yul\":30076:30169   */\n      tag_759\n        /* \"#utility.yul\":30165:30168   */\n      dup3\n        /* \"#utility.yul\":30076:30169   */\n      tag_500\n      jump\t// in\n    tag_759:\n        /* \"#utility.yul\":30194:30196   */\n      0x40\n        /* \"#utility.yul\":30189:30192   */\n      dup3\n        /* \"#utility.yul\":30185:30197   */\n      add\n        /* \"#utility.yul\":30178:30197   */\n      swap1\n      pop\n        /* \"#utility.yul\":29837:30203   */\n      swap2\n      swap1\n      pop\n      jump\t// out\n        /* \"#utility.yul\":30209:30628   */\n    tag_333:\n        /* \"#utility.yul\":30375:30379   */\n      0x00\n        /* \"#utility.yul\":30413:30415   */\n      0x20\n        /* \"#utility.yul\":30402:30411   */\n      dup3\n        /* \"#utility.yul\":30398:30416   */\n      add\n        /* \"#utility.yul\":30390:30416   */\n      swap1\n      pop\n        /* \"#utility.yul\":30462:30471   */\n      dup2\n        /* \"#utility.yul\":30456:30460   */\n      dup2\n        /* \"#utility.yul\":30452:30472   */\n      sub\n        /* \"#utility.yul\":30448:30449   */\n      0x00\n        /* \"#utility.yul\":30437:30446   */\n      dup4\n        /* \"#utility.yul\":30433:30450   */\n      add\n        /* \"#utility.yul\":30426:30473   */\n      mstore\n        /* \"#utility.yul\":30490:30621   */\n      tag_761\n        /* \"#utility.yul\":30616:30620   */\n      dup2\n        /* \"#utility.yul\":30490:30621   */\n      tag_501\n      jump\t// in\n    tag_761:\n        /* \"#utility.yul\":30482:30621   */\n      swap1\n      pop\n        /* \"#utility.yul\":30209:30628   */\n      swap2\n      swap1\n      pop\n      jump\t// out\n        /* \"#utility.yul\":30634:30809   */\n    tag_502:\n        /* \"#utility.yul\":30774:30801   */\n      0x446f63756d656e746174696f6e20697320726571756972656400000000000000\n        /* \"#utility.yul\":30770:30771   */\n      0x00\n        /* \"#utility.yul\":30762:30768   */\n      dup3\n        /* \"#utility.yul\":30758:30772   */\n      add\n        /* \"#utility.yul\":30751:30802   */\n      mstore\n        /* \"#utility.yul\":30634:30809   */\n      pop\n      jump\t// out\n        /* \"#utility.yul\":30815:31181   */\n    tag_503:\n        /* \"#utility.yul\":30957:30960   */\n      0x00\n        /* \"#utility.yul\":30978:31045   */\n      tag_764\n        /* \"#utility.yul\":31042:31044   */\n      0x19\n        /* \"#utility.yul\":31037:31040   */\n      dup4\n        /* \"#utility.yul\":30978:31045   */\n      tag_455\n      jump\t// in\n    tag_764:\n        /* \"#utility.yul\":30971:31045   */\n      swap2\n      pop\n        /* \"#utility.yul\":31054:31147   */\n      tag_765\n        /* \"#utility.yul\":31143:31146   */\n      dup3\n        /* \"#utility.yul\":31054:31147   */\n      tag_502\n      jump\t// in\n    tag_765:\n        /* \"#utility.yul\":31172:31174   */\n      0x20\n        /* \"#utility.yul\":31167:31170   */\n      dup3\n        /* \"#utility.yul\":31163:31175   */\n      add\n        /* \"#utility.yul\":31156:31175   */\n      swap1\n      pop\n        /* \"#utility.yul\":30815:31181   */\n      swap2\n      swap1\n      pop\n      jump\t// out\n        /* \"#utility.yul\":31187:31606   */\n    tag_336:\n        /* \"#utility.yul\":31353:31357   */\n      0x00\n        /* \"#utility.yul\":31391:31393   */\n      0x20\n        /* \"#utility.yul\":31380:31389   */\n      dup3\n        /* \"#utility.yul\":31376:31394   */\n      add\n        /* \"#utility.yul\":31368:31394   */\n      swap1\n      pop\n        /* \"#utility.yul\":31440:31449   */\n      dup2\n        /* \"#utility.yul\":31434:31438   */\n      dup2\n        /* \"#utility.yul\":31430:31450   */\n      sub\n        /* \"#utility.yul\":31426:31427   */\n      0x00\n        /* \"#utility.yul\":31415:31424   */\n      dup4\n        /* \"#utility.yul\":31411:31428   */\n      add\n        /* \"#utility.yul\":31404:31451   */\n      mstore\n        /* \"#utility.yul\":31468:31599   */\n      tag_767\n        /* \"#utility.yul\":31594:31598   */\n      dup2\n        /* \"#utility.yul\":31468:31599   */\n      tag_503\n      jump\t// in\n    tag_767:\n        /* \"#utility.yul\":31460:31599   */\n      swap1\n      pop\n        /* \"#utility.yul\":31187:31606   */\n      swap2\n      swap1\n      pop\n      jump\t// out\n        /* \"#utility.yul\":31612:31705   */\n    tag_504:\n        /* \"#utility.yul\":31649:31655   */\n      0x00\n        /* \"#utility.yul\":31696:31698   */\n      0x20\n        /* \"#utility.yul\":31691:31693   */\n      0x1f\n        /* \"#utility.yul\":31684:31689   */\n      dup4\n        /* \"#utility.yul\":31680:31694   */\n      add\n        /* \"#utility.yul\":31676:31699   */\n      div\n        /* \"#utility.yul\":31666:31699   */\n      swap1\n      pop\n        /* \"#utility.yul\":31612:31705   */\n      swap2\n      swap1\n      pop\n      jump\t// out\n        /* \"#utility.yul\":31711:31818   */\n    tag_505:\n        /* \"#utility.yul\":31755:31763   */\n      0x00\n        /* \"#utility.yul\":31805:31810   */\n      dup3\n        /* \"#utility.yul\":31799:31803   */\n      dup3\n        /* \"#utility.yul\":31795:31811   */\n      shl\n        /* \"#utility.yul\":31774:31811   */\n      swap1\n      pop\n        /* \"#utility.yul\":31711:31818   */\n      swap3\n      swap2\n      pop\n      pop\n      jump\t// out\n        /* \"#utility.yul\":31824:32217   */\n    tag_506:\n        /* \"#utility.yul\":31893:31899   */\n      0x00\n        /* \"#utility.yul\":31943:31944   */\n      0x08\n        /* \"#utility.yul\":31931:31941   */\n      dup4\n        /* \"#utility.yul\":31927:31945   */\n      mul\n        /* \"#utility.yul\":31966:32063   */\n      tag_771\n        /* \"#utility.yul\":31996:32062   */\n      0xffffffffffffffffffffffffffffffffffffffffffffffffffffffffffffffff\n        /* \"#utility.yul\":31985:31994   */\n      dup3\n        /* \"#utility.yul\":31966:32063   */\n      tag_505\n      jump\t// in\n    tag_771:\n        /* \"#utility.yul\":32084:32123   */\n      tag_772\n        /* \"#utility.yul\":32114:32122   */\n      dup7\n        /* \"#utility.yul\":32103:32112   */\n      dup4\n        /* \"#utility.yul\":32084:32123   */\n      tag_505\n      jump\t// in\n    tag_772:\n        /* \"#utility.yul\":32072:32123   */\n      swap6\n      pop\n        /* \"#utility.yul\":32156:32160   */\n      dup1\n        /* \"#utility.yul\":32152:32161   */\n      not\n        /* \"#utility.yul\":32145:32150   */\n      dup5\n        /* \"#utility.yul\":32141:32162   */\n      and\n        /* \"#utility.yul\":32132:32162   */\n      swap4\n      pop\n        /* \"#utility.yul\":32205:32209   */\n      dup1\n        /* \"#utility.yul\":32195:32203   */\n      dup7\n        /* \"#utility.yul\":32191:32210   */\n      and\n        /* \"#utility.yul\":32184:32189   */\n      dup5\n        /* \"#utility.yul\":32181:32211   */\n      or\n        /* \"#utility.yul\":32171:32211   */\n      swap3\n      pop\n        /* \"#utility.yul\":31900:32217   */\n      pop\n      pop\n        /* \"#utility.yul\":31824:32217   */\n      swap4\n      swap3\n      pop\n      pop\n      pop\n      jump\t// out\n        /* \"#utility.yul\":32223:32283   */\n    tag_507:\n        /* \"#utility.yul\":32251:32254   */\n      0x00\n        /* \"#utility.yul\":32272:32277   */\n      dup2\n        /* \"#utility.yul\":32265:32277   */\n      swap1\n      pop\n        /* \"#utility.yul\":32223:32283   */\n      swap2\n      swap1\n      pop\n      jump\t// out\n        /* \"#utility.yul\":32289:32431   */\n    tag_508:\n        /* \"#utility.yul\":32339:32348   */\n      0x00\n        /* \"#utility.yul\":32372:32425   */\n      tag_775\n        /* \"#utility.yul\":32390:32424   */\n      tag_776\n        /* \"#utility.yul\":32399:32423   */\n      tag_777\n        /* \"#utility.yul\":32417:32422   */\n      dup5\n        /* \"#utility.yul\":32399:32423   */\n      tag_450\n      jump\t// in\n    tag_777:\n        /* \"#utility.yul\":32390:32424   */\n      tag_507\n      jump\t// in\n    tag_776:\n        /* \"#utility.yul\":32372:32425   */\n      tag_450\n      jump\t// in\n    tag_775:\n        /* \"#utility.yul\":32359:32425   */\n      swap1\n      pop\n        /* \"#utility.yul\":32289:32431   */\n      swap2\n      swap1\n      pop\n      jump\t// out\n        /* \"#utility.yul\":32437:32512   */\n    tag_509:\n        /* \"#utility.yul\":32480:32483   */\n      0x00\n        /* \"#utility.yul\":32501:32506   */\n      dup2\n        /* \"#utility.yul\":32494:32506   */\n      swap1\n      pop\n        /* \"#utility.yul\":32437:32512   */\n      swap2\n      swap1\n      pop\n      jump\t// out\n        /* \"#utility.yul\":32518:32787   */\n    tag_510:\n        /* \"#utility.yul\":32628:32667   */\n      tag_780\n        /* \"#utility.yul\":32659:32666   */\n      dup4\n        /* \"#utility.yul\":32628:32667   */\n      tag_508\n      jump\t// in\n    tag_780:\n        /* \"#utility.yul\":32689:32780   */\n      tag_781\n        /* \"#utility.yul\":32738:32779   */\n      tag_782\n        /* \"#utility.yul\":32762:32778   */\n      dup3\n        /* \"#utility.yul\":32738:32779   */\n      tag_509\n      jump\t// in\n    tag_782:\n        /* \"#utility.yul\":32730:32736   */\n      dup5\n        /* \"#utility.yul\":32723:32727   */\n      dup5\n        /* \"#utility.yul\":32717:32728   */\n      sload\n        /* \"#utility.yul\":32689:32780   */\n      tag_506\n      jump\t// in\n    tag_781:\n        /* \"#utility.yul\":32683:32687   */\n      dup3\n        /* \"#utility.yul\":32676:32781   */\n      sstore\n        /* \"#utility.yul\":32594:32787   */\n      pop\n        /* \"#utility.yul\":32518:32787   */\n      pop\n      pop\n      pop\n      jump\t// out\n        /* \"#utility.yul\":32793:32866   */\n    tag_511:\n        /* \"#utility.yul\":32838:32841   */\n      0x00\n        /* \"#utility.yul\":32793:32866   */\n      swap1\n      jump\t// out\n        /* \"#utility.yul\":32872:33061   */\n    tag_512:\n        /* \"#utility.yul\":32949:32981   */\n      tag_785\n      tag_511\n      jump\t// in\n    tag_785:\n        /* \"#utility.yul\":32990:33055   */\n      tag_786\n        /* \"#utility.yul\":33048:33054   */\n      dup2\n        /* \"#utility.yul\":33040:33046   */\n      dup5\n        /* \"#utility.yul\":33034:33038   */\n      dup5\n        /* \"#utility.yul\":32990:33055   */\n      tag_510\n      jump\t// in\n    tag_786:\n        /* \"#utility.yul\":32925:33061   */\n      pop\n        /* \"#utility.yul\":32872:33061   */\n      pop\n      pop\n      jump\t// out\n        /* \"#utility.yul\":33067:33253   */\n    tag_513:\n        /* \"#utility.yul\":33127:33247   */\n    tag_788:\n        /* \"#utility.yul\":33144:33147   */\n      dup2\n        /* \"#utility.yul\":33137:33142   */\n      dup2\n        /* \"#utility.yul\":33134:33148   */\n      lt\n        /* \"#utility.yul\":33127:33247   */\n      iszero\n      tag_790\n      jumpi\n        /* \"#utility.yul\":33198:33237   */\n      tag_791\n        /* \"#utility.yul\":33235:33236   */\n      0x00\n        /* \"#utility.yul\":33228:33233   */\n      dup3\n        /* \"#utility.yul\":33198:33237   */\n      tag_512\n      jump\t// in\n    tag_791:\n        /* \"#utility.yul\":33171:33172   */\n      0x01\n        /* \"#utility.yul\":33164:33169   */\n      dup2\n        /* \"#utility.yul\":33160:33173   */\n      add\n        /* \"#utility.yul\":33151:33173   */\n      swap1\n      pop\n        /* \"#utility.yul\":33127:33247   */\n      jump(tag_788)\n    tag_790:\n        /* \"#utility.yul\":33067:33253   */\n      pop\n      pop\n      jump\t// out\n        /* \"#utility.yul\":33259:33802   */\n    tag_514:\n        /* \"#utility.yul\":33360:33362   */\n      0x1f\n        /* \"#utility.yul\":33355:33358   */\n      dup3\n        /* \"#utility.yul\":33352:33363   */\n      gt\n        /* \"#utility.yul\":33349:33795   */\n      iszero\n      tag_793\n      jumpi\n        /* \"#utility.yul\":33394:33432   */\n      tag_794\n        /* \"#utility.yul\":33426:33431   */\n      dup2\n        /* \"#utility.yul\":33394:33432   */\n      tag_485\n      jump\t// in\n    tag_794:\n        /* \"#utility.yul\":33478:33507   */\n      tag_795\n        /* \"#utility.yul\":33496:33506   */\n      dup5\n        /* \"#utility.yul\":33478:33507   */\n      tag_504\n      jump\t// in\n    tag_795:\n        /* \"#utility.yul\":33468:33476   */\n      dup2\n        /* \"#utility.yul\":33464:33508   */\n      add\n        /* \"#utility.yul\":33661:33663   */\n      0x20\n        /* \"#utility.yul\":33649:33659   */\n      dup6\n        /* \"#utility.yul\":33646:33664   */\n      lt\n        /* \"#utility.yul\":33643:33692   */\n      iszero\n      tag_796\n      jumpi\n        /* \"#utility.yul\":33682:33690   */\n      dup2\n        /* \"#utility.yul\":33667:33690   */\n      swap1\n      pop\n        /* \"#utility.yul\":33643:33692   */\n    tag_796:\n        /* \"#utility.yul\":33705:33785   */\n      tag_797\n        /* \"#utility.yul\":33761:33783   */\n      tag_798\n        /* \"#utility.yul\":33779:33782   */\n      dup6\n        /* \"#utility.yul\":33761:33783   */\n      tag_504\n      jump\t// in\n    tag_798:\n        /* \"#utility.yul\":33751:33759   */\n      dup4\n        /* \"#utility.yul\":33747:33784   */\n      add\n        /* \"#utility.yul\":33734:33745   */\n      dup3\n        /* \"#utility.yul\":33705:33785   */\n      tag_513\n      jump\t// in\n    tag_797:\n        /* \"#utility.yul\":33364:33795   */\n      pop\n      pop\n        /* \"#utility.yul\":33349:33795   */\n    tag_793:\n        /* \"#utility.yul\":33259:33802   */\n      pop\n      pop\n      pop\n      jump\t// out\n        /* \"#utility.yul\":33808:33925   */\n    tag_515:\n        /* \"#utility.yul\":33862:33870   */\n      0x00\n        /* \"#utility.yul\":33912:33917   */\n      dup3\n        /* \"#utility.yul\":33906:33910   */\n      dup3\n        /* \"#utility.yul\":33902:33918   */\n      shr\n        /* \"#utility.yul\":33881:33918   */\n      swap1\n      pop\n        /* \"#utility.yul\":33808:33925   */\n      swap3\n      swap2\n      pop\n      pop\n      jump\t// out\n        /* \"#utility.yul\":33931:34100   */\n    tag_516:\n        /* \"#utility.yul\":33975:33981   */\n      0x00\n        /* \"#utility.yul\":34008:34059   */\n      tag_801\n        /* \"#utility.yul\":34056:34057   */\n      0x00\n        /* \"#utility.yul\":34052:34058   */\n      not\n        /* \"#utility.yul\":34044:34049   */\n      dup5\n        /* \"#utility.yul\":34041:34042   */\n      0x08\n        /* \"#utility.yul\":34037:34050   */\n      mul\n        /* \"#utility.yul\":34008:34059   */\n      tag_515\n      jump\t// in\n    tag_801:\n        /* \"#utility.yul\":34004:34060   */\n      not\n        /* \"#utility.yul\":34089:34093   */\n      dup1\n        /* \"#utility.yul\":34083:34087   */\n      dup4\n        /* \"#utility.yul\":34079:34094   */\n      and\n        /* \"#utility.yul\":34069:34094   */\n      swap2\n      pop\n        /* \"#utility.yul\":33982:34100   */\n      pop\n        /* \"#utility.yul\":33931:34100   */\n      swap3\n      swap2\n      pop\n      pop\n      jump\t// out\n        /* \"#utility.yul\":34105:34400   */\n    tag_517:\n        /* \"#utility.yul\":34181:34185   */\n      0x00\n        /* \"#utility.yul\":34327:34356   */\n      tag_803\n        /* \"#utility.yul\":34352:34355   */\n      dup4\n        /* \"#utility.yul\":34346:34350   */\n      dup4\n        /* \"#utility.yul\":34327:34356   */\n      tag_516\n      jump\t// in\n    tag_803:\n        /* \"#utility.yul\":34319:34356   */\n      swap2\n      pop\n        /* \"#utility.yul\":34389:34392   */\n      dup3\n        /* \"#utility.yul\":34386:34387   */\n      0x02\n        /* \"#utility.yul\":34382:34393   */\n      mul\n        /* \"#utility.yul\":34376:34380   */\n      dup3\n        /* \"#utility.yul\":34373:34394   */\n      or\n        /* \"#utility.yul\":34365:34394   */\n      swap1\n      pop\n        /* \"#utility.yul\":34105:34400   */\n      swap3\n      swap2\n      pop\n      pop\n      jump\t// out\n        /* \"#utility.yul\":34405:35800   */\n    tag_339:\n        /* \"#utility.yul\":34522:34559   */\n      tag_805\n        /* \"#utility.yul\":34555:34558   */\n      dup3\n        /* \"#utility.yul\":34522:34559   */\n      tag_454\n      jump\t// in\n    tag_805:\n        /* \"#utility.yul\":34624:34642   */\n      0xffffffffffffffff\n        /* \"#utility.yul\":34616:34622   */\n      dup2\n        /* \"#utility.yul\":34613:34643   */\n      gt\n        /* \"#utility.yul\":34610:34666   */\n      iszero\n      tag_806\n      jumpi\n        /* \"#utility.yul\":34646:34664   */\n      tag_807\n      tag_461\n      jump\t// in\n    tag_807:\n        /* \"#utility.yul\":34610:34666   */\n    tag_806:\n        /* \"#utility.yul\":34690:34728   */\n      tag_808\n        /* \"#utility.yul\":34722:34726   */\n      dup3\n        /* \"#utility.yul\":34716:34727   */\n      sload\n        /* \"#utility.yul\":34690:34728   */\n      tag_72\n      jump\t// in\n    tag_808:\n        /* \"#utility.yul\":34775:34842   */\n      tag_809\n        /* \"#utility.yul\":34835:34841   */\n      dup3\n        /* \"#utility.yul\":34827:34833   */\n      dup3\n        /* \"#utility.yul\":34821:34825   */\n      dup6\n        /* \"#utility.yul\":34775:34842   */\n      tag_514\n      jump\t// in\n    tag_809:\n        /* \"#utility.yul\":34869:34870   */\n      0x00\n        /* \"#utility.yul\":34893:34897   */\n      0x20\n        /* \"#utility.yul\":34880:34897   */\n      swap1\n      pop\n        /* \"#utility.yul\":34925:34927   */\n      0x1f\n        /* \"#utility.yul\":34917:34923   */\n      dup4\n        /* \"#utility.yul\":34914:34928   */\n      gt\n        /* \"#utility.yul\":34942:34943   */\n      0x01\n        /* \"#utility.yul\":34937:35555   */\n      dup2\n      eq\n      tag_811\n      jumpi\n        /* \"#utility.yul\":35599:35600   */\n      0x00\n        /* \"#utility.yul\":35616:35622   */\n      dup5\n        /* \"#utility.yul\":35613:35690   */\n      iszero\n      tag_812\n      jumpi\n        /* \"#utility.yul\":35665:35674   */\n      dup3\n        /* \"#utility.yul\":35660:35663   */\n      dup8\n        /* \"#utility.yul\":35656:35675   */\n      add\n        /* \"#utility.yul\":35650:35676   */\n      mload\n        /* \"#utility.yul\":35641:35676   */\n      swap1\n      pop\n        /* \"#utility.yul\":35613:35690   */\n    tag_812:\n        /* \"#utility.yul\":35716:35783   */\n      tag_813\n        /* \"#utility.yul\":35776:35782   */\n      dup6\n        /* \"#utility.yul\":35769:35774   */\n      dup3\n        /* \"#utility.yul\":35716:35783   */\n      tag_517\n      jump\t// in\n    tag_813:\n        /* \"#utility.yul\":35710:35714   */\n      dup7\n        /* \"#utility.yul\":35703:35784   */\n      sstore\n        /* \"#utility.yul\":35572:35794   */\n      pop\n        /* \"#utility.yul\":34907:35794   */\n      jump(tag_810)\n        /* \"#utility.yul\":34937:35555   */\n    tag_811:\n        /* \"#utility.yul\":34989:34993   */\n      0x1f\n        /* \"#utility.yul\":34985:34994   */\n      not\n        /* \"#utility.yul\":34977:34983   */\n      dup5\n        /* \"#utility.yul\":34973:34995   */\n      and\n        /* \"#utility.yul\":35023:35060   */\n      tag_814\n        /* \"#utility.yul\":35055:35059   */\n      dup7\n        /* \"#utility.yul\":35023:35060   */\n      tag_485\n      jump\t// in\n    tag_814:\n        /* \"#utility.yul\":35082:35083   */\n      0x00\n        /* \"#utility.yul\":35096:35304   */\n    tag_815:\n        /* \"#utility.yul\":35110:35117   */\n      dup3\n        /* \"#utility.yul\":35107:35108   */\n      dup2\n        /* \"#utility.yul\":35104:35118   */\n      lt\n        /* \"#utility.yul\":35096:35304   */\n      iszero\n      tag_817\n      jumpi\n        /* \"#utility.yul\":35189:35198   */\n      dup5\n        /* \"#utility.yul\":35184:35187   */\n      dup10\n        /* \"#utility.yul\":35180:35199   */\n      add\n        /* \"#utility.yul\":35174:35200   */\n      mload\n        /* \"#utility.yul\":35166:35172   */\n      dup3\n        /* \"#utility.yul\":35159:35201   */\n      sstore\n        /* \"#utility.yul\":35240:35241   */\n      0x01\n        /* \"#utility.yul\":35232:35238   */\n      dup3\n        /* \"#utility.yul\":35228:35242   */\n      add\n        /* \"#utility.yul\":35218:35242   */\n      swap2\n      pop\n        /* \"#utility.yul\":35287:35289   */\n      0x20\n        /* \"#utility.yul\":35276:35285   */\n      dup6\n        /* \"#utility.yul\":35272:35290   */\n      add\n        /* \"#utility.yul\":35259:35290   */\n      swap5\n      pop\n        /* \"#utility.yul\":35133:35137   */\n      0x20\n        /* \"#utility.yul\":35130:35131   */\n      dup2\n        /* \"#utility.yul\":35126:35138   */\n      add\n        /* \"#utility.yul\":35121:35138   */\n      swap1\n      pop\n        /* \"#utility.yul\":35096:35304   */\n      jump(tag_815)\n    tag_817:\n        /* \"#utility.yul\":35332:35338   */\n      dup7\n        /* \"#utility.yul\":35323:35330   */\n      dup4\n        /* \"#utility.yul\":35320:35339   */\n      lt\n        /* \"#utility.yul\":35317:35496   */\n      iszero\n      tag_818\n      jumpi\n        /* \"#utility.yul\":35390:35399   */\n      dup5\n        /* \"#utility.yul\":35385:35388   */\n      dup10\n        /* \"#utility.yul\":35381:35400   */\n      add\n        /* \"#utility.yul\":35375:35401   */\n      mload\n        /* \"#utility.yul\":35433:35481   */\n      tag_819\n        /* \"#utility.yul\":35475:35479   */\n      0x1f\n        /* \"#utility.yul\":35467:35473   */\n      dup10\n        /* \"#utility.yul\":35463:35480   */\n      and\n        /* \"#utility.yul\":35452:35461   */\n      dup3\n        /* \"#utility.yul\":35433:35481   */\n      tag_516\n      jump\t// in\n    tag_819:\n        /* \"#utility.yul\":35425:35431   */\n      dup4\n        /* \"#utility.yul\":35418:35482   */\n      sstore\n        /* \"#utility.yul\":35340:35496   */\n      pop\n        /* \"#utility.yul\":35317:35496   */\n    tag_818:\n        /* \"#utility.yul\":35542:35543   */\n      0x01\n        /* \"#utility.yul\":35538:35539   */\n      0x02\n        /* \"#utility.yul\":35530:35536   */\n      dup9\n        /* \"#utility.yul\":35526:35540   */\n      mul\n        /* \"#utility.yul\":35522:35544   */\n      add\n        /* \"#utility.yul\":35516:35520   */\n      dup9\n        /* \"#utility.yul\":35509:35545   */\n      sstore\n        /* \"#utility.yul\":34944:35555   */\n      pop\n      pop\n      pop\n        /* \"#utility.yul\":34907:35794   */\n    tag_810:\n      pop\n        /* \"#utility.yul\":34497:35800   */\n      pop\n      pop\n      pop\n        /* \"#utility.yul\":34405:35800   */\n      pop\n      pop\n      jump\t// out\n        /* \"#utility.yul\":35806:35978   */\n    tag_518:\n        /* \"#utility.yul\":35946:35970   */\n      0x50726f6a65637420646f6573206e6f7420657869737400000000000000000000\n        /* \"#utility.yul\":35942:35943   */\n      0x00\n        /* \"#utility.yul\":35934:35940   */\n      dup3\n        /* \"#utility.yul\":35930:35944   */\n      add\n        /* \"#utility.yul\":35923:35971   */\n      mstore\n        /* \"#utility.yul\":35806:35978   */\n      pop\n      jump\t// out\n        /* \"#utility.yul\":35984:36350   */\n    tag_519:\n        /* \"#utility.yul\":36126:36129   */\n      0x00\n        /* \"#utility.yul\":36147:36214   */\n      tag_822\n        /* \"#utility.yul\":36211:36213   */\n      0x16\n        /* \"#utility.yul\":36206:36209   */\n      dup4\n        /* \"#utility.yul\":36147:36214   */\n      tag_455\n      jump\t// in\n    tag_822:\n        /* \"#utility.yul\":36140:36214   */\n      swap2\n      pop\n        /* \"#utility.yul\":36223:36316   */\n      tag_823\n        /* \"#utility.yul\":36312:36315   */\n      dup3\n        /* \"#utility.yul\":36223:36316   */\n      tag_518\n      jump\t// in\n    tag_823:\n        /* \"#utility.yul\":36341:36343   */\n      0x20\n        /* \"#utility.yul\":36336:36339   */\n      dup3\n        /* \"#utility.yul\":36332:36344   */\n      add\n        /* \"#utility.yul\":36325:36344   */\n      swap1\n      pop\n        /* \"#utility.yul\":35984:36350   */\n      swap2\n      swap1\n      pop\n      jump\t// out\n        /* \"#utility.yul\":36356:36775   */\n    tag_349:\n        /* \"#utility.yul\":36522:36526   */\n      0x00\n        /* \"#utility.yul\":36560:36562   */\n      0x20\n        /* \"#utility.yul\":36549:36558   */\n      dup3\n        /* \"#utility.yul\":36545:36563   */\n      add\n        /* \"#utility.yul\":36537:36563   */\n      swap1\n      pop\n        /* \"#utility.yul\":36609:36618   */\n      dup2\n        /* \"#utility.yul\":36603:36607   */\n      dup2\n        /* \"#utility.yul\":36599:36619   */\n      sub\n        /* \"#utility.yul\":36595:36596   */\n      0x00\n        /* \"#utility.yul\":36584:36593   */\n      dup4\n        /* \"#utility.yul\":36580:36597   */\n      add\n        /* \"#utility.yul\":36573:36620   */\n      mstore\n        /* \"#utility.yul\":36637:36768   */\n      tag_825\n        /* \"#utility.yul\":36763:36767   */\n      dup2\n        /* \"#utility.yul\":36637:36768   */\n      tag_519\n      jump\t// in\n    tag_825:\n        /* \"#utility.yul\":36629:36768   */\n      swap1\n      pop\n        /* \"#utility.yul\":36356:36775   */\n      swap2\n      swap1\n      pop\n      jump\t// out\n\n    auxdata: 0xa264697066735822122091c45085559c6a61831e931d33ead62f61a6a09eb204a66f4481956311f8bcb764736f6c63430008120033\n}\n",
				"bytecode": {
					"linkReferences": {},
					"object": "6080604052600060015534801561001557600080fd5b50336000806101000a81548173ffffffffffffffffffffffffffffffffffffffff021916908373ffffffffffffffffffffffffffffffffffffffff160217905550613bd4806100656000396000f3fe608060405234801561001057600080fd5b50600436106100b45760003560e01c806384144a441161007157806384144a44146101bc5780638da5cb5b146101d8578063abbdc747146101f6578063bee5cdca14610212578063e4b0954b14610242578063e935b7b114610272576100b4565b8063107046bd146100b95780633d9597b6146100f257806357e30c151461012257806380d03829146101525780638177dc1014610170578063827184e1146101a0575b600080fd5b6100d360048036038101906100ce91906129b8565b610290565b6040516100e99a99989796959493929190612a84565b60405180910390f35b61010c60048036038101906101079190612c86565b6106ac565b6040516101199190612eee565b60405180910390f35b61013c60048036038101906101379190612f10565b610bbc565b6040516101499190612eee565b60405180910390f35b61015a611149565b6040516101679190612eee565b60405180910390f35b61018a60048036038101906101859190612c86565b6115c5565b604051610197919061308c565b60405180910390f35b6101ba60048036038101906101b591906130ae565b611afa565b005b6101d660048036038101906101d191906130ee565b611b75565b005b6101e0611ebd565b6040516101ed919061325d565b60405180910390f35b610210600480360381019061020b9190613278565b611ee1565b005b61022c600480360381019061022791906129b8565b611f65565b604051610239919061308c565b60405180910390f35b61025c60048036038101906102579190612c86565b612405565b6040516102699190612eee565b60405180910390f35b61027a612915565b60405161028791906132d4565b60405180910390f35b600281815481106102a057600080fd5b90600052602060002090600a02016000915090508060000154908060010180546102c99061331e565b80601f01602080910402602001604051908101604052809291908181526020018280546102f59061331e565b80156103425780601f1061031757610100808354040283529160200191610342565b820191906000526020600020905b81548152906001019060200180831161032557829003601f168201915b5050505050908060020180546103579061331e565b80601f01602080910402602001604051908101604052809291908181526020018280546103839061331e565b80156103d05780601f106103a5576101008083540402835291602001916103d0565b820191906000526020600020905b8154815290600101906020018083116103b357829003601f168201915b5050505050908060030180546103e59061331e565b80601f01602080910402602001604051908101604052809291908181526020018280546104119061331e565b801561045e5780601f106104335761010080835404028352916020019161045e565b820191906000526020600020905b81548152906001019060200180831161044157829003601f168201915b50505050509080600401549080600501549080600601805461047f9061331e565b80601f01602080910402602001604051908101604052809291908181526020018280546104ab9061331e565b80156104f85780601f106104cd576101008083540402835291602001916104f8565b820191906000526020600020905b8154815290600101906020018083116104db57829003601f168201915b50505050509080600701805461050d9061331e565b80601f01602080910402602001604051908101604052809291908181526020018280546105399061331e565b80156105865780601f1061055b57610100808354040283529160200191610586565b820191906000526020600020905b81548152906001019060200180831161056957829003601f168201915b50505050509080600801805461059b9061331e565b80601f01602080910402602001604051908101604052809291908181526020018280546105c79061331e565b80156106145780601f106105e957610100808354040283529160200191610614565b820191906000526020600020905b8154815290600101906020018083116105f757829003601f168201915b5050505050908060090180546106299061331e565b80601f01602080910402602001604051908101604052809291908181526020018280546106559061331e565b80156106a25780601f10610677576101008083540402835291602001916106a2565b820191906000526020600020905b81548152906001019060200180831161068557829003601f168201915b505050505090508a565b60608060005b600280549050811015610bb257836040516020016106d0919061338b565b60405160208183030381529060405280519060200120600282815481106106fa576106f96133a2565b5b90600052602060002090600a020160080160405160200161071b9190613469565b6040516020818303038152906040528051906020012003610b9f576002818154811061074a576107496133a2565b5b90600052602060002090600a0201604051806101400160405290816000820154815260200160018201805461077e9061331e565b80601f01602080910402602001604051908101604052809291908181526020018280546107aa9061331e565b80156107f75780601f106107cc576101008083540402835291602001916107f7565b820191906000526020600020905b8154815290600101906020018083116107da57829003601f168201915b505050505081526020016002820180546108109061331e565b80601f016020809104026020016040519081016040528092919081815260200182805461083c9061331e565b80156108895780601f1061085e57610100808354040283529160200191610889565b820191906000526020600020905b81548152906001019060200180831161086c57829003601f168201915b505050505081526020016003820180546108a29061331e565b80601f01602080910402602001604051908101604052809291908181526020018280546108ce9061331e565b801561091b5780601f106108f05761010080835404028352916020019161091b565b820191906000526020600020905b8154815290600101906020018083116108fe57829003601f168201915b5050505050815260200160048201548152602001600582015481526020016006820180546109489061331e565b80601f01602080910402602001604051908101604052809291908181526020018280546109749061331e565b80156109c15780601f10610996576101008083540402835291602001916109c1565b820191906000526020600020905b8154815290600101906020018083116109a457829003601f168201915b505050505081526020016007820180546109da9061331e565b80601f0160208091040260200160405190810160405280929190818152602001828054610a069061331e565b8015610a535780601f10610a2857610100808354040283529160200191610a53565b820191906000526020600020905b815481529060010190602001808311610a3657829003601f168201915b50505050508152602001600882018054610a6c9061331e565b80601f0160208091040260200160405190810160405280929190818152602001828054610a989061331e565b8015610ae55780601f10610aba57610100808354040283529160200191610ae5565b820191906000526020600020905b815481529060010190602001808311610ac857829003601f168201915b50505050508152602001600982018054610afe9061331e565b80601f0160208091040260200160405190810160405280929190818152602001828054610b2a9061331e565b8015610b775780601f10610b4c57610100808354040283529160200191610b77565b820191906000526020600020905b815481529060010190602001808311610b5a57829003601f168201915b505050505081525050828281518110610b9357610b926133a2565b5b60200260200101819052505b8080610baa906134af565b9150506106b2565b5080915050919050565b60608060005b60028054905081101561113e5784604051602001610be0919061338b565b6040516020818303038152906040528051906020012060028281548110610c0a57610c096133a2565b5b90600052602060002090600a0201600801604051602001610c2b9190613469565b60405160208183030381529060405280519060200120148015610cbd575083604051602001610c5a919061338b565b6040516020818303038152906040528051906020012060028281548110610c8457610c836133a2565b5b90600052602060002090600a0201600901604051602001610ca59190613469565b60405160208183030381529060405280519060200120145b1561112b5760028181548110610cd657610cd56133a2565b5b90600052602060002090600a02016040518061014001604052908160008201548152602001600182018054610d0a9061331e565b80601f0160208091040260200160405190810160405280929190818152602001828054610d369061331e565b8015610d835780601f10610d5857610100808354040283529160200191610d83565b820191906000526020600020905b815481529060010190602001808311610d6657829003601f168201915b50505050508152602001600282018054610d9c9061331e565b80601f0160208091040260200160405190810160405280929190818152602001828054610dc89061331e565b8015610e155780601f10610dea57610100808354040283529160200191610e15565b820191906000526020600020905b815481529060010190602001808311610df857829003601f168201915b50505050508152602001600382018054610e2e9061331e565b80601f0160208091040260200160405190810160405280929190818152602001828054610e5a9061331e565b8015610ea75780601f10610e7c57610100808354040283529160200191610ea7565b820191906000526020600020905b815481529060010190602001808311610e8a57829003601f168201915b505050505081526020016004820154815260200160058201548152602001600682018054610ed49061331e565b80601f0160208091040260200160405190810160405280929190818152602001828054610f009061331e565b8015610f4d5780601f10610f2257610100808354040283529160200191610f4d565b820191906000526020600020905b815481529060010190602001808311610f3057829003601f168201915b50505050508152602001600782018054610f669061331e565b80601f0160208091040260200160405190810160405280929190818152602001828054610f929061331e565b8015610fdf5780601f10610fb457610100808354040283529160200191610fdf565b820191906000526020600020905b815481529060010190602001808311610fc257829003601f168201915b50505050508152602001600882018054610ff89061331e565b80601f01602080910402602001604051908101604052809291908181526020018280546110249061331e565b80156110715780601f1061104657610100808354040283529160200191611071565b820191906000526020600020905b81548152906001019060200180831161105457829003601f168201915b5050505050815260200160098201805461108a9061331e565b80601f01602080910402602001604051908101604052809291908181526020018280546110b69061331e565b80156111035780601f106110d857610100808354040283529160200191611103565b820191906000526020600020905b8154815290600101906020018083116110e657829003601f168201915b50505050508152505082828151811061111f5761111e6133a2565b5b60200260200101819052505b8080611136906134af565b915050610bc2565b508091505092915050565b60606002805480602002602001604051908101604052809291908181526020016000905b828210156115bc57838290600052602060002090600a020160405180610140016040529081600082015481526020016001820180546111ab9061331e565b80601f01602080910402602001604051908101604052809291908181526020018280546111d79061331e565b80156112245780601f106111f957610100808354040283529160200191611224565b820191906000526020600020905b81548152906001019060200180831161120757829003601f168201915b5050505050815260200160028201805461123d9061331e565b80601f01602080910402602001604051908101604052809291908181526020018280546112699061331e565b80156112b65780601f1061128b576101008083540402835291602001916112b6565b820191906000526020600020905b81548152906001019060200180831161129957829003601f168201915b505050505081526020016003820180546112cf9061331e565b80601f01602080910402602001604051908101604052809291908181526020018280546112fb9061331e565b80156113485780601f1061131d57610100808354040283529160200191611348565b820191906000526020600020905b81548152906001019060200180831161132b57829003601f168201915b5050505050815260200160048201548152602001600582015481526020016006820180546113759061331e565b80601f01602080910402602001604051908101604052809291908181526020018280546113a19061331e565b80156113ee5780601f106113c3576101008083540402835291602001916113ee565b820191906000526020600020905b8154815290600101906020018083116113d157829003601f168201915b505050505081526020016007820180546114079061331e565b80601f01602080910402602001604051908101604052809291908181526020018280546114339061331e565b80156114805780601f1061145557610100808354040283529160200191611480565b820191906000526020600020905b81548152906001019060200180831161146357829003601f168201915b505050505081526020016008820180546114999061331e565b80601f01602080910402602001604051908101604052809291908181526020018280546114c59061331e565b80156115125780601f106114e757610100808354040283529160200191611512565b820191906000526020600020905b8154815290600101906020018083116114f557829003601f168201915b5050505050815260200160098201805461152b9061331e565b80601f01602080910402602001604051908101604052809291908181526020018280546115579061331e565b80156115a45780601f10611579576101008083540402835291602001916115a4565b820191906000526020600020905b81548152906001019060200180831161158757829003601f168201915b5050505050815250508152602001906001019061116d565b50505050905090565b6115cd61291b565b60005b600280549050811015611ab957826040516020016115ee919061338b565b6040516020818303038152906040528051906020012060028281548110611618576116176133a2565b5b90600052602060002090600a02016003016040516020016116399190613469565b6040516020818303038152906040528051906020012003611aa65760028181548110611668576116676133a2565b5b90600052602060002090600a0201604051806101400160405290816000820154815260200160018201805461169c9061331e565b80601f01602080910402602001604051908101604052809291908181526020018280546116c89061331e565b80156117155780601f106116ea57610100808354040283529160200191611715565b820191906000526020600020905b8154815290600101906020018083116116f857829003601f168201915b5050505050815260200160028201805461172e9061331e565b80601f016020809104026020016040519081016040528092919081815260200182805461175a9061331e565b80156117a75780601f1061177c576101008083540402835291602001916117a7565b820191906000526020600020905b81548152906001019060200180831161178a57829003601f168201915b505050505081526020016003820180546117c09061331e565b80601f01602080910402602001604051908101604052809291908181526020018280546117ec9061331e565b80156118395780601f1061180e57610100808354040283529160200191611839565b820191906000526020600020905b81548152906001019060200180831161181c57829003601f168201915b5050505050815260200160048201548152602001600582015481526020016006820180546118669061331e565b80601f01602080910402602001604051908101604052809291908181526020018280546118929061331e565b80156118df5780601f106118b4576101008083540402835291602001916118df565b820191906000526020600020905b8154815290600101906020018083116118c257829003601f168201915b505050505081526020016007820180546118f89061331e565b80601f01602080910402602001604051908101604052809291908181526020018280546119249061331e565b80156119715780601f1061194657610100808354040283529160200191611971565b820191906000526020600020905b81548152906001019060200180831161195457829003601f168201915b5050505050815260200160088201805461198a9061331e565b80601f01602080910402602001604051908101604052809291908181526020018280546119b69061331e565b8015611a035780601f106119d857610100808354040283529160200191611a03565b820191906000526020600020905b8154815290600101906020018083116119e657829003601f168201915b50505050508152602001600982018054611a1c9061331e565b80601f0160208091040260200160405190810160405280929190818152602001828054611a489061331e565b8015611a955780601f10611a6a57610100808354040283529160200191611a95565b820191906000526020600020905b815481529060010190602001808311611a7857829003601f168201915b505050505081525050915050611af5565b8080611ab1906134af565b9150506115d0565b506040517f08c379a0000000000000000000000000000000000000000000000000000000008152600401611aec90613569565b60405180910390fd5b919050565b6002805490508210611b41576040517f08c379a0000000000000000000000000000000000000000000000000000000008152600401611b38906135d5565b60405180910390fd5b600060028381548110611b5757611b566133a2565b5b90600052602060002090600a02019050818160050181905550505050565b6000875111611bb9576040517f08c379a0000000000000000000000000000000000000000000000000000000008152600401611bb090613641565b60405180910390fd5b6000865111611bfd576040517f08c379a0000000000000000000000000000000000000000000000000000000008152600401611bf4906136ad565b60405180910390fd5b6000855111611c41576040517f08c379a0000000000000000000000000000000000000000000000000000000008152600401611c3890613719565b60405180910390fd5b60008411611c84576040517f08c379a0000000000000000000000000000000000000000000000000000000008152600401611c7b906137ab565b60405180910390fd5b6000825111611cc8576040517f08c379a0000000000000000000000000000000000000000000000000000000008152600401611cbf9061383d565b60405180910390fd5b6000815111611d0c576040517f08c379a0000000000000000000000000000000000000000000000000000000008152600401611d03906138a9565b60405180910390fd5b6000600280549050905060006040518061014001604052808381526020018981526020018881526020018a81526020018781526020018681526020018581526020018481526020016040518060400160405280600c81526020017f556e64657220526576696577000000000000000000000000000000000000000081525081526020016040518060400160405280600d81526020017f4e6f7420417661696c61626c6500000000000000000000000000000000000000815250815250905060028190806001815401808255809150506001900390600052602060002090600a0201600090919091909150600082015181600001556020820151816001019081611e159190613a60565b506040820151816002019081611e2b9190613a60565b506060820151816003019081611e419190613a60565b506080820151816004015560a0820151816005015560c0820151816006019081611e6b9190613a60565b5060e0820151816007019081611e819190613a60565b50610100820151816008019081611e989190613a60565b50610120820151816009019081611eaf9190613a60565b505050505050505050505050565b60008054906101000a900473ffffffffffffffffffffffffffffffffffffffff1681565b6002805490508210611f28576040517f08c379a0000000000000000000000000000000000000000000000000000000008152600401611f1f90613b7e565b60405180910390fd5b600060028381548110611f3e57611f3d6133a2565b5b90600052602060002090600a0201905081816008019081611f5f9190613a60565b50505050565b611f6d61291b565b6002805490508210611fb4576040517f08c379a0000000000000000000000000000000000000000000000000000000008152600401611fab906135d5565b60405180910390fd5b60028281548110611fc857611fc76133a2565b5b90600052602060002090600a02016040518061014001604052908160008201548152602001600182018054611ffc9061331e565b80601f01602080910402602001604051908101604052809291908181526020018280546120289061331e565b80156120755780601f1061204a57610100808354040283529160200191612075565b820191906000526020600020905b81548152906001019060200180831161205857829003601f168201915b5050505050815260200160028201805461208e9061331e565b80601f01602080910402602001604051908101604052809291908181526020018280546120ba9061331e565b80156121075780601f106120dc57610100808354040283529160200191612107565b820191906000526020600020905b8154815290600101906020018083116120ea57829003601f168201915b505050505081526020016003820180546121209061331e565b80601f016020809104026020016040519081016040528092919081815260200182805461214c9061331e565b80156121995780601f1061216e57610100808354040283529160200191612199565b820191906000526020600020905b81548152906001019060200180831161217c57829003601f168201915b5050505050815260200160048201548152602001600582015481526020016006820180546121c69061331e565b80601f01602080910402602001604051908101604052809291908181526020018280546121f29061331e565b801561223f5780601f106122145761010080835404028352916020019161223f565b820191906000526020600020905b81548152906001019060200180831161222257829003601f168201915b505050505081526020016007820180546122589061331e565b80601f01602080910402602001604051908101604052809291908181526020018280546122849061331e565b80156122d15780601f106122a6576101008083540402835291602001916122d1565b820191906000526020600020905b8154815290600101906020018083116122b457829003601f168201915b505050505081526020016008820180546122ea9061331e565b80601f01602080910402602001604051908101604052809291908181526020018280546123169061331e565b80156123635780601f1061233857610100808354040283529160200191612363565b820191906000526020600020905b81548152906001019060200180831161234657829003601f168201915b5050505050815260200160098201805461237c9061331e565b80601f01602080910402602001604051908101604052809291908181526020018280546123a89061331e565b80156123f55780601f106123ca576101008083540402835291602001916123f5565b820191906000526020600020905b8154815290600101906020018083116123d857829003601f168201915b5050505050815250509050919050565b60608060005b60028054905081101561290b5783604051602001612429919061338b565b6040516020818303038152906040528051906020012060028281548110612453576124526133a2565b5b90600052602060002090600a02016009016040516020016124749190613469565b60405160208183030381529060405280519060200120036128f857600281815481106124a3576124a26133a2565b5b90600052602060002090600a020160405180610140016040529081600082015481526020016001820180546124d79061331e565b80601f01602080910402602001604051908101604052809291908181526020018280546125039061331e565b80156125505780601f1061252557610100808354040283529160200191612550565b820191906000526020600020905b81548152906001019060200180831161253357829003601f168201915b505050505081526020016002820180546125699061331e565b80601f01602080910402602001604051908101604052809291908181526020018280546125959061331e565b80156125e25780601f106125b7576101008083540402835291602001916125e2565b820191906000526020600020905b8154815290600101906020018083116125c557829003601f168201915b505050505081526020016003820180546125fb9061331e565b80601f01602080910402602001604051908101604052809291908181526020018280546126279061331e565b80156126745780601f1061264957610100808354040283529160200191612674565b820191906000526020600020905b81548152906001019060200180831161265757829003601f168201915b5050505050815260200160048201548152602001600582015481526020016006820180546126a19061331e565b80601f01602080910402602001604051908101604052809291908181526020018280546126cd9061331e565b801561271a5780601f106126ef5761010080835404028352916020019161271a565b820191906000526020600020905b8154815290600101906020018083116126fd57829003601f168201915b505050505081526020016007820180546127339061331e565b80601f016020809104026020016040519081016040528092919081815260200182805461275f9061331e565b80156127ac5780601f10612781576101008083540402835291602001916127ac565b820191906000526020600020905b81548152906001019060200180831161278f57829003601f168201915b505050505081526020016008820180546127c59061331e565b80601f01602080910402602001604051908101604052809291908181526020018280546127f19061331e565b801561283e5780601f106128135761010080835404028352916020019161283e565b820191906000526020600020905b81548152906001019060200180831161282157829003601f168201915b505050505081526020016009820180546128579061331e565b80601f01602080910402602001604051908101604052809291908181526020018280546128839061331e565b80156128d05780601f106128a5576101008083540402835291602001916128d0565b820191906000526020600020905b8154815290600101906020018083116128b357829003601f168201915b5050505050815250508282815181106128ec576128eb6133a2565b5b60200260200101819052505b8080612903906134af565b91505061240b565b5080915050919050565b60015481565b604051806101400160405280600081526020016060815260200160608152602001606081526020016000815260200160008152602001606081526020016060815260200160608152602001606081525090565b6000604051905090565b600080fd5b600080fd5b6000819050919050565b61299581612982565b81146129a057600080fd5b50565b6000813590506129b28161298c565b92915050565b6000602082840312156129ce576129cd612978565b5b60006129dc848285016129a3565b91505092915050565b6129ee81612982565b82525050565b600081519050919050565b600082825260208201905092915050565b60005b83811015612a2e578082015181840152602081019050612a13565b60008484015250505050565b6000601f19601f8301169050919050565b6000612a56826129f4565b612a6081856129ff565b9350612a70818560208601612a10565b612a7981612a3a565b840191505092915050565b600061014082019050612a9a600083018d6129e5565b8181036020830152612aac818c612a4b565b90508181036040830152612ac0818b612a4b565b90508181036060830152612ad4818a612a4b565b9050612ae360808301896129e5565b612af060a08301886129e5565b81810360c0830152612b028187612a4b565b905081810360e0830152612b168186612a4b565b9050818103610100830152612b2b8185612a4b565b9050818103610120830152612b408184612a4b565b90509b9a5050505050505050505050565b600080fd5b600080fd5b7f4e487b7100000000000000000000000000000000000000000000000000000000600052604160045260246000fd5b612b9382612a3a565b810181811067ffffffffffffffff82111715612bb257612bb1612b5b565b5b80604052505050565b6000612bc561296e565b9050612bd18282612b8a565b919050565b600067ffffffffffffffff821115612bf157612bf0612b5b565b5b612bfa82612a3a565b9050602081019050919050565b82818337600083830152505050565b6000612c29612c2484612bd6565b612bbb565b905082815260208101848484011115612c4557612c44612b56565b5b612c50848285612c07565b509392505050565b600082601f830112612c6d57612c6c612b51565b5b8135612c7d848260208601612c16565b91505092915050565b600060208284031215612c9c57612c9b612978565b5b600082013567ffffffffffffffff811115612cba57612cb961297d565b5b612cc684828501612c58565b91505092915050565b600081519050919050565b600082825260208201905092915050565b6000819050602082019050919050565b612d0481612982565b82525050565b600082825260208201905092915050565b6000612d26826129f4565b612d308185612d0a565b9350612d40818560208601612a10565b612d4981612a3a565b840191505092915050565b600061014083016000830151612d6d6000860182612cfb565b5060208301518482036020860152612d858282612d1b565b91505060408301518482036040860152612d9f8282612d1b565b91505060608301518482036060860152612db98282612d1b565b9150506080830151612dce6080860182612cfb565b5060a0830151612de160a0860182612cfb565b5060c083015184820360c0860152612df98282612d1b565b91505060e083015184820360e0860152612e138282612d1b565b915050610100830151848203610100860152612e2f8282612d1b565b915050610120830151848203610120860152612e4b8282612d1b565b9150508091505092915050565b6000612e648383612d54565b905092915050565b6000602082019050919050565b6000612e8482612ccf565b612e8e8185612cda565b935083602082028501612ea085612ceb565b8060005b85811015612edc5784840389528151612ebd8582612e58565b9450612ec883612e6c565b925060208a01995050600181019050612ea4565b50829750879550505050505092915050565b60006020820190508181036000830152612f088184612e79565b905092915050565b60008060408385031215612f2757612f26612978565b5b600083013567ffffffffffffffff811115612f4557612f4461297d565b5b612f5185828601612c58565b925050602083013567ffffffffffffffff811115612f7257612f7161297d565b5b612f7e85828601612c58565b9150509250929050565b600061014083016000830151612fa16000860182612cfb565b5060208301518482036020860152612fb98282612d1b565b91505060408301518482036040860152612fd38282612d1b565b91505060608301518482036060860152612fed8282612d1b565b91505060808301516130026080860182612cfb565b5060a083015161301560a0860182612cfb565b5060c083015184820360c086015261302d8282612d1b565b91505060e083015184820360e08601526130478282612d1b565b9150506101008301518482036101008601526130638282612d1b565b91505061012083015184820361012086015261307f8282612d1b565b9150508091505092915050565b600060208201905081810360008301526130a68184612f88565b905092915050565b600080604083850312156130c5576130c4612978565b5b60006130d3858286016129a3565b92505060206130e4858286016129a3565b9150509250929050565b600080600080600080600060e0888a03121561310d5761310c612978565b5b600088013567ffffffffffffffff81111561312b5761312a61297d565b5b6131378a828b01612c58565b975050602088013567ffffffffffffffff8111156131585761315761297d565b5b6131648a828b01612c58565b965050604088013567ffffffffffffffff8111156131855761318461297d565b5b6131918a828b01612c58565b95505060606131a28a828b016129a3565b94505060806131b38a828b016129a3565b93505060a088013567ffffffffffffffff8111156131d4576131d361297d565b5b6131e08a828b01612c58565b92505060c088013567ffffffffffffffff8111156132015761320061297d565b5b61320d8a828b01612c58565b91505092959891949750929550565b600073ffffffffffffffffffffffffffffffffffffffff82169050919050565b60006132478261321c565b9050919050565b6132578161323c565b82525050565b6000602082019050613272600083018461324e565b92915050565b6000806040838503121561328f5761328e612978565b5b600061329d858286016129a3565b925050602083013567ffffffffffffffff8111156132be576132bd61297d565b5b6132ca85828601612c58565b9150509250929050565b60006020820190506132e960008301846129e5565b92915050565b7f4e487b7100000000000000000000000000000000000000000000000000000000600052602260045260246000fd5b6000600282049050600182168061333657607f821691505b602082108103613349576133486132ef565b5b50919050565b600081905092915050565b6000613365826129f4565b61336f818561334f565b935061337f818560208601612a10565b80840191505092915050565b6000613397828461335a565b915081905092915050565b7f4e487b7100000000000000000000000000000000000000000000000000000000600052603260045260246000fd5b60008190508160005260206000209050919050565b600081546133f38161331e565b6133fd818661334f565b94506001821660008114613418576001811461342d57613460565b60ff1983168652811515820286019350613460565b613436856133d1565b60005b8381101561345857815481890152600182019150602081019050613439565b838801955050505b50505092915050565b600061347582846133e6565b915081905092915050565b7f4e487b7100000000000000000000000000000000000000000000000000000000600052601160045260246000fd5b60006134ba82612982565b91507fffffffffffffffffffffffffffffffffffffffffffffffffffffffffffffffff82036134ec576134eb613480565b5b600182019050919050565b7f50726f6a656374206e6f7420666f756e6420666f722074686520676976656e2060008201527f636f6d70616e7900000000000000000000000000000000000000000000000000602082015250565b60006135536027836129ff565b915061355e826134f7565b604082019050919050565b6000602082019050818103600083015261358281613546565b9050919050565b7f50726f6a65637420494420646f6573206e6f7420657869737400000000000000600082015250565b60006135bf6019836129ff565b91506135ca82613589565b602082019050919050565b600060208201905081810360008301526135ee816135b2565b9050919050565b7f436f6d70616e7920696e666f726d6174696f6e20697320726571756972656400600082015250565b600061362b601f836129ff565b9150613636826135f5565b602082019050919050565b6000602082019050818103600083015261365a8161361e565b9050919050565b7f50726f6a656374207469746c6520697320726571756972656400000000000000600082015250565b60006136976019836129ff565b91506136a282613661565b602082019050919050565b600060208201905081810360008301526136c68161368a565b9050919050565b7f50726f6a656374206465736372697074696f6e20697320726571756972656400600082015250565b6000613703601f836129ff565b915061370e826136cd565b602082019050919050565b60006020820190508181036000830152613732816136f6565b9050919050565b7f456d697373696f6e73206f6666736574206d757374206265206772656174657260008201527f207468616e203000000000000000000000000000000000000000000000000000602082015250565b60006137956027836129ff565b91506137a082613739565b604082019050919050565b600060208201905081810360008301526137c481613788565b9050919050565b7f46696e616e6369616c20696e666f726d6174696f6e206973207265717569726560008201527f6400000000000000000000000000000000000000000000000000000000000000602082015250565b60006138276021836129ff565b9150613832826137cb565b604082019050919050565b600060208201905081810360008301526138568161381a565b9050919050565b7f446f63756d656e746174696f6e20697320726571756972656400000000000000600082015250565b60006138936019836129ff565b915061389e8261385d565b602082019050919050565b600060208201905081810360008301526138c281613886565b9050919050565b60006020601f8301049050919050565b600082821b905092915050565b6000600883026139167fffffffffffffffffffffffffffffffffffffffffffffffffffffffffffffffff826138d9565b61392086836138d9565b95508019841693508086168417925050509392505050565b6000819050919050565b600061395d61395861395384612982565b613938565b612982565b9050919050565b6000819050919050565b61397783613942565b61398b61398382613964565b8484546138e6565b825550505050565b600090565b6139a0613993565b6139ab81848461396e565b505050565b5b818110156139cf576139c4600082613998565b6001810190506139b1565b5050565b601f821115613a14576139e5816133d1565b6139ee846138c9565b810160208510156139fd578190505b613a11613a09856138c9565b8301826139b0565b50505b505050565b600082821c905092915050565b6000613a3760001984600802613a19565b1980831691505092915050565b6000613a508383613a26565b9150826002028217905092915050565b613a69826129f4565b67ffffffffffffffff811115613a8257613a81612b5b565b5b613a8c825461331e565b613a978282856139d3565b600060209050601f831160018114613aca5760008415613ab8578287015190505b613ac28582613a44565b865550613b2a565b601f198416613ad8866133d1565b60005b82811015613b0057848901518255600182019150602085019450602081019050613adb565b86831015613b1d5784890151613b19601f891682613a26565b8355505b6001600288020188555050505b505050505050565b7f50726f6a65637420646f6573206e6f7420657869737400000000000000000000600082015250565b6000613b686016836129ff565b9150613b7382613b32565b602082019050919050565b60006020820190508181036000830152613b9781613b5b565b905091905056fea264697066735822122091c45085559c6a61831e931d33ead62f61a6a09eb204a66f4481956311f8bcb764736f6c63430008120033",
					"opcodes": "PUSH1 0x80 PUSH1 0x40 MSTORE PUSH1 0x0 PUSH1 0x1 SSTORE CALLVALUE DUP1 ISZERO PUSH2 0x15 JUMPI PUSH1 0x0 DUP1 REVERT JUMPDEST POP CALLER PUSH1 0x0 DUP1 PUSH2 0x100 EXP DUP2 SLOAD DUP2 PUSH20 0xFFFFFFFFFFFFFFFFFFFFFFFFFFFFFFFFFFFFFFFF MUL NOT AND SWAP1 DUP4 PUSH20 0xFFFFFFFFFFFFFFFFFFFFFFFFFFFFFFFFFFFFFFFF AND MUL OR SWAP1 SSTORE POP PUSH2 0x3BD4 DUP1 PUSH2 0x65 PUSH1 0x0 CODECOPY PUSH1 0x0 RETURN INVALID PUSH1 0x80 PUSH1 0x40 MSTORE CALLVALUE DUP1 ISZERO PUSH2 0x10 JUMPI PUSH1 0x0 DUP1 REVERT JUMPDEST POP PUSH1 0x4 CALLDATASIZE LT PUSH2 0xB4 JUMPI PUSH1 0x0 CALLDATALOAD PUSH1 0xE0 SHR DUP1 PUSH4 0x84144A44 GT PUSH2 0x71 JUMPI DUP1 PUSH4 0x84144A44 EQ PUSH2 0x1BC JUMPI DUP1 PUSH4 0x8DA5CB5B EQ PUSH2 0x1D8 JUMPI DUP1 PUSH4 0xABBDC747 EQ PUSH2 0x1F6 JUMPI DUP1 PUSH4 0xBEE5CDCA EQ PUSH2 0x212 JUMPI DUP1 PUSH4 0xE4B0954B EQ PUSH2 0x242 JUMPI DUP1 PUSH4 0xE935B7B1 EQ PUSH2 0x272 JUMPI PUSH2 0xB4 JUMP JUMPDEST DUP1 PUSH4 0x107046BD EQ PUSH2 0xB9 JUMPI DUP1 PUSH4 0x3D9597B6 EQ PUSH2 0xF2 JUMPI DUP1 PUSH4 0x57E30C15 EQ PUSH2 0x122 JUMPI DUP1 PUSH4 0x80D03829 EQ PUSH2 0x152 JUMPI DUP1 PUSH4 0x8177DC10 EQ PUSH2 0x170 JUMPI DUP1 PUSH4 0x827184E1 EQ PUSH2 0x1A0 JUMPI JUMPDEST PUSH1 0x0 DUP1 REVERT JUMPDEST PUSH2 0xD3 PUSH1 0x4 DUP1 CALLDATASIZE SUB DUP2 ADD SWAP1 PUSH2 0xCE SWAP2 SWAP1 PUSH2 0x29B8 JUMP JUMPDEST PUSH2 0x290 JUMP JUMPDEST PUSH1 0x40 MLOAD PUSH2 0xE9 SWAP11 SWAP10 SWAP9 SWAP8 SWAP7 SWAP6 SWAP5 SWAP4 SWAP3 SWAP2 SWAP1 PUSH2 0x2A84 JUMP JUMPDEST PUSH1 0x40 MLOAD DUP1 SWAP2 SUB SWAP1 RETURN JUMPDEST PUSH2 0x10C PUSH1 0x4 DUP1 CALLDATASIZE SUB DUP2 ADD SWAP1 PUSH2 0x107 SWAP2 SWAP1 PUSH2 0x2C86 JUMP JUMPDEST PUSH2 0x6AC JUMP JUMPDEST PUSH1 0x40 MLOAD PUSH2 0x119 SWAP2 SWAP1 PUSH2 0x2EEE JUMP JUMPDEST PUSH1 0x40 MLOAD DUP1 SWAP2 SUB SWAP1 RETURN JUMPDEST PUSH2 0x13C PUSH1 0x4 DUP1 CALLDATASIZE SUB DUP2 ADD SWAP1 PUSH2 0x137 SWAP2 SWAP1 PUSH2 0x2F10 JUMP JUMPDEST PUSH2 0xBBC JUMP JUMPDEST PUSH1 0x40 MLOAD PUSH2 0x149 SWAP2 SWAP1 PUSH2 0x2EEE JUMP JUMPDEST PUSH1 0x40 MLOAD DUP1 SWAP2 SUB SWAP1 RETURN JUMPDEST PUSH2 0x15A PUSH2 0x1149 JUMP JUMPDEST PUSH1 0x40 MLOAD PUSH2 0x167 SWAP2 SWAP1 PUSH2 0x2EEE JUMP JUMPDEST PUSH1 0x40 MLOAD DUP1 SWAP2 SUB SWAP1 RETURN JUMPDEST PUSH2 0x18A PUSH1 0x4 DUP1 CALLDATASIZE SUB DUP2 ADD SWAP1 PUSH2 0x185 SWAP2 SWAP1 PUSH2 0x2C86 JUMP JUMPDEST PUSH2 0x15C5 JUMP JUMPDEST PUSH1 0x40 MLOAD PUSH2 0x197 SWAP2 SWAP1 PUSH2 0x308C JUMP JUMPDEST PUSH1 0x40 MLOAD DUP1 SWAP2 SUB SWAP1 RETURN JUMPDEST PUSH2 0x1BA PUSH1 0x4 DUP1 CALLDATASIZE SUB DUP2 ADD SWAP1 PUSH2 0x1B5 SWAP2 SWAP1 PUSH2 0x30AE JUMP JUMPDEST PUSH2 0x1AFA JUMP JUMPDEST STOP JUMPDEST PUSH2 0x1D6 PUSH1 0x4 DUP1 CALLDATASIZE SUB DUP2 ADD SWAP1 PUSH2 0x1D1 SWAP2 SWAP1 PUSH2 0x30EE JUMP JUMPDEST PUSH2 0x1B75 JUMP JUMPDEST STOP JUMPDEST PUSH2 0x1E0 PUSH2 0x1EBD JUMP JUMPDEST PUSH1 0x40 MLOAD PUSH2 0x1ED SWAP2 SWAP1 PUSH2 0x325D JUMP JUMPDEST PUSH1 0x40 MLOAD DUP1 SWAP2 SUB SWAP1 RETURN JUMPDEST PUSH2 0x210 PUSH1 0x4 DUP1 CALLDATASIZE SUB DUP2 ADD SWAP1 PUSH2 0x20B SWAP2 SWAP1 PUSH2 0x3278 JUMP JUMPDEST PUSH2 0x1EE1 JUMP JUMPDEST STOP JUMPDEST PUSH2 0x22C PUSH1 0x4 DUP1 CALLDATASIZE SUB DUP2 ADD SWAP1 PUSH2 0x227 SWAP2 SWAP1 PUSH2 0x29B8 JUMP JUMPDEST PUSH2 0x1F65 JUMP JUMPDEST PUSH1 0x40 MLOAD PUSH2 0x239 SWAP2 SWAP1 PUSH2 0x308C JUMP JUMPDEST PUSH1 0x40 MLOAD DUP1 SWAP2 SUB SWAP1 RETURN JUMPDEST PUSH2 0x25C PUSH1 0x4 DUP1 CALLDATASIZE SUB DUP2 ADD SWAP1 PUSH2 0x257 SWAP2 SWAP1 PUSH2 0x2C86 JUMP JUMPDEST PUSH2 0x2405 JUMP JUMPDEST PUSH1 0x40 MLOAD PUSH2 0x269 SWAP2 SWAP1 PUSH2 0x2EEE JUMP JUMPDEST PUSH1 0x40 MLOAD DUP1 SWAP2 SUB SWAP1 RETURN JUMPDEST PUSH2 0x27A PUSH2 0x2915 JUMP JUMPDEST PUSH1 0x40 MLOAD PUSH2 0x287 SWAP2 SWAP1 PUSH2 0x32D4 JUMP JUMPDEST PUSH1 0x40 MLOAD DUP1 SWAP2 SUB SWAP1 RETURN JUMPDEST PUSH1 0x2 DUP2 DUP2 SLOAD DUP2 LT PUSH2 0x2A0 JUMPI PUSH1 0x0 DUP1 REVERT JUMPDEST SWAP1 PUSH1 0x0 MSTORE PUSH1 0x20 PUSH1 0x0 KECCAK256 SWAP1 PUSH1 0xA MUL ADD PUSH1 0x0 SWAP2 POP SWAP1 POP DUP1 PUSH1 0x0 ADD SLOAD SWAP1 DUP1 PUSH1 0x1 ADD DUP1 SLOAD PUSH2 0x2C9 SWAP1 PUSH2 0x331E JUMP JUMPDEST DUP1 PUSH1 0x1F ADD PUSH1 0x20 DUP1 SWAP2 DIV MUL PUSH1 0x20 ADD PUSH1 0x40 MLOAD SWAP1 DUP2 ADD PUSH1 0x40 MSTORE DUP1 SWAP3 SWAP2 SWAP1 DUP2 DUP2 MSTORE PUSH1 0x20 ADD DUP3 DUP1 SLOAD PUSH2 0x2F5 SWAP1 PUSH2 0x331E JUMP JUMPDEST DUP1 ISZERO PUSH2 0x342 JUMPI DUP1 PUSH1 0x1F LT PUSH2 0x317 JUMPI PUSH2 0x100 DUP1 DUP4 SLOAD DIV MUL DUP4 MSTORE SWAP2 PUSH1 0x20 ADD SWAP2 PUSH2 0x342 JUMP JUMPDEST DUP3 ADD SWAP2 SWAP1 PUSH1 0x0 MSTORE PUSH1 0x20 PUSH1 0x0 KECCAK256 SWAP1 JUMPDEST DUP2 SLOAD DUP2 MSTORE SWAP1 PUSH1 0x1 ADD SWAP1 PUSH1 0x20 ADD DUP1 DUP4 GT PUSH2 0x325 JUMPI DUP3 SWAP1 SUB PUSH1 0x1F AND DUP3 ADD SWAP2 JUMPDEST POP POP POP POP POP SWAP1 DUP1 PUSH1 0x2 ADD DUP1 SLOAD PUSH2 0x357 SWAP1 PUSH2 0x331E JUMP JUMPDEST DUP1 PUSH1 0x1F ADD PUSH1 0x20 DUP1 SWAP2 DIV MUL PUSH1 0x20 ADD PUSH1 0x40 MLOAD SWAP1 DUP2 ADD PUSH1 0x40 MSTORE DUP1 SWAP3 SWAP2 SWAP1 DUP2 DUP2 MSTORE PUSH1 0x20 ADD DUP3 DUP1 SLOAD PUSH2 0x383 SWAP1 PUSH2 0x331E JUMP JUMPDEST DUP1 ISZERO PUSH2 0x3D0 JUMPI DUP1 PUSH1 0x1F LT PUSH2 0x3A5 JUMPI PUSH2 0x100 DUP1 DUP4 SLOAD DIV MUL DUP4 MSTORE SWAP2 PUSH1 0x20 ADD SWAP2 PUSH2 0x3D0 JUMP JUMPDEST DUP3 ADD SWAP2 SWAP1 PUSH1 0x0 MSTORE PUSH1 0x20 PUSH1 0x0 KECCAK256 SWAP1 JUMPDEST DUP2 SLOAD DUP2 MSTORE SWAP1 PUSH1 0x1 ADD SWAP1 PUSH1 0x20 ADD DUP1 DUP4 GT PUSH2 0x3B3 JUMPI DUP3 SWAP1 SUB PUSH1 0x1F AND DUP3 ADD SWAP2 JUMPDEST POP POP POP POP POP SWAP1 DUP1 PUSH1 0x3 ADD DUP1 SLOAD PUSH2 0x3E5 SWAP1 PUSH2 0x331E JUMP JUMPDEST DUP1 PUSH1 0x1F ADD PUSH1 0x20 DUP1 SWAP2 DIV MUL PUSH1 0x20 ADD PUSH1 0x40 MLOAD SWAP1 DUP2 ADD PUSH1 0x40 MSTORE DUP1 SWAP3 SWAP2 SWAP1 DUP2 DUP2 MSTORE PUSH1 0x20 ADD DUP3 DUP1 SLOAD PUSH2 0x411 SWAP1 PUSH2 0x331E JUMP JUMPDEST DUP1 ISZERO PUSH2 0x45E JUMPI DUP1 PUSH1 0x1F LT PUSH2 0x433 JUMPI PUSH2 0x100 DUP1 DUP4 SLOAD DIV MUL DUP4 MSTORE SWAP2 PUSH1 0x20 ADD SWAP2 PUSH2 0x45E JUMP JUMPDEST DUP3 ADD SWAP2 SWAP1 PUSH1 0x0 MSTORE PUSH1 0x20 PUSH1 0x0 KECCAK256 SWAP1 JUMPDEST DUP2 SLOAD DUP2 MSTORE SWAP1 PUSH1 0x1 ADD SWAP1 PUSH1 0x20 ADD DUP1 DUP4 GT PUSH2 0x441 JUMPI DUP3 SWAP1 SUB PUSH1 0x1F AND DUP3 ADD SWAP2 JUMPDEST POP POP POP POP POP SWAP1 DUP1 PUSH1 0x4 ADD SLOAD SWAP1 DUP1 PUSH1 0x5 ADD SLOAD SWAP1 DUP1 PUSH1 0x6 ADD DUP1 SLOAD PUSH2 0x47F SWAP1 PUSH2 0x331E JUMP JUMPDEST DUP1 PUSH1 0x1F ADD PUSH1 0x20 DUP1 SWAP2 DIV MUL PUSH1 0x20 ADD PUSH1 0x40 MLOAD SWAP1 DUP2 ADD PUSH1 0x40 MSTORE DUP1 SWAP3 SWAP2 SWAP1 DUP2 DUP2 MSTORE PUSH1 0x20 ADD DUP3 DUP1 SLOAD PUSH2 0x4AB SWAP1 PUSH2 0x331E JUMP JUMPDEST DUP1 ISZERO PUSH2 0x4F8 JUMPI DUP1 PUSH1 0x1F LT PUSH2 0x4CD JUMPI PUSH2 0x100 DUP1 DUP4 SLOAD DIV MUL DUP4 MSTORE SWAP2 PUSH1 0x20 ADD SWAP2 PUSH2 0x4F8 JUMP JUMPDEST DUP3 ADD SWAP2 SWAP1 PUSH1 0x0 MSTORE PUSH1 0x20 PUSH1 0x0 KECCAK256 SWAP1 JUMPDEST DUP2 SLOAD DUP2 MSTORE SWAP1 PUSH1 0x1 ADD SWAP1 PUSH1 0x20 ADD DUP1 DUP4 GT PUSH2 0x4DB JUMPI DUP3 SWAP1 SUB PUSH1 0x1F AND DUP3 ADD SWAP2 JUMPDEST POP POP POP POP POP SWAP1 DUP1 PUSH1 0x7 ADD DUP1 SLOAD PUSH2 0x50D SWAP1 PUSH2 0x331E JUMP JUMPDEST DUP1 PUSH1 0x1F ADD PUSH1 0x20 DUP1 SWAP2 DIV MUL PUSH1 0x20 ADD PUSH1 0x40 MLOAD SWAP1 DUP2 ADD PUSH1 0x40 MSTORE DUP1 SWAP3 SWAP2 SWAP1 DUP2 DUP2 MSTORE PUSH1 0x20 ADD DUP3 DUP1 SLOAD PUSH2 0x539 SWAP1 PUSH2 0x331E JUMP JUMPDEST DUP1 ISZERO PUSH2 0x586 JUMPI DUP1 PUSH1 0x1F LT PUSH2 0x55B JUMPI PUSH2 0x100 DUP1 DUP4 SLOAD DIV MUL DUP4 MSTORE SWAP2 PUSH1 0x20 ADD SWAP2 PUSH2 0x586 JUMP JUMPDEST DUP3 ADD SWAP2 SWAP1 PUSH1 0x0 MSTORE PUSH1 0x20 PUSH1 0x0 KECCAK256 SWAP1 JUMPDEST DUP2 SLOAD DUP2 MSTORE SWAP1 PUSH1 0x1 ADD SWAP1 PUSH1 0x20 ADD DUP1 DUP4 GT PUSH2 0x569 JUMPI DUP3 SWAP1 SUB PUSH1 0x1F AND DUP3 ADD SWAP2 JUMPDEST POP POP POP POP POP SWAP1 DUP1 PUSH1 0x8 ADD DUP1 SLOAD PUSH2 0x59B SWAP1 PUSH2 0x331E JUMP JUMPDEST DUP1 PUSH1 0x1F ADD PUSH1 0x20 DUP1 SWAP2 DIV MUL PUSH1 0x20 ADD PUSH1 0x40 MLOAD SWAP1 DUP2 ADD PUSH1 0x40 MSTORE DUP1 SWAP3 SWAP2 SWAP1 DUP2 DUP2 MSTORE PUSH1 0x20 ADD DUP3 DUP1 SLOAD PUSH2 0x5C7 SWAP1 PUSH2 0x331E JUMP JUMPDEST DUP1 ISZERO PUSH2 0x614 JUMPI DUP1 PUSH1 0x1F LT PUSH2 0x5E9 JUMPI PUSH2 0x100 DUP1 DUP4 SLOAD DIV MUL DUP4 MSTORE SWAP2 PUSH1 0x20 ADD SWAP2 PUSH2 0x614 JUMP JUMPDEST DUP3 ADD SWAP2 SWAP1 PUSH1 0x0 MSTORE PUSH1 0x20 PUSH1 0x0 KECCAK256 SWAP1 JUMPDEST DUP2 SLOAD DUP2 MSTORE SWAP1 PUSH1 0x1 ADD SWAP1 PUSH1 0x20 ADD DUP1 DUP4 GT PUSH2 0x5F7 JUMPI DUP3 SWAP1 SUB PUSH1 0x1F AND DUP3 ADD SWAP2 JUMPDEST POP POP POP POP POP SWAP1 DUP1 PUSH1 0x9 ADD DUP1 SLOAD PUSH2 0x629 SWAP1 PUSH2 0x331E JUMP JUMPDEST DUP1 PUSH1 0x1F ADD PUSH1 0x20 DUP1 SWAP2 DIV MUL PUSH1 0x20 ADD PUSH1 0x40 MLOAD SWAP1 DUP2 ADD PUSH1 0x40 MSTORE DUP1 SWAP3 SWAP2 SWAP1 DUP2 DUP2 MSTORE PUSH1 0x20 ADD DUP3 DUP1 SLOAD PUSH2 0x655 SWAP1 PUSH2 0x331E JUMP JUMPDEST DUP1 ISZERO PUSH2 0x6A2 JUMPI DUP1 PUSH1 0x1F LT PUSH2 0x677 JUMPI PUSH2 0x100 DUP1 DUP4 SLOAD DIV MUL DUP4 MSTORE SWAP2 PUSH1 0x20 ADD SWAP2 PUSH2 0x6A2 JUMP JUMPDEST DUP3 ADD SWAP2 SWAP1 PUSH1 0x0 MSTORE PUSH1 0x20 PUSH1 0x0 KECCAK256 SWAP1 JUMPDEST DUP2 SLOAD DUP2 MSTORE SWAP1 PUSH1 0x1 ADD SWAP1 PUSH1 0x20 ADD DUP1 DUP4 GT PUSH2 0x685 JUMPI DUP3 SWAP1 SUB PUSH1 0x1F AND DUP3 ADD SWAP2 JUMPDEST POP POP POP POP POP SWAP1 POP DUP11 JUMP JUMPDEST PUSH1 0x60 DUP1 PUSH1 0x0 JUMPDEST PUSH1 0x2 DUP1 SLOAD SWAP1 POP DUP2 LT ISZERO PUSH2 0xBB2 JUMPI DUP4 PUSH1 0x40 MLOAD PUSH1 0x20 ADD PUSH2 0x6D0 SWAP2 SWAP1 PUSH2 0x338B JUMP JUMPDEST PUSH1 0x40 MLOAD PUSH1 0x20 DUP2 DUP4 SUB SUB DUP2 MSTORE SWAP1 PUSH1 0x40 MSTORE DUP1 MLOAD SWAP1 PUSH1 0x20 ADD KECCAK256 PUSH1 0x2 DUP3 DUP2 SLOAD DUP2 LT PUSH2 0x6FA JUMPI PUSH2 0x6F9 PUSH2 0x33A2 JUMP JUMPDEST JUMPDEST SWAP1 PUSH1 0x0 MSTORE PUSH1 0x20 PUSH1 0x0 KECCAK256 SWAP1 PUSH1 0xA MUL ADD PUSH1 0x8 ADD PUSH1 0x40 MLOAD PUSH1 0x20 ADD PUSH2 0x71B SWAP2 SWAP1 PUSH2 0x3469 JUMP JUMPDEST PUSH1 0x40 MLOAD PUSH1 0x20 DUP2 DUP4 SUB SUB DUP2 MSTORE SWAP1 PUSH1 0x40 MSTORE DUP1 MLOAD SWAP1 PUSH1 0x20 ADD KECCAK256 SUB PUSH2 0xB9F JUMPI PUSH1 0x2 DUP2 DUP2 SLOAD DUP2 LT PUSH2 0x74A JUMPI PUSH2 0x749 PUSH2 0x33A2 JUMP JUMPDEST JUMPDEST SWAP1 PUSH1 0x0 MSTORE PUSH1 0x20 PUSH1 0x0 KECCAK256 SWAP1 PUSH1 0xA MUL ADD PUSH1 0x40 MLOAD DUP1 PUSH2 0x140 ADD PUSH1 0x40 MSTORE SWAP1 DUP2 PUSH1 0x0 DUP3 ADD SLOAD DUP2 MSTORE PUSH1 0x20 ADD PUSH1 0x1 DUP3 ADD DUP1 SLOAD PUSH2 0x77E SWAP1 PUSH2 0x331E JUMP JUMPDEST DUP1 PUSH1 0x1F ADD PUSH1 0x20 DUP1 SWAP2 DIV MUL PUSH1 0x20 ADD PUSH1 0x40 MLOAD SWAP1 DUP2 ADD PUSH1 0x40 MSTORE DUP1 SWAP3 SWAP2 SWAP1 DUP2 DUP2 MSTORE PUSH1 0x20 ADD DUP3 DUP1 SLOAD PUSH2 0x7AA SWAP1 PUSH2 0x331E JUMP JUMPDEST DUP1 ISZERO PUSH2 0x7F7 JUMPI DUP1 PUSH1 0x1F LT PUSH2 0x7CC JUMPI PUSH2 0x100 DUP1 DUP4 SLOAD DIV MUL DUP4 MSTORE SWAP2 PUSH1 0x20 ADD SWAP2 PUSH2 0x7F7 JUMP JUMPDEST DUP3 ADD SWAP2 SWAP1 PUSH1 0x0 MSTORE PUSH1 0x20 PUSH1 0x0 KECCAK256 SWAP1 JUMPDEST DUP2 SLOAD DUP2 MSTORE SWAP1 PUSH1 0x1 ADD SWAP1 PUSH1 0x20 ADD DUP1 DUP4 GT PUSH2 0x7DA JUMPI DUP3 SWAP1 SUB PUSH1 0x1F AND DUP3 ADD SWAP2 JUMPDEST POP POP POP POP POP DUP2 MSTORE PUSH1 0x20 ADD PUSH1 0x2 DUP3 ADD DUP1 SLOAD PUSH2 0x810 SWAP1 PUSH2 0x331E JUMP JUMPDEST DUP1 PUSH1 0x1F ADD PUSH1 0x20 DUP1 SWAP2 DIV MUL PUSH1 0x20 ADD PUSH1 0x40 MLOAD SWAP1 DUP2 ADD PUSH1 0x40 MSTORE DUP1 SWAP3 SWAP2 SWAP1 DUP2 DUP2 MSTORE PUSH1 0x20 ADD DUP3 DUP1 SLOAD PUSH2 0x83C SWAP1 PUSH2 0x331E JUMP JUMPDEST DUP1 ISZERO PUSH2 0x889 JUMPI DUP1 PUSH1 0x1F LT PUSH2 0x85E JUMPI PUSH2 0x100 DUP1 DUP4 SLOAD DIV MUL DUP4 MSTORE SWAP2 PUSH1 0x20 ADD SWAP2 PUSH2 0x889 JUMP JUMPDEST DUP3 ADD SWAP2 SWAP1 PUSH1 0x0 MSTORE PUSH1 0x20 PUSH1 0x0 KECCAK256 SWAP1 JUMPDEST DUP2 SLOAD DUP2 MSTORE SWAP1 PUSH1 0x1 ADD SWAP1 PUSH1 0x20 ADD DUP1 DUP4 GT PUSH2 0x86C JUMPI DUP3 SWAP1 SUB PUSH1 0x1F AND DUP3 ADD SWAP2 JUMPDEST POP POP POP POP POP DUP2 MSTORE PUSH1 0x20 ADD PUSH1 0x3 DUP3 ADD DUP1 SLOAD PUSH2 0x8A2 SWAP1 PUSH2 0x331E JUMP JUMPDEST DUP1 PUSH1 0x1F ADD PUSH1 0x20 DUP1 SWAP2 DIV MUL PUSH1 0x20 ADD PUSH1 0x40 MLOAD SWAP1 DUP2 ADD PUSH1 0x40 MSTORE DUP1 SWAP3 SWAP2 SWAP1 DUP2 DUP2 MSTORE PUSH1 0x20 ADD DUP3 DUP1 SLOAD PUSH2 0x8CE SWAP1 PUSH2 0x331E JUMP JUMPDEST DUP1 ISZERO PUSH2 0x91B JUMPI DUP1 PUSH1 0x1F LT PUSH2 0x8F0 JUMPI PUSH2 0x100 DUP1 DUP4 SLOAD DIV MUL DUP4 MSTORE SWAP2 PUSH1 0x20 ADD SWAP2 PUSH2 0x91B JUMP JUMPDEST DUP3 ADD SWAP2 SWAP1 PUSH1 0x0 MSTORE PUSH1 0x20 PUSH1 0x0 KECCAK256 SWAP1 JUMPDEST DUP2 SLOAD DUP2 MSTORE SWAP1 PUSH1 0x1 ADD SWAP1 PUSH1 0x20 ADD DUP1 DUP4 GT PUSH2 0x8FE JUMPI DUP3 SWAP1 SUB PUSH1 0x1F AND DUP3 ADD SWAP2 JUMPDEST POP POP POP POP POP DUP2 MSTORE PUSH1 0x20 ADD PUSH1 0x4 DUP3 ADD SLOAD DUP2 MSTORE PUSH1 0x20 ADD PUSH1 0x5 DUP3 ADD SLOAD DUP2 MSTORE PUSH1 0x20 ADD PUSH1 0x6 DUP3 ADD DUP1 SLOAD PUSH2 0x948 SWAP1 PUSH2 0x331E JUMP JUMPDEST DUP1 PUSH1 0x1F ADD PUSH1 0x20 DUP1 SWAP2 DIV MUL PUSH1 0x20 ADD PUSH1 0x40 MLOAD SWAP1 DUP2 ADD PUSH1 0x40 MSTORE DUP1 SWAP3 SWAP2 SWAP1 DUP2 DUP2 MSTORE PUSH1 0x20 ADD DUP3 DUP1 SLOAD PUSH2 0x974 SWAP1 PUSH2 0x331E JUMP JUMPDEST DUP1 ISZERO PUSH2 0x9C1 JUMPI DUP1 PUSH1 0x1F LT PUSH2 0x996 JUMPI PUSH2 0x100 DUP1 DUP4 SLOAD DIV MUL DUP4 MSTORE SWAP2 PUSH1 0x20 ADD SWAP2 PUSH2 0x9C1 JUMP JUMPDEST DUP3 ADD SWAP2 SWAP1 PUSH1 0x0 MSTORE PUSH1 0x20 PUSH1 0x0 KECCAK256 SWAP1 JUMPDEST DUP2 SLOAD DUP2 MSTORE SWAP1 PUSH1 0x1 ADD SWAP1 PUSH1 0x20 ADD DUP1 DUP4 GT PUSH2 0x9A4 JUMPI DUP3 SWAP1 SUB PUSH1 0x1F AND DUP3 ADD SWAP2 JUMPDEST POP POP POP POP POP DUP2 MSTORE PUSH1 0x20 ADD PUSH1 0x7 DUP3 ADD DUP1 SLOAD PUSH2 0x9DA SWAP1 PUSH2 0x331E JUMP JUMPDEST DUP1 PUSH1 0x1F ADD PUSH1 0x20 DUP1 SWAP2 DIV MUL PUSH1 0x20 ADD PUSH1 0x40 MLOAD SWAP1 DUP2 ADD PUSH1 0x40 MSTORE DUP1 SWAP3 SWAP2 SWAP1 DUP2 DUP2 MSTORE PUSH1 0x20 ADD DUP3 DUP1 SLOAD PUSH2 0xA06 SWAP1 PUSH2 0x331E JUMP JUMPDEST DUP1 ISZERO PUSH2 0xA53 JUMPI DUP1 PUSH1 0x1F LT PUSH2 0xA28 JUMPI PUSH2 0x100 DUP1 DUP4 SLOAD DIV MUL DUP4 MSTORE SWAP2 PUSH1 0x20 ADD SWAP2 PUSH2 0xA53 JUMP JUMPDEST DUP3 ADD SWAP2 SWAP1 PUSH1 0x0 MSTORE PUSH1 0x20 PUSH1 0x0 KECCAK256 SWAP1 JUMPDEST DUP2 SLOAD DUP2 MSTORE SWAP1 PUSH1 0x1 ADD SWAP1 PUSH1 0x20 ADD DUP1 DUP4 GT PUSH2 0xA36 JUMPI DUP3 SWAP1 SUB PUSH1 0x1F AND DUP3 ADD SWAP2 JUMPDEST POP POP POP POP POP DUP2 MSTORE PUSH1 0x20 ADD PUSH1 0x8 DUP3 ADD DUP1 SLOAD PUSH2 0xA6C SWAP1 PUSH2 0x331E JUMP JUMPDEST DUP1 PUSH1 0x1F ADD PUSH1 0x20 DUP1 SWAP2 DIV MUL PUSH1 0x20 ADD PUSH1 0x40 MLOAD SWAP1 DUP2 ADD PUSH1 0x40 MSTORE DUP1 SWAP3 SWAP2 SWAP1 DUP2 DUP2 MSTORE PUSH1 0x20 ADD DUP3 DUP1 SLOAD PUSH2 0xA98 SWAP1 PUSH2 0x331E JUMP JUMPDEST DUP1 ISZERO PUSH2 0xAE5 JUMPI DUP1 PUSH1 0x1F LT PUSH2 0xABA JUMPI PUSH2 0x100 DUP1 DUP4 SLOAD DIV MUL DUP4 MSTORE SWAP2 PUSH1 0x20 ADD SWAP2 PUSH2 0xAE5 JUMP JUMPDEST DUP3 ADD SWAP2 SWAP1 PUSH1 0x0 MSTORE PUSH1 0x20 PUSH1 0x0 KECCAK256 SWAP1 JUMPDEST DUP2 SLOAD DUP2 MSTORE SWAP1 PUSH1 0x1 ADD SWAP1 PUSH1 0x20 ADD DUP1 DUP4 GT PUSH2 0xAC8 JUMPI DUP3 SWAP1 SUB PUSH1 0x1F AND DUP3 ADD SWAP2 JUMPDEST POP POP POP POP POP DUP2 MSTORE PUSH1 0x20 ADD PUSH1 0x9 DUP3 ADD DUP1 SLOAD PUSH2 0xAFE SWAP1 PUSH2 0x331E JUMP JUMPDEST DUP1 PUSH1 0x1F ADD PUSH1 0x20 DUP1 SWAP2 DIV MUL PUSH1 0x20 ADD PUSH1 0x40 MLOAD SWAP1 DUP2 ADD PUSH1 0x40 MSTORE DUP1 SWAP3 SWAP2 SWAP1 DUP2 DUP2 MSTORE PUSH1 0x20 ADD DUP3 DUP1 SLOAD PUSH2 0xB2A SWAP1 PUSH2 0x331E JUMP JUMPDEST DUP1 ISZERO PUSH2 0xB77 JUMPI DUP1 PUSH1 0x1F LT PUSH2 0xB4C JUMPI PUSH2 0x100 DUP1 DUP4 SLOAD DIV MUL DUP4 MSTORE SWAP2 PUSH1 0x20 ADD SWAP2 PUSH2 0xB77 JUMP JUMPDEST DUP3 ADD SWAP2 SWAP1 PUSH1 0x0 MSTORE PUSH1 0x20 PUSH1 0x0 KECCAK256 SWAP1 JUMPDEST DUP2 SLOAD DUP2 MSTORE SWAP1 PUSH1 0x1 ADD SWAP1 PUSH1 0x20 ADD DUP1 DUP4 GT PUSH2 0xB5A JUMPI DUP3 SWAP1 SUB PUSH1 0x1F AND DUP3 ADD SWAP2 JUMPDEST POP POP POP POP POP DUP2 MSTORE POP POP DUP3 DUP3 DUP2 MLOAD DUP2 LT PUSH2 0xB93 JUMPI PUSH2 0xB92 PUSH2 0x33A2 JUMP JUMPDEST JUMPDEST PUSH1 0x20 MUL PUSH1 0x20 ADD ADD DUP2 SWAP1 MSTORE POP JUMPDEST DUP1 DUP1 PUSH2 0xBAA SWAP1 PUSH2 0x34AF JUMP JUMPDEST SWAP2 POP POP PUSH2 0x6B2 JUMP JUMPDEST POP DUP1 SWAP2 POP POP SWAP2 SWAP1 POP JUMP JUMPDEST PUSH1 0x60 DUP1 PUSH1 0x0 JUMPDEST PUSH1 0x2 DUP1 SLOAD SWAP1 POP DUP2 LT ISZERO PUSH2 0x113E JUMPI DUP5 PUSH1 0x40 MLOAD PUSH1 0x20 ADD PUSH2 0xBE0 SWAP2 SWAP1 PUSH2 0x338B JUMP JUMPDEST PUSH1 0x40 MLOAD PUSH1 0x20 DUP2 DUP4 SUB SUB DUP2 MSTORE SWAP1 PUSH1 0x40 MSTORE DUP1 MLOAD SWAP1 PUSH1 0x20 ADD KECCAK256 PUSH1 0x2 DUP3 DUP2 SLOAD DUP2 LT PUSH2 0xC0A JUMPI PUSH2 0xC09 PUSH2 0x33A2 JUMP JUMPDEST JUMPDEST SWAP1 PUSH1 0x0 MSTORE PUSH1 0x20 PUSH1 0x0 KECCAK256 SWAP1 PUSH1 0xA MUL ADD PUSH1 0x8 ADD PUSH1 0x40 MLOAD PUSH1 0x20 ADD PUSH2 0xC2B SWAP2 SWAP1 PUSH2 0x3469 JUMP JUMPDEST PUSH1 0x40 MLOAD PUSH1 0x20 DUP2 DUP4 SUB SUB DUP2 MSTORE SWAP1 PUSH1 0x40 MSTORE DUP1 MLOAD SWAP1 PUSH1 0x20 ADD KECCAK256 EQ DUP1 ISZERO PUSH2 0xCBD JUMPI POP DUP4 PUSH1 0x40 MLOAD PUSH1 0x20 ADD PUSH2 0xC5A SWAP2 SWAP1 PUSH2 0x338B JUMP JUMPDEST PUSH1 0x40 MLOAD PUSH1 0x20 DUP2 DUP4 SUB SUB DUP2 MSTORE SWAP1 PUSH1 0x40 MSTORE DUP1 MLOAD SWAP1 PUSH1 0x20 ADD KECCAK256 PUSH1 0x2 DUP3 DUP2 SLOAD DUP2 LT PUSH2 0xC84 JUMPI PUSH2 0xC83 PUSH2 0x33A2 JUMP JUMPDEST JUMPDEST SWAP1 PUSH1 0x0 MSTORE PUSH1 0x20 PUSH1 0x0 KECCAK256 SWAP1 PUSH1 0xA MUL ADD PUSH1 0x9 ADD PUSH1 0x40 MLOAD PUSH1 0x20 ADD PUSH2 0xCA5 SWAP2 SWAP1 PUSH2 0x3469 JUMP JUMPDEST PUSH1 0x40 MLOAD PUSH1 0x20 DUP2 DUP4 SUB SUB DUP2 MSTORE SWAP1 PUSH1 0x40 MSTORE DUP1 MLOAD SWAP1 PUSH1 0x20 ADD KECCAK256 EQ JUMPDEST ISZERO PUSH2 0x112B JUMPI PUSH1 0x2 DUP2 DUP2 SLOAD DUP2 LT PUSH2 0xCD6 JUMPI PUSH2 0xCD5 PUSH2 0x33A2 JUMP JUMPDEST JUMPDEST SWAP1 PUSH1 0x0 MSTORE PUSH1 0x20 PUSH1 0x0 KECCAK256 SWAP1 PUSH1 0xA MUL ADD PUSH1 0x40 MLOAD DUP1 PUSH2 0x140 ADD PUSH1 0x40 MSTORE SWAP1 DUP2 PUSH1 0x0 DUP3 ADD SLOAD DUP2 MSTORE PUSH1 0x20 ADD PUSH1 0x1 DUP3 ADD DUP1 SLOAD PUSH2 0xD0A SWAP1 PUSH2 0x331E JUMP JUMPDEST DUP1 PUSH1 0x1F ADD PUSH1 0x20 DUP1 SWAP2 DIV MUL PUSH1 0x20 ADD PUSH1 0x40 MLOAD SWAP1 DUP2 ADD PUSH1 0x40 MSTORE DUP1 SWAP3 SWAP2 SWAP1 DUP2 DUP2 MSTORE PUSH1 0x20 ADD DUP3 DUP1 SLOAD PUSH2 0xD36 SWAP1 PUSH2 0x331E JUMP JUMPDEST DUP1 ISZERO PUSH2 0xD83 JUMPI DUP1 PUSH1 0x1F LT PUSH2 0xD58 JUMPI PUSH2 0x100 DUP1 DUP4 SLOAD DIV MUL DUP4 MSTORE SWAP2 PUSH1 0x20 ADD SWAP2 PUSH2 0xD83 JUMP JUMPDEST DUP3 ADD SWAP2 SWAP1 PUSH1 0x0 MSTORE PUSH1 0x20 PUSH1 0x0 KECCAK256 SWAP1 JUMPDEST DUP2 SLOAD DUP2 MSTORE SWAP1 PUSH1 0x1 ADD SWAP1 PUSH1 0x20 ADD DUP1 DUP4 GT PUSH2 0xD66 JUMPI DUP3 SWAP1 SUB PUSH1 0x1F AND DUP3 ADD SWAP2 JUMPDEST POP POP POP POP POP DUP2 MSTORE PUSH1 0x20 ADD PUSH1 0x2 DUP3 ADD DUP1 SLOAD PUSH2 0xD9C SWAP1 PUSH2 0x331E JUMP JUMPDEST DUP1 PUSH1 0x1F ADD PUSH1 0x20 DUP1 SWAP2 DIV MUL PUSH1 0x20 ADD PUSH1 0x40 MLOAD SWAP1 DUP2 ADD PUSH1 0x40 MSTORE DUP1 SWAP3 SWAP2 SWAP1 DUP2 DUP2 MSTORE PUSH1 0x20 ADD DUP3 DUP1 SLOAD PUSH2 0xDC8 SWAP1 PUSH2 0x331E JUMP JUMPDEST DUP1 ISZERO PUSH2 0xE15 JUMPI DUP1 PUSH1 0x1F LT PUSH2 0xDEA JUMPI PUSH2 0x100 DUP1 DUP4 SLOAD DIV MUL DUP4 MSTORE SWAP2 PUSH1 0x20 ADD SWAP2 PUSH2 0xE15 JUMP JUMPDEST DUP3 ADD SWAP2 SWAP1 PUSH1 0x0 MSTORE PUSH1 0x20 PUSH1 0x0 KECCAK256 SWAP1 JUMPDEST DUP2 SLOAD DUP2 MSTORE SWAP1 PUSH1 0x1 ADD SWAP1 PUSH1 0x20 ADD DUP1 DUP4 GT PUSH2 0xDF8 JUMPI DUP3 SWAP1 SUB PUSH1 0x1F AND DUP3 ADD SWAP2 JUMPDEST POP POP POP POP POP DUP2 MSTORE PUSH1 0x20 ADD PUSH1 0x3 DUP3 ADD DUP1 SLOAD PUSH2 0xE2E SWAP1 PUSH2 0x331E JUMP JUMPDEST DUP1 PUSH1 0x1F ADD PUSH1 0x20 DUP1 SWAP2 DIV MUL PUSH1 0x20 ADD PUSH1 0x40 MLOAD SWAP1 DUP2 ADD PUSH1 0x40 MSTORE DUP1 SWAP3 SWAP2 SWAP1 DUP2 DUP2 MSTORE PUSH1 0x20 ADD DUP3 DUP1 SLOAD PUSH2 0xE5A SWAP1 PUSH2 0x331E JUMP JUMPDEST DUP1 ISZERO PUSH2 0xEA7 JUMPI DUP1 PUSH1 0x1F LT PUSH2 0xE7C JUMPI PUSH2 0x100 DUP1 DUP4 SLOAD DIV MUL DUP4 MSTORE SWAP2 PUSH1 0x20 ADD SWAP2 PUSH2 0xEA7 JUMP JUMPDEST DUP3 ADD SWAP2 SWAP1 PUSH1 0x0 MSTORE PUSH1 0x20 PUSH1 0x0 KECCAK256 SWAP1 JUMPDEST DUP2 SLOAD DUP2 MSTORE SWAP1 PUSH1 0x1 ADD SWAP1 PUSH1 0x20 ADD DUP1 DUP4 GT PUSH2 0xE8A JUMPI DUP3 SWAP1 SUB PUSH1 0x1F AND DUP3 ADD SWAP2 JUMPDEST POP POP POP POP POP DUP2 MSTORE PUSH1 0x20 ADD PUSH1 0x4 DUP3 ADD SLOAD DUP2 MSTORE PUSH1 0x20 ADD PUSH1 0x5 DUP3 ADD SLOAD DUP2 MSTORE PUSH1 0x20 ADD PUSH1 0x6 DUP3 ADD DUP1 SLOAD PUSH2 0xED4 SWAP1 PUSH2 0x331E JUMP JUMPDEST DUP1 PUSH1 0x1F ADD PUSH1 0x20 DUP1 SWAP2 DIV MUL PUSH1 0x20 ADD PUSH1 0x40 MLOAD SWAP1 DUP2 ADD PUSH1 0x40 MSTORE DUP1 SWAP3 SWAP2 SWAP1 DUP2 DUP2 MSTORE PUSH1 0x20 ADD DUP3 DUP1 SLOAD PUSH2 0xF00 SWAP1 PUSH2 0x331E JUMP JUMPDEST DUP1 ISZERO PUSH2 0xF4D JUMPI DUP1 PUSH1 0x1F LT PUSH2 0xF22 JUMPI PUSH2 0x100 DUP1 DUP4 SLOAD DIV MUL DUP4 MSTORE SWAP2 PUSH1 0x20 ADD SWAP2 PUSH2 0xF4D JUMP JUMPDEST DUP3 ADD SWAP2 SWAP1 PUSH1 0x0 MSTORE PUSH1 0x20 PUSH1 0x0 KECCAK256 SWAP1 JUMPDEST DUP2 SLOAD DUP2 MSTORE SWAP1 PUSH1 0x1 ADD SWAP1 PUSH1 0x20 ADD DUP1 DUP4 GT PUSH2 0xF30 JUMPI DUP3 SWAP1 SUB PUSH1 0x1F AND DUP3 ADD SWAP2 JUMPDEST POP POP POP POP POP DUP2 MSTORE PUSH1 0x20 ADD PUSH1 0x7 DUP3 ADD DUP1 SLOAD PUSH2 0xF66 SWAP1 PUSH2 0x331E JUMP JUMPDEST DUP1 PUSH1 0x1F ADD PUSH1 0x20 DUP1 SWAP2 DIV MUL PUSH1 0x20 ADD PUSH1 0x40 MLOAD SWAP1 DUP2 ADD PUSH1 0x40 MSTORE DUP1 SWAP3 SWAP2 SWAP1 DUP2 DUP2 MSTORE PUSH1 0x20 ADD DUP3 DUP1 SLOAD PUSH2 0xF92 SWAP1 PUSH2 0x331E JUMP JUMPDEST DUP1 ISZERO PUSH2 0xFDF JUMPI DUP1 PUSH1 0x1F LT PUSH2 0xFB4 JUMPI PUSH2 0x100 DUP1 DUP4 SLOAD DIV MUL DUP4 MSTORE SWAP2 PUSH1 0x20 ADD SWAP2 PUSH2 0xFDF JUMP JUMPDEST DUP3 ADD SWAP2 SWAP1 PUSH1 0x0 MSTORE PUSH1 0x20 PUSH1 0x0 KECCAK256 SWAP1 JUMPDEST DUP2 SLOAD DUP2 MSTORE SWAP1 PUSH1 0x1 ADD SWAP1 PUSH1 0x20 ADD DUP1 DUP4 GT PUSH2 0xFC2 JUMPI DUP3 SWAP1 SUB PUSH1 0x1F AND DUP3 ADD SWAP2 JUMPDEST POP POP POP POP POP DUP2 MSTORE PUSH1 0x20 ADD PUSH1 0x8 DUP3 ADD DUP1 SLOAD PUSH2 0xFF8 SWAP1 PUSH2 0x331E JUMP JUMPDEST DUP1 PUSH1 0x1F ADD PUSH1 0x20 DUP1 SWAP2 DIV MUL PUSH1 0x20 ADD PUSH1 0x40 MLOAD SWAP1 DUP2 ADD PUSH1 0x40 MSTORE DUP1 SWAP3 SWAP2 SWAP1 DUP2 DUP2 MSTORE PUSH1 0x20 ADD DUP3 DUP1 SLOAD PUSH2 0x1024 SWAP1 PUSH2 0x331E JUMP JUMPDEST DUP1 ISZERO PUSH2 0x1071 JUMPI DUP1 PUSH1 0x1F LT PUSH2 0x1046 JUMPI PUSH2 0x100 DUP1 DUP4 SLOAD DIV MUL DUP4 MSTORE SWAP2 PUSH1 0x20 ADD SWAP2 PUSH2 0x1071 JUMP JUMPDEST DUP3 ADD SWAP2 SWAP1 PUSH1 0x0 MSTORE PUSH1 0x20 PUSH1 0x0 KECCAK256 SWAP1 JUMPDEST DUP2 SLOAD DUP2 MSTORE SWAP1 PUSH1 0x1 ADD SWAP1 PUSH1 0x20 ADD DUP1 DUP4 GT PUSH2 0x1054 JUMPI DUP3 SWAP1 SUB PUSH1 0x1F AND DUP3 ADD SWAP2 JUMPDEST POP POP POP POP POP DUP2 MSTORE PUSH1 0x20 ADD PUSH1 0x9 DUP3 ADD DUP1 SLOAD PUSH2 0x108A SWAP1 PUSH2 0x331E JUMP JUMPDEST DUP1 PUSH1 0x1F ADD PUSH1 0x20 DUP1 SWAP2 DIV MUL PUSH1 0x20 ADD PUSH1 0x40 MLOAD SWAP1 DUP2 ADD PUSH1 0x40 MSTORE DUP1 SWAP3 SWAP2 SWAP1 DUP2 DUP2 MSTORE PUSH1 0x20 ADD DUP3 DUP1 SLOAD PUSH2 0x10B6 SWAP1 PUSH2 0x331E JUMP JUMPDEST DUP1 ISZERO PUSH2 0x1103 JUMPI DUP1 PUSH1 0x1F LT PUSH2 0x10D8 JUMPI PUSH2 0x100 DUP1 DUP4 SLOAD DIV MUL DUP4 MSTORE SWAP2 PUSH1 0x20 ADD SWAP2 PUSH2 0x1103 JUMP JUMPDEST DUP3 ADD SWAP2 SWAP1 PUSH1 0x0 MSTORE PUSH1 0x20 PUSH1 0x0 KECCAK256 SWAP1 JUMPDEST DUP2 SLOAD DUP2 MSTORE SWAP1 PUSH1 0x1 ADD SWAP1 PUSH1 0x20 ADD DUP1 DUP4 GT PUSH2 0x10E6 JUMPI DUP3 SWAP1 SUB PUSH1 0x1F AND DUP3 ADD SWAP2 JUMPDEST POP POP POP POP POP DUP2 MSTORE POP POP DUP3 DUP3 DUP2 MLOAD DUP2 LT PUSH2 0x111F JUMPI PUSH2 0x111E PUSH2 0x33A2 JUMP JUMPDEST JUMPDEST PUSH1 0x20 MUL PUSH1 0x20 ADD ADD DUP2 SWAP1 MSTORE POP JUMPDEST DUP1 DUP1 PUSH2 0x1136 SWAP1 PUSH2 0x34AF JUMP JUMPDEST SWAP2 POP POP PUSH2 0xBC2 JUMP JUMPDEST POP DUP1 SWAP2 POP POP SWAP3 SWAP2 POP POP JUMP JUMPDEST PUSH1 0x60 PUSH1 0x2 DUP1 SLOAD DUP1 PUSH1 0x20 MUL PUSH1 0x20 ADD PUSH1 0x40 MLOAD SWAP1 DUP2 ADD PUSH1 0x40 MSTORE DUP1 SWAP3 SWAP2 SWAP1 DUP2 DUP2 MSTORE PUSH1 0x20 ADD PUSH1 0x0 SWAP1 JUMPDEST DUP3 DUP3 LT ISZERO PUSH2 0x15BC JUMPI DUP4 DUP3 SWAP1 PUSH1 0x0 MSTORE PUSH1 0x20 PUSH1 0x0 KECCAK256 SWAP1 PUSH1 0xA MUL ADD PUSH1 0x40 MLOAD DUP1 PUSH2 0x140 ADD PUSH1 0x40 MSTORE SWAP1 DUP2 PUSH1 0x0 DUP3 ADD SLOAD DUP2 MSTORE PUSH1 0x20 ADD PUSH1 0x1 DUP3 ADD DUP1 SLOAD PUSH2 0x11AB SWAP1 PUSH2 0x331E JUMP JUMPDEST DUP1 PUSH1 0x1F ADD PUSH1 0x20 DUP1 SWAP2 DIV MUL PUSH1 0x20 ADD PUSH1 0x40 MLOAD SWAP1 DUP2 ADD PUSH1 0x40 MSTORE DUP1 SWAP3 SWAP2 SWAP1 DUP2 DUP2 MSTORE PUSH1 0x20 ADD DUP3 DUP1 SLOAD PUSH2 0x11D7 SWAP1 PUSH2 0x331E JUMP JUMPDEST DUP1 ISZERO PUSH2 0x1224 JUMPI DUP1 PUSH1 0x1F LT PUSH2 0x11F9 JUMPI PUSH2 0x100 DUP1 DUP4 SLOAD DIV MUL DUP4 MSTORE SWAP2 PUSH1 0x20 ADD SWAP2 PUSH2 0x1224 JUMP JUMPDEST DUP3 ADD SWAP2 SWAP1 PUSH1 0x0 MSTORE PUSH1 0x20 PUSH1 0x0 KECCAK256 SWAP1 JUMPDEST DUP2 SLOAD DUP2 MSTORE SWAP1 PUSH1 0x1 ADD SWAP1 PUSH1 0x20 ADD DUP1 DUP4 GT PUSH2 0x1207 JUMPI DUP3 SWAP1 SUB PUSH1 0x1F AND DUP3 ADD SWAP2 JUMPDEST POP POP POP POP POP DUP2 MSTORE PUSH1 0x20 ADD PUSH1 0x2 DUP3 ADD DUP1 SLOAD PUSH2 0x123D SWAP1 PUSH2 0x331E JUMP JUMPDEST DUP1 PUSH1 0x1F ADD PUSH1 0x20 DUP1 SWAP2 DIV MUL PUSH1 0x20 ADD PUSH1 0x40 MLOAD SWAP1 DUP2 ADD PUSH1 0x40 MSTORE DUP1 SWAP3 SWAP2 SWAP1 DUP2 DUP2 MSTORE PUSH1 0x20 ADD DUP3 DUP1 SLOAD PUSH2 0x1269 SWAP1 PUSH2 0x331E JUMP JUMPDEST DUP1 ISZERO PUSH2 0x12B6 JUMPI DUP1 PUSH1 0x1F LT PUSH2 0x128B JUMPI PUSH2 0x100 DUP1 DUP4 SLOAD DIV MUL DUP4 MSTORE SWAP2 PUSH1 0x20 ADD SWAP2 PUSH2 0x12B6 JUMP JUMPDEST DUP3 ADD SWAP2 SWAP1 PUSH1 0x0 MSTORE PUSH1 0x20 PUSH1 0x0 KECCAK256 SWAP1 JUMPDEST DUP2 SLOAD DUP2 MSTORE SWAP1 PUSH1 0x1 ADD SWAP1 PUSH1 0x20 ADD DUP1 DUP4 GT PUSH2 0x1299 JUMPI DUP3 SWAP1 SUB PUSH1 0x1F AND DUP3 ADD SWAP2 JUMPDEST POP POP POP POP POP DUP2 MSTORE PUSH1 0x20 ADD PUSH1 0x3 DUP3 ADD DUP1 SLOAD PUSH2 0x12CF SWAP1 PUSH2 0x331E JUMP JUMPDEST DUP1 PUSH1 0x1F ADD PUSH1 0x20 DUP1 SWAP2 DIV MUL PUSH1 0x20 ADD PUSH1 0x40 MLOAD SWAP1 DUP2 ADD PUSH1 0x40 MSTORE DUP1 SWAP3 SWAP2 SWAP1 DUP2 DUP2 MSTORE PUSH1 0x20 ADD DUP3 DUP1 SLOAD PUSH2 0x12FB SWAP1 PUSH2 0x331E JUMP JUMPDEST DUP1 ISZERO PUSH2 0x1348 JUMPI DUP1 PUSH1 0x1F LT PUSH2 0x131D JUMPI PUSH2 0x100 DUP1 DUP4 SLOAD DIV MUL DUP4 MSTORE SWAP2 PUSH1 0x20 ADD SWAP2 PUSH2 0x1348 JUMP JUMPDEST DUP3 ADD SWAP2 SWAP1 PUSH1 0x0 MSTORE PUSH1 0x20 PUSH1 0x0 KECCAK256 SWAP1 JUMPDEST DUP2 SLOAD DUP2 MSTORE SWAP1 PUSH1 0x1 ADD SWAP1 PUSH1 0x20 ADD DUP1 DUP4 GT PUSH2 0x132B JUMPI DUP3 SWAP1 SUB PUSH1 0x1F AND DUP3 ADD SWAP2 JUMPDEST POP POP POP POP POP DUP2 MSTORE PUSH1 0x20 ADD PUSH1 0x4 DUP3 ADD SLOAD DUP2 MSTORE PUSH1 0x20 ADD PUSH1 0x5 DUP3 ADD SLOAD DUP2 MSTORE PUSH1 0x20 ADD PUSH1 0x6 DUP3 ADD DUP1 SLOAD PUSH2 0x1375 SWAP1 PUSH2 0x331E JUMP JUMPDEST DUP1 PUSH1 0x1F ADD PUSH1 0x20 DUP1 SWAP2 DIV MUL PUSH1 0x20 ADD PUSH1 0x40 MLOAD SWAP1 DUP2 ADD PUSH1 0x40 MSTORE DUP1 SWAP3 SWAP2 SWAP1 DUP2 DUP2 MSTORE PUSH1 0x20 ADD DUP3 DUP1 SLOAD PUSH2 0x13A1 SWAP1 PUSH2 0x331E JUMP JUMPDEST DUP1 ISZERO PUSH2 0x13EE JUMPI DUP1 PUSH1 0x1F LT PUSH2 0x13C3 JUMPI PUSH2 0x100 DUP1 DUP4 SLOAD DIV MUL DUP4 MSTORE SWAP2 PUSH1 0x20 ADD SWAP2 PUSH2 0x13EE JUMP JUMPDEST DUP3 ADD SWAP2 SWAP1 PUSH1 0x0 MSTORE PUSH1 0x20 PUSH1 0x0 KECCAK256 SWAP1 JUMPDEST DUP2 SLOAD DUP2 MSTORE SWAP1 PUSH1 0x1 ADD SWAP1 PUSH1 0x20 ADD DUP1 DUP4 GT PUSH2 0x13D1 JUMPI DUP3 SWAP1 SUB PUSH1 0x1F AND DUP3 ADD SWAP2 JUMPDEST POP POP POP POP POP DUP2 MSTORE PUSH1 0x20 ADD PUSH1 0x7 DUP3 ADD DUP1 SLOAD PUSH2 0x1407 SWAP1 PUSH2 0x331E JUMP JUMPDEST DUP1 PUSH1 0x1F ADD PUSH1 0x20 DUP1 SWAP2 DIV MUL PUSH1 0x20 ADD PUSH1 0x40 MLOAD SWAP1 DUP2 ADD PUSH1 0x40 MSTORE DUP1 SWAP3 SWAP2 SWAP1 DUP2 DUP2 MSTORE PUSH1 0x20 ADD DUP3 DUP1 SLOAD PUSH2 0x1433 SWAP1 PUSH2 0x331E JUMP JUMPDEST DUP1 ISZERO PUSH2 0x1480 JUMPI DUP1 PUSH1 0x1F LT PUSH2 0x1455 JUMPI PUSH2 0x100 DUP1 DUP4 SLOAD DIV MUL DUP4 MSTORE SWAP2 PUSH1 0x20 ADD SWAP2 PUSH2 0x1480 JUMP JUMPDEST DUP3 ADD SWAP2 SWAP1 PUSH1 0x0 MSTORE PUSH1 0x20 PUSH1 0x0 KECCAK256 SWAP1 JUMPDEST DUP2 SLOAD DUP2 MSTORE SWAP1 PUSH1 0x1 ADD SWAP1 PUSH1 0x20 ADD DUP1 DUP4 GT PUSH2 0x1463 JUMPI DUP3 SWAP1 SUB PUSH1 0x1F AND DUP3 ADD SWAP2 JUMPDEST POP POP POP POP POP DUP2 MSTORE PUSH1 0x20 ADD PUSH1 0x8 DUP3 ADD DUP1 SLOAD PUSH2 0x1499 SWAP1 PUSH2 0x331E JUMP JUMPDEST DUP1 PUSH1 0x1F ADD PUSH1 0x20 DUP1 SWAP2 DIV MUL PUSH1 0x20 ADD PUSH1 0x40 MLOAD SWAP1 DUP2 ADD PUSH1 0x40 MSTORE DUP1 SWAP3 SWAP2 SWAP1 DUP2 DUP2 MSTORE PUSH1 0x20 ADD DUP3 DUP1 SLOAD PUSH2 0x14C5 SWAP1 PUSH2 0x331E JUMP JUMPDEST DUP1 ISZERO PUSH2 0x1512 JUMPI DUP1 PUSH1 0x1F LT PUSH2 0x14E7 JUMPI PUSH2 0x100 DUP1 DUP4 SLOAD DIV MUL DUP4 MSTORE SWAP2 PUSH1 0x20 ADD SWAP2 PUSH2 0x1512 JUMP JUMPDEST DUP3 ADD SWAP2 SWAP1 PUSH1 0x0 MSTORE PUSH1 0x20 PUSH1 0x0 KECCAK256 SWAP1 JUMPDEST DUP2 SLOAD DUP2 MSTORE SWAP1 PUSH1 0x1 ADD SWAP1 PUSH1 0x20 ADD DUP1 DUP4 GT PUSH2 0x14F5 JUMPI DUP3 SWAP1 SUB PUSH1 0x1F AND DUP3 ADD SWAP2 JUMPDEST POP POP POP POP POP DUP2 MSTORE PUSH1 0x20 ADD PUSH1 0x9 DUP3 ADD DUP1 SLOAD PUSH2 0x152B SWAP1 PUSH2 0x331E JUMP JUMPDEST DUP1 PUSH1 0x1F ADD PUSH1 0x20 DUP1 SWAP2 DIV MUL PUSH1 0x20 ADD PUSH1 0x40 MLOAD SWAP1 DUP2 ADD PUSH1 0x40 MSTORE DUP1 SWAP3 SWAP2 SWAP1 DUP2 DUP2 MSTORE PUSH1 0x20 ADD DUP3 DUP1 SLOAD PUSH2 0x1557 SWAP1 PUSH2 0x331E JUMP JUMPDEST DUP1 ISZERO PUSH2 0x15A4 JUMPI DUP1 PUSH1 0x1F LT PUSH2 0x1579 JUMPI PUSH2 0x100 DUP1 DUP4 SLOAD DIV MUL DUP4 MSTORE SWAP2 PUSH1 0x20 ADD SWAP2 PUSH2 0x15A4 JUMP JUMPDEST DUP3 ADD SWAP2 SWAP1 PUSH1 0x0 MSTORE PUSH1 0x20 PUSH1 0x0 KECCAK256 SWAP1 JUMPDEST DUP2 SLOAD DUP2 MSTORE SWAP1 PUSH1 0x1 ADD SWAP1 PUSH1 0x20 ADD DUP1 DUP4 GT PUSH2 0x1587 JUMPI DUP3 SWAP1 SUB PUSH1 0x1F AND DUP3 ADD SWAP2 JUMPDEST POP POP POP POP POP DUP2 MSTORE POP POP DUP2 MSTORE PUSH1 0x20 ADD SWAP1 PUSH1 0x1 ADD SWAP1 PUSH2 0x116D JUMP JUMPDEST POP POP POP POP SWAP1 POP SWAP1 JUMP JUMPDEST PUSH2 0x15CD PUSH2 0x291B JUMP JUMPDEST PUSH1 0x0 JUMPDEST PUSH1 0x2 DUP1 SLOAD SWAP1 POP DUP2 LT ISZERO PUSH2 0x1AB9 JUMPI DUP3 PUSH1 0x40 MLOAD PUSH1 0x20 ADD PUSH2 0x15EE SWAP2 SWAP1 PUSH2 0x338B JUMP JUMPDEST PUSH1 0x40 MLOAD PUSH1 0x20 DUP2 DUP4 SUB SUB DUP2 MSTORE SWAP1 PUSH1 0x40 MSTORE DUP1 MLOAD SWAP1 PUSH1 0x20 ADD KECCAK256 PUSH1 0x2 DUP3 DUP2 SLOAD DUP2 LT PUSH2 0x1618 JUMPI PUSH2 0x1617 PUSH2 0x33A2 JUMP JUMPDEST JUMPDEST SWAP1 PUSH1 0x0 MSTORE PUSH1 0x20 PUSH1 0x0 KECCAK256 SWAP1 PUSH1 0xA MUL ADD PUSH1 0x3 ADD PUSH1 0x40 MLOAD PUSH1 0x20 ADD PUSH2 0x1639 SWAP2 SWAP1 PUSH2 0x3469 JUMP JUMPDEST PUSH1 0x40 MLOAD PUSH1 0x20 DUP2 DUP4 SUB SUB DUP2 MSTORE SWAP1 PUSH1 0x40 MSTORE DUP1 MLOAD SWAP1 PUSH1 0x20 ADD KECCAK256 SUB PUSH2 0x1AA6 JUMPI PUSH1 0x2 DUP2 DUP2 SLOAD DUP2 LT PUSH2 0x1668 JUMPI PUSH2 0x1667 PUSH2 0x33A2 JUMP JUMPDEST JUMPDEST SWAP1 PUSH1 0x0 MSTORE PUSH1 0x20 PUSH1 0x0 KECCAK256 SWAP1 PUSH1 0xA MUL ADD PUSH1 0x40 MLOAD DUP1 PUSH2 0x140 ADD PUSH1 0x40 MSTORE SWAP1 DUP2 PUSH1 0x0 DUP3 ADD SLOAD DUP2 MSTORE PUSH1 0x20 ADD PUSH1 0x1 DUP3 ADD DUP1 SLOAD PUSH2 0x169C SWAP1 PUSH2 0x331E JUMP JUMPDEST DUP1 PUSH1 0x1F ADD PUSH1 0x20 DUP1 SWAP2 DIV MUL PUSH1 0x20 ADD PUSH1 0x40 MLOAD SWAP1 DUP2 ADD PUSH1 0x40 MSTORE DUP1 SWAP3 SWAP2 SWAP1 DUP2 DUP2 MSTORE PUSH1 0x20 ADD DUP3 DUP1 SLOAD PUSH2 0x16C8 SWAP1 PUSH2 0x331E JUMP JUMPDEST DUP1 ISZERO PUSH2 0x1715 JUMPI DUP1 PUSH1 0x1F LT PUSH2 0x16EA JUMPI PUSH2 0x100 DUP1 DUP4 SLOAD DIV MUL DUP4 MSTORE SWAP2 PUSH1 0x20 ADD SWAP2 PUSH2 0x1715 JUMP JUMPDEST DUP3 ADD SWAP2 SWAP1 PUSH1 0x0 MSTORE PUSH1 0x20 PUSH1 0x0 KECCAK256 SWAP1 JUMPDEST DUP2 SLOAD DUP2 MSTORE SWAP1 PUSH1 0x1 ADD SWAP1 PUSH1 0x20 ADD DUP1 DUP4 GT PUSH2 0x16F8 JUMPI DUP3 SWAP1 SUB PUSH1 0x1F AND DUP3 ADD SWAP2 JUMPDEST POP POP POP POP POP DUP2 MSTORE PUSH1 0x20 ADD PUSH1 0x2 DUP3 ADD DUP1 SLOAD PUSH2 0x172E SWAP1 PUSH2 0x331E JUMP JUMPDEST DUP1 PUSH1 0x1F ADD PUSH1 0x20 DUP1 SWAP2 DIV MUL PUSH1 0x20 ADD PUSH1 0x40 MLOAD SWAP1 DUP2 ADD PUSH1 0x40 MSTORE DUP1 SWAP3 SWAP2 SWAP1 DUP2 DUP2 MSTORE PUSH1 0x20 ADD DUP3 DUP1 SLOAD PUSH2 0x175A SWAP1 PUSH2 0x331E JUMP JUMPDEST DUP1 ISZERO PUSH2 0x17A7 JUMPI DUP1 PUSH1 0x1F LT PUSH2 0x177C JUMPI PUSH2 0x100 DUP1 DUP4 SLOAD DIV MUL DUP4 MSTORE SWAP2 PUSH1 0x20 ADD SWAP2 PUSH2 0x17A7 JUMP JUMPDEST DUP3 ADD SWAP2 SWAP1 PUSH1 0x0 MSTORE PUSH1 0x20 PUSH1 0x0 KECCAK256 SWAP1 JUMPDEST DUP2 SLOAD DUP2 MSTORE SWAP1 PUSH1 0x1 ADD SWAP1 PUSH1 0x20 ADD DUP1 DUP4 GT PUSH2 0x178A JUMPI DUP3 SWAP1 SUB PUSH1 0x1F AND DUP3 ADD SWAP2 JUMPDEST POP POP POP POP POP DUP2 MSTORE PUSH1 0x20 ADD PUSH1 0x3 DUP3 ADD DUP1 SLOAD PUSH2 0x17C0 SWAP1 PUSH2 0x331E JUMP JUMPDEST DUP1 PUSH1 0x1F ADD PUSH1 0x20 DUP1 SWAP2 DIV MUL PUSH1 0x20 ADD PUSH1 0x40 MLOAD SWAP1 DUP2 ADD PUSH1 0x40 MSTORE DUP1 SWAP3 SWAP2 SWAP1 DUP2 DUP2 MSTORE PUSH1 0x20 ADD DUP3 DUP1 SLOAD PUSH2 0x17EC SWAP1 PUSH2 0x331E JUMP JUMPDEST DUP1 ISZERO PUSH2 0x1839 JUMPI DUP1 PUSH1 0x1F LT PUSH2 0x180E JUMPI PUSH2 0x100 DUP1 DUP4 SLOAD DIV MUL DUP4 MSTORE SWAP2 PUSH1 0x20 ADD SWAP2 PUSH2 0x1839 JUMP JUMPDEST DUP3 ADD SWAP2 SWAP1 PUSH1 0x0 MSTORE PUSH1 0x20 PUSH1 0x0 KECCAK256 SWAP1 JUMPDEST DUP2 SLOAD DUP2 MSTORE SWAP1 PUSH1 0x1 ADD SWAP1 PUSH1 0x20 ADD DUP1 DUP4 GT PUSH2 0x181C JUMPI DUP3 SWAP1 SUB PUSH1 0x1F AND DUP3 ADD SWAP2 JUMPDEST POP POP POP POP POP DUP2 MSTORE PUSH1 0x20 ADD PUSH1 0x4 DUP3 ADD SLOAD DUP2 MSTORE PUSH1 0x20 ADD PUSH1 0x5 DUP3 ADD SLOAD DUP2 MSTORE PUSH1 0x20 ADD PUSH1 0x6 DUP3 ADD DUP1 SLOAD PUSH2 0x1866 SWAP1 PUSH2 0x331E JUMP JUMPDEST DUP1 PUSH1 0x1F ADD PUSH1 0x20 DUP1 SWAP2 DIV MUL PUSH1 0x20 ADD PUSH1 0x40 MLOAD SWAP1 DUP2 ADD PUSH1 0x40 MSTORE DUP1 SWAP3 SWAP2 SWAP1 DUP2 DUP2 MSTORE PUSH1 0x20 ADD DUP3 DUP1 SLOAD PUSH2 0x1892 SWAP1 PUSH2 0x331E JUMP JUMPDEST DUP1 ISZERO PUSH2 0x18DF JUMPI DUP1 PUSH1 0x1F LT PUSH2 0x18B4 JUMPI PUSH2 0x100 DUP1 DUP4 SLOAD DIV MUL DUP4 MSTORE SWAP2 PUSH1 0x20 ADD SWAP2 PUSH2 0x18DF JUMP JUMPDEST DUP3 ADD SWAP2 SWAP1 PUSH1 0x0 MSTORE PUSH1 0x20 PUSH1 0x0 KECCAK256 SWAP1 JUMPDEST DUP2 SLOAD DUP2 MSTORE SWAP1 PUSH1 0x1 ADD SWAP1 PUSH1 0x20 ADD DUP1 DUP4 GT PUSH2 0x18C2 JUMPI DUP3 SWAP1 SUB PUSH1 0x1F AND DUP3 ADD SWAP2 JUMPDEST POP POP POP POP POP DUP2 MSTORE PUSH1 0x20 ADD PUSH1 0x7 DUP3 ADD DUP1 SLOAD PUSH2 0x18F8 SWAP1 PUSH2 0x331E JUMP JUMPDEST DUP1 PUSH1 0x1F ADD PUSH1 0x20 DUP1 SWAP2 DIV MUL PUSH1 0x20 ADD PUSH1 0x40 MLOAD SWAP1 DUP2 ADD PUSH1 0x40 MSTORE DUP1 SWAP3 SWAP2 SWAP1 DUP2 DUP2 MSTORE PUSH1 0x20 ADD DUP3 DUP1 SLOAD PUSH2 0x1924 SWAP1 PUSH2 0x331E JUMP JUMPDEST DUP1 ISZERO PUSH2 0x1971 JUMPI DUP1 PUSH1 0x1F LT PUSH2 0x1946 JUMPI PUSH2 0x100 DUP1 DUP4 SLOAD DIV MUL DUP4 MSTORE SWAP2 PUSH1 0x20 ADD SWAP2 PUSH2 0x1971 JUMP JUMPDEST DUP3 ADD SWAP2 SWAP1 PUSH1 0x0 MSTORE PUSH1 0x20 PUSH1 0x0 KECCAK256 SWAP1 JUMPDEST DUP2 SLOAD DUP2 MSTORE SWAP1 PUSH1 0x1 ADD SWAP1 PUSH1 0x20 ADD DUP1 DUP4 GT PUSH2 0x1954 JUMPI DUP3 SWAP1 SUB PUSH1 0x1F AND DUP3 ADD SWAP2 JUMPDEST POP POP POP POP POP DUP2 MSTORE PUSH1 0x20 ADD PUSH1 0x8 DUP3 ADD DUP1 SLOAD PUSH2 0x198A SWAP1 PUSH2 0x331E JUMP JUMPDEST DUP1 PUSH1 0x1F ADD PUSH1 0x20 DUP1 SWAP2 DIV MUL PUSH1 0x20 ADD PUSH1 0x40 MLOAD SWAP1 DUP2 ADD PUSH1 0x40 MSTORE DUP1 SWAP3 SWAP2 SWAP1 DUP2 DUP2 MSTORE PUSH1 0x20 ADD DUP3 DUP1 SLOAD PUSH2 0x19B6 SWAP1 PUSH2 0x331E JUMP JUMPDEST DUP1 ISZERO PUSH2 0x1A03 JUMPI DUP1 PUSH1 0x1F LT PUSH2 0x19D8 JUMPI PUSH2 0x100 DUP1 DUP4 SLOAD DIV MUL DUP4 MSTORE SWAP2 PUSH1 0x20 ADD SWAP2 PUSH2 0x1A03 JUMP JUMPDEST DUP3 ADD SWAP2 SWAP1 PUSH1 0x0 MSTORE PUSH1 0x20 PUSH1 0x0 KECCAK256 SWAP1 JUMPDEST DUP2 SLOAD DUP2 MSTORE SWAP1 PUSH1 0x1 ADD SWAP1 PUSH1 0x20 ADD DUP1 DUP4 GT PUSH2 0x19E6 JUMPI DUP3 SWAP1 SUB PUSH1 0x1F AND DUP3 ADD SWAP2 JUMPDEST POP POP POP POP POP DUP2 MSTORE PUSH1 0x20 ADD PUSH1 0x9 DUP3 ADD DUP1 SLOAD PUSH2 0x1A1C SWAP1 PUSH2 0x331E JUMP JUMPDEST DUP1 PUSH1 0x1F ADD PUSH1 0x20 DUP1 SWAP2 DIV MUL PUSH1 0x20 ADD PUSH1 0x40 MLOAD SWAP1 DUP2 ADD PUSH1 0x40 MSTORE DUP1 SWAP3 SWAP2 SWAP1 DUP2 DUP2 MSTORE PUSH1 0x20 ADD DUP3 DUP1 SLOAD PUSH2 0x1A48 SWAP1 PUSH2 0x331E JUMP JUMPDEST DUP1 ISZERO PUSH2 0x1A95 JUMPI DUP1 PUSH1 0x1F LT PUSH2 0x1A6A JUMPI PUSH2 0x100 DUP1 DUP4 SLOAD DIV MUL DUP4 MSTORE SWAP2 PUSH1 0x20 ADD SWAP2 PUSH2 0x1A95 JUMP JUMPDEST DUP3 ADD SWAP2 SWAP1 PUSH1 0x0 MSTORE PUSH1 0x20 PUSH1 0x0 KECCAK256 SWAP1 JUMPDEST DUP2 SLOAD DUP2 MSTORE SWAP1 PUSH1 0x1 ADD SWAP1 PUSH1 0x20 ADD DUP1 DUP4 GT PUSH2 0x1A78 JUMPI DUP3 SWAP1 SUB PUSH1 0x1F AND DUP3 ADD SWAP2 JUMPDEST POP POP POP POP POP DUP2 MSTORE POP POP SWAP2 POP POP PUSH2 0x1AF5 JUMP JUMPDEST DUP1 DUP1 PUSH2 0x1AB1 SWAP1 PUSH2 0x34AF JUMP JUMPDEST SWAP2 POP POP PUSH2 0x15D0 JUMP JUMPDEST POP PUSH1 0x40 MLOAD PUSH32 0x8C379A000000000000000000000000000000000000000000000000000000000 DUP2 MSTORE PUSH1 0x4 ADD PUSH2 0x1AEC SWAP1 PUSH2 0x3569 JUMP JUMPDEST PUSH1 0x40 MLOAD DUP1 SWAP2 SUB SWAP1 REVERT JUMPDEST SWAP2 SWAP1 POP JUMP JUMPDEST PUSH1 0x2 DUP1 SLOAD SWAP1 POP DUP3 LT PUSH2 0x1B41 JUMPI PUSH1 0x40 MLOAD PUSH32 0x8C379A000000000000000000000000000000000000000000000000000000000 DUP2 MSTORE PUSH1 0x4 ADD PUSH2 0x1B38 SWAP1 PUSH2 0x35D5 JUMP JUMPDEST PUSH1 0x40 MLOAD DUP1 SWAP2 SUB SWAP1 REVERT JUMPDEST PUSH1 0x0 PUSH1 0x2 DUP4 DUP2 SLOAD DUP2 LT PUSH2 0x1B57 JUMPI PUSH2 0x1B56 PUSH2 0x33A2 JUMP JUMPDEST JUMPDEST SWAP1 PUSH1 0x0 MSTORE PUSH1 0x20 PUSH1 0x0 KECCAK256 SWAP1 PUSH1 0xA MUL ADD SWAP1 POP DUP2 DUP2 PUSH1 0x5 ADD DUP2 SWAP1 SSTORE POP POP POP POP JUMP JUMPDEST PUSH1 0x0 DUP8 MLOAD GT PUSH2 0x1BB9 JUMPI PUSH1 0x40 MLOAD PUSH32 0x8C379A000000000000000000000000000000000000000000000000000000000 DUP2 MSTORE PUSH1 0x4 ADD PUSH2 0x1BB0 SWAP1 PUSH2 0x3641 JUMP JUMPDEST PUSH1 0x40 MLOAD DUP1 SWAP2 SUB SWAP1 REVERT JUMPDEST PUSH1 0x0 DUP7 MLOAD GT PUSH2 0x1BFD JUMPI PUSH1 0x40 MLOAD PUSH32 0x8C379A000000000000000000000000000000000000000000000000000000000 DUP2 MSTORE PUSH1 0x4 ADD PUSH2 0x1BF4 SWAP1 PUSH2 0x36AD JUMP JUMPDEST PUSH1 0x40 MLOAD DUP1 SWAP2 SUB SWAP1 REVERT JUMPDEST PUSH1 0x0 DUP6 MLOAD GT PUSH2 0x1C41 JUMPI PUSH1 0x40 MLOAD PUSH32 0x8C379A000000000000000000000000000000000000000000000000000000000 DUP2 MSTORE PUSH1 0x4 ADD PUSH2 0x1C38 SWAP1 PUSH2 0x3719 JUMP JUMPDEST PUSH1 0x40 MLOAD DUP1 SWAP2 SUB SWAP1 REVERT JUMPDEST PUSH1 0x0 DUP5 GT PUSH2 0x1C84 JUMPI PUSH1 0x40 MLOAD PUSH32 0x8C379A000000000000000000000000000000000000000000000000000000000 DUP2 MSTORE PUSH1 0x4 ADD PUSH2 0x1C7B SWAP1 PUSH2 0x37AB JUMP JUMPDEST PUSH1 0x40 MLOAD DUP1 SWAP2 SUB SWAP1 REVERT JUMPDEST PUSH1 0x0 DUP3 MLOAD GT PUSH2 0x1CC8 JUMPI PUSH1 0x40 MLOAD PUSH32 0x8C379A000000000000000000000000000000000000000000000000000000000 DUP2 MSTORE PUSH1 0x4 ADD PUSH2 0x1CBF SWAP1 PUSH2 0x383D JUMP JUMPDEST PUSH1 0x40 MLOAD DUP1 SWAP2 SUB SWAP1 REVERT JUMPDEST PUSH1 0x0 DUP2 MLOAD GT PUSH2 0x1D0C JUMPI PUSH1 0x40 MLOAD PUSH32 0x8C379A000000000000000000000000000000000000000000000000000000000 DUP2 MSTORE PUSH1 0x4 ADD PUSH2 0x1D03 SWAP1 PUSH2 0x38A9 JUMP JUMPDEST PUSH1 0x40 MLOAD DUP1 SWAP2 SUB SWAP1 REVERT JUMPDEST PUSH1 0x0 PUSH1 0x2 DUP1 SLOAD SWAP1 POP SWAP1 POP PUSH1 0x0 PUSH1 0x40 MLOAD DUP1 PUSH2 0x140 ADD PUSH1 0x40 MSTORE DUP1 DUP4 DUP2 MSTORE PUSH1 0x20 ADD DUP10 DUP2 MSTORE PUSH1 0x20 ADD DUP9 DUP2 MSTORE PUSH1 0x20 ADD DUP11 DUP2 MSTORE PUSH1 0x20 ADD DUP8 DUP2 MSTORE PUSH1 0x20 ADD DUP7 DUP2 MSTORE PUSH1 0x20 ADD DUP6 DUP2 MSTORE PUSH1 0x20 ADD DUP5 DUP2 MSTORE PUSH1 0x20 ADD PUSH1 0x40 MLOAD DUP1 PUSH1 0x40 ADD PUSH1 0x40 MSTORE DUP1 PUSH1 0xC DUP2 MSTORE PUSH1 0x20 ADD PUSH32 0x556E646572205265766965770000000000000000000000000000000000000000 DUP2 MSTORE POP DUP2 MSTORE PUSH1 0x20 ADD PUSH1 0x40 MLOAD DUP1 PUSH1 0x40 ADD PUSH1 0x40 MSTORE DUP1 PUSH1 0xD DUP2 MSTORE PUSH1 0x20 ADD PUSH32 0x4E6F7420417661696C61626C6500000000000000000000000000000000000000 DUP2 MSTORE POP DUP2 MSTORE POP SWAP1 POP PUSH1 0x2 DUP2 SWAP1 DUP1 PUSH1 0x1 DUP2 SLOAD ADD DUP1 DUP3 SSTORE DUP1 SWAP2 POP POP PUSH1 0x1 SWAP1 SUB SWAP1 PUSH1 0x0 MSTORE PUSH1 0x20 PUSH1 0x0 KECCAK256 SWAP1 PUSH1 0xA MUL ADD PUSH1 0x0 SWAP1 SWAP2 SWAP1 SWAP2 SWAP1 SWAP2 POP PUSH1 0x0 DUP3 ADD MLOAD DUP2 PUSH1 0x0 ADD SSTORE PUSH1 0x20 DUP3 ADD MLOAD DUP2 PUSH1 0x1 ADD SWAP1 DUP2 PUSH2 0x1E15 SWAP2 SWAP1 PUSH2 0x3A60 JUMP JUMPDEST POP PUSH1 0x40 DUP3 ADD MLOAD DUP2 PUSH1 0x2 ADD SWAP1 DUP2 PUSH2 0x1E2B SWAP2 SWAP1 PUSH2 0x3A60 JUMP JUMPDEST POP PUSH1 0x60 DUP3 ADD MLOAD DUP2 PUSH1 0x3 ADD SWAP1 DUP2 PUSH2 0x1E41 SWAP2 SWAP1 PUSH2 0x3A60 JUMP JUMPDEST POP PUSH1 0x80 DUP3 ADD MLOAD DUP2 PUSH1 0x4 ADD SSTORE PUSH1 0xA0 DUP3 ADD MLOAD DUP2 PUSH1 0x5 ADD SSTORE PUSH1 0xC0 DUP3 ADD MLOAD DUP2 PUSH1 0x6 ADD SWAP1 DUP2 PUSH2 0x1E6B SWAP2 SWAP1 PUSH2 0x3A60 JUMP JUMPDEST POP PUSH1 0xE0 DUP3 ADD MLOAD DUP2 PUSH1 0x7 ADD SWAP1 DUP2 PUSH2 0x1E81 SWAP2 SWAP1 PUSH2 0x3A60 JUMP JUMPDEST POP PUSH2 0x100 DUP3 ADD MLOAD DUP2 PUSH1 0x8 ADD SWAP1 DUP2 PUSH2 0x1E98 SWAP2 SWAP1 PUSH2 0x3A60 JUMP JUMPDEST POP PUSH2 0x120 DUP3 ADD MLOAD DUP2 PUSH1 0x9 ADD SWAP1 DUP2 PUSH2 0x1EAF SWAP2 SWAP1 PUSH2 0x3A60 JUMP JUMPDEST POP POP POP POP POP POP POP POP POP POP POP POP JUMP JUMPDEST PUSH1 0x0 DUP1 SLOAD SWAP1 PUSH2 0x100 EXP SWAP1 DIV PUSH20 0xFFFFFFFFFFFFFFFFFFFFFFFFFFFFFFFFFFFFFFFF AND DUP2 JUMP JUMPDEST PUSH1 0x2 DUP1 SLOAD SWAP1 POP DUP3 LT PUSH2 0x1F28 JUMPI PUSH1 0x40 MLOAD PUSH32 0x8C379A000000000000000000000000000000000000000000000000000000000 DUP2 MSTORE PUSH1 0x4 ADD PUSH2 0x1F1F SWAP1 PUSH2 0x3B7E JUMP JUMPDEST PUSH1 0x40 MLOAD DUP1 SWAP2 SUB SWAP1 REVERT JUMPDEST PUSH1 0x0 PUSH1 0x2 DUP4 DUP2 SLOAD DUP2 LT PUSH2 0x1F3E JUMPI PUSH2 0x1F3D PUSH2 0x33A2 JUMP JUMPDEST JUMPDEST SWAP1 PUSH1 0x0 MSTORE PUSH1 0x20 PUSH1 0x0 KECCAK256 SWAP1 PUSH1 0xA MUL ADD SWAP1 POP DUP2 DUP2 PUSH1 0x8 ADD SWAP1 DUP2 PUSH2 0x1F5F SWAP2 SWAP1 PUSH2 0x3A60 JUMP JUMPDEST POP POP POP POP JUMP JUMPDEST PUSH2 0x1F6D PUSH2 0x291B JUMP JUMPDEST PUSH1 0x2 DUP1 SLOAD SWAP1 POP DUP3 LT PUSH2 0x1FB4 JUMPI PUSH1 0x40 MLOAD PUSH32 0x8C379A000000000000000000000000000000000000000000000000000000000 DUP2 MSTORE PUSH1 0x4 ADD PUSH2 0x1FAB SWAP1 PUSH2 0x35D5 JUMP JUMPDEST PUSH1 0x40 MLOAD DUP1 SWAP2 SUB SWAP1 REVERT JUMPDEST PUSH1 0x2 DUP3 DUP2 SLOAD DUP2 LT PUSH2 0x1FC8 JUMPI PUSH2 0x1FC7 PUSH2 0x33A2 JUMP JUMPDEST JUMPDEST SWAP1 PUSH1 0x0 MSTORE PUSH1 0x20 PUSH1 0x0 KECCAK256 SWAP1 PUSH1 0xA MUL ADD PUSH1 0x40 MLOAD DUP1 PUSH2 0x140 ADD PUSH1 0x40 MSTORE SWAP1 DUP2 PUSH1 0x0 DUP3 ADD SLOAD DUP2 MSTORE PUSH1 0x20 ADD PUSH1 0x1 DUP3 ADD DUP1 SLOAD PUSH2 0x1FFC SWAP1 PUSH2 0x331E JUMP JUMPDEST DUP1 PUSH1 0x1F ADD PUSH1 0x20 DUP1 SWAP2 DIV MUL PUSH1 0x20 ADD PUSH1 0x40 MLOAD SWAP1 DUP2 ADD PUSH1 0x40 MSTORE DUP1 SWAP3 SWAP2 SWAP1 DUP2 DUP2 MSTORE PUSH1 0x20 ADD DUP3 DUP1 SLOAD PUSH2 0x2028 SWAP1 PUSH2 0x331E JUMP JUMPDEST DUP1 ISZERO PUSH2 0x2075 JUMPI DUP1 PUSH1 0x1F LT PUSH2 0x204A JUMPI PUSH2 0x100 DUP1 DUP4 SLOAD DIV MUL DUP4 MSTORE SWAP2 PUSH1 0x20 ADD SWAP2 PUSH2 0x2075 JUMP JUMPDEST DUP3 ADD SWAP2 SWAP1 PUSH1 0x0 MSTORE PUSH1 0x20 PUSH1 0x0 KECCAK256 SWAP1 JUMPDEST DUP2 SLOAD DUP2 MSTORE SWAP1 PUSH1 0x1 ADD SWAP1 PUSH1 0x20 ADD DUP1 DUP4 GT PUSH2 0x2058 JUMPI DUP3 SWAP1 SUB PUSH1 0x1F AND DUP3 ADD SWAP2 JUMPDEST POP POP POP POP POP DUP2 MSTORE PUSH1 0x20 ADD PUSH1 0x2 DUP3 ADD DUP1 SLOAD PUSH2 0x208E SWAP1 PUSH2 0x331E JUMP JUMPDEST DUP1 PUSH1 0x1F ADD PUSH1 0x20 DUP1 SWAP2 DIV MUL PUSH1 0x20 ADD PUSH1 0x40 MLOAD SWAP1 DUP2 ADD PUSH1 0x40 MSTORE DUP1 SWAP3 SWAP2 SWAP1 DUP2 DUP2 MSTORE PUSH1 0x20 ADD DUP3 DUP1 SLOAD PUSH2 0x20BA SWAP1 PUSH2 0x331E JUMP JUMPDEST DUP1 ISZERO PUSH2 0x2107 JUMPI DUP1 PUSH1 0x1F LT PUSH2 0x20DC JUMPI PUSH2 0x100 DUP1 DUP4 SLOAD DIV MUL DUP4 MSTORE SWAP2 PUSH1 0x20 ADD SWAP2 PUSH2 0x2107 JUMP JUMPDEST DUP3 ADD SWAP2 SWAP1 PUSH1 0x0 MSTORE PUSH1 0x20 PUSH1 0x0 KECCAK256 SWAP1 JUMPDEST DUP2 SLOAD DUP2 MSTORE SWAP1 PUSH1 0x1 ADD SWAP1 PUSH1 0x20 ADD DUP1 DUP4 GT PUSH2 0x20EA JUMPI DUP3 SWAP1 SUB PUSH1 0x1F AND DUP3 ADD SWAP2 JUMPDEST POP POP POP POP POP DUP2 MSTORE PUSH1 0x20 ADD PUSH1 0x3 DUP3 ADD DUP1 SLOAD PUSH2 0x2120 SWAP1 PUSH2 0x331E JUMP JUMPDEST DUP1 PUSH1 0x1F ADD PUSH1 0x20 DUP1 SWAP2 DIV MUL PUSH1 0x20 ADD PUSH1 0x40 MLOAD SWAP1 DUP2 ADD PUSH1 0x40 MSTORE DUP1 SWAP3 SWAP2 SWAP1 DUP2 DUP2 MSTORE PUSH1 0x20 ADD DUP3 DUP1 SLOAD PUSH2 0x214C SWAP1 PUSH2 0x331E JUMP JUMPDEST DUP1 ISZERO PUSH2 0x2199 JUMPI DUP1 PUSH1 0x1F LT PUSH2 0x216E JUMPI PUSH2 0x100 DUP1 DUP4 SLOAD DIV MUL DUP4 MSTORE SWAP2 PUSH1 0x20 ADD SWAP2 PUSH2 0x2199 JUMP JUMPDEST DUP3 ADD SWAP2 SWAP1 PUSH1 0x0 MSTORE PUSH1 0x20 PUSH1 0x0 KECCAK256 SWAP1 JUMPDEST DUP2 SLOAD DUP2 MSTORE SWAP1 PUSH1 0x1 ADD SWAP1 PUSH1 0x20 ADD DUP1 DUP4 GT PUSH2 0x217C JUMPI DUP3 SWAP1 SUB PUSH1 0x1F AND DUP3 ADD SWAP2 JUMPDEST POP POP POP POP POP DUP2 MSTORE PUSH1 0x20 ADD PUSH1 0x4 DUP3 ADD SLOAD DUP2 MSTORE PUSH1 0x20 ADD PUSH1 0x5 DUP3 ADD SLOAD DUP2 MSTORE PUSH1 0x20 ADD PUSH1 0x6 DUP3 ADD DUP1 SLOAD PUSH2 0x21C6 SWAP1 PUSH2 0x331E JUMP JUMPDEST DUP1 PUSH1 0x1F ADD PUSH1 0x20 DUP1 SWAP2 DIV MUL PUSH1 0x20 ADD PUSH1 0x40 MLOAD SWAP1 DUP2 ADD PUSH1 0x40 MSTORE DUP1 SWAP3 SWAP2 SWAP1 DUP2 DUP2 MSTORE PUSH1 0x20 ADD DUP3 DUP1 SLOAD PUSH2 0x21F2 SWAP1 PUSH2 0x331E JUMP JUMPDEST DUP1 ISZERO PUSH2 0x223F JUMPI DUP1 PUSH1 0x1F LT PUSH2 0x2214 JUMPI PUSH2 0x100 DUP1 DUP4 SLOAD DIV MUL DUP4 MSTORE SWAP2 PUSH1 0x20 ADD SWAP2 PUSH2 0x223F JUMP JUMPDEST DUP3 ADD SWAP2 SWAP1 PUSH1 0x0 MSTORE PUSH1 0x20 PUSH1 0x0 KECCAK256 SWAP1 JUMPDEST DUP2 SLOAD DUP2 MSTORE SWAP1 PUSH1 0x1 ADD SWAP1 PUSH1 0x20 ADD DUP1 DUP4 GT PUSH2 0x2222 JUMPI DUP3 SWAP1 SUB PUSH1 0x1F AND DUP3 ADD SWAP2 JUMPDEST POP POP POP POP POP DUP2 MSTORE PUSH1 0x20 ADD PUSH1 0x7 DUP3 ADD DUP1 SLOAD PUSH2 0x2258 SWAP1 PUSH2 0x331E JUMP JUMPDEST DUP1 PUSH1 0x1F ADD PUSH1 0x20 DUP1 SWAP2 DIV MUL PUSH1 0x20 ADD PUSH1 0x40 MLOAD SWAP1 DUP2 ADD PUSH1 0x40 MSTORE DUP1 SWAP3 SWAP2 SWAP1 DUP2 DUP2 MSTORE PUSH1 0x20 ADD DUP3 DUP1 SLOAD PUSH2 0x2284 SWAP1 PUSH2 0x331E JUMP JUMPDEST DUP1 ISZERO PUSH2 0x22D1 JUMPI DUP1 PUSH1 0x1F LT PUSH2 0x22A6 JUMPI PUSH2 0x100 DUP1 DUP4 SLOAD DIV MUL DUP4 MSTORE SWAP2 PUSH1 0x20 ADD SWAP2 PUSH2 0x22D1 JUMP JUMPDEST DUP3 ADD SWAP2 SWAP1 PUSH1 0x0 MSTORE PUSH1 0x20 PUSH1 0x0 KECCAK256 SWAP1 JUMPDEST DUP2 SLOAD DUP2 MSTORE SWAP1 PUSH1 0x1 ADD SWAP1 PUSH1 0x20 ADD DUP1 DUP4 GT PUSH2 0x22B4 JUMPI DUP3 SWAP1 SUB PUSH1 0x1F AND DUP3 ADD SWAP2 JUMPDEST POP POP POP POP POP DUP2 MSTORE PUSH1 0x20 ADD PUSH1 0x8 DUP3 ADD DUP1 SLOAD PUSH2 0x22EA SWAP1 PUSH2 0x331E JUMP JUMPDEST DUP1 PUSH1 0x1F ADD PUSH1 0x20 DUP1 SWAP2 DIV MUL PUSH1 0x20 ADD PUSH1 0x40 MLOAD SWAP1 DUP2 ADD PUSH1 0x40 MSTORE DUP1 SWAP3 SWAP2 SWAP1 DUP2 DUP2 MSTORE PUSH1 0x20 ADD DUP3 DUP1 SLOAD PUSH2 0x2316 SWAP1 PUSH2 0x331E JUMP JUMPDEST DUP1 ISZERO PUSH2 0x2363 JUMPI DUP1 PUSH1 0x1F LT PUSH2 0x2338 JUMPI PUSH2 0x100 DUP1 DUP4 SLOAD DIV MUL DUP4 MSTORE SWAP2 PUSH1 0x20 ADD SWAP2 PUSH2 0x2363 JUMP JUMPDEST DUP3 ADD SWAP2 SWAP1 PUSH1 0x0 MSTORE PUSH1 0x20 PUSH1 0x0 KECCAK256 SWAP1 JUMPDEST DUP2 SLOAD DUP2 MSTORE SWAP1 PUSH1 0x1 ADD SWAP1 PUSH1 0x20 ADD DUP1 DUP4 GT PUSH2 0x2346 JUMPI DUP3 SWAP1 SUB PUSH1 0x1F AND DUP3 ADD SWAP2 JUMPDEST POP POP POP POP POP DUP2 MSTORE PUSH1 0x20 ADD PUSH1 0x9 DUP3 ADD DUP1 SLOAD PUSH2 0x237C SWAP1 PUSH2 0x331E JUMP JUMPDEST DUP1 PUSH1 0x1F ADD PUSH1 0x20 DUP1 SWAP2 DIV MUL PUSH1 0x20 ADD PUSH1 0x40 MLOAD SWAP1 DUP2 ADD PUSH1 0x40 MSTORE DUP1 SWAP3 SWAP2 SWAP1 DUP2 DUP2 MSTORE PUSH1 0x20 ADD DUP3 DUP1 SLOAD PUSH2 0x23A8 SWAP1 PUSH2 0x331E JUMP JUMPDEST DUP1 ISZERO PUSH2 0x23F5 JUMPI DUP1 PUSH1 0x1F LT PUSH2 0x23CA JUMPI PUSH2 0x100 DUP1 DUP4 SLOAD DIV MUL DUP4 MSTORE SWAP2 PUSH1 0x20 ADD SWAP2 PUSH2 0x23F5 JUMP JUMPDEST DUP3 ADD SWAP2 SWAP1 PUSH1 0x0 MSTORE PUSH1 0x20 PUSH1 0x0 KECCAK256 SWAP1 JUMPDEST DUP2 SLOAD DUP2 MSTORE SWAP1 PUSH1 0x1 ADD SWAP1 PUSH1 0x20 ADD DUP1 DUP4 GT PUSH2 0x23D8 JUMPI DUP3 SWAP1 SUB PUSH1 0x1F AND DUP3 ADD SWAP2 JUMPDEST POP POP POP POP POP DUP2 MSTORE POP POP SWAP1 POP SWAP2 SWAP1 POP JUMP JUMPDEST PUSH1 0x60 DUP1 PUSH1 0x0 JUMPDEST PUSH1 0x2 DUP1 SLOAD SWAP1 POP DUP2 LT ISZERO PUSH2 0x290B JUMPI DUP4 PUSH1 0x40 MLOAD PUSH1 0x20 ADD PUSH2 0x2429 SWAP2 SWAP1 PUSH2 0x338B JUMP JUMPDEST PUSH1 0x40 MLOAD PUSH1 0x20 DUP2 DUP4 SUB SUB DUP2 MSTORE SWAP1 PUSH1 0x40 MSTORE DUP1 MLOAD SWAP1 PUSH1 0x20 ADD KECCAK256 PUSH1 0x2 DUP3 DUP2 SLOAD DUP2 LT PUSH2 0x2453 JUMPI PUSH2 0x2452 PUSH2 0x33A2 JUMP JUMPDEST JUMPDEST SWAP1 PUSH1 0x0 MSTORE PUSH1 0x20 PUSH1 0x0 KECCAK256 SWAP1 PUSH1 0xA MUL ADD PUSH1 0x9 ADD PUSH1 0x40 MLOAD PUSH1 0x20 ADD PUSH2 0x2474 SWAP2 SWAP1 PUSH2 0x3469 JUMP JUMPDEST PUSH1 0x40 MLOAD PUSH1 0x20 DUP2 DUP4 SUB SUB DUP2 MSTORE SWAP1 PUSH1 0x40 MSTORE DUP1 MLOAD SWAP1 PUSH1 0x20 ADD KECCAK256 SUB PUSH2 0x28F8 JUMPI PUSH1 0x2 DUP2 DUP2 SLOAD DUP2 LT PUSH2 0x24A3 JUMPI PUSH2 0x24A2 PUSH2 0x33A2 JUMP JUMPDEST JUMPDEST SWAP1 PUSH1 0x0 MSTORE PUSH1 0x20 PUSH1 0x0 KECCAK256 SWAP1 PUSH1 0xA MUL ADD PUSH1 0x40 MLOAD DUP1 PUSH2 0x140 ADD PUSH1 0x40 MSTORE SWAP1 DUP2 PUSH1 0x0 DUP3 ADD SLOAD DUP2 MSTORE PUSH1 0x20 ADD PUSH1 0x1 DUP3 ADD DUP1 SLOAD PUSH2 0x24D7 SWAP1 PUSH2 0x331E JUMP JUMPDEST DUP1 PUSH1 0x1F ADD PUSH1 0x20 DUP1 SWAP2 DIV MUL PUSH1 0x20 ADD PUSH1 0x40 MLOAD SWAP1 DUP2 ADD PUSH1 0x40 MSTORE DUP1 SWAP3 SWAP2 SWAP1 DUP2 DUP2 MSTORE PUSH1 0x20 ADD DUP3 DUP1 SLOAD PUSH2 0x2503 SWAP1 PUSH2 0x331E JUMP JUMPDEST DUP1 ISZERO PUSH2 0x2550 JUMPI DUP1 PUSH1 0x1F LT PUSH2 0x2525 JUMPI PUSH2 0x100 DUP1 DUP4 SLOAD DIV MUL DUP4 MSTORE SWAP2 PUSH1 0x20 ADD SWAP2 PUSH2 0x2550 JUMP JUMPDEST DUP3 ADD SWAP2 SWAP1 PUSH1 0x0 MSTORE PUSH1 0x20 PUSH1 0x0 KECCAK256 SWAP1 JUMPDEST DUP2 SLOAD DUP2 MSTORE SWAP1 PUSH1 0x1 ADD SWAP1 PUSH1 0x20 ADD DUP1 DUP4 GT PUSH2 0x2533 JUMPI DUP3 SWAP1 SUB PUSH1 0x1F AND DUP3 ADD SWAP2 JUMPDEST POP POP POP POP POP DUP2 MSTORE PUSH1 0x20 ADD PUSH1 0x2 DUP3 ADD DUP1 SLOAD PUSH2 0x2569 SWAP1 PUSH2 0x331E JUMP JUMPDEST DUP1 PUSH1 0x1F ADD PUSH1 0x20 DUP1 SWAP2 DIV MUL PUSH1 0x20 ADD PUSH1 0x40 MLOAD SWAP1 DUP2 ADD PUSH1 0x40 MSTORE DUP1 SWAP3 SWAP2 SWAP1 DUP2 DUP2 MSTORE PUSH1 0x20 ADD DUP3 DUP1 SLOAD PUSH2 0x2595 SWAP1 PUSH2 0x331E JUMP JUMPDEST DUP1 ISZERO PUSH2 0x25E2 JUMPI DUP1 PUSH1 0x1F LT PUSH2 0x25B7 JUMPI PUSH2 0x100 DUP1 DUP4 SLOAD DIV MUL DUP4 MSTORE SWAP2 PUSH1 0x20 ADD SWAP2 PUSH2 0x25E2 JUMP JUMPDEST DUP3 ADD SWAP2 SWAP1 PUSH1 0x0 MSTORE PUSH1 0x20 PUSH1 0x0 KECCAK256 SWAP1 JUMPDEST DUP2 SLOAD DUP2 MSTORE SWAP1 PUSH1 0x1 ADD SWAP1 PUSH1 0x20 ADD DUP1 DUP4 GT PUSH2 0x25C5 JUMPI DUP3 SWAP1 SUB PUSH1 0x1F AND DUP3 ADD SWAP2 JUMPDEST POP POP POP POP POP DUP2 MSTORE PUSH1 0x20 ADD PUSH1 0x3 DUP3 ADD DUP1 SLOAD PUSH2 0x25FB SWAP1 PUSH2 0x331E JUMP JUMPDEST DUP1 PUSH1 0x1F ADD PUSH1 0x20 DUP1 SWAP2 DIV MUL PUSH1 0x20 ADD PUSH1 0x40 MLOAD SWAP1 DUP2 ADD PUSH1 0x40 MSTORE DUP1 SWAP3 SWAP2 SWAP1 DUP2 DUP2 MSTORE PUSH1 0x20 ADD DUP3 DUP1 SLOAD PUSH2 0x2627 SWAP1 PUSH2 0x331E JUMP JUMPDEST DUP1 ISZERO PUSH2 0x2674 JUMPI DUP1 PUSH1 0x1F LT PUSH2 0x2649 JUMPI PUSH2 0x100 DUP1 DUP4 SLOAD DIV MUL DUP4 MSTORE SWAP2 PUSH1 0x20 ADD SWAP2 PUSH2 0x2674 JUMP JUMPDEST DUP3 ADD SWAP2 SWAP1 PUSH1 0x0 MSTORE PUSH1 0x20 PUSH1 0x0 KECCAK256 SWAP1 JUMPDEST DUP2 SLOAD DUP2 MSTORE SWAP1 PUSH1 0x1 ADD SWAP1 PUSH1 0x20 ADD DUP1 DUP4 GT PUSH2 0x2657 JUMPI DUP3 SWAP1 SUB PUSH1 0x1F AND DUP3 ADD SWAP2 JUMPDEST POP POP POP POP POP DUP2 MSTORE PUSH1 0x20 ADD PUSH1 0x4 DUP3 ADD SLOAD DUP2 MSTORE PUSH1 0x20 ADD PUSH1 0x5 DUP3 ADD SLOAD DUP2 MSTORE PUSH1 0x20 ADD PUSH1 0x6 DUP3 ADD DUP1 SLOAD PUSH2 0x26A1 SWAP1 PUSH2 0x331E JUMP JUMPDEST DUP1 PUSH1 0x1F ADD PUSH1 0x20 DUP1 SWAP2 DIV MUL PUSH1 0x20 ADD PUSH1 0x40 MLOAD SWAP1 DUP2 ADD PUSH1 0x40 MSTORE DUP1 SWAP3 SWAP2 SWAP1 DUP2 DUP2 MSTORE PUSH1 0x20 ADD DUP3 DUP1 SLOAD PUSH2 0x26CD SWAP1 PUSH2 0x331E JUMP JUMPDEST DUP1 ISZERO PUSH2 0x271A JUMPI DUP1 PUSH1 0x1F LT PUSH2 0x26EF JUMPI PUSH2 0x100 DUP1 DUP4 SLOAD DIV MUL DUP4 MSTORE SWAP2 PUSH1 0x20 ADD SWAP2 PUSH2 0x271A JUMP JUMPDEST DUP3 ADD SWAP2 SWAP1 PUSH1 0x0 MSTORE PUSH1 0x20 PUSH1 0x0 KECCAK256 SWAP1 JUMPDEST DUP2 SLOAD DUP2 MSTORE SWAP1 PUSH1 0x1 ADD SWAP1 PUSH1 0x20 ADD DUP1 DUP4 GT PUSH2 0x26FD JUMPI DUP3 SWAP1 SUB PUSH1 0x1F AND DUP3 ADD SWAP2 JUMPDEST POP POP POP POP POP DUP2 MSTORE PUSH1 0x20 ADD PUSH1 0x7 DUP3 ADD DUP1 SLOAD PUSH2 0x2733 SWAP1 PUSH2 0x331E JUMP JUMPDEST DUP1 PUSH1 0x1F ADD PUSH1 0x20 DUP1 SWAP2 DIV MUL PUSH1 0x20 ADD PUSH1 0x40 MLOAD SWAP1 DUP2 ADD PUSH1 0x40 MSTORE DUP1 SWAP3 SWAP2 SWAP1 DUP2 DUP2 MSTORE PUSH1 0x20 ADD DUP3 DUP1 SLOAD PUSH2 0x275F SWAP1 PUSH2 0x331E JUMP JUMPDEST DUP1 ISZERO PUSH2 0x27AC JUMPI DUP1 PUSH1 0x1F LT PUSH2 0x2781 JUMPI PUSH2 0x100 DUP1 DUP4 SLOAD DIV MUL DUP4 MSTORE SWAP2 PUSH1 0x20 ADD SWAP2 PUSH2 0x27AC JUMP JUMPDEST DUP3 ADD SWAP2 SWAP1 PUSH1 0x0 MSTORE PUSH1 0x20 PUSH1 0x0 KECCAK256 SWAP1 JUMPDEST DUP2 SLOAD DUP2 MSTORE SWAP1 PUSH1 0x1 ADD SWAP1 PUSH1 0x20 ADD DUP1 DUP4 GT PUSH2 0x278F JUMPI DUP3 SWAP1 SUB PUSH1 0x1F AND DUP3 ADD SWAP2 JUMPDEST POP POP POP POP POP DUP2 MSTORE PUSH1 0x20 ADD PUSH1 0x8 DUP3 ADD DUP1 SLOAD PUSH2 0x27C5 SWAP1 PUSH2 0x331E JUMP JUMPDEST DUP1 PUSH1 0x1F ADD PUSH1 0x20 DUP1 SWAP2 DIV MUL PUSH1 0x20 ADD PUSH1 0x40 MLOAD SWAP1 DUP2 ADD PUSH1 0x40 MSTORE DUP1 SWAP3 SWAP2 SWAP1 DUP2 DUP2 MSTORE PUSH1 0x20 ADD DUP3 DUP1 SLOAD PUSH2 0x27F1 SWAP1 PUSH2 0x331E JUMP JUMPDEST DUP1 ISZERO PUSH2 0x283E JUMPI DUP1 PUSH1 0x1F LT PUSH2 0x2813 JUMPI PUSH2 0x100 DUP1 DUP4 SLOAD DIV MUL DUP4 MSTORE SWAP2 PUSH1 0x20 ADD SWAP2 PUSH2 0x283E JUMP JUMPDEST DUP3 ADD SWAP2 SWAP1 PUSH1 0x0 MSTORE PUSH1 0x20 PUSH1 0x0 KECCAK256 SWAP1 JUMPDEST DUP2 SLOAD DUP2 MSTORE SWAP1 PUSH1 0x1 ADD SWAP1 PUSH1 0x20 ADD DUP1 DUP4 GT PUSH2 0x2821 JUMPI DUP3 SWAP1 SUB PUSH1 0x1F AND DUP3 ADD SWAP2 JUMPDEST POP POP POP POP POP DUP2 MSTORE PUSH1 0x20 ADD PUSH1 0x9 DUP3 ADD DUP1 SLOAD PUSH2 0x2857 SWAP1 PUSH2 0x331E JUMP JUMPDEST DUP1 PUSH1 0x1F ADD PUSH1 0x20 DUP1 SWAP2 DIV MUL PUSH1 0x20 ADD PUSH1 0x40 MLOAD SWAP1 DUP2 ADD PUSH1 0x40 MSTORE DUP1 SWAP3 SWAP2 SWAP1 DUP2 DUP2 MSTORE PUSH1 0x20 ADD DUP3 DUP1 SLOAD PUSH2 0x2883 SWAP1 PUSH2 0x331E JUMP JUMPDEST DUP1 ISZERO PUSH2 0x28D0 JUMPI DUP1 PUSH1 0x1F LT PUSH2 0x28A5 JUMPI PUSH2 0x100 DUP1 DUP4 SLOAD DIV MUL DUP4 MSTORE SWAP2 PUSH1 0x20 ADD SWAP2 PUSH2 0x28D0 JUMP JUMPDEST DUP3 ADD SWAP2 SWAP1 PUSH1 0x0 MSTORE PUSH1 0x20 PUSH1 0x0 KECCAK256 SWAP1 JUMPDEST DUP2 SLOAD DUP2 MSTORE SWAP1 PUSH1 0x1 ADD SWAP1 PUSH1 0x20 ADD DUP1 DUP4 GT PUSH2 0x28B3 JUMPI DUP3 SWAP1 SUB PUSH1 0x1F AND DUP3 ADD SWAP2 JUMPDEST POP POP POP POP POP DUP2 MSTORE POP POP DUP3 DUP3 DUP2 MLOAD DUP2 LT PUSH2 0x28EC JUMPI PUSH2 0x28EB PUSH2 0x33A2 JUMP JUMPDEST JUMPDEST PUSH1 0x20 MUL PUSH1 0x20 ADD ADD DUP2 SWAP1 MSTORE POP JUMPDEST DUP1 DUP1 PUSH2 0x2903 SWAP1 PUSH2 0x34AF JUMP JUMPDEST SWAP2 POP POP PUSH2 0x240B JUMP JUMPDEST POP DUP1 SWAP2 POP POP SWAP2 SWAP1 POP JUMP JUMPDEST PUSH1 0x1 SLOAD DUP2 JUMP JUMPDEST PUSH1 0x40 MLOAD DUP1 PUSH2 0x140 ADD PUSH1 0x40 MSTORE DUP1 PUSH1 0x0 DUP2 MSTORE PUSH1 0x20 ADD PUSH1 0x60 DUP2 MSTORE PUSH1 0x20 ADD PUSH1 0x60 DUP2 MSTORE PUSH1 0x20 ADD PUSH1 0x60 DUP2 MSTORE PUSH1 0x20 ADD PUSH1 0x0 DUP2 MSTORE PUSH1 0x20 ADD PUSH1 0x0 DUP2 MSTORE PUSH1 0x20 ADD PUSH1 0x60 DUP2 MSTORE PUSH1 0x20 ADD PUSH1 0x60 DUP2 MSTORE PUSH1 0x20 ADD PUSH1 0x60 DUP2 MSTORE PUSH1 0x20 ADD PUSH1 0x60 DUP2 MSTORE POP SWAP1 JUMP JUMPDEST PUSH1 0x0 PUSH1 0x40 MLOAD SWAP1 POP SWAP1 JUMP JUMPDEST PUSH1 0x0 DUP1 REVERT JUMPDEST PUSH1 0x0 DUP1 REVERT JUMPDEST PUSH1 0x0 DUP2 SWAP1 POP SWAP2 SWAP1 POP JUMP JUMPDEST PUSH2 0x2995 DUP2 PUSH2 0x2982 JUMP JUMPDEST DUP2 EQ PUSH2 0x29A0 JUMPI PUSH1 0x0 DUP1 REVERT JUMPDEST POP JUMP JUMPDEST PUSH1 0x0 DUP2 CALLDATALOAD SWAP1 POP PUSH2 0x29B2 DUP2 PUSH2 0x298C JUMP JUMPDEST SWAP3 SWAP2 POP POP JUMP JUMPDEST PUSH1 0x0 PUSH1 0x20 DUP3 DUP5 SUB SLT ISZERO PUSH2 0x29CE JUMPI PUSH2 0x29CD PUSH2 0x2978 JUMP JUMPDEST JUMPDEST PUSH1 0x0 PUSH2 0x29DC DUP5 DUP3 DUP6 ADD PUSH2 0x29A3 JUMP JUMPDEST SWAP2 POP POP SWAP3 SWAP2 POP POP JUMP JUMPDEST PUSH2 0x29EE DUP2 PUSH2 0x2982 JUMP JUMPDEST DUP3 MSTORE POP POP JUMP JUMPDEST PUSH1 0x0 DUP2 MLOAD SWAP1 POP SWAP2 SWAP1 POP JUMP JUMPDEST PUSH1 0x0 DUP3 DUP3 MSTORE PUSH1 0x20 DUP3 ADD SWAP1 POP SWAP3 SWAP2 POP POP JUMP JUMPDEST PUSH1 0x0 JUMPDEST DUP4 DUP2 LT ISZERO PUSH2 0x2A2E JUMPI DUP1 DUP3 ADD MLOAD DUP2 DUP5 ADD MSTORE PUSH1 0x20 DUP2 ADD SWAP1 POP PUSH2 0x2A13 JUMP JUMPDEST PUSH1 0x0 DUP5 DUP5 ADD MSTORE POP POP POP POP JUMP JUMPDEST PUSH1 0x0 PUSH1 0x1F NOT PUSH1 0x1F DUP4 ADD AND SWAP1 POP SWAP2 SWAP1 POP JUMP JUMPDEST PUSH1 0x0 PUSH2 0x2A56 DUP3 PUSH2 0x29F4 JUMP JUMPDEST PUSH2 0x2A60 DUP2 DUP6 PUSH2 0x29FF JUMP JUMPDEST SWAP4 POP PUSH2 0x2A70 DUP2 DUP6 PUSH1 0x20 DUP7 ADD PUSH2 0x2A10 JUMP JUMPDEST PUSH2 0x2A79 DUP2 PUSH2 0x2A3A JUMP JUMPDEST DUP5 ADD SWAP2 POP POP SWAP3 SWAP2 POP POP JUMP JUMPDEST PUSH1 0x0 PUSH2 0x140 DUP3 ADD SWAP1 POP PUSH2 0x2A9A PUSH1 0x0 DUP4 ADD DUP14 PUSH2 0x29E5 JUMP JUMPDEST DUP2 DUP2 SUB PUSH1 0x20 DUP4 ADD MSTORE PUSH2 0x2AAC DUP2 DUP13 PUSH2 0x2A4B JUMP JUMPDEST SWAP1 POP DUP2 DUP2 SUB PUSH1 0x40 DUP4 ADD MSTORE PUSH2 0x2AC0 DUP2 DUP12 PUSH2 0x2A4B JUMP JUMPDEST SWAP1 POP DUP2 DUP2 SUB PUSH1 0x60 DUP4 ADD MSTORE PUSH2 0x2AD4 DUP2 DUP11 PUSH2 0x2A4B JUMP JUMPDEST SWAP1 POP PUSH2 0x2AE3 PUSH1 0x80 DUP4 ADD DUP10 PUSH2 0x29E5 JUMP JUMPDEST PUSH2 0x2AF0 PUSH1 0xA0 DUP4 ADD DUP9 PUSH2 0x29E5 JUMP JUMPDEST DUP2 DUP2 SUB PUSH1 0xC0 DUP4 ADD MSTORE PUSH2 0x2B02 DUP2 DUP8 PUSH2 0x2A4B JUMP JUMPDEST SWAP1 POP DUP2 DUP2 SUB PUSH1 0xE0 DUP4 ADD MSTORE PUSH2 0x2B16 DUP2 DUP7 PUSH2 0x2A4B JUMP JUMPDEST SWAP1 POP DUP2 DUP2 SUB PUSH2 0x100 DUP4 ADD MSTORE PUSH2 0x2B2B DUP2 DUP6 PUSH2 0x2A4B JUMP JUMPDEST SWAP1 POP DUP2 DUP2 SUB PUSH2 0x120 DUP4 ADD MSTORE PUSH2 0x2B40 DUP2 DUP5 PUSH2 0x2A4B JUMP JUMPDEST SWAP1 POP SWAP12 SWAP11 POP POP POP POP POP POP POP POP POP POP POP JUMP JUMPDEST PUSH1 0x0 DUP1 REVERT JUMPDEST PUSH1 0x0 DUP1 REVERT JUMPDEST PUSH32 0x4E487B7100000000000000000000000000000000000000000000000000000000 PUSH1 0x0 MSTORE PUSH1 0x41 PUSH1 0x4 MSTORE PUSH1 0x24 PUSH1 0x0 REVERT JUMPDEST PUSH2 0x2B93 DUP3 PUSH2 0x2A3A JUMP JUMPDEST DUP2 ADD DUP2 DUP2 LT PUSH8 0xFFFFFFFFFFFFFFFF DUP3 GT OR ISZERO PUSH2 0x2BB2 JUMPI PUSH2 0x2BB1 PUSH2 0x2B5B JUMP JUMPDEST JUMPDEST DUP1 PUSH1 0x40 MSTORE POP POP POP JUMP JUMPDEST PUSH1 0x0 PUSH2 0x2BC5 PUSH2 0x296E JUMP JUMPDEST SWAP1 POP PUSH2 0x2BD1 DUP3 DUP3 PUSH2 0x2B8A JUMP JUMPDEST SWAP2 SWAP1 POP JUMP JUMPDEST PUSH1 0x0 PUSH8 0xFFFFFFFFFFFFFFFF DUP3 GT ISZERO PUSH2 0x2BF1 JUMPI PUSH2 0x2BF0 PUSH2 0x2B5B JUMP JUMPDEST JUMPDEST PUSH2 0x2BFA DUP3 PUSH2 0x2A3A JUMP JUMPDEST SWAP1 POP PUSH1 0x20 DUP2 ADD SWAP1 POP SWAP2 SWAP1 POP JUMP JUMPDEST DUP3 DUP2 DUP4 CALLDATACOPY PUSH1 0x0 DUP4 DUP4 ADD MSTORE POP POP POP JUMP JUMPDEST PUSH1 0x0 PUSH2 0x2C29 PUSH2 0x2C24 DUP5 PUSH2 0x2BD6 JUMP JUMPDEST PUSH2 0x2BBB JUMP JUMPDEST SWAP1 POP DUP3 DUP2 MSTORE PUSH1 0x20 DUP2 ADD DUP5 DUP5 DUP5 ADD GT ISZERO PUSH2 0x2C45 JUMPI PUSH2 0x2C44 PUSH2 0x2B56 JUMP JUMPDEST JUMPDEST PUSH2 0x2C50 DUP5 DUP3 DUP6 PUSH2 0x2C07 JUMP JUMPDEST POP SWAP4 SWAP3 POP POP POP JUMP JUMPDEST PUSH1 0x0 DUP3 PUSH1 0x1F DUP4 ADD SLT PUSH2 0x2C6D JUMPI PUSH2 0x2C6C PUSH2 0x2B51 JUMP JUMPDEST JUMPDEST DUP2 CALLDATALOAD PUSH2 0x2C7D DUP5 DUP3 PUSH1 0x20 DUP7 ADD PUSH2 0x2C16 JUMP JUMPDEST SWAP2 POP POP SWAP3 SWAP2 POP POP JUMP JUMPDEST PUSH1 0x0 PUSH1 0x20 DUP3 DUP5 SUB SLT ISZERO PUSH2 0x2C9C JUMPI PUSH2 0x2C9B PUSH2 0x2978 JUMP JUMPDEST JUMPDEST PUSH1 0x0 DUP3 ADD CALLDATALOAD PUSH8 0xFFFFFFFFFFFFFFFF DUP2 GT ISZERO PUSH2 0x2CBA JUMPI PUSH2 0x2CB9 PUSH2 0x297D JUMP JUMPDEST JUMPDEST PUSH2 0x2CC6 DUP5 DUP3 DUP6 ADD PUSH2 0x2C58 JUMP JUMPDEST SWAP2 POP POP SWAP3 SWAP2 POP POP JUMP JUMPDEST PUSH1 0x0 DUP2 MLOAD SWAP1 POP SWAP2 SWAP1 POP JUMP JUMPDEST PUSH1 0x0 DUP3 DUP3 MSTORE PUSH1 0x20 DUP3 ADD SWAP1 POP SWAP3 SWAP2 POP POP JUMP JUMPDEST PUSH1 0x0 DUP2 SWAP1 POP PUSH1 0x20 DUP3 ADD SWAP1 POP SWAP2 SWAP1 POP JUMP JUMPDEST PUSH2 0x2D04 DUP2 PUSH2 0x2982 JUMP JUMPDEST DUP3 MSTORE POP POP JUMP JUMPDEST PUSH1 0x0 DUP3 DUP3 MSTORE PUSH1 0x20 DUP3 ADD SWAP1 POP SWAP3 SWAP2 POP POP JUMP JUMPDEST PUSH1 0x0 PUSH2 0x2D26 DUP3 PUSH2 0x29F4 JUMP JUMPDEST PUSH2 0x2D30 DUP2 DUP6 PUSH2 0x2D0A JUMP JUMPDEST SWAP4 POP PUSH2 0x2D40 DUP2 DUP6 PUSH1 0x20 DUP7 ADD PUSH2 0x2A10 JUMP JUMPDEST PUSH2 0x2D49 DUP2 PUSH2 0x2A3A JUMP JUMPDEST DUP5 ADD SWAP2 POP POP SWAP3 SWAP2 POP POP JUMP JUMPDEST PUSH1 0x0 PUSH2 0x140 DUP4 ADD PUSH1 0x0 DUP4 ADD MLOAD PUSH2 0x2D6D PUSH1 0x0 DUP7 ADD DUP3 PUSH2 0x2CFB JUMP JUMPDEST POP PUSH1 0x20 DUP4 ADD MLOAD DUP5 DUP3 SUB PUSH1 0x20 DUP7 ADD MSTORE PUSH2 0x2D85 DUP3 DUP3 PUSH2 0x2D1B JUMP JUMPDEST SWAP2 POP POP PUSH1 0x40 DUP4 ADD MLOAD DUP5 DUP3 SUB PUSH1 0x40 DUP7 ADD MSTORE PUSH2 0x2D9F DUP3 DUP3 PUSH2 0x2D1B JUMP JUMPDEST SWAP2 POP POP PUSH1 0x60 DUP4 ADD MLOAD DUP5 DUP3 SUB PUSH1 0x60 DUP7 ADD MSTORE PUSH2 0x2DB9 DUP3 DUP3 PUSH2 0x2D1B JUMP JUMPDEST SWAP2 POP POP PUSH1 0x80 DUP4 ADD MLOAD PUSH2 0x2DCE PUSH1 0x80 DUP7 ADD DUP3 PUSH2 0x2CFB JUMP JUMPDEST POP PUSH1 0xA0 DUP4 ADD MLOAD PUSH2 0x2DE1 PUSH1 0xA0 DUP7 ADD DUP3 PUSH2 0x2CFB JUMP JUMPDEST POP PUSH1 0xC0 DUP4 ADD MLOAD DUP5 DUP3 SUB PUSH1 0xC0 DUP7 ADD MSTORE PUSH2 0x2DF9 DUP3 DUP3 PUSH2 0x2D1B JUMP JUMPDEST SWAP2 POP POP PUSH1 0xE0 DUP4 ADD MLOAD DUP5 DUP3 SUB PUSH1 0xE0 DUP7 ADD MSTORE PUSH2 0x2E13 DUP3 DUP3 PUSH2 0x2D1B JUMP JUMPDEST SWAP2 POP POP PUSH2 0x100 DUP4 ADD MLOAD DUP5 DUP3 SUB PUSH2 0x100 DUP7 ADD MSTORE PUSH2 0x2E2F DUP3 DUP3 PUSH2 0x2D1B JUMP JUMPDEST SWAP2 POP POP PUSH2 0x120 DUP4 ADD MLOAD DUP5 DUP3 SUB PUSH2 0x120 DUP7 ADD MSTORE PUSH2 0x2E4B DUP3 DUP3 PUSH2 0x2D1B JUMP JUMPDEST SWAP2 POP POP DUP1 SWAP2 POP POP SWAP3 SWAP2 POP POP JUMP JUMPDEST PUSH1 0x0 PUSH2 0x2E64 DUP4 DUP4 PUSH2 0x2D54 JUMP JUMPDEST SWAP1 POP SWAP3 SWAP2 POP POP JUMP JUMPDEST PUSH1 0x0 PUSH1 0x20 DUP3 ADD SWAP1 POP SWAP2 SWAP1 POP JUMP JUMPDEST PUSH1 0x0 PUSH2 0x2E84 DUP3 PUSH2 0x2CCF JUMP JUMPDEST PUSH2 0x2E8E DUP2 DUP6 PUSH2 0x2CDA JUMP JUMPDEST SWAP4 POP DUP4 PUSH1 0x20 DUP3 MUL DUP6 ADD PUSH2 0x2EA0 DUP6 PUSH2 0x2CEB JUMP JUMPDEST DUP1 PUSH1 0x0 JUMPDEST DUP6 DUP2 LT ISZERO PUSH2 0x2EDC JUMPI DUP5 DUP5 SUB DUP10 MSTORE DUP2 MLOAD PUSH2 0x2EBD DUP6 DUP3 PUSH2 0x2E58 JUMP JUMPDEST SWAP5 POP PUSH2 0x2EC8 DUP4 PUSH2 0x2E6C JUMP JUMPDEST SWAP3 POP PUSH1 0x20 DUP11 ADD SWAP10 POP POP PUSH1 0x1 DUP2 ADD SWAP1 POP PUSH2 0x2EA4 JUMP JUMPDEST POP DUP3 SWAP8 POP DUP8 SWAP6 POP POP POP POP POP POP SWAP3 SWAP2 POP POP JUMP JUMPDEST PUSH1 0x0 PUSH1 0x20 DUP3 ADD SWAP1 POP DUP2 DUP2 SUB PUSH1 0x0 DUP4 ADD MSTORE PUSH2 0x2F08 DUP2 DUP5 PUSH2 0x2E79 JUMP JUMPDEST SWAP1 POP SWAP3 SWAP2 POP POP JUMP JUMPDEST PUSH1 0x0 DUP1 PUSH1 0x40 DUP4 DUP6 SUB SLT ISZERO PUSH2 0x2F27 JUMPI PUSH2 0x2F26 PUSH2 0x2978 JUMP JUMPDEST JUMPDEST PUSH1 0x0 DUP4 ADD CALLDATALOAD PUSH8 0xFFFFFFFFFFFFFFFF DUP2 GT ISZERO PUSH2 0x2F45 JUMPI PUSH2 0x2F44 PUSH2 0x297D JUMP JUMPDEST JUMPDEST PUSH2 0x2F51 DUP6 DUP3 DUP7 ADD PUSH2 0x2C58 JUMP JUMPDEST SWAP3 POP POP PUSH1 0x20 DUP4 ADD CALLDATALOAD PUSH8 0xFFFFFFFFFFFFFFFF DUP2 GT ISZERO PUSH2 0x2F72 JUMPI PUSH2 0x2F71 PUSH2 0x297D JUMP JUMPDEST JUMPDEST PUSH2 0x2F7E DUP6 DUP3 DUP7 ADD PUSH2 0x2C58 JUMP JUMPDEST SWAP2 POP POP SWAP3 POP SWAP3 SWAP1 POP JUMP JUMPDEST PUSH1 0x0 PUSH2 0x140 DUP4 ADD PUSH1 0x0 DUP4 ADD MLOAD PUSH2 0x2FA1 PUSH1 0x0 DUP7 ADD DUP3 PUSH2 0x2CFB JUMP JUMPDEST POP PUSH1 0x20 DUP4 ADD MLOAD DUP5 DUP3 SUB PUSH1 0x20 DUP7 ADD MSTORE PUSH2 0x2FB9 DUP3 DUP3 PUSH2 0x2D1B JUMP JUMPDEST SWAP2 POP POP PUSH1 0x40 DUP4 ADD MLOAD DUP5 DUP3 SUB PUSH1 0x40 DUP7 ADD MSTORE PUSH2 0x2FD3 DUP3 DUP3 PUSH2 0x2D1B JUMP JUMPDEST SWAP2 POP POP PUSH1 0x60 DUP4 ADD MLOAD DUP5 DUP3 SUB PUSH1 0x60 DUP7 ADD MSTORE PUSH2 0x2FED DUP3 DUP3 PUSH2 0x2D1B JUMP JUMPDEST SWAP2 POP POP PUSH1 0x80 DUP4 ADD MLOAD PUSH2 0x3002 PUSH1 0x80 DUP7 ADD DUP3 PUSH2 0x2CFB JUMP JUMPDEST POP PUSH1 0xA0 DUP4 ADD MLOAD PUSH2 0x3015 PUSH1 0xA0 DUP7 ADD DUP3 PUSH2 0x2CFB JUMP JUMPDEST POP PUSH1 0xC0 DUP4 ADD MLOAD DUP5 DUP3 SUB PUSH1 0xC0 DUP7 ADD MSTORE PUSH2 0x302D DUP3 DUP3 PUSH2 0x2D1B JUMP JUMPDEST SWAP2 POP POP PUSH1 0xE0 DUP4 ADD MLOAD DUP5 DUP3 SUB PUSH1 0xE0 DUP7 ADD MSTORE PUSH2 0x3047 DUP3 DUP3 PUSH2 0x2D1B JUMP JUMPDEST SWAP2 POP POP PUSH2 0x100 DUP4 ADD MLOAD DUP5 DUP3 SUB PUSH2 0x100 DUP7 ADD MSTORE PUSH2 0x3063 DUP3 DUP3 PUSH2 0x2D1B JUMP JUMPDEST SWAP2 POP POP PUSH2 0x120 DUP4 ADD MLOAD DUP5 DUP3 SUB PUSH2 0x120 DUP7 ADD MSTORE PUSH2 0x307F DUP3 DUP3 PUSH2 0x2D1B JUMP JUMPDEST SWAP2 POP POP DUP1 SWAP2 POP POP SWAP3 SWAP2 POP POP JUMP JUMPDEST PUSH1 0x0 PUSH1 0x20 DUP3 ADD SWAP1 POP DUP2 DUP2 SUB PUSH1 0x0 DUP4 ADD MSTORE PUSH2 0x30A6 DUP2 DUP5 PUSH2 0x2F88 JUMP JUMPDEST SWAP1 POP SWAP3 SWAP2 POP POP JUMP JUMPDEST PUSH1 0x0 DUP1 PUSH1 0x40 DUP4 DUP6 SUB SLT ISZERO PUSH2 0x30C5 JUMPI PUSH2 0x30C4 PUSH2 0x2978 JUMP JUMPDEST JUMPDEST PUSH1 0x0 PUSH2 0x30D3 DUP6 DUP3 DUP7 ADD PUSH2 0x29A3 JUMP JUMPDEST SWAP3 POP POP PUSH1 0x20 PUSH2 0x30E4 DUP6 DUP3 DUP7 ADD PUSH2 0x29A3 JUMP JUMPDEST SWAP2 POP POP SWAP3 POP SWAP3 SWAP1 POP JUMP JUMPDEST PUSH1 0x0 DUP1 PUSH1 0x0 DUP1 PUSH1 0x0 DUP1 PUSH1 0x0 PUSH1 0xE0 DUP9 DUP11 SUB SLT ISZERO PUSH2 0x310D JUMPI PUSH2 0x310C PUSH2 0x2978 JUMP JUMPDEST JUMPDEST PUSH1 0x0 DUP9 ADD CALLDATALOAD PUSH8 0xFFFFFFFFFFFFFFFF DUP2 GT ISZERO PUSH2 0x312B JUMPI PUSH2 0x312A PUSH2 0x297D JUMP JUMPDEST JUMPDEST PUSH2 0x3137 DUP11 DUP3 DUP12 ADD PUSH2 0x2C58 JUMP JUMPDEST SWAP8 POP POP PUSH1 0x20 DUP9 ADD CALLDATALOAD PUSH8 0xFFFFFFFFFFFFFFFF DUP2 GT ISZERO PUSH2 0x3158 JUMPI PUSH2 0x3157 PUSH2 0x297D JUMP JUMPDEST JUMPDEST PUSH2 0x3164 DUP11 DUP3 DUP12 ADD PUSH2 0x2C58 JUMP JUMPDEST SWAP7 POP POP PUSH1 0x40 DUP9 ADD CALLDATALOAD PUSH8 0xFFFFFFFFFFFFFFFF DUP2 GT ISZERO PUSH2 0x3185 JUMPI PUSH2 0x3184 PUSH2 0x297D JUMP JUMPDEST JUMPDEST PUSH2 0x3191 DUP11 DUP3 DUP12 ADD PUSH2 0x2C58 JUMP JUMPDEST SWAP6 POP POP PUSH1 0x60 PUSH2 0x31A2 DUP11 DUP3 DUP12 ADD PUSH2 0x29A3 JUMP JUMPDEST SWAP5 POP POP PUSH1 0x80 PUSH2 0x31B3 DUP11 DUP3 DUP12 ADD PUSH2 0x29A3 JUMP JUMPDEST SWAP4 POP POP PUSH1 0xA0 DUP9 ADD CALLDATALOAD PUSH8 0xFFFFFFFFFFFFFFFF DUP2 GT ISZERO PUSH2 0x31D4 JUMPI PUSH2 0x31D3 PUSH2 0x297D JUMP JUMPDEST JUMPDEST PUSH2 0x31E0 DUP11 DUP3 DUP12 ADD PUSH2 0x2C58 JUMP JUMPDEST SWAP3 POP POP PUSH1 0xC0 DUP9 ADD CALLDATALOAD PUSH8 0xFFFFFFFFFFFFFFFF DUP2 GT ISZERO PUSH2 0x3201 JUMPI PUSH2 0x3200 PUSH2 0x297D JUMP JUMPDEST JUMPDEST PUSH2 0x320D DUP11 DUP3 DUP12 ADD PUSH2 0x2C58 JUMP JUMPDEST SWAP2 POP POP SWAP3 SWAP6 SWAP9 SWAP2 SWAP5 SWAP8 POP SWAP3 SWAP6 POP JUMP JUMPDEST PUSH1 0x0 PUSH20 0xFFFFFFFFFFFFFFFFFFFFFFFFFFFFFFFFFFFFFFFF DUP3 AND SWAP1 POP SWAP2 SWAP1 POP JUMP JUMPDEST PUSH1 0x0 PUSH2 0x3247 DUP3 PUSH2 0x321C JUMP JUMPDEST SWAP1 POP SWAP2 SWAP1 POP JUMP JUMPDEST PUSH2 0x3257 DUP2 PUSH2 0x323C JUMP JUMPDEST DUP3 MSTORE POP POP JUMP JUMPDEST PUSH1 0x0 PUSH1 0x20 DUP3 ADD SWAP1 POP PUSH2 0x3272 PUSH1 0x0 DUP4 ADD DUP5 PUSH2 0x324E JUMP JUMPDEST SWAP3 SWAP2 POP POP JUMP JUMPDEST PUSH1 0x0 DUP1 PUSH1 0x40 DUP4 DUP6 SUB SLT ISZERO PUSH2 0x328F JUMPI PUSH2 0x328E PUSH2 0x2978 JUMP JUMPDEST JUMPDEST PUSH1 0x0 PUSH2 0x329D DUP6 DUP3 DUP7 ADD PUSH2 0x29A3 JUMP JUMPDEST SWAP3 POP POP PUSH1 0x20 DUP4 ADD CALLDATALOAD PUSH8 0xFFFFFFFFFFFFFFFF DUP2 GT ISZERO PUSH2 0x32BE JUMPI PUSH2 0x32BD PUSH2 0x297D JUMP JUMPDEST JUMPDEST PUSH2 0x32CA DUP6 DUP3 DUP7 ADD PUSH2 0x2C58 JUMP JUMPDEST SWAP2 POP POP SWAP3 POP SWAP3 SWAP1 POP JUMP JUMPDEST PUSH1 0x0 PUSH1 0x20 DUP3 ADD SWAP1 POP PUSH2 0x32E9 PUSH1 0x0 DUP4 ADD DUP5 PUSH2 0x29E5 JUMP JUMPDEST SWAP3 SWAP2 POP POP JUMP JUMPDEST PUSH32 0x4E487B7100000000000000000000000000000000000000000000000000000000 PUSH1 0x0 MSTORE PUSH1 0x22 PUSH1 0x4 MSTORE PUSH1 0x24 PUSH1 0x0 REVERT JUMPDEST PUSH1 0x0 PUSH1 0x2 DUP3 DIV SWAP1 POP PUSH1 0x1 DUP3 AND DUP1 PUSH2 0x3336 JUMPI PUSH1 0x7F DUP3 AND SWAP2 POP JUMPDEST PUSH1 0x20 DUP3 LT DUP2 SUB PUSH2 0x3349 JUMPI PUSH2 0x3348 PUSH2 0x32EF JUMP JUMPDEST JUMPDEST POP SWAP2 SWAP1 POP JUMP JUMPDEST PUSH1 0x0 DUP2 SWAP1 POP SWAP3 SWAP2 POP POP JUMP JUMPDEST PUSH1 0x0 PUSH2 0x3365 DUP3 PUSH2 0x29F4 JUMP JUMPDEST PUSH2 0x336F DUP2 DUP6 PUSH2 0x334F JUMP JUMPDEST SWAP4 POP PUSH2 0x337F DUP2 DUP6 PUSH1 0x20 DUP7 ADD PUSH2 0x2A10 JUMP JUMPDEST DUP1 DUP5 ADD SWAP2 POP POP SWAP3 SWAP2 POP POP JUMP JUMPDEST PUSH1 0x0 PUSH2 0x3397 DUP3 DUP5 PUSH2 0x335A JUMP JUMPDEST SWAP2 POP DUP2 SWAP1 POP SWAP3 SWAP2 POP POP JUMP JUMPDEST PUSH32 0x4E487B7100000000000000000000000000000000000000000000000000000000 PUSH1 0x0 MSTORE PUSH1 0x32 PUSH1 0x4 MSTORE PUSH1 0x24 PUSH1 0x0 REVERT JUMPDEST PUSH1 0x0 DUP2 SWAP1 POP DUP2 PUSH1 0x0 MSTORE PUSH1 0x20 PUSH1 0x0 KECCAK256 SWAP1 POP SWAP2 SWAP1 POP JUMP JUMPDEST PUSH1 0x0 DUP2 SLOAD PUSH2 0x33F3 DUP2 PUSH2 0x331E JUMP JUMPDEST PUSH2 0x33FD DUP2 DUP7 PUSH2 0x334F JUMP JUMPDEST SWAP5 POP PUSH1 0x1 DUP3 AND PUSH1 0x0 DUP2 EQ PUSH2 0x3418 JUMPI PUSH1 0x1 DUP2 EQ PUSH2 0x342D JUMPI PUSH2 0x3460 JUMP JUMPDEST PUSH1 0xFF NOT DUP4 AND DUP7 MSTORE DUP2 ISZERO ISZERO DUP3 MUL DUP7 ADD SWAP4 POP PUSH2 0x3460 JUMP JUMPDEST PUSH2 0x3436 DUP6 PUSH2 0x33D1 JUMP JUMPDEST PUSH1 0x0 JUMPDEST DUP4 DUP2 LT ISZERO PUSH2 0x3458 JUMPI DUP2 SLOAD DUP2 DUP10 ADD MSTORE PUSH1 0x1 DUP3 ADD SWAP2 POP PUSH1 0x20 DUP2 ADD SWAP1 POP PUSH2 0x3439 JUMP JUMPDEST DUP4 DUP9 ADD SWAP6 POP POP POP JUMPDEST POP POP POP SWAP3 SWAP2 POP POP JUMP JUMPDEST PUSH1 0x0 PUSH2 0x3475 DUP3 DUP5 PUSH2 0x33E6 JUMP JUMPDEST SWAP2 POP DUP2 SWAP1 POP SWAP3 SWAP2 POP POP JUMP JUMPDEST PUSH32 0x4E487B7100000000000000000000000000000000000000000000000000000000 PUSH1 0x0 MSTORE PUSH1 0x11 PUSH1 0x4 MSTORE PUSH1 0x24 PUSH1 0x0 REVERT JUMPDEST PUSH1 0x0 PUSH2 0x34BA DUP3 PUSH2 0x2982 JUMP JUMPDEST SWAP2 POP PUSH32 0xFFFFFFFFFFFFFFFFFFFFFFFFFFFFFFFFFFFFFFFFFFFFFFFFFFFFFFFFFFFFFFFF DUP3 SUB PUSH2 0x34EC JUMPI PUSH2 0x34EB PUSH2 0x3480 JUMP JUMPDEST JUMPDEST PUSH1 0x1 DUP3 ADD SWAP1 POP SWAP2 SWAP1 POP JUMP JUMPDEST PUSH32 0x50726F6A656374206E6F7420666F756E6420666F722074686520676976656E20 PUSH1 0x0 DUP3 ADD MSTORE PUSH32 0x636F6D70616E7900000000000000000000000000000000000000000000000000 PUSH1 0x20 DUP3 ADD MSTORE POP JUMP JUMPDEST PUSH1 0x0 PUSH2 0x3553 PUSH1 0x27 DUP4 PUSH2 0x29FF JUMP JUMPDEST SWAP2 POP PUSH2 0x355E DUP3 PUSH2 0x34F7 JUMP JUMPDEST PUSH1 0x40 DUP3 ADD SWAP1 POP SWAP2 SWAP1 POP JUMP JUMPDEST PUSH1 0x0 PUSH1 0x20 DUP3 ADD SWAP1 POP DUP2 DUP2 SUB PUSH1 0x0 DUP4 ADD MSTORE PUSH2 0x3582 DUP2 PUSH2 0x3546 JUMP JUMPDEST SWAP1 POP SWAP2 SWAP1 POP JUMP JUMPDEST PUSH32 0x50726F6A65637420494420646F6573206E6F7420657869737400000000000000 PUSH1 0x0 DUP3 ADD MSTORE POP JUMP JUMPDEST PUSH1 0x0 PUSH2 0x35BF PUSH1 0x19 DUP4 PUSH2 0x29FF JUMP JUMPDEST SWAP2 POP PUSH2 0x35CA DUP3 PUSH2 0x3589 JUMP JUMPDEST PUSH1 0x20 DUP3 ADD SWAP1 POP SWAP2 SWAP1 POP JUMP JUMPDEST PUSH1 0x0 PUSH1 0x20 DUP3 ADD SWAP1 POP DUP2 DUP2 SUB PUSH1 0x0 DUP4 ADD MSTORE PUSH2 0x35EE DUP2 PUSH2 0x35B2 JUMP JUMPDEST SWAP1 POP SWAP2 SWAP1 POP JUMP JUMPDEST PUSH32 0x436F6D70616E7920696E666F726D6174696F6E20697320726571756972656400 PUSH1 0x0 DUP3 ADD MSTORE POP JUMP JUMPDEST PUSH1 0x0 PUSH2 0x362B PUSH1 0x1F DUP4 PUSH2 0x29FF JUMP JUMPDEST SWAP2 POP PUSH2 0x3636 DUP3 PUSH2 0x35F5 JUMP JUMPDEST PUSH1 0x20 DUP3 ADD SWAP1 POP SWAP2 SWAP1 POP JUMP JUMPDEST PUSH1 0x0 PUSH1 0x20 DUP3 ADD SWAP1 POP DUP2 DUP2 SUB PUSH1 0x0 DUP4 ADD MSTORE PUSH2 0x365A DUP2 PUSH2 0x361E JUMP JUMPDEST SWAP1 POP SWAP2 SWAP1 POP JUMP JUMPDEST PUSH32 0x50726F6A656374207469746C6520697320726571756972656400000000000000 PUSH1 0x0 DUP3 ADD MSTORE POP JUMP JUMPDEST PUSH1 0x0 PUSH2 0x3697 PUSH1 0x19 DUP4 PUSH2 0x29FF JUMP JUMPDEST SWAP2 POP PUSH2 0x36A2 DUP3 PUSH2 0x3661 JUMP JUMPDEST PUSH1 0x20 DUP3 ADD SWAP1 POP SWAP2 SWAP1 POP JUMP JUMPDEST PUSH1 0x0 PUSH1 0x20 DUP3 ADD SWAP1 POP DUP2 DUP2 SUB PUSH1 0x0 DUP4 ADD MSTORE PUSH2 0x36C6 DUP2 PUSH2 0x368A JUMP JUMPDEST SWAP1 POP SWAP2 SWAP1 POP JUMP JUMPDEST PUSH32 0x50726F6A656374206465736372697074696F6E20697320726571756972656400 PUSH1 0x0 DUP3 ADD MSTORE POP JUMP JUMPDEST PUSH1 0x0 PUSH2 0x3703 PUSH1 0x1F DUP4 PUSH2 0x29FF JUMP JUMPDEST SWAP2 POP PUSH2 0x370E DUP3 PUSH2 0x36CD JUMP JUMPDEST PUSH1 0x20 DUP3 ADD SWAP1 POP SWAP2 SWAP1 POP JUMP JUMPDEST PUSH1 0x0 PUSH1 0x20 DUP3 ADD SWAP1 POP DUP2 DUP2 SUB PUSH1 0x0 DUP4 ADD MSTORE PUSH2 0x3732 DUP2 PUSH2 0x36F6 JUMP JUMPDEST SWAP1 POP SWAP2 SWAP1 POP JUMP JUMPDEST PUSH32 0x456D697373696F6E73206F6666736574206D7573742062652067726561746572 PUSH1 0x0 DUP3 ADD MSTORE PUSH32 0x207468616E203000000000000000000000000000000000000000000000000000 PUSH1 0x20 DUP3 ADD MSTORE POP JUMP JUMPDEST PUSH1 0x0 PUSH2 0x3795 PUSH1 0x27 DUP4 PUSH2 0x29FF JUMP JUMPDEST SWAP2 POP PUSH2 0x37A0 DUP3 PUSH2 0x3739 JUMP JUMPDEST PUSH1 0x40 DUP3 ADD SWAP1 POP SWAP2 SWAP1 POP JUMP JUMPDEST PUSH1 0x0 PUSH1 0x20 DUP3 ADD SWAP1 POP DUP2 DUP2 SUB PUSH1 0x0 DUP4 ADD MSTORE PUSH2 0x37C4 DUP2 PUSH2 0x3788 JUMP JUMPDEST SWAP1 POP SWAP2 SWAP1 POP JUMP JUMPDEST PUSH32 0x46696E616E6369616C20696E666F726D6174696F6E2069732072657175697265 PUSH1 0x0 DUP3 ADD MSTORE PUSH32 0x6400000000000000000000000000000000000000000000000000000000000000 PUSH1 0x20 DUP3 ADD MSTORE POP JUMP JUMPDEST PUSH1 0x0 PUSH2 0x3827 PUSH1 0x21 DUP4 PUSH2 0x29FF JUMP JUMPDEST SWAP2 POP PUSH2 0x3832 DUP3 PUSH2 0x37CB JUMP JUMPDEST PUSH1 0x40 DUP3 ADD SWAP1 POP SWAP2 SWAP1 POP JUMP JUMPDEST PUSH1 0x0 PUSH1 0x20 DUP3 ADD SWAP1 POP DUP2 DUP2 SUB PUSH1 0x0 DUP4 ADD MSTORE PUSH2 0x3856 DUP2 PUSH2 0x381A JUMP JUMPDEST SWAP1 POP SWAP2 SWAP1 POP JUMP JUMPDEST PUSH32 0x446F63756D656E746174696F6E20697320726571756972656400000000000000 PUSH1 0x0 DUP3 ADD MSTORE POP JUMP JUMPDEST PUSH1 0x0 PUSH2 0x3893 PUSH1 0x19 DUP4 PUSH2 0x29FF JUMP JUMPDEST SWAP2 POP PUSH2 0x389E DUP3 PUSH2 0x385D JUMP JUMPDEST PUSH1 0x20 DUP3 ADD SWAP1 POP SWAP2 SWAP1 POP JUMP JUMPDEST PUSH1 0x0 PUSH1 0x20 DUP3 ADD SWAP1 POP DUP2 DUP2 SUB PUSH1 0x0 DUP4 ADD MSTORE PUSH2 0x38C2 DUP2 PUSH2 0x3886 JUMP JUMPDEST SWAP1 POP SWAP2 SWAP1 POP JUMP JUMPDEST PUSH1 0x0 PUSH1 0x20 PUSH1 0x1F DUP4 ADD DIV SWAP1 POP SWAP2 SWAP1 POP JUMP JUMPDEST PUSH1 0x0 DUP3 DUP3 SHL SWAP1 POP SWAP3 SWAP2 POP POP JUMP JUMPDEST PUSH1 0x0 PUSH1 0x8 DUP4 MUL PUSH2 0x3916 PUSH32 0xFFFFFFFFFFFFFFFFFFFFFFFFFFFFFFFFFFFFFFFFFFFFFFFFFFFFFFFFFFFFFFFF DUP3 PUSH2 0x38D9 JUMP JUMPDEST PUSH2 0x3920 DUP7 DUP4 PUSH2 0x38D9 JUMP JUMPDEST SWAP6 POP DUP1 NOT DUP5 AND SWAP4 POP DUP1 DUP7 AND DUP5 OR SWAP3 POP POP POP SWAP4 SWAP3 POP POP POP JUMP JUMPDEST PUSH1 0x0 DUP2 SWAP1 POP SWAP2 SWAP1 POP JUMP JUMPDEST PUSH1 0x0 PUSH2 0x395D PUSH2 0x3958 PUSH2 0x3953 DUP5 PUSH2 0x2982 JUMP JUMPDEST PUSH2 0x3938 JUMP JUMPDEST PUSH2 0x2982 JUMP JUMPDEST SWAP1 POP SWAP2 SWAP1 POP JUMP JUMPDEST PUSH1 0x0 DUP2 SWAP1 POP SWAP2 SWAP1 POP JUMP JUMPDEST PUSH2 0x3977 DUP4 PUSH2 0x3942 JUMP JUMPDEST PUSH2 0x398B PUSH2 0x3983 DUP3 PUSH2 0x3964 JUMP JUMPDEST DUP5 DUP5 SLOAD PUSH2 0x38E6 JUMP JUMPDEST DUP3 SSTORE POP POP POP POP JUMP JUMPDEST PUSH1 0x0 SWAP1 JUMP JUMPDEST PUSH2 0x39A0 PUSH2 0x3993 JUMP JUMPDEST PUSH2 0x39AB DUP2 DUP5 DUP5 PUSH2 0x396E JUMP JUMPDEST POP POP POP JUMP JUMPDEST JUMPDEST DUP2 DUP2 LT ISZERO PUSH2 0x39CF JUMPI PUSH2 0x39C4 PUSH1 0x0 DUP3 PUSH2 0x3998 JUMP JUMPDEST PUSH1 0x1 DUP2 ADD SWAP1 POP PUSH2 0x39B1 JUMP JUMPDEST POP POP JUMP JUMPDEST PUSH1 0x1F DUP3 GT ISZERO PUSH2 0x3A14 JUMPI PUSH2 0x39E5 DUP2 PUSH2 0x33D1 JUMP JUMPDEST PUSH2 0x39EE DUP5 PUSH2 0x38C9 JUMP JUMPDEST DUP2 ADD PUSH1 0x20 DUP6 LT ISZERO PUSH2 0x39FD JUMPI DUP2 SWAP1 POP JUMPDEST PUSH2 0x3A11 PUSH2 0x3A09 DUP6 PUSH2 0x38C9 JUMP JUMPDEST DUP4 ADD DUP3 PUSH2 0x39B0 JUMP JUMPDEST POP POP JUMPDEST POP POP POP JUMP JUMPDEST PUSH1 0x0 DUP3 DUP3 SHR SWAP1 POP SWAP3 SWAP2 POP POP JUMP JUMPDEST PUSH1 0x0 PUSH2 0x3A37 PUSH1 0x0 NOT DUP5 PUSH1 0x8 MUL PUSH2 0x3A19 JUMP JUMPDEST NOT DUP1 DUP4 AND SWAP2 POP POP SWAP3 SWAP2 POP POP JUMP JUMPDEST PUSH1 0x0 PUSH2 0x3A50 DUP4 DUP4 PUSH2 0x3A26 JUMP JUMPDEST SWAP2 POP DUP3 PUSH1 0x2 MUL DUP3 OR SWAP1 POP SWAP3 SWAP2 POP POP JUMP JUMPDEST PUSH2 0x3A69 DUP3 PUSH2 0x29F4 JUMP JUMPDEST PUSH8 0xFFFFFFFFFFFFFFFF DUP2 GT ISZERO PUSH2 0x3A82 JUMPI PUSH2 0x3A81 PUSH2 0x2B5B JUMP JUMPDEST JUMPDEST PUSH2 0x3A8C DUP3 SLOAD PUSH2 0x331E JUMP JUMPDEST PUSH2 0x3A97 DUP3 DUP3 DUP6 PUSH2 0x39D3 JUMP JUMPDEST PUSH1 0x0 PUSH1 0x20 SWAP1 POP PUSH1 0x1F DUP4 GT PUSH1 0x1 DUP2 EQ PUSH2 0x3ACA JUMPI PUSH1 0x0 DUP5 ISZERO PUSH2 0x3AB8 JUMPI DUP3 DUP8 ADD MLOAD SWAP1 POP JUMPDEST PUSH2 0x3AC2 DUP6 DUP3 PUSH2 0x3A44 JUMP JUMPDEST DUP7 SSTORE POP PUSH2 0x3B2A JUMP JUMPDEST PUSH1 0x1F NOT DUP5 AND PUSH2 0x3AD8 DUP7 PUSH2 0x33D1 JUMP JUMPDEST PUSH1 0x0 JUMPDEST DUP3 DUP2 LT ISZERO PUSH2 0x3B00 JUMPI DUP5 DUP10 ADD MLOAD DUP3 SSTORE PUSH1 0x1 DUP3 ADD SWAP2 POP PUSH1 0x20 DUP6 ADD SWAP5 POP PUSH1 0x20 DUP2 ADD SWAP1 POP PUSH2 0x3ADB JUMP JUMPDEST DUP7 DUP4 LT ISZERO PUSH2 0x3B1D JUMPI DUP5 DUP10 ADD MLOAD PUSH2 0x3B19 PUSH1 0x1F DUP10 AND DUP3 PUSH2 0x3A26 JUMP JUMPDEST DUP4 SSTORE POP JUMPDEST PUSH1 0x1 PUSH1 0x2 DUP9 MUL ADD DUP9 SSTORE POP POP POP JUMPDEST POP POP POP POP POP POP JUMP JUMPDEST PUSH32 0x50726F6A65637420646F6573206E6F7420657869737400000000000000000000 PUSH1 0x0 DUP3 ADD MSTORE POP JUMP JUMPDEST PUSH1 0x0 PUSH2 0x3B68 PUSH1 0x16 DUP4 PUSH2 0x29FF JUMP JUMPDEST SWAP2 POP PUSH2 0x3B73 DUP3 PUSH2 0x3B32 JUMP JUMPDEST PUSH1 0x20 DUP3 ADD SWAP1 POP SWAP2 SWAP1 POP JUMP JUMPDEST PUSH1 0x0 PUSH1 0x20 DUP3 ADD SWAP1 POP DUP2 DUP2 SUB PUSH1 0x0 DUP4 ADD MSTORE PUSH2 0x3B97 DUP2 PUSH2 0x3B5B JUMP JUMPDEST SWAP1 POP SWAP2 SWAP1 POP JUMP INVALID LOG2 PUSH5 0x6970667358 0x22 SLT KECCAK256 SWAP2 0xC4 POP DUP6 SSTORE SWAP13 PUSH11 0x61831E931D33EAD62F61A6 LOG0 SWAP15 0xB2 DIV 0xA6 PUSH16 0x4481956311F8BCB764736F6C63430008 SLT STOP CALLER "
				},
				"gasEstimates": {
					"creation": {
						"codeDepositCost": "3063200",
						"executionCost": "32645",
						"totalCost": "3095845"
					},
					"external": {
						"createProject(string,string,string,uint256,uint256,string,string)": "infinite",
						"getAllProjects()": "infinite",
						"getProjectById(uint256)": "infinite",
						"getProjectInfoByCompany(string)": "infinite",
						"getProjectsByPurchaseStatus(string)": "infinite",
						"getProjectsByStatus(string,string)": "infinite",
						"getProjectsByVerificationStatus(string)": "infinite",
						"nextProjectId()": "2539",
						"owner()": "2533",
						"projects(uint256)": "infinite",
						"updateCarbonCredits(uint256,uint256)": "infinite",
						"updateVerificationStatus(uint256,string)": "infinite"
					}
				},
				"methodIdentifiers": {
					"createProject(string,string,string,uint256,uint256,string,string)": "84144a44",
					"getAllProjects()": "80d03829",
					"getProjectById(uint256)": "bee5cdca",
					"getProjectInfoByCompany(string)": "8177dc10",
					"getProjectsByPurchaseStatus(string)": "e4b0954b",
					"getProjectsByStatus(string,string)": "57e30c15",
					"getProjectsByVerificationStatus(string)": "3d9597b6",
					"nextProjectId()": "e935b7b1",
					"owner()": "8da5cb5b",
					"projects(uint256)": "107046bd",
					"updateCarbonCredits(uint256,uint256)": "827184e1",
					"updateVerificationStatus(uint256,string)": "abbdc747"
				}
			},
			"storageLayout": {
				"storage": [
					{
						"astId": 3,
						"contract": "src/contracts/Project.sol:ProjectContract",
						"label": "owner",
						"offset": 0,
						"slot": "0",
						"type": "t_address"
					},
					{
						"astId": 6,
						"contract": "src/contracts/Project.sol:ProjectContract",
						"label": "nextProjectId",
						"offset": 0,
						"slot": "1",
						"type": "t_uint256"
					},
					{
						"astId": 31,
						"contract": "src/contracts/Project.sol:ProjectContract",
						"label": "projects",
						"offset": 0,
						"slot": "2",
						"type": "t_array(t_struct(Project)27_storage)dyn_storage"
					}
				],
				"types": {
					"t_address": {
						"encoding": "inplace",
						"label": "address",
						"numberOfBytes": "20"
					},
					"t_array(t_struct(Project)27_storage)dyn_storage": {
						"base": "t_struct(Project)27_storage",
						"encoding": "dynamic_array",
						"label": "struct ProjectContract.Project[]",
						"numberOfBytes": "32"
					},
					"t_string_storage": {
						"encoding": "bytes",
						"label": "string",
						"numberOfBytes": "32"
					},
					"t_struct(Project)27_storage": {
						"encoding": "inplace",
						"label": "struct ProjectContract.Project",
						"members": [
							{
								"astId": 8,
								"contract": "src/contracts/Project.sol:ProjectContract",
								"label": "projectId",
								"offset": 0,
								"slot": "0",
								"type": "t_uint256"
							},
							{
								"astId": 10,
								"contract": "src/contracts/Project.sol:ProjectContract",
								"label": "projectTitle",
								"offset": 0,
								"slot": "1",
								"type": "t_string_storage"
							},
							{
								"astId": 12,
								"contract": "src/contracts/Project.sol:ProjectContract",
								"label": "projectDescription",
								"offset": 0,
								"slot": "2",
								"type": "t_string_storage"
							},
							{
								"astId": 14,
								"contract": "src/contracts/Project.sol:ProjectContract",
								"label": "companyInfo",
								"offset": 0,
								"slot": "3",
								"type": "t_string_storage"
							},
							{
								"astId": 16,
								"contract": "src/contracts/Project.sol:ProjectContract",
								"label": "emissionsOffset",
								"offset": 0,
								"slot": "4",
								"type": "t_uint256"
							},
							{
								"astId": 18,
								"contract": "src/contracts/Project.sol:ProjectContract",
								"label": "creditsIssued",
								"offset": 0,
								"slot": "5",
								"type": "t_uint256"
							},
							{
								"astId": 20,
								"contract": "src/contracts/Project.sol:ProjectContract",
								"label": "financialInfo",
								"offset": 0,
								"slot": "6",
								"type": "t_string_storage"
							},
							{
								"astId": 22,
								"contract": "src/contracts/Project.sol:ProjectContract",
								"label": "projectDocumentation",
								"offset": 0,
								"slot": "7",
								"type": "t_string_storage"
							},
							{
								"astId": 24,
								"contract": "src/contracts/Project.sol:ProjectContract",
								"label": "verificationStatus",
								"offset": 0,
								"slot": "8",
								"type": "t_string_storage"
							},
							{
								"astId": 26,
								"contract": "src/contracts/Project.sol:ProjectContract",
								"label": "purchaseStatus",
								"offset": 0,
								"slot": "9",
								"type": "t_string_storage"
							}
						],
						"numberOfBytes": "320"
					},
					"t_uint256": {
						"encoding": "inplace",
						"label": "uint256",
						"numberOfBytes": "32"
					}
				}
			},
			"userdoc": {
				"kind": "user",
				"methods": {},
				"version": 1
			}
		}
	}
}